:020000041000EA
:101000005005002019100010000000009910001079
:1010100000180400000100001149124A124B00F0B0
:1010200018F8124880471249124A134B00F011F881
:101030001249134A134B00F00CF81349134A0020CD
:10104000521A02DD043A8850FCDC114880471148EE
:1010500080479B1A03DD043BC858D050FBDC704727
:101060001C3C00100C000020500100202D1100102D
:10107000603D001050050020E4070020F43F001000
:10108000E80700204821002048210020902300206C
:101090002532001011300010FEE7000000487047B4
:1010A000002D31011B4838B503681B4D1B041B0E76
:1010B0002B6015D003240268C16921400C02FF2176
:1010C00011402143154C2160C269920514D49B0242
:1010D0005918134800F0C6FC124B0001186038BDC7
:1010E000C3699B0503D4104A0E4B1A60F7E7FFF75C
:1010F000D5FF0C4B1860F2E7FFF7D0FF2968236893
:101100008902C918800100F0ADFC064B000118608F
:10111000E5E7C04600030140482100204C210020A3
:1011200000001BB7FC3F0020006CDC0208B501F09A
:1011300029FC01F081FC08BD7047C046014B1888AE
:1011400080B27047000005408023F0B547465B0140
:1011500080B498468027061C0124084D80447F00F7
:10116000301C3B6898472B881C42FCD10136FF3667
:101170004645F5D104BC9046F0BDC0460000054090
:1011800008B58223021C5B00081C1B68111C9847D1
:1011900008BDC046F0B503244746261C80B4FC2792
:1011A0000E40F600B7408B089B00C3181D69B0467F
:1011B000BD434F00BC401D61456F0426A5434567F4
:1011C00007250D40AD00AE40CC08A4000419276CE3
:1011D000B74327645678276CAE40351C3D432564E1
:1011E0000A4CA0420CD0546812788C4044604046AF
:1011F0008240161C19690E431E6104BC9046F0BD66
:1012000001258D40046EAC430466ECE70002044007
:10121000C0230421084A5362536A1942FCD1802139
:10122000064AC90513691843106113680B42FCD1C3
:10123000C322014B5A627047000001400003014085
:10124000F8B5C0230424314A5362536A1C42FCD1CE
:1012500003262F4A0D0A1468D3692404B3432B4391
:10126000D36115682B4B240E2B402B4D2B43FF25B0
:101270002940194311608021C90513680B42FCD134
:10128000844229D98021254B8600214A9C46224F41
:10129000C905B4420CD965461368A4082B403B43EA
:1012A00025022B43136013680B42FCD1B442F2D8E1
:1012B000174A1A4B116800020B4017490B43802153
:1012C00003431360C90513680B42FCD1C3220F4BC3
:1012D0005A62FFF7E7FEF8BD80210D4A0F4F0E4E10
:1012E000C905A3009842E3D9002C0AD0A5021C1C12
:1012F00013683B4033432B43136013680B42FCD10C
:10130000EFE780250424ED00F2E7C046000001402D
:101310000003014000FF0FC00000F03FFF000FC0BE
:10132000C02370B50421041C2A4A5362536A19422F
:10133000FCD1A379302B3ED0FFF7B0FE264B98426C
:1013400040D890223220254902268B5A0225834319
:10135000A07903438B5280218020214A890453695C
:1013600040040B431F4953618D625369034353612A
:101370001D4BC046013B002BFBD10B6A1E42F3D133
:101380008C23E179154AD1521549184ACB69A088B6
:1013900013400343E268A068CB610B681043144A12
:1013A0001340C32203430B600A4B5A62A078218882
:1013B000FFF746FF70BD902230230849885A034347
:1013C0008B52DDE7902240230449885A03438B5215
:1013D000B7E7C04600000140002D31010010014078
:1013E0000003014038000140C4090000FFFDFFFF79
:1013F000FFFFF0FF014B18687047C046FC3F00201C
:10140000032330B519400B4C0F280AD90F2528406B
:10141000400081408340081C226F9A43104320679C
:1014200030BD400081408340081CE26E9A43104367
:10143000E066F5E700000140802310B589004118FF
:10144000034812680C585B00234013430B5010BD37
:101450005C0B000038B50E4B041C0D1C984212D0DA
:101460000C4B984203D180208002FFF7D1FE8022EE
:10147000E36852001343E3602168074B0B40A90364
:101480001943216038BD0420FFF7C2FEEFE7C046D4
:101490000000044800400448FF3FFFFF03680A0CB7
:1014A00009049343090C1943016070470B684361B9
:1014B0004B799B06DB0F1B0543600B791B071B0F4A
:1014C00043624B791B071B0F03624B79DB06DB0F73
:1014D00083610B791B09C3627047C04610B50324B2
:1014E0004368A343194341604369012A03D0044A76
:1014F0001340436110BD8022D2001343F9E7C04678
:10150000FFFBFFFF10B50C2443688900A343194378
:1015100041604169024B12020B401A43426110BD07
:10152000FFFCFFFF4268034B09031340194341606E
:101530007047C046FFCFFFFF70B544690B4D46684A
:101540008904354029434160012A0BD0084A2240D2
:10155000002B03D1074B1340436170BD80231B0454
:101560001343F9E7802252042243F1E7FFFFF3FF20
:10157000FFFFFFFEFFFF7FFF4268034B890313401D
:10158000194341607047C046FF3FFFFF4268034B6D
:1015900009021340194341607047C046FFFCFFFF3A
:1015A0004268034B89021340194341607047C046AB
:1015B000FFF3FFFF802342685B02134343607047E1
:1015C000802310B544689B02234343604369002A8B
:1015D00008D0802292031343012907D0054A134003
:1015E000436110BD044A13400129F7D18022D20380
:1015F0001343F5E7FFFFBFFFFFFFDFFF30B53024E8
:101600000368D825A3431C1C4B781B012343134CB0
:1016100023405478240223434024A3438C78A4011C
:1016200023430F4C23409478A40223430D4C2340C2
:10163000CC78240523430C4C2340D4782406234340
:1016400003604459094B12781C400B7808491B026F
:1016500023430B4012041343435130BDFFFCFFFFF3
:10166000FFFBFFFFFFFFCFFFFFFFFFFCFFC0FFFF00
:10167000FFFFC0FFF0B503273D1C0139C9B28B0045
:10168000DBB29D4004680126AC435578C9009D40FB
:101690002C439D1CEDB2AE40B44396781033AE405F
:1016A000DBB2D5789F409D403F233443BC432C435D
:1016B000D825C9B28B40046044599C4313788B40B1
:1016C000191C21434151F0BDA82330B5C558092943
:1016D0000BD8074B8900CC58E343064C09598A4084
:1016E0002B401A43A823C25030BD0C21024BF6E711
:1016F000E8320010C0320010FFCFFFFF38B5A02342
:10170000041C0D1CDB05984212D00B4B984203D1F0
:1017100080204002FFF77CFD8022E36852001343E3
:10172000E3602168054B0B40A9031943216038BDD4
:101730000220FFF76DFDEFE700400050FF3FFFFF85
:10174000012303610B6843614B7BDB06DB0F1B0549
:1017500043600B7B1B071B0F43620B7B1B09C362A0
:101760004B7B1B071B0F03624B6883618B68836491
:101770007047C04603680A0C09049343090C1943D7
:101780000160704710B503244368A34319434160C7
:101790004369012A03D0044A1340436110BD8022EB
:1017A000D2001343F9E7C046FFFBFFFF10B50C243E
:1017B00043688900A343194341604169024B120207
:1017C0000B401A43426110BDFFFCFFFF4268034B10
:1017D00009031340194341607047C046FFCFFFFF24
:1017E00080224369C9019343194341617047C04650
:1017F00070B504AC466825780D4C8904344021430B
:1018000041604169012A0FD00A4A0A40002D07D1E0
:1018100009490A400949DB060A401343436170BD88
:10182000802109040A43F5E7802252040A43EDE7C8
:10183000FFFFF3FFFFFFFFFEFFFF7FFFFFFFFFE75D
:101840004268034B89031340194341607047C04607
:10185000FF3FFFFF4268034B0902134019434160F9
:101860007047C046FFFCFFFF4268034B89021340EC
:10187000194341607047C046FFF3FFFF8023426871
:101880005B02134343607047802310B544689B029A
:10189000234343604369002A08D080229203134304
:1018A000012907D0054A1340436110BD044A134083
:1018B0000129F7D18022D2031343F5E7FFFFBFFFD1
:1018C000FFFFDFFF30B530240368D825A3431C1C7D
:1018D0004B781B012343134C2340547824022343A9
:1018E0004024A3438C78A40123430F4C23409478D5
:1018F000A40223430D4C2340CC78240523430C4CF5
:101900002340D4782406234303604459094B1278BA
:101910001C400B7808491B0223430B40120413435D
:10192000435130BDFFFCFFFFFFFBFFFFFFFFCFFF79
:10193000FFFFFFFCFFC0FFFFFFFFC0FFF0B5032765
:101940003D1C0139C9B28B00DBB29D400468012601
:10195000AC435578C9009D402C439D1CEDB2AE4070
:10196000B44396781033AE40DBB2D5789F409D40AB
:101970003F233443BC432C43D825C9B28B40046079
:1019800044599C4313788B40191C21434151F0BDAD
:1019900041637047002901D042647047C263FCE78D
:1019A000A82330B5C55809290BD8074B8900CC5856
:1019B000E343064C09598A402B401A43A823C250DE
:1019C00030BD0C21024BF6E7103300103833001005
:1019D000FFCFFFFF4B6803658B6843650B68C364EB
:1019E0007047C04670B50C1C051C161CFFF7A4FB05
:1019F0000F21A20091402B6804348B433168A4006E
:101A000091400B432B607368635170BD70B5161C19
:101A10000C1C051C0834FFF78FFB3368A4006351CE
:101A200070BDC04610B503248B082140C9008A4010
:101A3000F9348C40111C9B00C0180369A343036157
:101A400003691943016110BD10B5032449008A40A0
:101A50008C40111C436FA3434367436F1943416795
:101A600010BDC0460422034B5A6318625962986A3B
:101A70007047C0460000034070B50D1C041C00F008
:101A80004FF8EA79002A26D0560801363602201C83
:101A9000296800F06FF8AA79531E5A00134B1343BC
:101AA00081223343E3632B795200013B1B0613432E
:101AB00063636B79002B12D12A79616B531E1B046F
:101AC0000B436363A023DB00A36301235B42E36456
:101AD0002B89236470BD902610223601D7E7626BF4
:101AE000013B1B0413436363ECE7C04601000300A2
:101AF00084235B00C258E023DB041A420BD17F220F
:101B0000836B9343DBB2802BFAD080239B01C364A9
:101B10008023C1507047C0235B00C150FAE7C04624
:101B2000902310B5DB05041E9C4213D00E4B984247
:101B300010D00E4B984211D00D4B98420ED003237B
:101B40000122E360E3681A42FCD00F22236C934326
:101B5000236410BD0820FFF75BFBF0E78020C00284
:101B6000FFF756FBEBE7C046000200480040004884
:101B700000420048F0B55F4656464D464446F0B434
:101B8000012383B0632901D9002A07D1181C03B0AF
:101B90003CBC90469946A246AB46F0BD171C0C1CB7
:101BA00001920090FFF726FC6421FFF75BFF6421A0
:101BB000061C201CFFF756FF174B4743994601238D
:101BC0004C469A469B46C846B502AD1B281C391C9C
:101BD000FFF748FF830A434506D88005800D484536
:101BE00002D281469A46A346013CAD1B002CEDD1A2
:101BF00080235A4600981B0213430361019A4169EE
:101C0000064B013A92020B4013435246013A12042A
:101C1000134343610023B9E7FF030000EF8000FC9A
:101C200070B584256D004659064C12063440445167
:101C30004659054C1B02344021430A431343435188
:101C400070BDC046FFFFFFF8C0C0FFF870B5862624
:101C500076008559074C12062C4084518459064D54
:101C60001B022540802464052C4321430A4313436F
:101C7000835170BDFFFFFFF8C0C0FFEF10B5072410
:101C80008C408A408369A3431343836110BDC046DF
:101C9000FF2238B50D1C041C0D4B01201A60FFF704
:101CA000B7FA6B69236080236A681B0213438022A2
:101CB000A350A023AA68E250EA680433E2502A69DC
:101CC000DD33FF33E2502A68C93BFF3BE25038BDA9
:101CD0000005014080238021C25809060A43C250F2
:101CE0000C4AD158C0239B02194205D08021802084
:101CF000490513580B42FCD18023074AD158C02311
:101D00009B02194205D080218020490513580B42BF
:101D1000FCD170470004034800080348A023C258C0
:101D20009C46304BF0B51A40141C1F274A792E4DA3
:101D30005207520D22430C79BA43E406E40E2243C3
:101D4000644602510259294E2A40141CCA7952078E
:101D5000520922438C793240E406E40A2243644665
:101D60000251043402591A404B7A5B075B0D13434E
:101D70000A7ABB43D206D20E1343035103598A7A1F
:101D80001D40CB7AD2065B075B092B433340D20A56
:101D90001343035180230A69C250CA683833C250C2
:101DA000CB781D07DF069C065B06DA0F4B88FF0F1A
:101DB0009B059E090B7880215B075B0F3343F82658
:101DC00076008351835909063F070B43AD0F3B4310
:101DD000AD06E40F2B4364072343191C93070B4301
:101DE0008351F0BDFFF8FFFFFFFFFFF8FFFFE0FFAB
:101DF000802210B503248358A3431943815010BD9A
:101E0000802310B50A681B0213430364BC2301241A
:101E1000C258A243C250C25809790A43C25010BDE9
:101E200030B584251E4B42590C7813403022435163
:101E3000435993431A1C23079B0F1B01134303228F
:101E400014401DD07D32134343514A68154B134350
:101E50009022520083508B68203AFF3A1343243279
:101E6000FF328350022C04D18021835849020B4356
:101E7000835084228021835889040B43835030BDD2
:101E800043514A68074B13439022520083508B689A
:101E9000203AFF3A13432432FF328350E9E7C04629
:101EA000FFFFFFFD0080808070B584250326425926
:101EB0001B4B0C78134043514359B3431A1C23075F
:101EC0009B0F134334401CD00822134343514A68EC
:101ED000144B13438022520083508B68FF3A134304
:101EE0000432FF328350022C04D1802183584902EE
:101EF0000B43835084228021835849040B43835031
:101F000070BD43514A68074B1343802252008350EF
:101F10008B68FF3A13430432FF328350EAE7C0462E
:101F2000FFFFFFFE00808080E02210B50F245200EA
:101F30008358A3431943815010BDC04670B5012496
:101F400088258C404359A343147B8C402343435141
:101F5000537B5CB2002C0CDB012921D0002917D067
:101F60001C1C002364B29C40B026231C85592B43C3
:101F70008351C8245568035980312B4303510834D9
:101F80009568035989002B43035113680B5070BDAA
:101F9000B0241F250359AB430351547B0023E1E7D1
:101FA000B024034B05592B400351547B0823D9E738
:101FB000FFE0FFFF7047C04638B5334D0120334C7A
:101FC000FFF726F9281C3249FFF762FE31483249F3
:101FD000FFF716FF201C3149FFF7A0FE201C03214C
:101FE000FFF706FF281CFFF775FE201C03212C4A73
:101FF000FFF7A4FF201C02212A4AFFF79FFF201CA5
:102000000721294AFFF79AFF284B201C1A68A023B2
:102010009B00E250264B27491A68A7239B00E250F9
:10202000254B1A68AF239B00E250FFF73DFF234B7F
:10203000201C1A6888235B00E250214A00211268A4
:10204000E250FFF771FFC42180201E4A89005358D7
:10205000C0051B021B0A0343535080231B0313605C
:10206000201C1949FFF7DCFE942204235200A158DA
:102070000B43A350154B164A1A60164B164A1A60AA
:10208000164A174B1A6038BD000003480008034881
:10209000C033001000400348B43300106033001018
:1020A0008433001074330010A4330010BC330010CC
:1020B00094330010E0330010D8330010EC330010DC
:1020C000DC33001000E100E09833001058220020BB
:1020D0001C0B034850220020000B03483C0B034814
:1020E0005C22002008B543685B68984708BDC0467D
:1020F00038B51C4D1C4C281C1C4A0421FFF74AF81B
:10210000201C1B49FFF7B8FC07220621E369201CAD
:1021100093430B43E361A36A013993430B43A362E7
:10212000236B0B319343033A134323630123FFF7DC
:1021300077FD201C002104220F23FFF787FD0F22CB
:10214000236C281C93430D3A134323640221094A4C
:10215000FFF720F8201C10210022FFF78FFD002040
:1021600038BDC04600010440000200482C34001075
:10217000343400101834001070B5057F82B002238B
:10218000002D02D0181C02B070BD02689633041CEA
:10219000D05800F08BFB002802D025770123F1E70F
:1021A0002368A068596DFFF7CBFA2368A0685988A7
:1021B000FFF7EEFB2368A0689A880021FFF7EAFB8F
:1021C00023680121DA88A068FFF7E4FB0621236871
:1021D0005A6DD278114200D07CE14421B422062607
:1021E000A068595C8558490031400636B5432943FB
:1021F000815081589D6C294381508158DD6C294361
:1022000081505021595C002903D001218558294370
:10221000815062682169116161691161196CFFF770
:10222000D9FB2368A068DA690121FFF787FB2368DF
:10223000A0681A6A0221FFF781FB236803215A6A0A
:10224000A068FFF77BFB28232268D15C131C0029C0
:1022500000D038E12A22995C002900D02CE12C2200
:10226000995C002900D022E12D22995C002900D040
:1022700018E12E22995C002900D00EE12F22995CF2
:10228000002900D0FEE03122995C002900D0EEE068
:1022900037229A5C032A00D122E1A0689A8E002A94
:1022A00008D0196A5A6AFFF70DFBA068FFF7E6FA33
:1022B0002368A0685A7C0021FFF772FB2368A0689E
:1022C0009A7C0221FFF76CFB2368A068DA7C03216B
:1022D000FFF766FB2368A0681A7D0421FFF760FB07
:1022E0002368A0685A7D0521FFF75AFB2368A06880
:1022F0009A7D0121FFF754FB2368A068DA7D08214D
:10230000FFF74EFB2368A0681A7E0921FFF748FB00
:102310002368A0685A7E0A21FFF742FB2268137ADD
:10232000002B05D0A4210123A06845582B4343501E
:10233000537A002B05D0A4210423A06845582B43D1
:102340004350937A002B05D0A4210823A068455858
:102350002B434350D37A002B05D0A4211023A0682F
:1023600045582B434350137B002B05D0A421202339
:10237000A06845582B434350537B002B05D0A42124
:102380000223A06845582B434350937B002B06D073
:10239000A4218025A0686D0043582B434350D37B74
:1023A000002B06D0A4218025A068AD0043582B4304
:1023B0004350137C002B06D0A4218025A068ED009B
:1023C00043582B4343505823D35C002B47D16823F9
:1023D000D35C002B3BD17823D35C002B2ED18823F8
:1023E000D35C002B08D08C23D0580433D15C043349
:1023F000D258FEF7CFFE22689823D3581968536D40
:102400001B7B1B071B0FD94021620121217710780C
:102410000023002800D1B5E60E1C637B65689E4052
:10242000331CE8680343EB602823D35C002B01D105
:10243000A368D960022323770023A3E68023D15C1D
:102440000433D06FD258FEF7A5FE2268C7E7702389
:10245000D06ED15C526FFEF79DFE2268BBE7602311
:10246000D06DD15C526EFEF795FE2268AFE7332047
:1024700001329A5C1B5C0093A0680323FFF7B8F954
:10248000236805E7A068FFF7A1F930232268A06858
:10249000D15CFFF7A5F92368F5E6A068FFF7D0F94E
:1024A0002368EBE6A068FFF7D5F92368E1E6A068AA
:1024B000FFF7DAF92368D7E601329A5CA068FFF7E4
:1024C00075F92368CBE62922A0689A5CFFF75AF9D0
:1024D0002368BFE6D96B6068FFF74CF923687CE698
:1024E0003922995C013A9A5CA068FFF7CDF936224F
:1024F0002368A0689A5C002A00D1CFE6F0214269E7
:1025000049030A434261C9E670B5067F0224002EE2
:1025100001D0201C70BD0368051CD86D00F0DAF9ED
:10252000002802D02E770124F3E72B68A868996C65
:10253000FEF7BCFF2B68A8685A8842639A88C2637A
:102540009A6CD278144200D038E11C1C3822B42393
:102550000626A25CC158520032400636B1430A43F7
:10256000C250C258E16B0A43C250C258216C0A43A0
:10257000C2504422A25C002A03D00122C1580A435F
:10258000C2506B682A6901211A616A691A6162691D
:10259000FFF770F82B68A8689A690221FFF76AF8BC
:1025A0002B680321DA69A868FFF764F820232A68FA
:1025B000D15C131C002900D0F9E02222995C00298B
:1025C00000D0EDE02422995C002900D0E3E0252230
:1025D000995C002900D0D9E02622995C002900D01E
:1025E000CFE02722995C002900D0C5E02822995C21
:1025F000002900D0B7E02E229A5C032A00D1E4E043
:102600002B229A5C022A48D09A79002A68D1DA797A
:10261000002A58D11A7A002A00D097E05A7A002A64
:1026200000D086E09A7A002A75D1DA7A002A64D13D
:102630001A7B002A0CD0DA7CA8680A21FFF744F83C
:10264000A4228020A968C0008B5803438B502B68BC
:102650004C229A5C002A2ED1DA6D002411689A6C03
:1026600012791207120FD140012229622A771978B4
:10267000002900D14DE7161C697B6C688E40311C27
:10268000E0680143E16020215B5C002B01D1AB6875
:10269000DA60022300242B773BE72A329A5C032A74
:1026A000B2D19969DA69A868FEF7A8FFA868FEF7B1
:1026B00081FF2B68A8E75422186D995C9A6DFEF78C
:1026C00069FD2B68C8E79A7BA8680221FEF7FCFF2A
:1026D000A4220423A968885803438B502B6899E7E8
:1026E0005A7BA8680021FEF7EFFFA4220123A96806
:1026F000885803438B502B6889E79A7CA868092186
:10270000FEF7E2FFA4228020A96880008B580343D3
:102710008B502B688CE75A7CA8680821FEF7D4FF01
:10272000A4228020A96840008B5803438B502B685B
:102730007BE71A7CA8680121FEF7C6FFA4220223CA
:10274000A968885803438B502B686BE7DA7BA8682D
:102750000321FEF7B9FFA4220823A9688858034380
:102760008B502B685AE72A2001329A5C1B5CA868C0
:10277000FEF7E2FE2B683EE7A868FEF7D3FE2B6863
:1027800034E7A868FEF7F8FE2B682AE7A868FEF78A
:10279000FDFE2B6820E7A868FEF702FF2B6816E70E
:1027A00001329A5CA868FEF7ADFE2B680AE7212289
:1027B000A8689A5CFEF792FE2B68FEE66868596B83
:1027C000FEF76CFEA8682C68C0E62D32995C013AD1
:1027D0009A5CA868FEF7F4FE2D232A68D25C2B6869
:1027E000002A00D10CE78020A96880024A690243D0
:1027F0004A6105E7F8B54F464646041CC0B48078E8
:10280000E37841B2002933DB264A8D089446C02282
:10281000AD00032665449200AF589146FF22C0B236
:102820000640F6009046B24094463A1C6746BA43CA
:1028300094469A0143461A40131C6246B340134320
:102840004A46AB5023880902194389B2FEF7D8FDE6
:102850002379002B07D01F22A37813401E3A9A40F9
:10286000131C104A136000200CBC90469946F8BD1A
:102870000F220D4D0326AC46FF25C0B20240083A98
:1028800092080640F60092006244AC46B540D76913
:10289000AF439D0163461D402B1CB3403B43D361B6
:1028A000D0E7C04600E100E000ED00E010B5437B5A
:1028B000002B0CD1041C017B8068FEF71FFF8021D8
:1028C000A2684900D3680B43D360012363730020DF
:1028D00010BDC04610B5437B002B0CD1041C017BFE
:1028E0008068FEF7B7FD8021A2684900D3680B43DA
:1028F000D36001236373002010BDC04610B5037977
:10290000002B04D10368041C984701232371002085
:1029100010BDC0460349044A044B885A03408B52F9
:102920007047C046000501405C0B0000FFFEFFFF42
:1029300010B5437A002B07D1041C017A6268006845
:10294000FFF764F801236372002010BD10B5037B0C
:10295000002B07D1041C0179A2680068FFF742F838
:1029600001232373002010BD10B5041C017B021D40
:102970000068FEF70FFC2068217B627BFFF764F89C
:10298000002010BD7047C046F8B503790225002B22
:1029900001D0281CF8BD0668041CF068FFF7AEFFE4
:1029A000051E02D000232371F3E730697169B26913
:1029B000FEF742FD736932699B00D3180122194961
:1029C000585802435A5023681A79002A05D1DE78F4
:1029D000012E0AD001232371DBE7E3681868197917
:1029E0009A68FEF7D7FB2368F1E7A768B868FFF796
:1029F00071FF002801D00125D4E77868F968FEF757
:102A000055FDBA8A7B6839695A63FA8ADA633A688B
:102A10001161797E371C8F40391CD0680143D16029
:102A2000DE60D7E75C0B00000378002B01D1013397
:102A3000037000207047C04630B585B06A46054B2C
:102A4000684632CB32C21B681360FEF769FC05B0E2
:102A500030BDC0465C390010436810B51A78002AB2
:102A600007D10268002A02D0041C90476368012243
:102A70001A70002010BDC04608B53F48FFF7D4FFCC
:102A8000002800D008BD3D48FFF776FB0028F9D1AB
:102A90003B48FFF771FB0028F4D13A48FFF734FDBB
:102AA0000028EFD13848FFF7A5FE0028EAD13748C3
:102AB000FFF75AFF0028E5D13548FFF755FF0028FA
:102AC000E0D13448FFF760FF0028DBD13248FFF740
:102AD0005BFF0028D6D13148FFF738FF0028D1D15D
:102AE0002F48FFF733FF0028CCD12E48FFF720FFF7
:102AF0000028C7D12C48FFF737FF0028C2D12B4848
:102B0000FFF732FF0028BDD12948FFF735FB002829
:102B1000B8D12848FFF730FB0028B3D12648FFF78B
:102B200023FF0028AED12548FFF71EFF0028A9D1BA
:102B30002348FFF791FF0028A4D12248FFF78CFF1C
:102B400000289FD12048FFF787FF00289AD11F480F
:102B5000FFF7C8FA002895D11D48FFF705FF0028A8
:102B600000D08FE71B48FFF707FB002800D089E75C
:102B70001948FFF73FFE85E76C210020F80500208B
:102B80009005002060060020B8380010D4380010EE
:102B9000F43800103407002094070020DC060020E1
:102BA000CC060020C0060020043900103439001083
:102BB0005C0500202C06002014390010E4380010B9
:102BC0007C3900108C3900106C3900105005002041
:102BD00024390010C4050020B0380010314B1B68A8
:102BE000DA8A012A46D005222F4B0C211A809A80BE
:102BF0002E4A5980DA8011221A8141325A812C4A98
:102C00009A810822DA8105321A822A4A5A8264227B
:102C10009A82294A294B11881980518859809188B4
:102C20009980D188D98011891981518959819189D7
:102C30009981D189D981118A1982518A5982928ABE
:102C40009A821F4A1F4B1188198051885980918898
:102C50009980D188D98011891981518959819189A7
:102C60009981D189D981118A1982518A5982928A8E
:102C70009A82704719880C4A118059885180998826
:102C80009180D988D1801989118159895181998977
:102C90009181D989D181198A1182598A51829B8A5D
:102CA0009382B6E7A8070020E8210020FC06000078
:102CB0004C1000009C190000AC070020D02100201F
:102CC000C407002000220020464B474930B5474A40
:102CD0001C8808881588844204D3281CA54200D982
:102CE0007DE080B218805C8848885588844204D38F
:102CF000281CA54200D970E080B258809C88888842
:102D00009588844204D3281CA54200D963E080B290
:102D10009880DC88C888D588844204D3281CA542C2
:102D200000D956E080B2D8801C8908891589844270
:102D300003D3281CA5424AD880B218815C894889EF
:102D40005589844203D3281CA5423ED880B25881BD
:102D50009C8988899589844203D3281CA54232D84E
:102D600080B29881DC89C889D589844203D3281C24
:102D7000A54226D880B2D8811C8A088A158A844246
:102D800003D3281CA5421AD880B218825C8A488ACC
:102D9000558A844203D3281CA5420ED880B258829B
:102DA000898A988A928A884203D3111C824202D867
:102DB00089B2998230BD011CFAE7201CEEE7201C85
:102DC000E2E7201CD6E7201CCAE7201CBEE7201C37
:102DD000B2E7201CA6E7201C99E7201C8CE7201CEA
:102DE0007FE7C046E8210020AC070020C407002090
:102DF0000422014B5A637047000003400C22324BFF
:102E00001A73324A1A80324A5A80C02252011A81F9
:102E1000304A5A811022197B521AD2B25A732E4A62
:102E20005A851A1C22325A6200221A851A62596A7D
:102E30000A80596A0020095E5961596999612749D8
:102E40005A639A6319869A852549DA811A825A82C9
:102E5000244B196018682449414389134942596039
:102E6000442122485852191C0B2016315A619A618C
:102E7000DA61DA621A635A631962196A08801A649D
:102E80009A871B6A00229B5E194A5910D3635164CA
:102E900018498C46184963445B10CB6363465363FF
:102EA000A0228821D205136949000B431361134AFC
:102EB000937BDBB2002B03D1538153601381537397
:102EC0000F4B9B8AD38670474C2300208F4E000007
:102ED000EAB1FFFF00F8FFFF384A0000A8670000D2
:102EE000920F0000B4220020CC3C0000DA45000024
:102EF00000020050C305000000030050182200200B
:102F0000C03B0010C4228021234B520010B51A8010
:102F1000224AC90159809A80214AD98019815A814F
:102F2000204A214C9A8149229A83204AD9831A84C3
:102F30001F4A59849984DA841E4A1F481A85002240
:102F40001A615A619A61DA621A635A639A63DA63A0
:102F50001A649A645A64DA64184B1C805980988009
:102F60001748D98019815881164898819C83164C3E
:102F7000D9831C84598499841449D98418851A6189
:102F80005A619A61DA621A635A639A63DA631A645D
:102F90009A645A64DA6410BDFC220020B384FFFFF7
:102FA0002082FFFFFD3D0000083C00002899FFFF44
:102FB000F584FFFF273B00000684FFFF642200200A
:102FC000B58BFFFF10380000C785FFFF5B8DFFFF4B
:102FD0007047C046012000210B4B10B51C68002231
:102FE000636A5B0803408B4206D00022191C636AA7
:102FF0005B0803408B42F8D1013292B2632AF5D9C3
:103000003223024AD15410BD243900101822002066
:10301000F0B547465F4C604A604B80B41A80FFF7BA
:103020002BFD22695E4B5F4D134023612A695E4B85
:10303000802013402B61C0239B04636080231B0509
:1030400063604000FEF7E4F8A426FFF7D1FEFFF727
:10305000C5FDFFF739FE554B0421986898461023AB
:103060008259134383510222FEF79AFC0423504FE6
:103070000221B8688259134383510322FEF790FC62
:10308000FEF79AFF201C0A219022FEF7CBFC80233A
:10309000DB046360281C07219822FEF7C3FC802311
:1030A0001B046B60434E444B33803388013B9BB21F
:1030B0003380002BF9D1414D3F4B2B802C88013CB4
:1030C000A4B22C80002CF9D1FFF784FF3C4B9C73F9
:1030D000FFF794FEFFF716FF374B33803388013B31
:1030E0009BB23380002BF9D1334B2B802B88013BD3
:1030F0009BB22B80002BF9D101331D1C314A517B2F
:1031000054688D40291CE06892680143E160D360F7
:1031100042461C1C5068527BC1689440221C0A43E2
:10312000C26042461C1C92681D1CD3607A7B786882
:103130009440221CC1680A43C260BA68D360224A24
:10314000517B54688D40291CE06892680143E1601E
:10315000D3601E4A80215364A022D205136949011D
:103160000C4C0B431361201C0D218022FEF75AFCEE
:1031700080239B0563600120FFF72AFF00F098F889
:1031800000F08EF800F07CF800F082F800F070F8A3
:10319000F4E7C046000004407E070000CE21002076
:1031A000FFFF83FF00010440FFFFFF83F8050020BD
:1031B000900500208E23002050C3FFFF8C230020A9
:1031C0001822002060060020C405002000040050E2
:1031D000F0B54F46464605042D0C2C1CC0B4170410
:1031E000160C3F0C9946030C7C4375435F437343B5
:1031F0007D19260CAD199C46AF4203D980235B0292
:103200009846C4444B465143434324042E0C240C9B
:103210002D0466442C1959188919201C0CBC9046A1
:103220009946F0BD0E4B70B500251E1C0D4CE41ADE
:10323000A410A54204D0AB00F35898470135F8E735
:10324000FEF7B8FE084B00251E1C084CE41AA4101B
:10325000A54204D0AB00F35898470135F8E770BD9C
:10326000E4070020E4070020E4070020E407002032
:1032700001B40248844601BC604700BF65200020BD
:1032800001B40248844601BC604700BFD909002050
:1032900001B40248844601BC604700BFE907002032
:1032A00001B40248844601BC604700BF551E00209F
:1032B00001B40248844601BC604700BF9D1D002048
:1032C00000000000000000000200000002000000FA
:1032D0000C0000000C0000000C0000000C000000BE
:1032E000080000000A0000000300000003000000C6
:1032F0000C0000000C000000003000000030000056
:10330000003000000030000000030000000C00004E
:1033100003000000030000000C0000000C0000008F
:1033200030000000300000000030000000300000DD
:1033300000030000000C000000000000000000007E
:103340000200000002000000040000000400000071
:103350000C0000000C000000080000000A00000043
:103360000000000000000000000500000000000058
:103370000000000000000F0000000000000000003E
:1033800001FF00000000000000000000000000003D
:1033900001FF0000000000000400000000490000E0
:1033A0000400000000000700000000000000000012
:1033B00001FF000000080000000000000000000005
:1033C00000000000010000000000000000000000FC
:1033D00000000000080000000000000023000000C2
:1033E0000D0000000048000004000000E70000009D
:1033F00034340010F1200010000000000000000034
:103400000000000000000000000000002034001058
:1034100000020204040000009C0000000100000003
:1034200000010440020000001834001000000000F9
:1034300001000000004B000008080110000000001F
:10344000000001000D0000000C0A00000000000058
:103450000000010000000100000002000200020064
:10346000010000000000000000000000000000005B
:103470000000000024370010103700104034001006
:10348000000100000000010000000000000000003A
:103490000100000000000020303700100100000093
:1034A0000000000000000000000000004036001096
:1034B000000000000000000000000000000000000C
:1034C00000000000000000000000000000000000FC
:1034D00001000000000004400D000000F43700105F
:1034E00000000000000000000000000000000000DC
:1034F000880600200100BF039502DF0100000000E4
:1035000000000000000000000000000000000000BB
:10351000103800100C370010383800100000000080
:10352000000000000000000000000000010000009A
:10353000000000101438001001000000000000001E
:1035400000000000000000005036001000000000E5
:10355000000000000000000000000000000000006B
:10356000000000000000000000000000010000005A
:10357000000004400A00000028370010000000008E
:10358000000000000000000000000000980600207D
:10359000180201000100DF014A01EF0000000000F5
:1035A000000000000000000000000000000000001B
:1035B000FC3700105434001050340010000000009C
:1035C00000000000000000000000000001000000FA
:1035D0000000002034360010010000000000000050
:1035E0000000000000000000143700100000000080
:1035F00000000000000000000000000001000000CA
:103600000001044007000000FC360010000000002C
:1036100000000000000000000000000000000000AA
:1036200000000000000000000000000098060020DC
:103630000000010000000000000000000000000089
:10364000000000000000000000100000000000006A
:10365000000000000000000000000000000000006A
:1036600000005408D5052A040000000000000000F6
:1036700000000000000000000000000030360010D4
:1036800000380010F03700100000000000000000BB
:10369000000000000000010301000000000000081D
:1036A0004434001001000000000000000000000091
:1036B00000000000DC3700100100000000000440A2
:1036C0000200000004370010010000000001044067
:1036D000030000002038001000000000000000007F
:1036E00000000000000000000000000000000000DA
:1036F000000000000000000088060020A00000007C
:10370000000001009C00000000000100000001001A
:1037100000000100000000000000000000000000A8
:10372000000000000E020100A000000000000100E7
:103730000000000000000000000000000000010088
:1037400000005408150229040000000000000000D9
:103750000000000000000000000000009035001094
:103760003C370010EC3700100101000000000000A1
:103770000000000000000000010000000000001038
:1037800004380010010000000000000000000000EC
:1037900000000000283800100000000000000000B9
:1037A0000000000000000000000000000000000019
:1037B0000000000000000000000000000000000009
:1037C00000000000000000000000000000000000F9
:1037D000000000000000000088060020000000003B
:1037E00000000000000000000000000000000100D8
:1037F000170000009400000000000100000001001C
:1038000000000100000000000000000000000000B7
:1038100000000100000000000000000000000000A7
:103820009400000000000100000000000000000003
:103830000000000000000000000001000000000087
:10384000000000000000FF4A802501000000000089
:103850000000000000000000A4380010A83800108C
:10386000AC38001000000000000000000000000064
:103870000000000100000000000000100100000036
:103880000000000000000000000000003C380010B4
:103890000000000000000000000000000000000028
:1038A000A806002000000100000001000000010047
:1038B00002000102010000000200000301000000FC
:1038C00004A000000000000006000000000000004E
:1038D000060000000000044080000000000001001D
:1038E0000B00000000010440800000000000010007
:1038F000050000000002044000000000000000007D
:1039000004000000000004408000000000000100EE
:1039100009000000000004408000000000000100D9
:103920000C00000000010440040000000000000042
:1039300001000000000004408000000000000100C1
:103940000800000088000000000001001A000000CC
:1039500090000000000001001200000000000100C3
:103960000000300300000100000000000000000023
:1039700070210020000204400A0000000000000046
:103980007221002000020440050000000000000039
:1039900071210020000204400B000000A609002055
:1039A000160800201608002016080020160800201F
:1039B000160800201608002016080020160800200F
:1039C00016080020160800201608002016080020FF
:1039D00016080020160800201608002016080020EF
:1039E00016080020160800201608002016080020DF
:1039F00016080020160800201608002016080020CF
:103A000016080020160800201608002016080020BE
:103A100016080020160800201608002016080020AE
:103A2000160800201608002016080020160800209E
:103A3000160800201608002016080020160800208E
:103A4000160800201608002016080020160800207E
:103A500016080020880900202E09002010090020E7
:103A60006A0900204C090020F208002016080020F6
:103A7000160800201608002016080020160800204E
:103A800016080020D4080020B6080020980800205E
:103A90007A0800205C080020160800201608002084
:103AA000160800201608002016080020160800201E
:103AB000160800201608002016080020160800200E
:103AC00016080020160800201608002016080020FE
:103AD00016080020160800201608002016080020EE
:103AE00016080020160800201608002016080020DE
:103AF00016080020160800201608002016080020CE
:103B000016080020160800201608002016080020BD
:103B100016080020160800201608002016080020AD
:103B2000160800201608002016080020160800209D
:103B3000160800201608002016080020160800208D
:103B4000160800201608002016080020160800207D
:103B5000160800201608002016080020160800206D
:103B6000160800201608002016080020160800205D
:103B7000160800201608002016080020160800204D
:103B80001608002054080020BE0A0020100A002059
:103B9000020B0020360B00206C0B0020A00B002035
:103BA000D60B00200A0C0020400C0020740C0020D2
:103BB000AA0C0020DE0C0020540A0020820A0020FB
:103BC00005000C000500FC06110052004C10080016
:103BD0000D009C1964000000181C0020EA1B002046
:103BE000C01B002076190020241B0020761900201D
:103BF0007619002076190020E01A0020761900209E
:103C000076190020761900207619002076190020F8
:0C3C10007619002076190020BC1A002054
:103C1C002C480047000000000000000000000000DD
:103C2C000000000000000000000000000000000088
:103C3C002548004700000000000000002348004712
:103C4C0023480047234800472348004723480047A0
:103C5C002348004723480047234800472348004790
:103C6C002348004723480047234800472348004780
:103C7C002348004723480047234800472348004770
:103C8C002348004723480047234800472348004760
:103C9C002348004723480047234800472348004750
:103CAC002348004723480047234800472348004740
:103CBC002348004723480047234800472348004730
:103CCC00234800479910001099100010991000100B
:103CDC0099100010CD1400207513002099100010BD
:103CEC0099100010991000109910001099100010E4
:103CFC0099100010991000109910001099100010D4
:103D0C0099100010991000109910001099100010C3
:103D1C0099100010991000109910001099100010B3
:103D2C00290D002099100010991000109910001006
:103D3C009910001099100010991000109910001093
:103D4C009910001099100010991000109910001083
:043D5C0099100010AA
:103D600000020048F033001050210020F43400100D
:103D7000004000500043005001020000000100001C
:103D8000000200000004000000000000000000002D
:103D90002A0C000092130000000000000000000048
:103DA00040370010000000500003005000020000E7
:103DB00000010000000200000004000000000000FC
:103DC000000000004D1D00008F13000000000000E7
:103DD00000000000583400100000005000040050A3
:103DE0000003000000100000002000000040000060
:103DF0000000000000000000050D0000050D00009F
:103E000000000000000000006036001000000050BC
:103E1000000200500001000010000000200000001F
:103E2000400000000000000000000000B80B00008F
:103E30008A1300000000000000000000943500100C
:103E4000004000500044005001030000001000003A
:103E50000020000000400000000000000000000002
:103E6000350C00009C130000000000000000000062
:103E70004438001000000448000304480002000019
:103E8000000100000002000000040000000000002B
:103E9000000000008813000000D8B80500010000F1
:103EA000000000500000000000D8B805000200002B
:103EB000004000500000000000D8B80501000000DC
:103EC0000000044800000000152900100000000058
:103ED00030060140C03800100000000030060140EC
:103EE00001000000CC380010000000003006014046
:103EF00003000000C4380010000000000040000073
:103F000000080000000000010100C812FB130000BF
:103F1000B806002000050140030000004C390010E5
:103F200000400000000800000000044800010448B0
:103F3000A8060020EC060020010000003F0113004D
:103F400000000000F4060020000000001807002018
:103F50005007002000000440070000005039001006
:103F60000001044000000000443900100000044833
:103F700000020448A80600201007002010000000DE
:103F80003F012C010001000000000001010032018E
:103F9000FB130000B80600200005014000000000EF
:103FA0005839001078070020000000005C0700204E
:103FB00044070020FF0000000090001003000600EE
:103FC00003000000000000000000000000000000EE
:103FD0006400000019001E0014006419581B581BCF
:103FE000983A581B581BC05DEC2C00006400C800B8
:043FF000710B000051
:103FF400714B10B51A688A235B00D3585B025B0EC1
:1040040011D08E236D495B00D2580B7890B2FF2BF0
:104014000AD0022B0DD96A4B1A78824214D0FF229F
:104024000A7000221A7010BD5528FCD100230B70B1
:10403400F9E76448D2B2C018614CC27020780133E9
:10404400121822700B70EEE75E48C278063AD2B2BC
:104054007A2AE4D85C4C9200A258974600205B4A26
:104064001070DCE75A4A5B4C8088928AA48A90429A
:1040740004D3221C844200D9021C92B25648828284
:10408400CDE7534A534C8088528A648A904204D3C1
:10409400221C844200D9021C92B24F484282BEE7DD
:1040A4004B4A4C4C8088128A248A904204D3221CA6
:1040B400844200D9021C92B247480282AFE7444AC4
:1040C400444C8088D289E489904204D3221C8442DF
:1040D40000D9021C92B24048C281A0E73C4A3D4C40
:1040E40080889289A489904204D3221C844200D9F6
:1040F400021C92B23848828191E7354A354C808857
:1041040052896489904204D3221C844200D9021C3F
:1041140092B23148428182E72D4A2E4C808892889F
:10412400A488904204D3221C844200D9021C92B277
:104134002948828073E7264A264C808852886488FE
:10414400904204D3221C844200D9021C92B2224819
:10415400428064E71E4A1F4C808812892489904259
:1041640004D3221C844200D9021C92B21A48028150
:1041740055E7174A174C8088D288E488904204D3C4
:10418400221C844200D9021C92B21348C28046E722
:104194000F4A104C808812882488904204D3221C31
:1041A400844200D9021C92B20B48028037E70120F6
:1041B4000A4A108633E7C04650050020A4070020B1
:1041C40080210020782100209C390010DC07002089
:1041D400D021002000220020E82100201822002005
:1041E400F0B5CC49CC4A0B88106887B09B08834251
:1041F40032D00B88C94C9B0813608A2320685B006B
:10420400C3585B005B0E27D1C54D2B780D2B23D8EB
:10421400C44A9B00D3589F466B469E1CC24B5521F3
:104224005B88338001F074FB2068352101F070FB5A
:1042340037782068B9B201F06BFB717820687F1879
:1042440089B2FFB201F064FB20683537F9B201F09E
:104254005FFB2B7801332B7007B0F0BD552101F0C3
:1042640057FB2068262101F053FB2068052101F04B
:104274004FFB2068002101F04BFB20682B2101F04B
:1042840047FB2B7801332B70E6E71626A74B6E44C9
:104294001B785521338001F03BFB2068042101F099
:1042A40037FB35782068A9B201F032FB71782068B9
:1042B4006D18EDB289B2043501F02AFB2068E9B229
:1042C40001F026FBC8E76A46974B55211B881380EB
:1042D40001F01EFB2068342101F01AFB6B461E78A6
:1042E4002068B1B201F014FB6B4659782068761847
:1042F400F6B289B2343601F00BFB2068F1B201F05A
:1043040007FB2B7801332B70A6E7874B01AE9B8804
:104314005521338001F0FCFA2068362101F0F8FAC7
:1043240037782068B9B201F0F3FA717820687F1801
:10433400FFB289B201F0ECFA3637206886E76B46A3
:104344009E1D794B5521DB88338001F0E1FA20680A
:10435400372101F0DDFA37782068B9B201F0D8FAD4
:10436400717820687F18FFB289B201F0D1FA37372B
:1043740020686BE76C4B02AE1B895521338001F03A
:10438400C7FA2068382101F0C3FA37782068B9B237
:1043940001F0BEFA717820687F18FFB289B201F08B
:1043A400B7FA3837206851E70A265F4B6E445B89B9
:1043B4005521338001F0ACFA2068392101F0A8FAC4
:1043C40037782068B9B201F0A3FA717820687F18B1
:1043D400FFB289B201F09CFA3937206836E7524BB4
:1043E40003AE9B895521338001F092FA2068402165
:1043F40001F08EFA37782068B9B201F089FA717841
:1044040020687F18FFB289B201F082FA4037206831
:104414001CE70E26444B6E44DB895521338001F0A2
:1044240077FA2068412101F073FA37782068B9B22D
:1044340001F06EFA717820687F18FFB289B201F03A
:1044440067FA4137206801E7374B04AE1B8A5521D0
:10445400338001F05DFA2068422101F059FA37787F
:104464002068B9B201F054FA717820687F18FFB25D
:1044740089B201F04DFA42372068E7E612262A4B4A
:104484006E445B8A5521338001F042FA206843214F
:1044940001F03EFA37782068B9B201F039FA717840
:1044A40020687F18FFB289B201F032FA43372068DE
:1044B400CCE61D4B05AE9B8A5521338001F028FACA
:1044C4002068442101F024FA37782068B9B201F059
:1044D4001FFA717820687F18FFB289B201F018FAC8
:1044E40044372068B2E6552101F012FA20682521EC
:1044F40001F00EFA2068002101F00AFA2068012177
:1045040001F006FA2068262101F002FA2B78013323
:104514002B70A1E6B021002074210020500500205A
:10452400DC070020883B0010E821002081210020C6
:104534008022F0B55F4656464D464446C74B92012D
:10454400F0B45A60C64BC74A1B681B68DB009BB2B9
:104554001380C54B1B681B681B051B0DD3833223BB
:10456400D35C002B00D005E113885189BF4C5B1A42
:104574009BB213822378002B00D117E1138ABC4924
:104584001BB24B439B139BB25380BA4B9A461B7886
:10459400002B00D158E1D18BB74B994200D8F6E0FB
:1045A400B64BB7495962586AC103091AC91359620B
:1045B4003221515C002903D1586AB249091A59625F
:1045C400988F518809B2411AD962D86A196841434F
:1045D40059611E6B59685869714309185961986982
:1045E400596941185961186AA7490026805F8842B1
:1045F40000DDE0E0186AA5490025405F884200DA42
:10460400D9E0596A186A0088411889B21985198D48
:104614009B4809B2814200DC18E11885198D9C4839
:1046240009B24E10C163466496489A4E84469A482D
:1046340061444910C163A020C0050169314301618F
:1046440059699961D96A19635188944809B28142B8
:1046540004DA51460978002900D01EE2518809B2D3
:10466400002900DA32E251888D4809B2814200DC27
:1046740040E1C221890019608A491E688A48704352
:10468400801340425860D08BB22800D9D7E08748C5
:104694000688002E00D137E1854E0F890137BFB25D
:1046A4000F814F78002F30D00F89822F0ED9814F80
:1046B4004F813227D75D002F08D020257E4F3D70D3
:1046C400D3257E4F3D807E4FBF8AD786002755462F
:1046D4002F70DF62DD6A1D635F615F699F61322352
:1046E400D35C002B00D03AE1694B764F764DDF6303
:1046F400764F5F64684FFD63624F88255F63A02730
:10470400FF053B696D002B433B61D38B622B16D9AC
:104714000B78002B52D14B79002B4FD16C4B1B786B
:10472400002B03D08B89012B00D85BE18B79DBB2A2
:10473400002B00D1F5E08B79013BDBB28B71038850
:10474400002B01D0013B03803388002B01D0013BB7
:1047540033804B89002B03D04B89013B9BB24B81A7
:1047640080223E4B92055A603CBC90469946A24634
:10477400AB46F0BD3D4C2378002B0FD15548138830
:104784008446518963445B1A9BB21382F6E6D18B4B
:10479400514B5943394BC913596204E74F481388A5
:1047A4008446518963445B1A9BB21382138A5B4229
:1047B4009BB21382E2E6186A018022E7484B1B6829
:1047C4005B6ADB0600D5BEE06378464F002B00D160
:1047D40098E101233B70002363703B78012B1CD9C3
:1047E4006378DBB2002B00D174E1012323703133F1
:1047F400D35C002B00D073E13B4B88259B686D0094
:104804009C469B6C2B436546AB64384B384D1B6808
:104814001D6200233B700133CB703388002B00D022
:104824007CE7CB78002B00D178E74B78002B00D0C5
:10483400FDE04B79002B00D0F9E0254B2AE1002361
:104844001A480B811A4E60E70C4BFDE6198D09B22C
:104854000A2900DDE2E60B211985DFE600000440A9
:104864005822002018220020502200208C210020F1
:1048740099790000C2210020C30C0000B42200205A
:10488400AD050000C3050000D60200002AFDFFFFAD
:1048940000020050101100000003005060EFFFFF01
:1048A400D35300009C210020CC3C00009221002026
:1048B40082210020280A000081210020AC21002050
:1048C400C03B00106B05000097050000B502000016
:1048D400C821002076FDFFFFC53900008A020000D0
:1048E400F438001097210020F8050020C0060020AD
:1048F4000420000051888A4809B241438948C913F9
:10490400411A19608849B8E64F78FDB2AB46002DCC
:1049140037D0864ED78B402F00D9BEE601270F70C3
:10492400BBE62025824A17783D4200D107E70127DC
:104934004F718B711778AF4317702278D2B26270BF
:104944007C4A1370FBE663787A4F002B00D1D6E0E3
:104954003B780133DBB23B70012363703DE70B27E7
:10496400754B764DDF63063F5F64754FFD63754F8E
:10497400D83D5F63A027FF053B69FF3D2B433B61A7
:10498400C3E6714F3D69A846704DAC464546664640
:1049940035403D616E4DA8462D69A9466D4DAC4626
:1049A4004D4666463540AC46454666462E61C025B2
:1049B400AD047D6012255D4E358001254D705C4D42
:1049C400A8462D78AC462025A94665464F46BD43EA
:1049D400AC46454667462F705D468D712778FFB219
:1049E400677097E78B8901339BB28B818B89022B8C
:1049F40000D09BE64E4B1B78002B13D10C22564B58
:104A04001B781A420ED09C274F4A3F0413693B433C
:104A1400942713614E4A3F0613693B4313610123F4
:104A2400524613708B8901339BB28B817EE64A4BCD
:104A34001F78BD0604D52778002F01D104371F70D5
:104A44003B4F3F78002F20D10C251F783D421CD0CE
:104A54003227D25D002A0AD0404A1788D72F5AD06D
:104A64001B785B0703D5138801339BB2138023782B
:104A7400002B4CD03A4A344B5A600122394B1A70FD
:104A840000228A811232028000E0364B00224A70F2
:104A94000A704A710022CA7041E62B492B480E69FC
:104AA40030402B4E086137692A4838403061C020B5
:104AB400800448600021504601701D48203106786A
:104AC40031430170172018498871D6E515491960DA
:104AD4001549D2E523703223D35C002B00D08BE63A
:104AE400214B9B689C469B6C984645461F4B2B402C
:104AF4006546AB641E4B1F4D1B681D6289E601238E
:104B04003B7029E73B780133DBB23B7063E61A4A1A
:104B14000D4B5A60B1E7CF3F1F70DA231380A6E72D
:104B240025130000920F00009C2100208221002008
:104B3400962100209721002000020050E702000087
:104B440000030050C305000000000440FFFF83FF82
:104B540000010440FFFFFF8381210020AC210020DD
:104B640000010002C8210020F8050020CFFCFFFF4F
:104B7400C00600200480000000020001802238B535
:104B84004B4B52014B4C5A60637B002B09D0238959
:104B9400FF2B00D962E0B023E28BFF339A4200D8A6
:104BA40079E03223E35C002B45D1434A636A128DDA
:104BB400424D53432B642A6CE08B002380B20021C6
:104BC40000F0BEFE4903C00C084380B23C4BA887EA
:104BD4001B78002B07D0AB8F3A4AA98F53435B1540
:104BE400CB189BB2AB874423A98FEA5A91423FD892
:104BF400AB8F9BB2002B00D1AB87334B6288598AB1
:104C040012B28A421DDA6288D98812B28A4233DB30
:104C14006288998912B28A4237DB2C4A6188956886
:104C2400D8891A8A09B24A431B88D213821A1B02F2
:104C34001A432A650DE0636AE28E204D53432B64C8
:104C4400B9E71988214A090290689A880B1C134312
:104C540003658022164B52055A6038BD63685B09B0
:104C64009BB2638101235B4223810023637398E732
:104C7400EB5A9BB2AB87C0E71988144A09029068C3
:104C84005A880B1C13430365E3E7104A618895684F
:104C940018895A89C6E70E4B1B681B6862685B0457
:104CA4005B0C9B186360238901339BB2238178E7F3
:104CB40000000440182200204C230020B4220020CD
:104CC4008C210020B3510000E8210020F8050020C9
:104CD40058220020F8B546464F46C24BC0B41B6864
:104CE400C14D1B68C14EDB009BB26B823378DBB2D3
:104CF400072B0BD8012291469A40131C55221A42C5
:104D040000D0A5E055321A4200D0A7E1B84C3223B6
:104D1400EB5C002B56D10C2223781A4226D06A8AE7
:104D2400B44B9A4200D825E10122B3490B781340D1
:104D340000D01FE1B14802780132D2B20270027889
:104D4400002A13D001220E783243D2B20A70AC4941
:104D5400AC4A0E6932400A61AB49AC4A0E69324032
:104D64000A61AB4A1370AB4A137003706A8AAA4B88
:104D74009A421BD823781B0718D5A14BA14A19695D
:104D84000A40A1491A610869A04A02400A61C02286
:104D940092045A6000229E490A709E490A7080213A
:104DA4000905596022709D4B9D4A1A802378082B6F
:104DB40042D09C4A138801339BB213800CBC9046AA
:104DC4009946F8BD2378AA691B0724D0964B9A42CA
:104DD40003DDAA69954B9A42EBDD894B894A19692F
:104DE4000A4089491A610869884A02400A61C02256
:104DF40092045A600023864A7F491370854A1370CF
:104E0400102222700878303202430A708449834A9F
:104E140011802B77CDE7864B9A42CADDAA69854B70
:104E24009A42C6DC2378002BC3D1734B1B78002B2A
:104E3400BFD101332B77BCE77F4B1A88698A002ADC
:104E440000D0AFE17D4A9142B3D801221A80B0E785
:104E54007B4CEB8B2288DB0012B25343794A9B13C1
:104E64001360606990466289C11712B2D31700F0CB
:104E740067FD8904800B08432064A069A289C117D7
:104E840012B2D31700F05CFD43468904800B08433B
:104E940060641A68236C616CD31A5B1A236163889B
:104EA40021699C46A388674698463FB24F434146D2
:104EB400BC466069E38809B2A26941431BB253430B
:104EC4006144CB189B13A3636369A3612369636182
:104ED400206BE28CC11712B2D31700F031FD8904A4
:104EE400800B0843A064606B228DC11712B2D317E4
:104EF40000F026FD8904800B0843E064A38BA26BB9
:104F04001BB253439B13E362A26CE36A9B1AE362F2
:104F1400E26CE36A9B1AE362E38BE16A9C46238CAE
:104F2400674698463FB24F434146BC46206B638C6C
:104F340009B2626B41431BB253436144CB18E36330
:104F4400E36B002B00DC83E1E36B1B0C6B846A8C4A
:104F54003D4B9A4201D801336B84236B6363E36A4C
:104F640023633378042B00D178E133780133DBB247
:104F74003370CBE6354B698A9A8D914200D306E1B2
:104F840001201D490A78104200D100E1304E3278E8
:104F94000132D2B232703278002A00D1E6E6002221
:104FA4003C27DA811A825A821A851A629A61DA6176
:104FB400D855284BDA621A635A619A611B6A002237
:104FC4009B5E254AD3635B105364A0221023D20551
:104FD40017693B431361002333700B7883430B70D1
:104FE400C4E6C0465C22002018220020AE21002026
:104FF400812100206C74000096210020882100206B
:1050040000000440FFFF83FF00010440FFFFFF8313
:10501400C8210020C2210020974C0000DE07002098
:1050240026020000B02100205B590000E472000059
:1050340092630000AD68000094210020E95B000049
:10504400FC220020B8210020970400004C230020FB
:1050540090210020B422002000020050C34C698A31
:10506400228813B24B43C24A9B1313606069904673
:105074006289C11712B2D31700F062FC8904800B55
:1050840008432064A069A289C11712B2D31700F0A3
:1050940057FC43468904800B084360641A68236CF8
:1050A400616CD31A5B1A2361638821699C46A388C7
:1050B400674698463FB24F434146BC466069E38821
:1050C40009B2A26941431BB253436144CB189B13F9
:1050D400A3636369A36123696361206BE28CC117D5
:1050E40012B2D31700F02CFC8904800B0843A0648F
:1050F400606B228DC11712B2D31700F021FC890412
:10510400800B0843E064A38BA26B1BB253439B1335
:10511400E362A26CE36A9B1AE362E26CE36A9B1AA1
:10512400E362E38BE16A9C46238C674698463FB270
:105134004F434146BC46206B638C09B2626B4143CA
:105144001BB253436144CB18E363E36B002B01DCD4
:105154004B46E363E36B874A9B13AB61236B636347
:10516400E36A23631378002B04D03223E95CC9B2C9
:1051740000291FD03378804C012B00D199E033787B
:10518400072B68D033780133DBB23370BFE50023DB
:105194007A4A13707A4A13706A8A7A4B9A4200D90F
:1051A40004E6E7E5784A928D914200D801E60022B0
:1051B4001A80FEE5744B988DAC69001B80B2D881CF
:1051C4003C201C5C002C03D0DC89A4B21C82195442
:1051D4001988D8890CB201B2614359635988188A75
:1051E40009B200B241435C6B091959631989986982
:1051F40009B2414399635989DC6909B26143986BE7
:1052040009189963596B986B5C7B0918A140196262
:10521400586A598D0024005F09B2884200DD3CE1E0
:10522400596A0020095E002902DC0020596A0880BE
:10523400596A098819859969D961596A0020095EF2
:105244009961198A89B25982D98989B2198291E7F7
:105254004B46E36378E60023337058E56A8C4B4B86
:105264009A4201D801336B846A8C6B8C484953434E
:10527400484A1360484B196212685A62EB8B472BF9
:1052840000D9F8E0454A13780133DBB21370137880
:10529400022B06D9424B1978002902D0002119703B
:1052A40011703D4A136B002BFCD13B4B9B6A6B6224
:1052B4005BE62378DBB2102B00D960E739499B0009
:1052C400CB589F46384B3949186901403848196111
:1052D4000769384939400161C021890459600023B4
:1052E4001370354A13704AE73223EB5C002B00D16C
:1052F40045E7B023EA8BFF339A4200D93FE72F4AB0
:10530400EB8E928A934200D139E7EB8E9A4200D811
:10531400EDE02B4BE88E9B8A59084318934200DB3F
:105324001BE1EB8ECB189BB2EB8628E73223EB5CB8
:10533400002B00D023E723490B78002B00D01EE775
:10534400114B988D1A8E904200D3DBE01A8E988D03
:105354009209821892B29A85988D1A8E904202D937
:105364001A8E92B29A8504230B7008E764220020F7
:10537400C4210020C8210020812100208821002090
:1053840090210020974C00004C230020970400003B
:10539400FFFFFF7F8421002000000340B221002092
:1053A40098210020D83B001000000440FFFF83FF39
:1053B40000010440FFFFFF83C2210020E8210020F8
:1053C400C03B0010C0210020664B1988BD2971D94B
:1053D4001A88BE2A00D19EE01A88D22A00D1B3E0EE
:1053E4001A88D32A00D1ACE01A88013292B21A800A
:1053F400C5E65D4B5D49186901405D48196107695F
:105404005C4939400161C021890459608021090542
:10541400596000231370584A1370524A1380AEE641
:10542400514B524918690140514819610769514962
:1054340039400161C02189045960802109055960FE
:10544400002313704C4A137000F072FA3223EB5CA1
:105454004A4A002B25D11388002B00D08FE6A86977
:105464004749884200DC8AE60121217045491180C0
:105474003C4A138083E6EA8B434B9A4209D9434B57
:105484001A78002A05D101321A70414B95321A70EC
:1054940007E700223F4B1A7003E7596A588D0880CA
:1054A400C6E61388002B00D069E6297F002900D1C5
:1054B40065E6D9E72C492D480F69384008612C4826
:1054C40080460069844667462A4838404746386122
:1054D400C0208004486080200005486000211170CD
:1054E400254A11701A88013292B21A8047E62A4B73
:1054F400EA8E9B8A9A4203D9EA8E5B08D31A9BB23E
:10550400EB863CE61A8E92B29A850823DA2223703F
:10551400144B1A8033E62A89002A02D1AA7B002A76
:105524001DD029891D4A914200D028E680210E4AC7
:10553400090151601A88013292B21A8000236B73F8
:105544001DE6202323701AE66A8A154992B28A85D9
:105554001A88013292B21A8011E6EA860FE6012314
:105564006B730CE6AC21002000000440FFFF83FFB6
:1055740000010440FFFFFF83C2210020DE0700205A
:10558400C539000026020000A3060000982100206F
:10559400B6210020B2210020C03B0010FFFF000014
:1055A4004C230020224B1A88052A16D8214A137846
:1055B400642B11D9002313701F4A1378013313701D
:1055C4001E4A1378002B01D0013B13701C4A137838
:1055D400002B01D0013B1370704700221A80154A3A
:1055E4001848137801780133DBB21370002901D015
:1055F4000139017014480178002901D00139017082
:1056040012480178002901D0013901701049097844
:10561400002905D10F480188002901D001390180F2
:105624000D4801780029C3D001390170C0E7C04694
:10563400B0210020C9210020B5210020CA2100206A
:10564400B3210020C1210020CC210020C021002052
:1056540081210020DE070020B62100203223F0B58E
:105664006E4A6F49D35CDBB2002B26D10878C007A1
:105674004BD40C250B786B4C6B481D4257D0558C82
:105684006A4B9D4200D985E02378002B00D081E04D
:105694000525674B1D70012323700378002B0BD065
:1056A400644B1C78002C07D1558C634A954200D872
:1056B40089E000221A700270F0BD0B78DB0715D563
:1056C400508C5E4B984211D902245D480C700378CB
:1056D400A3430370002354480A3403700B781C421C
:1056E400EAD0548C574B9C424FD908E00C200B78DD
:1056F400184243D0508C534B984241D94A48548C59
:105704004E4B9C42C9D94B4BD3E7548C4B488442F3
:10571400AFD902254A4C0D702078A8430C2520707F
:10572400404C4148237003700B781D42A7D1237865
:10573400002BB2D03E4D2B78002BAED1578C3E4E71
:10574400B74267D8404C414D26693540404E2561EB
:105754003769404D3D403561C025AD0465603E4C20
:10576400374D23703D4C237002242E7834432C7023
:105774003B4D3C4C0B70258003788FE72A488CE71F
:1057840029480378002B00D08AE70123294A0370B3
:10579400137091E7558C2B4B9D422FD80378002B27
:1057A40004D11225234B1D7001230370558C2E4BFD
:1057B4009D42BCD92378002B00D171E700231C4DF6
:1057C40023702B706CE7204B204A18690240204854
:1057D4001A6105691F4A2A400261C02292045A6074
:1057E4001D4B174A1C701D4B1C7002231078034379
:1057F40013701B4A1B4B0C701A805DE7558C0F4BC2
:105804009D4294D900230A4A23701370094A0370F5
:10581400137051E72B7023703FE7C0461822002015
:1058240081210020CB210020B42100205408000055
:10583400CA210020B3210020E1090000E209000090
:1058440096210020C309000000000440FFFF83FFED
:1058540000010440FFFFFF83C8210020C221002073
:1058640026020000DE07002055080000F8B5184C99
:10587400238E002B05D0174B1B78002B12D000234E
:1058840023861549154A0B8810689B0A834208D061
:105894000B889B0A1360124A1388002B01D0013B2A
:1058A4001380F8BD00F03CF80225054003D00D4AF2
:1058B4000B4B1A80E5E701230B4F0C4E3868F3823B
:1058C40000F01EF83868311C00F012F82586EEE767
:1058D4001822002096210020B0210020BC210020A5
:1058E400E0070020710B0000A8070020E821002039
:1058F40001B40248844601BC604700BF8111001016
:1059040001B40248844601BC604700BF491100103D
:1059140001B40248844601BC604700BFF11A00107C
:1059240001B40248844601BC604700BF3D11001029
:1059340001B40248844601BC604700BFFD2D00103D
:1059440001B40248844601BC604700BFD131001055
:0400000510001019BE
:00000001FF
