
XMC14_3300W_TPBiDi.elf:     file format elf32-littlearm

Sections:
Idx Name          Size      VMA       LMA       File off  Algn
  0 .text         00002c1c  10001000  10001000  00001000  2**3
                  CONTENTS, ALLOC, LOAD, READONLY, CODE
  1 .VENEER_Code  00000144  2000000c  10003c1c  0000800c  2**2
                  CONTENTS, ALLOC, LOAD, READONLY, CODE
  2 Stack         00000400  20000150  00000000  00000150  2**0
                  ALLOC
  3 .data         00000294  20000550  10003d60  00008550  2**2
                  CONTENTS, ALLOC, LOAD, DATA
  4 .ram_code     00001960  200007e8  10003ff4  000087e8  2**3
                  CONTENTS, ALLOC, LOAD, READONLY, CODE
  5 .bss          00000248  20002148  10005954  0000a148  2**2
                  ALLOC
  6 .no_init      00000004  20003ffc  10007808  0000a148  2**2
                  ALLOC
  7 .debug_aranges 00000fe8  00000000  00000000  0000a148  2**3
                  CONTENTS, READONLY, DEBUGGING
  8 .debug_info   00030c80  00000000  00000000  0000b130  2**0
                  CONTENTS, READONLY, DEBUGGING
  9 .debug_abbrev 00005d7c  00000000  00000000  0003bdb0  2**0
                  CONTENTS, READONLY, DEBUGGING
 10 .debug_line   0000be88  00000000  00000000  00041b2c  2**0
                  CONTENTS, READONLY, DEBUGGING
 11 .debug_frame  00002498  00000000  00000000  0004d9b4  2**2
                  CONTENTS, READONLY, DEBUGGING
 12 .debug_str    0000f67a  00000000  00000000  0004fe4c  2**0
                  CONTENTS, READONLY, DEBUGGING
 13 .debug_loc    0000c2f6  00000000  00000000  0005f4c6  2**0
                  CONTENTS, READONLY, DEBUGGING
 14 .debug_ranges 00001b28  00000000  00000000  0006b7c0  2**3
                  CONTENTS, READONLY, DEBUGGING
 15 .build_attributes 000009a9  00000000  00000000  0006d2e8  2**0
                  CONTENTS, READONLY

Disassembly of section .text:

10001000 <__Vectors>:
10001000:	50 05 00 20 19 10 00 10 00 00 00 00 99 10 00 10     P.. ............
10001010:	00 18 04 00 00 01 00 00                             ........

10001018 <Reset_Handler>:
    .thumb_func 
    .globl  Reset_Handler
    .type   Reset_Handler, %function
Reset_Handler: 
/* Initialize interrupt veneer */
	ldr	r1, =eROData
10001018:	4911      	ldr	r1, [pc, #68]	; (10001060 <__copy_data+0xe>)
	ldr	r2, =VeneerStart
1000101a:	4a12      	ldr	r2, [pc, #72]	; (10001064 <__copy_data+0x12>)
	ldr	r3, =VeneerEnd
1000101c:	4b12      	ldr	r3, [pc, #72]	; (10001068 <__copy_data+0x16>)
	bl  __copy_data
1000101e:	f000 f818 	bl	10001052 <__copy_data>

    ldr  r0, =SystemInit
10001022:	4812      	ldr	r0, [pc, #72]	; (1000106c <__copy_data+0x1a>)
    blx  r0
10001024:	4780      	blx	r0
	
/* Initialize data */
	ldr	r1, =DataLoadAddr
10001026:	4912      	ldr	r1, [pc, #72]	; (10001070 <__copy_data+0x1e>)
	ldr	r2, =__data_start
10001028:	4a12      	ldr	r2, [pc, #72]	; (10001074 <__copy_data+0x22>)
	ldr	r3, =__data_end
1000102a:	4b13      	ldr	r3, [pc, #76]	; (10001078 <__copy_data+0x26>)
	bl  __copy_data
1000102c:	f000 f811 	bl	10001052 <__copy_data>

/* RAM code */
	ldr	r1, =__ram_code_load
10001030:	4912      	ldr	r1, [pc, #72]	; (1000107c <__copy_data+0x2a>)
	ldr	r2, =__ram_code_start
10001032:	4a13      	ldr	r2, [pc, #76]	; (10001080 <__copy_data+0x2e>)
	ldr	r3, =__ram_code_end
10001034:	4b13      	ldr	r3, [pc, #76]	; (10001084 <__copy_data+0x32>)
	bl  __copy_data
10001036:	f000 f80c 	bl	10001052 <__copy_data>
 *    __bss_end__: end of the BSS section.
 *
 *  Both addresses must be aligned to 4 bytes boundary.
 */
#ifndef __SKIP_BSS_CLEAR
	ldr	r1, =__bss_start
1000103a:	4913      	ldr	r1, [pc, #76]	; (10001088 <__copy_data+0x36>)
	ldr	r2, =__bss_end
1000103c:	4a13      	ldr	r2, [pc, #76]	; (1000108c <__copy_data+0x3a>)

	movs	r0, 0
1000103e:	2000      	movs	r0, #0

	subs	r2, r1
10001040:	1a52      	subs	r2, r2, r1
	ble	.L_loop3_done
10001042:	dd02      	ble.n	1000104a <Reset_Handler+0x32>

.L_loop3:
	subs	r2, #4
10001044:	3a04      	subs	r2, #4
	str	r0, [r1, r2]
10001046:	5088      	str	r0, [r1, r2]
	bgt	.L_loop3
10001048:	dcfc      	bgt.n	10001044 <Reset_Handler+0x2c>
.L_loop3_done:
#endif /* __SKIP_BSS_CLEAR */

#ifndef __SKIP_LIBC_INIT_ARRAY
    ldr  r0, =__libc_init_array
1000104a:	4811      	ldr	r0, [pc, #68]	; (10001090 <__copy_data+0x3e>)
    blx  r0
1000104c:	4780      	blx	r0
#endif

    ldr  r0, =main
1000104e:	4811      	ldr	r0, [pc, #68]	; (10001094 <__copy_data+0x42>)
    blx  r0
10001050:	4780      	blx	r0

10001052 <__copy_data>:
 *    r3: end of the section to copy to
 *
 *  All addresses must be aligned to 4 bytes boundary.
 *  Uses r0
 */
	subs	r3, r2
10001052:	1a9b      	subs	r3, r3, r2
	ble	.L_loop_done
10001054:	dd03      	ble.n	1000105e <__copy_data+0xc>

.L_loop:
	subs	r3, #4
10001056:	3b04      	subs	r3, #4
	ldr	r0, [r1,r3]
10001058:	58c8      	ldr	r0, [r1, r3]
	str	r0, [r2,r3]
1000105a:	50d0      	str	r0, [r2, r3]
	bgt	.L_loop
1000105c:	dcfb      	bgt.n	10001056 <__copy_data+0x4>

.L_loop_done:
	bx  lr
1000105e:	4770      	bx	lr
    .thumb_func 
    .globl  Reset_Handler
    .type   Reset_Handler, %function
Reset_Handler: 
/* Initialize interrupt veneer */
	ldr	r1, =eROData
10001060:	10003c1c 	.word	0x10003c1c
	ldr	r2, =VeneerStart
10001064:	2000000c 	.word	0x2000000c
	ldr	r3, =VeneerEnd
10001068:	20000150 	.word	0x20000150
	bl  __copy_data

    ldr  r0, =SystemInit
1000106c:	1000112d 	.word	0x1000112d
    blx  r0
	
/* Initialize data */
	ldr	r1, =DataLoadAddr
10001070:	10003d60 	.word	0x10003d60
	ldr	r2, =__data_start
10001074:	20000550 	.word	0x20000550
	ldr	r3, =__data_end
10001078:	200007e4 	.word	0x200007e4
	bl  __copy_data

/* RAM code */
	ldr	r1, =__ram_code_load
1000107c:	10003ff4 	.word	0x10003ff4
	ldr	r2, =__ram_code_start
10001080:	200007e8 	.word	0x200007e8
	ldr	r3, =__ram_code_end
10001084:	20002148 	.word	0x20002148
 *    __bss_end__: end of the BSS section.
 *
 *  Both addresses must be aligned to 4 bytes boundary.
 */
#ifndef __SKIP_BSS_CLEAR
	ldr	r1, =__bss_start
10001088:	20002148 	.word	0x20002148
	ldr	r2, =__bss_end
1000108c:	20002390 	.word	0x20002390
	bgt	.L_loop3
.L_loop3_done:
#endif /* __SKIP_BSS_CLEAR */

#ifndef __SKIP_LIBC_INIT_ARRAY
    ldr  r0, =__libc_init_array
10001090:	10003225 	.word	0x10003225
    blx  r0
#endif

    ldr  r0, =main
10001094:	10003011 	.word	0x10003011

10001098 <HardFault_Handler>:
    
    .thumb_func
    .weak Default_handler
    .type Default_handler, %function
Default_Handler:
    b  .
10001098:	e7fe      	b.n	10001098 <HardFault_Handler>
	...

1000109c <OSCHP_GetFrequency>:
}

__WEAK uint32_t OSCHP_GetFrequency(void)
{
  return OSCHP_FREQUENCY;
}
1000109c:	4800      	ldr	r0, [pc, #0]	; (100010a0 <OSCHP_GetFrequency+0x4>)
1000109e:	4770      	bx	lr
100010a0:	01312d00 	.word	0x01312d00

100010a4 <SystemCoreClockUpdate>:

__WEAK void SystemCoreClockUpdate(void)
{
  static uint32_t IDIV, FDIV;

  IDIV = ((SCU_CLK->CLKCR) & SCU_CLK_CLKCR_IDIV_Msk) >> SCU_CLK_CLKCR_IDIV_Pos;
100010a4:	481b      	ldr	r0, [pc, #108]	; (10001114 <SystemCoreClockUpdate+0x70>)

  SystemCoreClockUpdate();
}

__WEAK void SystemCoreClockUpdate(void)
{
100010a6:	b538      	push	{r3, r4, r5, lr}
  static uint32_t IDIV, FDIV;

  IDIV = ((SCU_CLK->CLKCR) & SCU_CLK_CLKCR_IDIV_Msk) >> SCU_CLK_CLKCR_IDIV_Pos;
100010a8:	6803      	ldr	r3, [r0, #0]
100010aa:	4d1b      	ldr	r5, [pc, #108]	; (10001118 <SystemCoreClockUpdate+0x74>)
100010ac:	041b      	lsls	r3, r3, #16
100010ae:	0e1b      	lsrs	r3, r3, #24
100010b0:	602b      	str	r3, [r5, #0]

  if (IDIV != 0)
100010b2:	d015      	beq.n	100010e0 <SystemCoreClockUpdate+0x3c>
  {
    FDIV = ((SCU_CLK->CLKCR) & SCU_CLK_CLKCR_FDIV_Msk) >> SCU_CLK_CLKCR_FDIV_Pos;
    FDIV |= ((SCU_CLK->CLKCR1) & SCU_CLK_CLKCR1_FDIV_Msk) << 8;
100010b4:	2403      	movs	r4, #3

  IDIV = ((SCU_CLK->CLKCR) & SCU_CLK_CLKCR_IDIV_Msk) >> SCU_CLK_CLKCR_IDIV_Pos;

  if (IDIV != 0)
  {
    FDIV = ((SCU_CLK->CLKCR) & SCU_CLK_CLKCR_FDIV_Msk) >> SCU_CLK_CLKCR_FDIV_Pos;
100010b6:	6802      	ldr	r2, [r0, #0]
    FDIV |= ((SCU_CLK->CLKCR1) & SCU_CLK_CLKCR1_FDIV_Msk) << 8;
100010b8:	69c1      	ldr	r1, [r0, #28]
100010ba:	4021      	ands	r1, r4
100010bc:	020c      	lsls	r4, r1, #8

  IDIV = ((SCU_CLK->CLKCR) & SCU_CLK_CLKCR_IDIV_Msk) >> SCU_CLK_CLKCR_IDIV_Pos;

  if (IDIV != 0)
  {
    FDIV = ((SCU_CLK->CLKCR) & SCU_CLK_CLKCR_FDIV_Msk) >> SCU_CLK_CLKCR_FDIV_Pos;
100010be:	21ff      	movs	r1, #255	; 0xff
100010c0:	4011      	ands	r1, r2
    FDIV |= ((SCU_CLK->CLKCR1) & SCU_CLK_CLKCR1_FDIV_Msk) << 8;
100010c2:	4321      	orrs	r1, r4
100010c4:	4c15      	ldr	r4, [pc, #84]	; (1000111c <SystemCoreClockUpdate+0x78>)
100010c6:	6021      	str	r1, [r4, #0]
    
    /* Fractional divider is enabled and used */
    if (((SCU_CLK->CLKCR1) & SCU_CLK_CLKCR1_DCLKSEL_Msk) == 0U)
100010c8:	69c2      	ldr	r2, [r0, #28]
100010ca:	0592      	lsls	r2, r2, #22
100010cc:	d414      	bmi.n	100010f8 <SystemCoreClockUpdate+0x54>
    {
       SystemCoreClock = ((uint32_t)((DCO1_FREQUENCY << 6U) / ((IDIV << 10) + FDIV))) << 4U;
100010ce:	029b      	lsls	r3, r3, #10
100010d0:	1859      	adds	r1, r3, r1
100010d2:	4813      	ldr	r0, [pc, #76]	; (10001120 <SystemCoreClockUpdate+0x7c>)
100010d4:	f000 fcc6 	bl	10001a64 <__aeabi_uidiv>
100010d8:	4b12      	ldr	r3, [pc, #72]	; (10001124 <SystemCoreClockUpdate+0x80>)
100010da:	0100      	lsls	r0, r0, #4
100010dc:	6018      	str	r0, [r3, #0]
    else
    {
        SystemCoreClock = OSCHP_GetFrequency();
    }
  }
}
100010de:	bd38      	pop	{r3, r4, r5, pc}
    }
  }
  else
  {
    /* Fractional divider bypassed. */
    if (((SCU_CLK->CLKCR1) & SCU_CLK_CLKCR1_DCLKSEL_Msk) == 0U)
100010e0:	69c3      	ldr	r3, [r0, #28]
100010e2:	059b      	lsls	r3, r3, #22
100010e4:	d403      	bmi.n	100010ee <SystemCoreClockUpdate+0x4a>
    {
        SystemCoreClock = DCO1_FREQUENCY;
100010e6:	4a10      	ldr	r2, [pc, #64]	; (10001128 <SystemCoreClockUpdate+0x84>)
100010e8:	4b0e      	ldr	r3, [pc, #56]	; (10001124 <SystemCoreClockUpdate+0x80>)
100010ea:	601a      	str	r2, [r3, #0]
100010ec:	e7f7      	b.n	100010de <SystemCoreClockUpdate+0x3a>
    }
    else
    {
        SystemCoreClock = OSCHP_GetFrequency();
100010ee:	f7ff ffd5 	bl	1000109c <OSCHP_GetFrequency>
100010f2:	4b0c      	ldr	r3, [pc, #48]	; (10001124 <SystemCoreClockUpdate+0x80>)
100010f4:	6018      	str	r0, [r3, #0]
100010f6:	e7f2      	b.n	100010de <SystemCoreClockUpdate+0x3a>
    {
       SystemCoreClock = ((uint32_t)((DCO1_FREQUENCY << 6U) / ((IDIV << 10) + FDIV))) << 4U;
    }
    else
    {
       SystemCoreClock = ((uint32_t)((OSCHP_GetFrequency() << 6U) / ((IDIV << 10) + FDIV))) << 4U;
100010f8:	f7ff ffd0 	bl	1000109c <OSCHP_GetFrequency>
100010fc:	6829      	ldr	r1, [r5, #0]
100010fe:	6823      	ldr	r3, [r4, #0]
10001100:	0289      	lsls	r1, r1, #10
10001102:	18c9      	adds	r1, r1, r3
10001104:	0180      	lsls	r0, r0, #6
10001106:	f000 fcad 	bl	10001a64 <__aeabi_uidiv>
1000110a:	4b06      	ldr	r3, [pc, #24]	; (10001124 <SystemCoreClockUpdate+0x80>)
1000110c:	0100      	lsls	r0, r0, #4
1000110e:	6018      	str	r0, [r3, #0]
10001110:	e7e5      	b.n	100010de <SystemCoreClockUpdate+0x3a>
10001112:	46c0      	nop			; (mov r8, r8)
10001114:	40010300 	.word	0x40010300
10001118:	20002148 	.word	0x20002148
1000111c:	2000214c 	.word	0x2000214c
10001120:	b71b0000 	.word	0xb71b0000
10001124:	20003ffc 	.word	0x20003ffc
10001128:	02dc6c00 	.word	0x02dc6c00

1000112c <SystemInit>:
/*******************************************************************************
 * API IMPLEMENTATION
 *******************************************************************************/

__WEAK void SystemInit(void)
{
1000112c:	b508      	push	{r3, lr}
  SystemCoreSetup();
1000112e:	f001 fc29 	bl	10002984 <SystemCoreSetup>
  SystemCoreClockSetup();
10001132:	f001 fc81 	bl	10002a38 <SystemCoreClockSetup>
}
10001136:	bd08      	pop	{r3, pc}

10001138 <XMC_ERU_Enable>:
 ********************************************************************************************************************/

void XMC_ERU_Enable(XMC_ERU_t *const eru)
{
  XMC_UNUSED_ARG(eru);
}
10001138:	4770      	bx	lr
1000113a:	46c0      	nop			; (mov r8, r8)

1000113c <XMC_FLASH_GetStatus>:
/*
 * This API shall return the status of NVM.
 */
uint32_t XMC_FLASH_GetStatus(void)
{
  return NVM->NVMSTATUS;
1000113c:	4b01      	ldr	r3, [pc, #4]	; (10001144 <XMC_FLASH_GetStatus+0x8>)
1000113e:	8818      	ldrh	r0, [r3, #0]
10001140:	b280      	uxth	r0, r0
}
10001142:	4770      	bx	lr
10001144:	40050000 	.word	0x40050000

10001148 <XMC_FLASH_EraseSector>:
  }
}

/* Erase single sector */
void XMC_FLASH_EraseSector(uint32_t *address)
{
10001148:	2380      	movs	r3, #128	; 0x80
1000114a:	b5f0      	push	{r4, r5, r6, r7, lr}
1000114c:	4647      	mov	r7, r8
1000114e:	015b      	lsls	r3, r3, #5
10001150:	b480      	push	{r7}
10001152:	4698      	mov	r8, r3
  XMC_ASSERT("XMC_FLASH_ErasePages: Starting address not aligned to Page",
                                                                    ((uint32_t)address & FLASH_PAGE_ADDR_MASK) == 0U)

  for (page = 0U; page < num_pages; ++page)
  {
    (void)XMC1000_NvmErasePage(address);
10001154:	2780      	movs	r7, #128	; 0x80
  }
}

/* Erase single sector */
void XMC_FLASH_EraseSector(uint32_t *address)
{
10001156:	1c06      	adds	r6, r0, #0
 * XMC_FLASH_GetStatus()\n\n\n
 *
 */
__STATIC_INLINE bool XMC_FLASH_IsBusy(void)
{
  return (bool)(XMC_FLASH_GetStatus() & XMC_FLASH_STATUS_BUSY);
10001158:	2401      	movs	r4, #1
/*
 * This API shall return the status of NVM.
 */
uint32_t XMC_FLASH_GetStatus(void)
{
  return NVM->NVMSTATUS;
1000115a:	4d08      	ldr	r5, [pc, #32]	; (1000117c <XMC_FLASH_EraseSector+0x34>)
1000115c:	4480      	add	r8, r0
  XMC_ASSERT("XMC_FLASH_ErasePages: Starting address not aligned to Page",
                                                                    ((uint32_t)address & FLASH_PAGE_ADDR_MASK) == 0U)

  for (page = 0U; page < num_pages; ++page)
  {
    (void)XMC1000_NvmErasePage(address);
1000115e:	007f      	lsls	r7, r7, #1
10001160:	1c30      	adds	r0, r6, #0
10001162:	683b      	ldr	r3, [r7, #0]
10001164:	4798      	blx	r3
/*
 * This API shall return the status of NVM.
 */
uint32_t XMC_FLASH_GetStatus(void)
{
  return NVM->NVMSTATUS;
10001166:	882b      	ldrh	r3, [r5, #0]

  for (page = 0U; page < num_pages; ++page)
  {
    (void)XMC1000_NvmErasePage(address);

    while (XMC_FLASH_IsBusy() == true)
10001168:	421c      	tst	r4, r3
1000116a:	d1fc      	bne.n	10001166 <XMC_FLASH_EraseSector+0x1e>
    {
    }

    /* Increment the page address for the next erase */
    address += XMC_FLASH_WORDS_PER_PAGE;
1000116c:	3601      	adds	r6, #1
1000116e:	36ff      	adds	r6, #255	; 0xff
  uint32_t page;

  XMC_ASSERT("XMC_FLASH_ErasePages: Starting address not aligned to Page",
                                                                    ((uint32_t)address & FLASH_PAGE_ADDR_MASK) == 0U)

  for (page = 0U; page < num_pages; ++page)
10001170:	4546      	cmp	r6, r8
10001172:	d1f5      	bne.n	10001160 <XMC_FLASH_EraseSector+0x18>
void XMC_FLASH_EraseSector(uint32_t *address)
{
  XMC_ASSERT("XMC_FLASH_EraseSector: Starting address not aligned to Sector",
                                                                 ((uint32_t)address & FLASH_SECTOR_ADDR_MASK) == 0U)
  XMC_FLASH_ErasePages(address, XMC_FLASH_PAGES_PER_SECTOR);
}
10001174:	bc04      	pop	{r2}
10001176:	4690      	mov	r8, r2
10001178:	bdf0      	pop	{r4, r5, r6, r7, pc}
1000117a:	46c0      	nop			; (mov r8, r8)
1000117c:	40050000 	.word	0x40050000

10001180 <XMC_FLASH_ProgramPage>:

/* Program single page */
void XMC_FLASH_ProgramPage(uint32_t *address, const uint32_t *data)
{
10001180:	b508      	push	{r3, lr}
  (void)XMC1000_NvmErasePage(address);
}

void XMC_FLASH_ProgramVerifyPage(uint32_t *address, const uint32_t *data)
{
  (void)XMC1000_NvmProgVerify(data, address);
10001182:	2382      	movs	r3, #130	; 0x82
  XMC_FLASH_ErasePages(address, XMC_FLASH_PAGES_PER_SECTOR);
}

/* Program single page */
void XMC_FLASH_ProgramPage(uint32_t *address, const uint32_t *data)
{
10001184:	1c02      	adds	r2, r0, #0
  (void)XMC1000_NvmErasePage(address);
}

void XMC_FLASH_ProgramVerifyPage(uint32_t *address, const uint32_t *data)
{
  (void)XMC1000_NvmProgVerify(data, address);
10001186:	005b      	lsls	r3, r3, #1
10001188:	1c08      	adds	r0, r1, #0
1000118a:	681b      	ldr	r3, [r3, #0]
1000118c:	1c11      	adds	r1, r2, #0
1000118e:	4798      	blx	r3

/* Program single page */
void XMC_FLASH_ProgramPage(uint32_t *address, const uint32_t *data)
{
  XMC_FLASH_ProgramVerifyPage(address, data);
}
10001190:	bd08      	pop	{r3, pc}
10001192:	46c0      	nop			; (mov r8, r8)

10001194 <XMC_GPIO_Init>:
/*******************************************************************************
 * API IMPLEMENTATION
 *******************************************************************************/

void XMC_GPIO_Init(XMC_GPIO_PORT_t *const port, const uint8_t pin, const XMC_GPIO_CONFIG_t *const config)
{
10001194:	b5f0      	push	{r4, r5, r6, r7, lr}
  XMC_ASSERT("XMC_GPIO_Init: Invalid port", XMC_GPIO_CHECK_PORT(port));
  XMC_ASSERT("XMC_GPIO_Init: Invalid mode", XMC_GPIO_IsModeValid(config->mode));
  XMC_ASSERT("XMC_GPIO_Init: Invalid input hysteresis", XMC_GPIO_CHECK_INPUT_HYSTERESIS(config->input_hysteresis));
  
  /* Switch to input */
  port->IOCR[pin >> 2U] &= ~(uint32_t)((uint32_t)PORT_IOCR_PC_Msk << (PORT_IOCR_PC_Size * (pin & 0x3U)));
10001196:	2403      	movs	r4, #3
/*******************************************************************************
 * API IMPLEMENTATION
 *******************************************************************************/

void XMC_GPIO_Init(XMC_GPIO_PORT_t *const port, const uint8_t pin, const XMC_GPIO_CONFIG_t *const config)
{
10001198:	4647      	mov	r7, r8
  XMC_ASSERT("XMC_GPIO_Init: Invalid port", XMC_GPIO_CHECK_PORT(port));
  XMC_ASSERT("XMC_GPIO_Init: Invalid mode", XMC_GPIO_IsModeValid(config->mode));
  XMC_ASSERT("XMC_GPIO_Init: Invalid input hysteresis", XMC_GPIO_CHECK_INPUT_HYSTERESIS(config->input_hysteresis));
  
  /* Switch to input */
  port->IOCR[pin >> 2U] &= ~(uint32_t)((uint32_t)PORT_IOCR_PC_Msk << (PORT_IOCR_PC_Size * (pin & 0x3U)));
1000119a:	1c26      	adds	r6, r4, #0
/*******************************************************************************
 * API IMPLEMENTATION
 *******************************************************************************/

void XMC_GPIO_Init(XMC_GPIO_PORT_t *const port, const uint8_t pin, const XMC_GPIO_CONFIG_t *const config)
{
1000119c:	b480      	push	{r7}
  XMC_ASSERT("XMC_GPIO_Init: Invalid port", XMC_GPIO_CHECK_PORT(port));
  XMC_ASSERT("XMC_GPIO_Init: Invalid mode", XMC_GPIO_IsModeValid(config->mode));
  XMC_ASSERT("XMC_GPIO_Init: Invalid input hysteresis", XMC_GPIO_CHECK_INPUT_HYSTERESIS(config->input_hysteresis));
  
  /* Switch to input */
  port->IOCR[pin >> 2U] &= ~(uint32_t)((uint32_t)PORT_IOCR_PC_Msk << (PORT_IOCR_PC_Size * (pin & 0x3U)));
1000119e:	27fc      	movs	r7, #252	; 0xfc
100011a0:	400e      	ands	r6, r1
100011a2:	00f6      	lsls	r6, r6, #3
100011a4:	40b7      	lsls	r7, r6
100011a6:	088b      	lsrs	r3, r1, #2
100011a8:	009b      	lsls	r3, r3, #2
100011aa:	18c3      	adds	r3, r0, r3
100011ac:	691d      	ldr	r5, [r3, #16]
100011ae:	46b0      	mov	r8, r6
100011b0:	43bd      	bics	r5, r7

  /* HW port control is disabled */
  port->HWSEL &= ~(uint32_t)((uint32_t)PORT_HWSEL_Msk << ((uint32_t)pin << 1U));
100011b2:	004f      	lsls	r7, r1, #1
100011b4:	40bc      	lsls	r4, r7
  XMC_ASSERT("XMC_GPIO_Init: Invalid port", XMC_GPIO_CHECK_PORT(port));
  XMC_ASSERT("XMC_GPIO_Init: Invalid mode", XMC_GPIO_IsModeValid(config->mode));
  XMC_ASSERT("XMC_GPIO_Init: Invalid input hysteresis", XMC_GPIO_CHECK_INPUT_HYSTERESIS(config->input_hysteresis));
  
  /* Switch to input */
  port->IOCR[pin >> 2U] &= ~(uint32_t)((uint32_t)PORT_IOCR_PC_Msk << (PORT_IOCR_PC_Size * (pin & 0x3U)));
100011b6:	611d      	str	r5, [r3, #16]

  /* HW port control is disabled */
  port->HWSEL &= ~(uint32_t)((uint32_t)PORT_HWSEL_Msk << ((uint32_t)pin << 1U));
100011b8:	6f45      	ldr	r5, [r0, #116]	; 0x74

  /* Set input hysteresis */
  port->PHCR[(uint32_t)pin >> 3U] &= ~(uint32_t)((uint32_t)PORT_PHCR_Msk << ((uint32_t)PORT_PHCR_Size * ((uint32_t)pin & 0x7U)));
100011ba:	2604      	movs	r6, #4
  
  /* Switch to input */
  port->IOCR[pin >> 2U] &= ~(uint32_t)((uint32_t)PORT_IOCR_PC_Msk << (PORT_IOCR_PC_Size * (pin & 0x3U)));

  /* HW port control is disabled */
  port->HWSEL &= ~(uint32_t)((uint32_t)PORT_HWSEL_Msk << ((uint32_t)pin << 1U));
100011bc:	43a5      	bics	r5, r4
100011be:	6745      	str	r5, [r0, #116]	; 0x74

  /* Set input hysteresis */
  port->PHCR[(uint32_t)pin >> 3U] &= ~(uint32_t)((uint32_t)PORT_PHCR_Msk << ((uint32_t)PORT_PHCR_Size * ((uint32_t)pin & 0x7U)));
100011c0:	2507      	movs	r5, #7
100011c2:	400d      	ands	r5, r1
100011c4:	00ad      	lsls	r5, r5, #2
100011c6:	40ae      	lsls	r6, r5
100011c8:	08cc      	lsrs	r4, r1, #3
100011ca:	00a4      	lsls	r4, r4, #2
100011cc:	1904      	adds	r4, r0, r4
100011ce:	6c27      	ldr	r7, [r4, #64]	; 0x40
100011d0:	43b7      	bics	r7, r6
100011d2:	6427      	str	r7, [r4, #64]	; 0x40
  port->PHCR[(uint32_t)pin >> 3U] |= (uint32_t)config->input_hysteresis << ((uint32_t)PORT_PHCR_Size * ((uint32_t)pin & 0x7U));
100011d4:	7856      	ldrb	r6, [r2, #1]
100011d6:	6c27      	ldr	r7, [r4, #64]	; 0x40
100011d8:	40ae      	lsls	r6, r5
100011da:	1c35      	adds	r5, r6, #0
100011dc:	433d      	orrs	r5, r7
100011de:	6425      	str	r5, [r4, #64]	; 0x40
    
  /* Enable digital input */
  if (XMC_GPIO_CHECK_ANALOG_PORT(port))
100011e0:	4c0a      	ldr	r4, [pc, #40]	; (1000120c <XMC_GPIO_Init+0x78>)
100011e2:	42a0      	cmp	r0, r4
100011e4:	d00c      	beq.n	10001200 <XMC_GPIO_Init+0x6c>
  {    
    port->PDISC &= ~(uint32_t)((uint32_t)0x1U << pin);
  }
  /* Set output level */
  port->OMR = (uint32_t)config->output_level << pin;
100011e6:	6854      	ldr	r4, [r2, #4]
  
  /* Set mode */
  port->IOCR[pin >> 2U] |= (uint32_t)config->mode << (PORT_IOCR_PC_Size * (pin & 0x3U));
100011e8:	7812      	ldrb	r2, [r2, #0]
  if (XMC_GPIO_CHECK_ANALOG_PORT(port))
  {    
    port->PDISC &= ~(uint32_t)((uint32_t)0x1U << pin);
  }
  /* Set output level */
  port->OMR = (uint32_t)config->output_level << pin;
100011ea:	408c      	lsls	r4, r1
100011ec:	6044      	str	r4, [r0, #4]
  
  /* Set mode */
  port->IOCR[pin >> 2U] |= (uint32_t)config->mode << (PORT_IOCR_PC_Size * (pin & 0x3U));
100011ee:	4640      	mov	r0, r8
100011f0:	4082      	lsls	r2, r0
100011f2:	1c16      	adds	r6, r2, #0
100011f4:	6919      	ldr	r1, [r3, #16]
100011f6:	430e      	orrs	r6, r1
100011f8:	611e      	str	r6, [r3, #16]
}
100011fa:	bc04      	pop	{r2}
100011fc:	4690      	mov	r8, r2
100011fe:	bdf0      	pop	{r4, r5, r6, r7, pc}
  port->PHCR[(uint32_t)pin >> 3U] |= (uint32_t)config->input_hysteresis << ((uint32_t)PORT_PHCR_Size * ((uint32_t)pin & 0x7U));
    
  /* Enable digital input */
  if (XMC_GPIO_CHECK_ANALOG_PORT(port))
  {    
    port->PDISC &= ~(uint32_t)((uint32_t)0x1U << pin);
10001200:	2501      	movs	r5, #1
10001202:	408d      	lsls	r5, r1
10001204:	6e04      	ldr	r4, [r0, #96]	; 0x60
10001206:	43ac      	bics	r4, r5
10001208:	6604      	str	r4, [r0, #96]	; 0x60
1000120a:	e7ec      	b.n	100011e6 <XMC_GPIO_Init+0x52>
1000120c:	40040200 	.word	0x40040200

10001210 <XMC_SCU_CLOCK_UngatePeripheralClock>:
}

/* API to make protected bitfields available for modification */
void XMC_SCU_UnlockProtectedBits(void)
{
  SCU_GENERAL->PASSWD = SCU_GCU_PASSWD_PROT_DISABLE;
10001210:	23c0      	movs	r3, #192	; 0xc0

  while(((SCU_GENERAL->PASSWD) & SCU_GENERAL_PASSWD_PROTS_Msk))
10001212:	2104      	movs	r1, #4
}

/* API to make protected bitfields available for modification */
void XMC_SCU_UnlockProtectedBits(void)
{
  SCU_GENERAL->PASSWD = SCU_GCU_PASSWD_PROT_DISABLE;
10001214:	4a08      	ldr	r2, [pc, #32]	; (10001238 <XMC_SCU_CLOCK_UngatePeripheralClock+0x28>)
10001216:	6253      	str	r3, [r2, #36]	; 0x24

  while(((SCU_GENERAL->PASSWD) & SCU_GENERAL_PASSWD_PROTS_Msk))
10001218:	6a53      	ldr	r3, [r2, #36]	; 0x24
1000121a:	4219      	tst	r1, r3
1000121c:	d1fc      	bne.n	10001218 <XMC_SCU_CLOCK_UngatePeripheralClock+0x8>
/* API which ungates a clock note at its source */
void XMC_SCU_CLOCK_UngatePeripheralClock(const XMC_SCU_PERIPHERAL_CLOCK_t peripheral)
{
  XMC_SCU_UnlockProtectedBits();
  SCU_CLK->CGATCLR0 |= (uint32_t)peripheral;
  while ((SCU_CLK->CLKCR) & SCU_CLK_CLKCR_VDDC2LOW_Msk)
1000121e:	2180      	movs	r1, #128	; 0x80

/* API which ungates a clock note at its source */
void XMC_SCU_CLOCK_UngatePeripheralClock(const XMC_SCU_PERIPHERAL_CLOCK_t peripheral)
{
  XMC_SCU_UnlockProtectedBits();
  SCU_CLK->CGATCLR0 |= (uint32_t)peripheral;
10001220:	4a06      	ldr	r2, [pc, #24]	; (1000123c <XMC_SCU_CLOCK_UngatePeripheralClock+0x2c>)
  while ((SCU_CLK->CLKCR) & SCU_CLK_CLKCR_VDDC2LOW_Msk)
10001222:	05c9      	lsls	r1, r1, #23

/* API which ungates a clock note at its source */
void XMC_SCU_CLOCK_UngatePeripheralClock(const XMC_SCU_PERIPHERAL_CLOCK_t peripheral)
{
  XMC_SCU_UnlockProtectedBits();
  SCU_CLK->CGATCLR0 |= (uint32_t)peripheral;
10001224:	6913      	ldr	r3, [r2, #16]
10001226:	4318      	orrs	r0, r3
10001228:	6110      	str	r0, [r2, #16]
  while ((SCU_CLK->CLKCR) & SCU_CLK_CLKCR_VDDC2LOW_Msk)
1000122a:	6813      	ldr	r3, [r2, #0]
1000122c:	420b      	tst	r3, r1
1000122e:	d1fc      	bne.n	1000122a <XMC_SCU_CLOCK_UngatePeripheralClock+0x1a>
}

/* API to lock protected bitfields from being modified */
void XMC_SCU_LockProtectedBits(void)
{
  SCU_GENERAL->PASSWD = SCU_GCU_PASSWD_PROT_ENABLE;
10001230:	22c3      	movs	r2, #195	; 0xc3
10001232:	4b01      	ldr	r3, [pc, #4]	; (10001238 <XMC_SCU_CLOCK_UngatePeripheralClock+0x28>)
10001234:	625a      	str	r2, [r3, #36]	; 0x24
  while ((SCU_CLK->CLKCR) & SCU_CLK_CLKCR_VDDC2LOW_Msk)
  {
    /* Wait voltage suply stabilization */
  }
  XMC_SCU_LockProtectedBits();
}
10001236:	4770      	bx	lr
10001238:	40010000 	.word	0x40010000
1000123c:	40010300 	.word	0x40010300

10001240 <XMC_SCU_CLOCK_ScaleMCLKFrequency>:
}


/* A utility routine which updates the fractional dividers in steps */
void XMC_SCU_CLOCK_ScaleMCLKFrequency(uint32_t idiv, uint32_t fdiv)
{
10001240:	b5f8      	push	{r3, r4, r5, r6, r7, lr}
}

/* API to make protected bitfields available for modification */
void XMC_SCU_UnlockProtectedBits(void)
{
  SCU_GENERAL->PASSWD = SCU_GCU_PASSWD_PROT_DISABLE;
10001242:	23c0      	movs	r3, #192	; 0xc0

  while(((SCU_GENERAL->PASSWD) & SCU_GENERAL_PASSWD_PROTS_Msk))
10001244:	2404      	movs	r4, #4
}

/* API to make protected bitfields available for modification */
void XMC_SCU_UnlockProtectedBits(void)
{
  SCU_GENERAL->PASSWD = SCU_GCU_PASSWD_PROT_DISABLE;
10001246:	4a31      	ldr	r2, [pc, #196]	; (1000130c <XMC_SCU_CLOCK_ScaleMCLKFrequency+0xcc>)
10001248:	6253      	str	r3, [r2, #36]	; 0x24

  while(((SCU_GENERAL->PASSWD) & SCU_GENERAL_PASSWD_PROTS_Msk))
1000124a:	6a53      	ldr	r3, [r2, #36]	; 0x24
1000124c:	421c      	tst	r4, r3
1000124e:	d1fc      	bne.n	1000124a <XMC_SCU_CLOCK_ScaleMCLKFrequency+0xa>

  /* Take a snapshot of value already programmed into IDIV */
  curr_idiv = (SCU_CLK->CLKCR & SCU_CLK_CLKCR_IDIV_Msk) >> SCU_CLK_CLKCR_IDIV_Pos;

#if (UC_SERIES == XMC14)
  SCU_CLK->CLKCR1 = (SCU_CLK->CLKCR1 & (uint32_t)~(SCU_CLK_CLKCR1_FDIV_Msk)) |
10001250:	2603      	movs	r6, #3
  uint32_t curr_idiv;

  XMC_SCU_UnlockProtectedBits();

  /* Take a snapshot of value already programmed into IDIV */
  curr_idiv = (SCU_CLK->CLKCR & SCU_CLK_CLKCR_IDIV_Msk) >> SCU_CLK_CLKCR_IDIV_Pos;
10001252:	4a2f      	ldr	r2, [pc, #188]	; (10001310 <XMC_SCU_CLOCK_ScaleMCLKFrequency+0xd0>)

#if (UC_SERIES == XMC14)
  SCU_CLK->CLKCR1 = (SCU_CLK->CLKCR1 & (uint32_t)~(SCU_CLK_CLKCR1_FDIV_Msk)) |
                   (uint32_t)((fdiv >> 8U) << SCU_CLK_CLKCR1_FDIV_Pos);
10001254:	0a0d      	lsrs	r5, r1, #8
  uint32_t curr_idiv;

  XMC_SCU_UnlockProtectedBits();

  /* Take a snapshot of value already programmed into IDIV */
  curr_idiv = (SCU_CLK->CLKCR & SCU_CLK_CLKCR_IDIV_Msk) >> SCU_CLK_CLKCR_IDIV_Pos;
10001256:	6814      	ldr	r4, [r2, #0]

#if (UC_SERIES == XMC14)
  SCU_CLK->CLKCR1 = (SCU_CLK->CLKCR1 & (uint32_t)~(SCU_CLK_CLKCR1_FDIV_Msk)) |
10001258:	69d3      	ldr	r3, [r2, #28]
  uint32_t curr_idiv;

  XMC_SCU_UnlockProtectedBits();

  /* Take a snapshot of value already programmed into IDIV */
  curr_idiv = (SCU_CLK->CLKCR & SCU_CLK_CLKCR_IDIV_Msk) >> SCU_CLK_CLKCR_IDIV_Pos;
1000125a:	0424      	lsls	r4, r4, #16

#if (UC_SERIES == XMC14)
  SCU_CLK->CLKCR1 = (SCU_CLK->CLKCR1 & (uint32_t)~(SCU_CLK_CLKCR1_FDIV_Msk)) |
1000125c:	43b3      	bics	r3, r6
1000125e:	432b      	orrs	r3, r5
10001260:	61d3      	str	r3, [r2, #28]
                   (uint32_t)((fdiv >> 8U) << SCU_CLK_CLKCR1_FDIV_Pos);

  SCU_CLK->CLKCR = (SCU_CLK->CLKCR & (uint32_t)~(SCU_CLK_CLKCR_FDIV_Msk | SCU_CLK_CLKCR_CNTADJ_Msk)) |
10001262:	6815      	ldr	r5, [r2, #0]
10001264:	4b2b      	ldr	r3, [pc, #172]	; (10001314 <XMC_SCU_CLOCK_ScaleMCLKFrequency+0xd4>)
  uint32_t curr_idiv;

  XMC_SCU_UnlockProtectedBits();

  /* Take a snapshot of value already programmed into IDIV */
  curr_idiv = (SCU_CLK->CLKCR & SCU_CLK_CLKCR_IDIV_Msk) >> SCU_CLK_CLKCR_IDIV_Pos;
10001266:	0e24      	lsrs	r4, r4, #24

#if (UC_SERIES == XMC14)
  SCU_CLK->CLKCR1 = (SCU_CLK->CLKCR1 & (uint32_t)~(SCU_CLK_CLKCR1_FDIV_Msk)) |
                   (uint32_t)((fdiv >> 8U) << SCU_CLK_CLKCR1_FDIV_Pos);

  SCU_CLK->CLKCR = (SCU_CLK->CLKCR & (uint32_t)~(SCU_CLK_CLKCR_FDIV_Msk | SCU_CLK_CLKCR_CNTADJ_Msk)) |
10001268:	402b      	ands	r3, r5
1000126a:	4d2b      	ldr	r5, [pc, #172]	; (10001318 <XMC_SCU_CLOCK_ScaleMCLKFrequency+0xd8>)
1000126c:	432b      	orrs	r3, r5
                   (uint32_t)((fdiv & 0xffU) << SCU_CLK_CLKCR_FDIV_Pos) |
1000126e:	25ff      	movs	r5, #255	; 0xff
10001270:	4029      	ands	r1, r5
10001272:	4319      	orrs	r1, r3

#if (UC_SERIES == XMC14)
  SCU_CLK->CLKCR1 = (SCU_CLK->CLKCR1 & (uint32_t)~(SCU_CLK_CLKCR1_FDIV_Msk)) |
                   (uint32_t)((fdiv >> 8U) << SCU_CLK_CLKCR1_FDIV_Pos);

  SCU_CLK->CLKCR = (SCU_CLK->CLKCR & (uint32_t)~(SCU_CLK_CLKCR_FDIV_Msk | SCU_CLK_CLKCR_CNTADJ_Msk)) |
10001274:	6011      	str	r1, [r2, #0]
  SCU_CLK->CLKCR = (SCU_CLK->CLKCR & (uint32_t)~(SCU_CLK_CLKCR_FDIV_Msk | SCU_CLK_CLKCR_CNTADJ_Msk)) |
                   (uint32_t)(fdiv << SCU_CLK_CLKCR_FDIV_Pos) |
                   (uint32_t)(1023UL << SCU_CLK_CLKCR_CNTADJ_Pos);
#endif

  while ((SCU_CLK->CLKCR)& SCU_CLK_CLKCR_VDDC2LOW_Msk)
10001276:	2180      	movs	r1, #128	; 0x80
10001278:	05c9      	lsls	r1, r1, #23
1000127a:	6813      	ldr	r3, [r2, #0]
1000127c:	420b      	tst	r3, r1
1000127e:	d1fc      	bne.n	1000127a <XMC_SCU_CLOCK_ScaleMCLKFrequency+0x3a>
  {
    /* Spin until the core supply stabilizes */
  }

  if(curr_idiv <= idiv)
10001280:	4284      	cmp	r4, r0
10001282:	d929      	bls.n	100012d8 <XMC_SCU_CLOCK_ScaleMCLKFrequency+0x98>

    SCU_CLK->CLKCR = (SCU_CLK->CLKCR & (uint32_t)~(SCU_CLK_CLKCR_IDIV_Msk | SCU_CLK_CLKCR_CNTADJ_Msk)) |
                     (uint32_t)(curr_idiv << SCU_CLK_CLKCR_IDIV_Pos) | 
                     (uint32_t)(1023UL << SCU_CLK_CLKCR_CNTADJ_Pos);

    while (SCU_CLK->CLKCR & SCU_CLK_CLKCR_VDDC2LOW_Msk)
10001284:	2180      	movs	r1, #128	; 0x80
{
  while (curr_idiv > (target_idiv * 4UL))
  {
    curr_idiv = (uint32_t)(curr_idiv >> 2UL);   /* Divide by 4. */

    SCU_CLK->CLKCR = (SCU_CLK->CLKCR & (uint32_t)~(SCU_CLK_CLKCR_IDIV_Msk | SCU_CLK_CLKCR_CNTADJ_Msk)) |
10001286:	4b25      	ldr	r3, [pc, #148]	; (1000131c <XMC_SCU_CLOCK_ScaleMCLKFrequency+0xdc>)
10001288:	0086      	lsls	r6, r0, #2
1000128a:	4a21      	ldr	r2, [pc, #132]	; (10001310 <XMC_SCU_CLOCK_ScaleMCLKFrequency+0xd0>)
1000128c:	469c      	mov	ip, r3
1000128e:	4f22      	ldr	r7, [pc, #136]	; (10001318 <XMC_SCU_CLOCK_ScaleMCLKFrequency+0xd8>)
                     (uint32_t)(curr_idiv << SCU_CLK_CLKCR_IDIV_Pos) | 
                     (uint32_t)(1023UL << SCU_CLK_CLKCR_CNTADJ_Pos);

    while (SCU_CLK->CLKCR & SCU_CLK_CLKCR_VDDC2LOW_Msk)
10001290:	05c9      	lsls	r1, r1, #23
}

/* Utility routine to perform frequency up scaling */
static void XMC_SCU_CLOCK_lFrequencyUpScaling(uint32_t curr_idiv, uint32_t target_idiv)
{
  while (curr_idiv > (target_idiv * 4UL))
10001292:	42b4      	cmp	r4, r6
10001294:	d90c      	bls.n	100012b0 <XMC_SCU_CLOCK_ScaleMCLKFrequency+0x70>
  {
    curr_idiv = (uint32_t)(curr_idiv >> 2UL);   /* Divide by 4. */

    SCU_CLK->CLKCR = (SCU_CLK->CLKCR & (uint32_t)~(SCU_CLK_CLKCR_IDIV_Msk | SCU_CLK_CLKCR_CNTADJ_Msk)) |
10001296:	4665      	mov	r5, ip
10001298:	6813      	ldr	r3, [r2, #0]
/* Utility routine to perform frequency up scaling */
static void XMC_SCU_CLOCK_lFrequencyUpScaling(uint32_t curr_idiv, uint32_t target_idiv)
{
  while (curr_idiv > (target_idiv * 4UL))
  {
    curr_idiv = (uint32_t)(curr_idiv >> 2UL);   /* Divide by 4. */
1000129a:	08a4      	lsrs	r4, r4, #2

    SCU_CLK->CLKCR = (SCU_CLK->CLKCR & (uint32_t)~(SCU_CLK_CLKCR_IDIV_Msk | SCU_CLK_CLKCR_CNTADJ_Msk)) |
1000129c:	402b      	ands	r3, r5
1000129e:	433b      	orrs	r3, r7
                     (uint32_t)(curr_idiv << SCU_CLK_CLKCR_IDIV_Pos) | 
100012a0:	0225      	lsls	r5, r4, #8
100012a2:	432b      	orrs	r3, r5
{
  while (curr_idiv > (target_idiv * 4UL))
  {
    curr_idiv = (uint32_t)(curr_idiv >> 2UL);   /* Divide by 4. */

    SCU_CLK->CLKCR = (SCU_CLK->CLKCR & (uint32_t)~(SCU_CLK_CLKCR_IDIV_Msk | SCU_CLK_CLKCR_CNTADJ_Msk)) |
100012a4:	6013      	str	r3, [r2, #0]
                     (uint32_t)(curr_idiv << SCU_CLK_CLKCR_IDIV_Pos) | 
                     (uint32_t)(1023UL << SCU_CLK_CLKCR_CNTADJ_Pos);

    while (SCU_CLK->CLKCR & SCU_CLK_CLKCR_VDDC2LOW_Msk)
100012a6:	6813      	ldr	r3, [r2, #0]
100012a8:	420b      	tst	r3, r1
100012aa:	d1fc      	bne.n	100012a6 <XMC_SCU_CLOCK_ScaleMCLKFrequency+0x66>
}

/* Utility routine to perform frequency up scaling */
static void XMC_SCU_CLOCK_lFrequencyUpScaling(uint32_t curr_idiv, uint32_t target_idiv)
{
  while (curr_idiv > (target_idiv * 4UL))
100012ac:	42b4      	cmp	r4, r6
100012ae:	d8f2      	bhi.n	10001296 <XMC_SCU_CLOCK_ScaleMCLKFrequency+0x56>
  {
    /* Requested IDIV is lower than currently programmed IDIV. So upscale the frequency */
    XMC_SCU_CLOCK_lFrequencyUpScaling(curr_idiv, idiv);
  }

  SCU_CLK->CLKCR = (SCU_CLK->CLKCR & (uint32_t)~(SCU_CLK_CLKCR_IDIV_Msk | SCU_CLK_CLKCR_CNTADJ_Msk)) |
100012b0:	4a17      	ldr	r2, [pc, #92]	; (10001310 <XMC_SCU_CLOCK_ScaleMCLKFrequency+0xd0>)
100012b2:	4b1a      	ldr	r3, [pc, #104]	; (1000131c <XMC_SCU_CLOCK_ScaleMCLKFrequency+0xdc>)
100012b4:	6811      	ldr	r1, [r2, #0]
                   (uint32_t)(idiv << SCU_CLK_CLKCR_IDIV_Pos) | (uint32_t)(1023UL << SCU_CLK_CLKCR_CNTADJ_Pos);
100012b6:	0200      	lsls	r0, r0, #8
  {
    /* Requested IDIV is lower than currently programmed IDIV. So upscale the frequency */
    XMC_SCU_CLOCK_lFrequencyUpScaling(curr_idiv, idiv);
  }

  SCU_CLK->CLKCR = (SCU_CLK->CLKCR & (uint32_t)~(SCU_CLK_CLKCR_IDIV_Msk | SCU_CLK_CLKCR_CNTADJ_Msk)) |
100012b8:	400b      	ands	r3, r1
100012ba:	4917      	ldr	r1, [pc, #92]	; (10001318 <XMC_SCU_CLOCK_ScaleMCLKFrequency+0xd8>)
100012bc:	430b      	orrs	r3, r1
                   (uint32_t)(idiv << SCU_CLK_CLKCR_IDIV_Pos) | (uint32_t)(1023UL << SCU_CLK_CLKCR_CNTADJ_Pos);

  while ((SCU_CLK->CLKCR) & SCU_CLK_CLKCR_VDDC2LOW_Msk)
100012be:	2180      	movs	r1, #128	; 0x80
    /* Requested IDIV is lower than currently programmed IDIV. So upscale the frequency */
    XMC_SCU_CLOCK_lFrequencyUpScaling(curr_idiv, idiv);
  }

  SCU_CLK->CLKCR = (SCU_CLK->CLKCR & (uint32_t)~(SCU_CLK_CLKCR_IDIV_Msk | SCU_CLK_CLKCR_CNTADJ_Msk)) |
                   (uint32_t)(idiv << SCU_CLK_CLKCR_IDIV_Pos) | (uint32_t)(1023UL << SCU_CLK_CLKCR_CNTADJ_Pos);
100012c0:	4303      	orrs	r3, r0
  {
    /* Requested IDIV is lower than currently programmed IDIV. So upscale the frequency */
    XMC_SCU_CLOCK_lFrequencyUpScaling(curr_idiv, idiv);
  }

  SCU_CLK->CLKCR = (SCU_CLK->CLKCR & (uint32_t)~(SCU_CLK_CLKCR_IDIV_Msk | SCU_CLK_CLKCR_CNTADJ_Msk)) |
100012c2:	6013      	str	r3, [r2, #0]
                   (uint32_t)(idiv << SCU_CLK_CLKCR_IDIV_Pos) | (uint32_t)(1023UL << SCU_CLK_CLKCR_CNTADJ_Pos);

  while ((SCU_CLK->CLKCR) & SCU_CLK_CLKCR_VDDC2LOW_Msk)
100012c4:	05c9      	lsls	r1, r1, #23
100012c6:	6813      	ldr	r3, [r2, #0]
100012c8:	420b      	tst	r3, r1
100012ca:	d1fc      	bne.n	100012c6 <XMC_SCU_CLOCK_ScaleMCLKFrequency+0x86>
}

/* API to lock protected bitfields from being modified */
void XMC_SCU_LockProtectedBits(void)
{
  SCU_GENERAL->PASSWD = SCU_GCU_PASSWD_PROT_ENABLE;
100012cc:	22c3      	movs	r2, #195	; 0xc3
100012ce:	4b0f      	ldr	r3, [pc, #60]	; (1000130c <XMC_SCU_CLOCK_ScaleMCLKFrequency+0xcc>)
100012d0:	625a      	str	r2, [r3, #36]	; 0x24
    /* Wait voltage suply stabilization */
  }

  XMC_SCU_LockProtectedBits();

  SystemCoreClockUpdate();
100012d2:	f7ff fee7 	bl	100010a4 <SystemCoreClockUpdate>

}
100012d6:	bdf8      	pop	{r3, r4, r5, r6, r7, pc}
    curr_idiv  = (uint32_t)(curr_idiv << 2UL);   /* Multiply by 4. */
    SCU_CLK->CLKCR = (SCU_CLK->CLKCR & (uint32_t)~(SCU_CLK_CLKCR_IDIV_Msk | SCU_CLK_CLKCR_CNTADJ_Msk)) |
                     (uint32_t)(curr_idiv << SCU_CLK_CLKCR_IDIV_Pos) |
                     (uint32_t)(1023UL << SCU_CLK_CLKCR_CNTADJ_Pos);

    while (SCU_CLK->CLKCR & SCU_CLK_CLKCR_VDDC2LOW_Msk)
100012d8:	2180      	movs	r1, #128	; 0x80
    if(0U == curr_idiv)
    {
      curr_idiv = 1U;
    }
    curr_idiv  = (uint32_t)(curr_idiv << 2UL);   /* Multiply by 4. */
    SCU_CLK->CLKCR = (SCU_CLK->CLKCR & (uint32_t)~(SCU_CLK_CLKCR_IDIV_Msk | SCU_CLK_CLKCR_CNTADJ_Msk)) |
100012da:	4a0d      	ldr	r2, [pc, #52]	; (10001310 <XMC_SCU_CLOCK_ScaleMCLKFrequency+0xd0>)
100012dc:	4f0f      	ldr	r7, [pc, #60]	; (1000131c <XMC_SCU_CLOCK_ScaleMCLKFrequency+0xdc>)
100012de:	4e0e      	ldr	r6, [pc, #56]	; (10001318 <XMC_SCU_CLOCK_ScaleMCLKFrequency+0xd8>)
                     (uint32_t)(curr_idiv << SCU_CLK_CLKCR_IDIV_Pos) |
                     (uint32_t)(1023UL << SCU_CLK_CLKCR_CNTADJ_Pos);

    while (SCU_CLK->CLKCR & SCU_CLK_CLKCR_VDDC2LOW_Msk)
100012e0:	05c9      	lsls	r1, r1, #23

/* Utility routine to perform frequency down scaling */
static void XMC_SCU_CLOCK_lFrequencyDownScaling(uint32_t curr_idiv, uint32_t target_idiv)
{

  while ((curr_idiv * 4UL) < target_idiv)
100012e2:	00a3      	lsls	r3, r4, #2
100012e4:	4298      	cmp	r0, r3
100012e6:	d9e3      	bls.n	100012b0 <XMC_SCU_CLOCK_ScaleMCLKFrequency+0x70>
  {
    if(0U == curr_idiv)
100012e8:	2c00      	cmp	r4, #0
100012ea:	d00a      	beq.n	10001302 <XMC_SCU_CLOCK_ScaleMCLKFrequency+0xc2>
100012ec:	02a5      	lsls	r5, r4, #10
100012ee:	1c1c      	adds	r4, r3, #0
    {
      curr_idiv = 1U;
    }
    curr_idiv  = (uint32_t)(curr_idiv << 2UL);   /* Multiply by 4. */
    SCU_CLK->CLKCR = (SCU_CLK->CLKCR & (uint32_t)~(SCU_CLK_CLKCR_IDIV_Msk | SCU_CLK_CLKCR_CNTADJ_Msk)) |
100012f0:	6813      	ldr	r3, [r2, #0]
100012f2:	403b      	ands	r3, r7
100012f4:	4333      	orrs	r3, r6
                     (uint32_t)(curr_idiv << SCU_CLK_CLKCR_IDIV_Pos) |
100012f6:	432b      	orrs	r3, r5
    if(0U == curr_idiv)
    {
      curr_idiv = 1U;
    }
    curr_idiv  = (uint32_t)(curr_idiv << 2UL);   /* Multiply by 4. */
    SCU_CLK->CLKCR = (SCU_CLK->CLKCR & (uint32_t)~(SCU_CLK_CLKCR_IDIV_Msk | SCU_CLK_CLKCR_CNTADJ_Msk)) |
100012f8:	6013      	str	r3, [r2, #0]
                     (uint32_t)(curr_idiv << SCU_CLK_CLKCR_IDIV_Pos) |
                     (uint32_t)(1023UL << SCU_CLK_CLKCR_CNTADJ_Pos);

    while (SCU_CLK->CLKCR & SCU_CLK_CLKCR_VDDC2LOW_Msk)
100012fa:	6813      	ldr	r3, [r2, #0]
100012fc:	420b      	tst	r3, r1
100012fe:	d1fc      	bne.n	100012fa <XMC_SCU_CLOCK_ScaleMCLKFrequency+0xba>
10001300:	e7ef      	b.n	100012e2 <XMC_SCU_CLOCK_ScaleMCLKFrequency+0xa2>
static void XMC_SCU_CLOCK_lFrequencyDownScaling(uint32_t curr_idiv, uint32_t target_idiv)
{

  while ((curr_idiv * 4UL) < target_idiv)
  {
    if(0U == curr_idiv)
10001302:	2580      	movs	r5, #128	; 0x80
10001304:	2404      	movs	r4, #4
10001306:	00ed      	lsls	r5, r5, #3
10001308:	e7f2      	b.n	100012f0 <XMC_SCU_CLOCK_ScaleMCLKFrequency+0xb0>
1000130a:	46c0      	nop			; (mov r8, r8)
1000130c:	40010000 	.word	0x40010000
10001310:	40010300 	.word	0x40010300
10001314:	c00fff00 	.word	0xc00fff00
10001318:	3ff00000 	.word	0x3ff00000
1000131c:	c00f00ff 	.word	0xc00f00ff

10001320 <XMC_SCU_CLOCK_Init>:
}

/* API to make protected bitfields available for modification */
void XMC_SCU_UnlockProtectedBits(void)
{
  SCU_GENERAL->PASSWD = SCU_GCU_PASSWD_PROT_DISABLE;
10001320:	23c0      	movs	r3, #192	; 0xc0
}


/* API which initializes the clock tree ofthe device */
void XMC_SCU_CLOCK_Init(const XMC_SCU_CLOCK_CONFIG_t *const config)
{
10001322:	b570      	push	{r4, r5, r6, lr}
/* API to make protected bitfields available for modification */
void XMC_SCU_UnlockProtectedBits(void)
{
  SCU_GENERAL->PASSWD = SCU_GCU_PASSWD_PROT_DISABLE;

  while(((SCU_GENERAL->PASSWD) & SCU_GENERAL_PASSWD_PROTS_Msk))
10001324:	2104      	movs	r1, #4
}


/* API which initializes the clock tree ofthe device */
void XMC_SCU_CLOCK_Init(const XMC_SCU_CLOCK_CONFIG_t *const config)
{
10001326:	1c04      	adds	r4, r0, #0
}

/* API to make protected bitfields available for modification */
void XMC_SCU_UnlockProtectedBits(void)
{
  SCU_GENERAL->PASSWD = SCU_GCU_PASSWD_PROT_DISABLE;
10001328:	4a2a      	ldr	r2, [pc, #168]	; (100013d4 <XMC_SCU_CLOCK_Init+0xb4>)
1000132a:	6253      	str	r3, [r2, #36]	; 0x24

  while(((SCU_GENERAL->PASSWD) & SCU_GENERAL_PASSWD_PROTS_Msk))
1000132c:	6a53      	ldr	r3, [r2, #36]	; 0x24
1000132e:	4219      	tst	r1, r3
10001330:	d1fc      	bne.n	1000132c <XMC_SCU_CLOCK_Init+0xc>
  XMC_SCU_UnlockProtectedBits();

#if (UC_SERIES == XMC14)
  /* OSCHP source selection - OSC mode */

  if (config->oschp_mode != XMC_SCU_CLOCK_OSCHP_MODE_DISABLED)
10001332:	79a3      	ldrb	r3, [r4, #6]
10001334:	2b30      	cmp	r3, #48	; 0x30
10001336:	d03e      	beq.n	100013b6 <XMC_SCU_CLOCK_Init+0x96>
  {
    if (OSCHP_GetFrequency() > 20000000U)
10001338:	f7ff feb0 	bl	1000109c <OSCHP_GetFrequency>
1000133c:	4b26      	ldr	r3, [pc, #152]	; (100013d8 <XMC_SCU_CLOCK_Init+0xb8>)
1000133e:	4298      	cmp	r0, r3
10001340:	d840      	bhi.n	100013c4 <XMC_SCU_CLOCK_Init+0xa4>
    {
      SCU_ANALOG->ANAOSCHPCTRL |= (uint16_t)SCU_ANALOG_ANAOSCHPCTRL_HYSCTRL_Msk;
    }

    SCU_ANALOG->ANAOSCHPCTRL = (uint16_t)(SCU_ANALOG->ANAOSCHPCTRL & ~(SCU_ANALOG_ANAOSCHPCTRL_SHBY_Msk | SCU_ANALOG_ANAOSCHPCTRL_MODE_Msk)) |
10001342:	2290      	movs	r2, #144	; 0x90
10001344:	2032      	movs	r0, #50	; 0x32
10001346:	4925      	ldr	r1, [pc, #148]	; (100013dc <XMC_SCU_CLOCK_Init+0xbc>)
    SCU_CLK->OSCCSR |= SCU_CLK_OSCCSR_XOWDEN_Msk;

    do
    {
      /* Restart OSC_HP oscillator watchdog */
      SCU_INTERRUPT->SRCLR1 = SCU_INTERRUPT_SRCLR1_LOECI_Msk;
10001348:	2602      	movs	r6, #2
    if (OSCHP_GetFrequency() > 20000000U)
    {
      SCU_ANALOG->ANAOSCHPCTRL |= (uint16_t)SCU_ANALOG_ANAOSCHPCTRL_HYSCTRL_Msk;
    }

    SCU_ANALOG->ANAOSCHPCTRL = (uint16_t)(SCU_ANALOG->ANAOSCHPCTRL & ~(SCU_ANALOG_ANAOSCHPCTRL_SHBY_Msk | SCU_ANALOG_ANAOSCHPCTRL_MODE_Msk)) |
1000134a:	5a8b      	ldrh	r3, [r1, r2]
    SCU_CLK->OSCCSR |= SCU_CLK_OSCCSR_XOWDEN_Msk;

    do
    {
      /* Restart OSC_HP oscillator watchdog */
      SCU_INTERRUPT->SRCLR1 = SCU_INTERRUPT_SRCLR1_LOECI_Msk;
1000134c:	2502      	movs	r5, #2
    if (OSCHP_GetFrequency() > 20000000U)
    {
      SCU_ANALOG->ANAOSCHPCTRL |= (uint16_t)SCU_ANALOG_ANAOSCHPCTRL_HYSCTRL_Msk;
    }

    SCU_ANALOG->ANAOSCHPCTRL = (uint16_t)(SCU_ANALOG->ANAOSCHPCTRL & ~(SCU_ANALOG_ANAOSCHPCTRL_SHBY_Msk | SCU_ANALOG_ANAOSCHPCTRL_MODE_Msk)) |
1000134e:	4383      	bics	r3, r0
10001350:	79a0      	ldrb	r0, [r4, #6]
10001352:	4303      	orrs	r3, r0
10001354:	528b      	strh	r3, [r1, r2]
                                 config->oschp_mode;

    /* Enable OSC_HP oscillator watchdog*/
    SCU_CLK->OSCCSR |= SCU_CLK_OSCCSR_XOWDEN_Msk;
10001356:	2180      	movs	r1, #128	; 0x80

    do
    {
      /* Restart OSC_HP oscillator watchdog */
      SCU_INTERRUPT->SRCLR1 = SCU_INTERRUPT_SRCLR1_LOECI_Msk;
      SCU_CLK->OSCCSR |= SCU_CLK_OSCCSR_XOWDRES_Msk;
10001358:	2080      	movs	r0, #128	; 0x80

    SCU_ANALOG->ANAOSCHPCTRL = (uint16_t)(SCU_ANALOG->ANAOSCHPCTRL & ~(SCU_ANALOG_ANAOSCHPCTRL_SHBY_Msk | SCU_ANALOG_ANAOSCHPCTRL_MODE_Msk)) |
                                 config->oschp_mode;

    /* Enable OSC_HP oscillator watchdog*/
    SCU_CLK->OSCCSR |= SCU_CLK_OSCCSR_XOWDEN_Msk;
1000135a:	4a21      	ldr	r2, [pc, #132]	; (100013e0 <XMC_SCU_CLOCK_Init+0xc0>)
1000135c:	0489      	lsls	r1, r1, #18
1000135e:	6953      	ldr	r3, [r2, #20]

    do
    {
      /* Restart OSC_HP oscillator watchdog */
      SCU_INTERRUPT->SRCLR1 = SCU_INTERRUPT_SRCLR1_LOECI_Msk;
      SCU_CLK->OSCCSR |= SCU_CLK_OSCCSR_XOWDRES_Msk;
10001360:	0440      	lsls	r0, r0, #17

    SCU_ANALOG->ANAOSCHPCTRL = (uint16_t)(SCU_ANALOG->ANAOSCHPCTRL & ~(SCU_ANALOG_ANAOSCHPCTRL_SHBY_Msk | SCU_ANALOG_ANAOSCHPCTRL_MODE_Msk)) |
                                 config->oschp_mode;

    /* Enable OSC_HP oscillator watchdog*/
    SCU_CLK->OSCCSR |= SCU_CLK_OSCCSR_XOWDEN_Msk;
10001362:	430b      	orrs	r3, r1

    do
    {
      /* Restart OSC_HP oscillator watchdog */
      SCU_INTERRUPT->SRCLR1 = SCU_INTERRUPT_SRCLR1_LOECI_Msk;
10001364:	491f      	ldr	r1, [pc, #124]	; (100013e4 <XMC_SCU_CLOCK_Init+0xc4>)

    SCU_ANALOG->ANAOSCHPCTRL = (uint16_t)(SCU_ANALOG->ANAOSCHPCTRL & ~(SCU_ANALOG_ANAOSCHPCTRL_SHBY_Msk | SCU_ANALOG_ANAOSCHPCTRL_MODE_Msk)) |
                                 config->oschp_mode;

    /* Enable OSC_HP oscillator watchdog*/
    SCU_CLK->OSCCSR |= SCU_CLK_OSCCSR_XOWDEN_Msk;
10001366:	6153      	str	r3, [r2, #20]

    do
    {
      /* Restart OSC_HP oscillator watchdog */
      SCU_INTERRUPT->SRCLR1 = SCU_INTERRUPT_SRCLR1_LOECI_Msk;
10001368:	628d      	str	r5, [r1, #40]	; 0x28
      SCU_CLK->OSCCSR |= SCU_CLK_OSCCSR_XOWDRES_Msk;
1000136a:	6953      	ldr	r3, [r2, #20]
1000136c:	4303      	orrs	r3, r0
1000136e:	6153      	str	r3, [r2, #20]
10001370:	4b1d      	ldr	r3, [pc, #116]	; (100013e8 <XMC_SCU_CLOCK_Init+0xc8>)
  \brief   No Operation
  \details No Operation does nothing. This instruction can be used for code alignment purposes.
 */
__attribute__((always_inline)) __STATIC_INLINE void __NOP(void)
{
  __ASM volatile ("nop");
10001372:	46c0      	nop			; (mov r8, r8)
10001374:	3b01      	subs	r3, #1

#if UC_SERIES == XMC14
/* This is a local function used to generate the delay until register get updated with new configured value.  */
static void delay(uint32_t cycles)
{
  while(cycles > 0U)
10001376:	2b00      	cmp	r3, #0
10001378:	d1fb      	bne.n	10001372 <XMC_SCU_CLOCK_Init+0x52>
      /* Wait a few DCO2 cycles for the update of the clock detection result */
      delay(2500);

      /* check clock is ok */
    }
    while(SCU_INTERRUPT->SRRAW1 & SCU_INTERRUPT_SRRAW1_LOECI_Msk);
1000137a:	6a0b      	ldr	r3, [r1, #32]
1000137c:	421e      	tst	r6, r3
1000137e:	d1f3      	bne.n	10001368 <XMC_SCU_CLOCK_Init+0x48>
  else /* (config->oschp_mode == XMC_SCU_CLOCK_OSCHP_MODE_DISABLED) */
  {
    SCU_ANALOG->ANAOSCHPCTRL |= SCU_ANALOG_ANAOSCHPCTRL_MODE_Msk;
  }

  SCU_ANALOG->ANAOSCLPCTRL = (uint16_t)config->osclp_mode;
10001380:	238c      	movs	r3, #140	; 0x8c
10001382:	79e1      	ldrb	r1, [r4, #7]
10001384:	4a15      	ldr	r2, [pc, #84]	; (100013dc <XMC_SCU_CLOCK_Init+0xbc>)
10001386:	52d1      	strh	r1, [r2, r3]

  SCU_CLK->CLKCR1 = (SCU_CLK->CLKCR1 & ~SCU_CLK_CLKCR1_DCLKSEL_Msk) |
10001388:	4915      	ldr	r1, [pc, #84]	; (100013e0 <XMC_SCU_CLOCK_Init+0xc0>)
1000138a:	4a18      	ldr	r2, [pc, #96]	; (100013ec <XMC_SCU_CLOCK_Init+0xcc>)
1000138c:	69cb      	ldr	r3, [r1, #28]
1000138e:	88a0      	ldrh	r0, [r4, #4]
10001390:	4013      	ands	r3, r2
10001392:	4303      	orrs	r3, r0
10001394:	68e2      	ldr	r2, [r4, #12]
10001396:	68a0      	ldr	r0, [r4, #8]
10001398:	61cb      	str	r3, [r1, #28]
                    config->dclk_src;

#endif
  /* Update PCLK selection mux. */
  SCU_CLK->CLKCR = (SCU_CLK->CLKCR & (uint32_t)~(SCU_CLK_CLKCR_PCLKSEL_Msk | SCU_CLK_CLKCR_RTCCLKSEL_Msk)) |
1000139a:	680b      	ldr	r3, [r1, #0]
1000139c:	4310      	orrs	r0, r2
1000139e:	4a14      	ldr	r2, [pc, #80]	; (100013f0 <XMC_SCU_CLOCK_Init+0xd0>)
100013a0:	4013      	ands	r3, r2
}

/* API to lock protected bitfields from being modified */
void XMC_SCU_LockProtectedBits(void)
{
  SCU_GENERAL->PASSWD = SCU_GCU_PASSWD_PROT_ENABLE;
100013a2:	22c3      	movs	r2, #195	; 0xc3
                    config->dclk_src;

#endif
  /* Update PCLK selection mux. */
  SCU_CLK->CLKCR = (SCU_CLK->CLKCR & (uint32_t)~(SCU_CLK_CLKCR_PCLKSEL_Msk | SCU_CLK_CLKCR_RTCCLKSEL_Msk)) |
                   config->rtc_src |
100013a4:	4303      	orrs	r3, r0
  SCU_CLK->CLKCR1 = (SCU_CLK->CLKCR1 & ~SCU_CLK_CLKCR1_DCLKSEL_Msk) |
                    config->dclk_src;

#endif
  /* Update PCLK selection mux. */
  SCU_CLK->CLKCR = (SCU_CLK->CLKCR & (uint32_t)~(SCU_CLK_CLKCR_PCLKSEL_Msk | SCU_CLK_CLKCR_RTCCLKSEL_Msk)) |
100013a6:	600b      	str	r3, [r1, #0]
}

/* API to lock protected bitfields from being modified */
void XMC_SCU_LockProtectedBits(void)
{
  SCU_GENERAL->PASSWD = SCU_GCU_PASSWD_PROT_ENABLE;
100013a8:	4b0a      	ldr	r3, [pc, #40]	; (100013d4 <XMC_SCU_CLOCK_Init+0xb4>)
100013aa:	625a      	str	r2, [r3, #36]	; 0x24

  /* Close the lock opened above. */
  XMC_SCU_LockProtectedBits();

  /* Update the dividers now */
  XMC_SCU_CLOCK_ScaleMCLKFrequency(config->idiv, config->fdiv);
100013ac:	78a0      	ldrb	r0, [r4, #2]
100013ae:	8821      	ldrh	r1, [r4, #0]
100013b0:	f7ff ff46 	bl	10001240 <XMC_SCU_CLOCK_ScaleMCLKFrequency>

}
100013b4:	bd70      	pop	{r4, r5, r6, pc}
    }
    while(SCU_INTERRUPT->SRRAW1 & SCU_INTERRUPT_SRRAW1_LOECI_Msk);
  }
  else /* (config->oschp_mode == XMC_SCU_CLOCK_OSCHP_MODE_DISABLED) */
  {
    SCU_ANALOG->ANAOSCHPCTRL |= SCU_ANALOG_ANAOSCHPCTRL_MODE_Msk;
100013b6:	2290      	movs	r2, #144	; 0x90
100013b8:	2330      	movs	r3, #48	; 0x30
100013ba:	4908      	ldr	r1, [pc, #32]	; (100013dc <XMC_SCU_CLOCK_Init+0xbc>)
100013bc:	5a88      	ldrh	r0, [r1, r2]
100013be:	4303      	orrs	r3, r0
100013c0:	528b      	strh	r3, [r1, r2]
100013c2:	e7dd      	b.n	10001380 <XMC_SCU_CLOCK_Init+0x60>

  if (config->oschp_mode != XMC_SCU_CLOCK_OSCHP_MODE_DISABLED)
  {
    if (OSCHP_GetFrequency() > 20000000U)
    {
      SCU_ANALOG->ANAOSCHPCTRL |= (uint16_t)SCU_ANALOG_ANAOSCHPCTRL_HYSCTRL_Msk;
100013c4:	2290      	movs	r2, #144	; 0x90
100013c6:	2340      	movs	r3, #64	; 0x40
100013c8:	4904      	ldr	r1, [pc, #16]	; (100013dc <XMC_SCU_CLOCK_Init+0xbc>)
100013ca:	5a88      	ldrh	r0, [r1, r2]
100013cc:	4303      	orrs	r3, r0
100013ce:	528b      	strh	r3, [r1, r2]
100013d0:	e7b7      	b.n	10001342 <XMC_SCU_CLOCK_Init+0x22>
100013d2:	46c0      	nop			; (mov r8, r8)
100013d4:	40010000 	.word	0x40010000
100013d8:	01312d00 	.word	0x01312d00
100013dc:	40011000 	.word	0x40011000
100013e0:	40010300 	.word	0x40010300
100013e4:	40010038 	.word	0x40010038
100013e8:	000009c4 	.word	0x000009c4
100013ec:	fffffdff 	.word	0xfffffdff
100013f0:	fff0ffff 	.word	0xfff0ffff

100013f4 <XMC_SCU_CLOCK_GetPeripheralClockFrequency>:
/*
 * API to retrieve clock frequency of peripherals on the peripheral bus using a shared functional clock
 */
uint32_t XMC_SCU_CLOCK_GetPeripheralClockFrequency(void)
{
  return (SystemCoreClock);
100013f4:	4b01      	ldr	r3, [pc, #4]	; (100013fc <XMC_SCU_CLOCK_GetPeripheralClockFrequency+0x8>)
100013f6:	6818      	ldr	r0, [r3, #0]
}
100013f8:	4770      	bx	lr
100013fa:	46c0      	nop			; (mov r8, r8)
100013fc:	20003ffc 	.word	0x20003ffc

10001400 <XMC_SCU_SetInterruptControl>:
void XMC_SCU_SetInterruptControl(uint8_t irq_number, XMC_SCU_IRQCTRL_t source)
{
  XMC_ASSERT("XMC_SCU_SetInterruptControl: Invalid irq_number", irq_number < 32);
  XMC_ASSERT("XMC_SCU_SetInterruptControl: Invalid source", (source >> 8) == irq_number);

  source &= 0x3U;
10001400:	2303      	movs	r3, #3
  return ((SCU_CLK->OSCCSR & (SCU_CLK_OSCCSR_OSC2L_Msk | SCU_CLK_OSCCSR_OSC2H_Msk)) == 0U);
}

/* This function selects service request source for a NVIC interrupt node */
void XMC_SCU_SetInterruptControl(uint8_t irq_number, XMC_SCU_IRQCTRL_t source)
{
10001402:	b530      	push	{r4, r5, lr}
  XMC_ASSERT("XMC_SCU_SetInterruptControl: Invalid irq_number", irq_number < 32);
  XMC_ASSERT("XMC_SCU_SetInterruptControl: Invalid source", (source >> 8) == irq_number);

  source &= 0x3U;
10001404:	4019      	ands	r1, r3
  if (irq_number < 16U)
  {
    SCU_GENERAL->INTCR0 = (SCU_GENERAL->INTCR0 & ~(SCU_GENERAL_INTCR_INTSEL_Msk << (irq_number * SCU_GENERAL_INTCR_INTSEL_Size))) |
10001406:	4c0b      	ldr	r4, [pc, #44]	; (10001434 <XMC_SCU_SetInterruptControl+0x34>)
{
  XMC_ASSERT("XMC_SCU_SetInterruptControl: Invalid irq_number", irq_number < 32);
  XMC_ASSERT("XMC_SCU_SetInterruptControl: Invalid source", (source >> 8) == irq_number);

  source &= 0x3U;
  if (irq_number < 16U)
10001408:	280f      	cmp	r0, #15
1000140a:	d90a      	bls.n	10001422 <XMC_SCU_SetInterruptControl+0x22>
                          (source << (irq_number * SCU_GENERAL_INTCR_INTSEL_Size));
  }
  else
  {
    irq_number &= 0x0fU;
    SCU_GENERAL->INTCR1 = (SCU_GENERAL->INTCR1 & ~(SCU_GENERAL_INTCR_INTSEL_Msk << (irq_number  * SCU_GENERAL_INTCR_INTSEL_Size))) |
1000140c:	250f      	movs	r5, #15
1000140e:	4028      	ands	r0, r5
10001410:	0040      	lsls	r0, r0, #1
                          (source << (irq_number  * SCU_GENERAL_INTCR_INTSEL_Size));
10001412:	4081      	lsls	r1, r0
                          (source << (irq_number * SCU_GENERAL_INTCR_INTSEL_Size));
  }
  else
  {
    irq_number &= 0x0fU;
    SCU_GENERAL->INTCR1 = (SCU_GENERAL->INTCR1 & ~(SCU_GENERAL_INTCR_INTSEL_Msk << (irq_number  * SCU_GENERAL_INTCR_INTSEL_Size))) |
10001414:	4083      	lsls	r3, r0
                          (source << (irq_number  * SCU_GENERAL_INTCR_INTSEL_Size));
10001416:	1c08      	adds	r0, r1, #0
                          (source << (irq_number * SCU_GENERAL_INTCR_INTSEL_Size));
  }
  else
  {
    irq_number &= 0x0fU;
    SCU_GENERAL->INTCR1 = (SCU_GENERAL->INTCR1 & ~(SCU_GENERAL_INTCR_INTSEL_Msk << (irq_number  * SCU_GENERAL_INTCR_INTSEL_Size))) |
10001418:	6f22      	ldr	r2, [r4, #112]	; 0x70
1000141a:	439a      	bics	r2, r3
1000141c:	4310      	orrs	r0, r2
1000141e:	6720      	str	r0, [r4, #112]	; 0x70
                          (source << (irq_number  * SCU_GENERAL_INTCR_INTSEL_Size));
  }
}
10001420:	bd30      	pop	{r4, r5, pc}
  XMC_ASSERT("XMC_SCU_SetInterruptControl: Invalid source", (source >> 8) == irq_number);

  source &= 0x3U;
  if (irq_number < 16U)
  {
    SCU_GENERAL->INTCR0 = (SCU_GENERAL->INTCR0 & ~(SCU_GENERAL_INTCR_INTSEL_Msk << (irq_number * SCU_GENERAL_INTCR_INTSEL_Size))) |
10001422:	0040      	lsls	r0, r0, #1
                          (source << (irq_number * SCU_GENERAL_INTCR_INTSEL_Size));
10001424:	4081      	lsls	r1, r0
  XMC_ASSERT("XMC_SCU_SetInterruptControl: Invalid source", (source >> 8) == irq_number);

  source &= 0x3U;
  if (irq_number < 16U)
  {
    SCU_GENERAL->INTCR0 = (SCU_GENERAL->INTCR0 & ~(SCU_GENERAL_INTCR_INTSEL_Msk << (irq_number * SCU_GENERAL_INTCR_INTSEL_Size))) |
10001426:	4083      	lsls	r3, r0
                          (source << (irq_number * SCU_GENERAL_INTCR_INTSEL_Size));
10001428:	1c08      	adds	r0, r1, #0
  XMC_ASSERT("XMC_SCU_SetInterruptControl: Invalid source", (source >> 8) == irq_number);

  source &= 0x3U;
  if (irq_number < 16U)
  {
    SCU_GENERAL->INTCR0 = (SCU_GENERAL->INTCR0 & ~(SCU_GENERAL_INTCR_INTSEL_Msk << (irq_number * SCU_GENERAL_INTCR_INTSEL_Size))) |
1000142a:	6ee2      	ldr	r2, [r4, #108]	; 0x6c
1000142c:	439a      	bics	r2, r3
1000142e:	4310      	orrs	r0, r2
10001430:	66e0      	str	r0, [r4, #108]	; 0x6c
10001432:	e7f5      	b.n	10001420 <XMC_SCU_SetInterruptControl+0x20>
10001434:	40010000 	.word	0x40010000

10001438 <XMC_ACMP_Init>:
  /*
   * Initializes the comparator with configuration supplied. Low power node setting is retained during initialization.
   * All the instances passed are handled with low power setting, to avoid conditional check for ACMP0 instance.
   * This reduces the code size. No side effects, because this register bit field is empty for other instances.
   */
  peripheral->ANACMP[instance] = ((peripheral->ANACMP[instance] & (uint32_t)COMPARATOR_ANACMP0_CMP_LPWR_Msk)) |
10001438:	2380      	movs	r3, #128	; 0x80
 * API IMPLEMENTATION
 ********************************************************************************************************************/

/* API to initialize an instance of ACMP module */
void XMC_ACMP_Init(XMC_ACMP_t *const peripheral, uint32_t instance, const XMC_ACMP_CONFIG_t *const config)
{
1000143a:	b510      	push	{r4, lr}
1000143c:	0089      	lsls	r1, r1, #2
1000143e:	1841      	adds	r1, r0, r1
  /*
   * Initializes the comparator with configuration supplied. Low power node setting is retained during initialization.
   * All the instances passed are handled with low power setting, to avoid conditional check for ACMP0 instance.
   * This reduces the code size. No side effects, because this register bit field is empty for other instances.
   */
  peripheral->ANACMP[instance] = ((peripheral->ANACMP[instance] & (uint32_t)COMPARATOR_ANACMP0_CMP_LPWR_Msk)) |
10001440:	4803      	ldr	r0, [pc, #12]	; (10001450 <XMC_ACMP_Init+0x18>)
10001442:	6812      	ldr	r2, [r2, #0]
10001444:	580c      	ldr	r4, [r1, r0]
10001446:	005b      	lsls	r3, r3, #1
10001448:	4023      	ands	r3, r4
1000144a:	4313      	orrs	r3, r2
1000144c:	500b      	str	r3, [r1, r0]
                                 (uint32_t)config->anacmp;
}
1000144e:	bd10      	pop	{r4, pc}
10001450:	00000b5c 	.word	0x00000b5c

10001454 <XMC_CCU4_Init>:
#endif
}

/* API to initialize CCU4 global resources  */
void XMC_CCU4_Init(XMC_CCU4_MODULE_t *const module, const XMC_CCU4_SLICE_MCMS_ACTION_t mcs_action)
{
10001454:	b538      	push	{r3, r4, r5, lr}
  }
}

__STATIC_INLINE void XMC_CCU4_lUngateClock(const XMC_CCU4_MODULE_t *const module)
{
  switch ((uint32_t)module)
10001456:	4b0e      	ldr	r3, [pc, #56]	; (10001490 <XMC_CCU4_Init+0x3c>)
#endif
}

/* API to initialize CCU4 global resources  */
void XMC_CCU4_Init(XMC_CCU4_MODULE_t *const module, const XMC_CCU4_SLICE_MCMS_ACTION_t mcs_action)
{
10001458:	1c04      	adds	r4, r0, #0
1000145a:	1c0d      	adds	r5, r1, #0
  }
}

__STATIC_INLINE void XMC_CCU4_lUngateClock(const XMC_CCU4_MODULE_t *const module)
{
  switch ((uint32_t)module)
1000145c:	4298      	cmp	r0, r3
1000145e:	d012      	beq.n	10001486 <XMC_CCU4_Init+0x32>
10001460:	4b0c      	ldr	r3, [pc, #48]	; (10001494 <XMC_CCU4_Init+0x40>)
10001462:	4298      	cmp	r0, r3
10001464:	d103      	bne.n	1000146e <XMC_CCU4_Init+0x1a>
      XMC_SCU_CLOCK_UngatePeripheralClock(XMC_SCU_PERIPHERAL_CLOCK_CCU40);
      break;
      
#if defined(CCU41)      
    case (uint32_t)CCU41:
      XMC_SCU_CLOCK_UngatePeripheralClock(XMC_SCU_PERIPHERAL_CLOCK_CCU41);
10001466:	2080      	movs	r0, #128	; 0x80
10001468:	0280      	lsls	r0, r0, #10
1000146a:	f7ff fed1 	bl	10001210 <XMC_SCU_CLOCK_UngatePeripheralClock>
 * XMC_CCU4_StopPrescaler().
 */
__STATIC_INLINE void XMC_CCU4_StartPrescaler(XMC_CCU4_MODULE_t *const module)
{
  XMC_ASSERT("XMC_CCU4_StartPrescaler:Invalid Module Pointer", XMC_CCU4_IsValidModule(module));
  module->GIDLC |= (uint32_t) CCU4_GIDLC_SPRB_Msk;
1000146e:	2280      	movs	r2, #128	; 0x80
10001470:	68e3      	ldr	r3, [r4, #12]
10001472:	0052      	lsls	r2, r2, #1
10001474:	4313      	orrs	r3, r2
10001476:	60e3      	str	r3, [r4, #12]
  /* Enable CCU4 module */
  XMC_CCU4_EnableModule(module);
  /* Start the prescaler */
  XMC_CCU4_StartPrescaler(module);
  
  gctrl = module->GCTRL;
10001478:	6821      	ldr	r1, [r4, #0]
  gctrl &= ~((uint32_t) CCU4_GCTRL_MSDE_Msk);
1000147a:	4b07      	ldr	r3, [pc, #28]	; (10001498 <XMC_CCU4_Init+0x44>)
1000147c:	400b      	ands	r3, r1
  gctrl |= ((uint32_t) mcs_action) << CCU4_GCTRL_MSDE_Pos;
1000147e:	03a9      	lsls	r1, r5, #14
10001480:	4319      	orrs	r1, r3
  
  module->GCTRL = gctrl;
10001482:	6021      	str	r1, [r4, #0]
}
10001484:	bd38      	pop	{r3, r4, r5, pc}
__STATIC_INLINE void XMC_CCU4_lUngateClock(const XMC_CCU4_MODULE_t *const module)
{
  switch ((uint32_t)module)
  {
    case (uint32_t)CCU40:
      XMC_SCU_CLOCK_UngatePeripheralClock(XMC_SCU_PERIPHERAL_CLOCK_CCU40);
10001486:	2004      	movs	r0, #4
10001488:	f7ff fec2 	bl	10001210 <XMC_SCU_CLOCK_UngatePeripheralClock>
1000148c:	e7ef      	b.n	1000146e <XMC_CCU4_Init+0x1a>
1000148e:	46c0      	nop			; (mov r8, r8)
10001490:	48040000 	.word	0x48040000
10001494:	48044000 	.word	0x48044000
10001498:	ffff3fff 	.word	0xffff3fff

1000149c <XMC_CCU4_SetMultiChannelShadowTransferMode>:
{
  uint32_t gctrl;

  XMC_ASSERT("XMC_CCU4_SetMultiChannelShadowTransferMode:Invalid module Pointer", XMC_CCU4_IsValidModule(module));
  
  gctrl = module->GCTRL;
1000149c:	6803      	ldr	r3, [r0, #0]
  gctrl &= ~((uint32_t)slice_mode_msk >> 16U);
1000149e:	0c0a      	lsrs	r2, r1, #16
  gctrl |= ((uint32_t)slice_mode_msk & 0xFFFFU);
100014a0:	0409      	lsls	r1, r1, #16
  uint32_t gctrl;

  XMC_ASSERT("XMC_CCU4_SetMultiChannelShadowTransferMode:Invalid module Pointer", XMC_CCU4_IsValidModule(module));
  
  gctrl = module->GCTRL;
  gctrl &= ~((uint32_t)slice_mode_msk >> 16U);
100014a2:	4393      	bics	r3, r2
  gctrl |= ((uint32_t)slice_mode_msk & 0xFFFFU);
100014a4:	0c09      	lsrs	r1, r1, #16
100014a6:	4319      	orrs	r1, r3
  module->GCTRL = gctrl;
100014a8:	6001      	str	r1, [r0, #0]
}
100014aa:	4770      	bx	lr

100014ac <XMC_CCU4_SLICE_CompareInit>:
  XMC_ASSERT("XMC_CCU4_SLICE_CompareInit:Invalid Slice Pointer", XMC_CCU4_IsValidSlice(slice));
  XMC_ASSERT("XMC_CCU4_SLICE_CompareInit:Compare Init Pointer is NULL",
             (XMC_CCU4_SLICE_COMPARE_CONFIG_t *) NULL != compare_init);

  /* Program the timer mode */
  slice->TC = compare_init->tc;
100014ac:	680b      	ldr	r3, [r1, #0]
100014ae:	6143      	str	r3, [r0, #20]
  /* Enable the timer concatenation */
  slice->CMC = ((uint32_t) compare_init->timer_concatenation << CCU4_CC4_CMC_TCE_Pos);
100014b0:	794b      	ldrb	r3, [r1, #5]
100014b2:	069b      	lsls	r3, r3, #26
100014b4:	0fdb      	lsrs	r3, r3, #31
100014b6:	051b      	lsls	r3, r3, #20
100014b8:	6043      	str	r3, [r0, #4]
  /* Program initial prescaler divider value */
  slice->PSC = (uint32_t) compare_init->prescaler_initval;
100014ba:	790b      	ldrb	r3, [r1, #4]
100014bc:	071b      	lsls	r3, r3, #28
100014be:	0f1b      	lsrs	r3, r3, #28
100014c0:	6243      	str	r3, [r0, #36]	; 0x24
  /* Program the dither compare value */
  slice->DITS = (uint32_t) compare_init->dither_limit;
100014c2:	794b      	ldrb	r3, [r1, #5]
100014c4:	071b      	lsls	r3, r3, #28
100014c6:	0f1b      	lsrs	r3, r3, #28
100014c8:	6203      	str	r3, [r0, #32]
  /* Program timer output passive level */
  slice->PSL = (uint32_t) compare_init->passive_level;
100014ca:	794b      	ldrb	r3, [r1, #5]
100014cc:	06db      	lsls	r3, r3, #27
100014ce:	0fdb      	lsrs	r3, r3, #31
100014d0:	6183      	str	r3, [r0, #24]
  /* Program floating prescaler compare value */
  slice->FPCS = (uint32_t) compare_init->float_limit;
100014d2:	790b      	ldrb	r3, [r1, #4]
100014d4:	091b      	lsrs	r3, r3, #4
100014d6:	62c3      	str	r3, [r0, #44]	; 0x2c
}
100014d8:	4770      	bx	lr
100014da:	46c0      	nop			; (mov r8, r8)

100014dc <XMC_CCU4_SLICE_StartConfig>:

/* API to configure the Start trigger function of a slice */
void XMC_CCU4_SLICE_StartConfig(XMC_CCU4_SLICE_t *const slice,
		                        const XMC_CCU4_SLICE_EVENT_t event,
                                const XMC_CCU4_SLICE_START_MODE_t start_mode)
{
100014dc:	b510      	push	{r4, lr}
  XMC_ASSERT("XMC_CCU4_SLICE_StartConfig:Invalid Start Mode", 
             ((start_mode == XMC_CCU4_SLICE_START_MODE_TIMER_START_CLEAR) ||\
		          (start_mode == XMC_CCU4_SLICE_START_MODE_TIMER_START)));
  /* First, Bind the event with the stop function */
  cmc = slice->CMC;
  cmc &= ~((uint32_t) CCU4_CC4_CMC_STRTS_Msk);
100014de:	2403      	movs	r4, #3
  XMC_ASSERT("XMC_CCU4_SLICE_StartConfig:Invalid Event ID", XMC_CCU4_SLICE_CHECK_EVENT_ID(event));
  XMC_ASSERT("XMC_CCU4_SLICE_StartConfig:Invalid Start Mode", 
             ((start_mode == XMC_CCU4_SLICE_START_MODE_TIMER_START_CLEAR) ||\
		          (start_mode == XMC_CCU4_SLICE_START_MODE_TIMER_START)));
  /* First, Bind the event with the stop function */
  cmc = slice->CMC;
100014e0:	6843      	ldr	r3, [r0, #4]
  cmc &= ~((uint32_t) CCU4_CC4_CMC_STRTS_Msk);
100014e2:	43a3      	bics	r3, r4
  cmc |= ((uint32_t) event) << CCU4_CC4_CMC_STRTS_Pos;
100014e4:	4319      	orrs	r1, r3

  slice->CMC = cmc;
100014e6:	6041      	str	r1, [r0, #4]
  
  tc  = slice->TC;
100014e8:	6943      	ldr	r3, [r0, #20]
  /* Next, Configure the start mode */
  if (start_mode == XMC_CCU4_SLICE_START_MODE_TIMER_START_CLEAR)
100014ea:	2a01      	cmp	r2, #1
100014ec:	d003      	beq.n	100014f6 <XMC_CCU4_SLICE_StartConfig+0x1a>
  {
    tc |= (uint32_t)CCU4_CC4_TC_STRM_Msk;
  }
  else
  {
    tc &= ~((uint32_t)CCU4_CC4_TC_STRM_Msk);
100014ee:	4a04      	ldr	r2, [pc, #16]	; (10001500 <XMC_CCU4_SLICE_StartConfig+0x24>)
100014f0:	4013      	ands	r3, r2
  }
  
  slice->TC = tc;
100014f2:	6143      	str	r3, [r0, #20]
}
100014f4:	bd10      	pop	{r4, pc}
  
  tc  = slice->TC;
  /* Next, Configure the start mode */
  if (start_mode == XMC_CCU4_SLICE_START_MODE_TIMER_START_CLEAR)
  {
    tc |= (uint32_t)CCU4_CC4_TC_STRM_Msk;
100014f6:	2280      	movs	r2, #128	; 0x80
100014f8:	00d2      	lsls	r2, r2, #3
100014fa:	4313      	orrs	r3, r2
100014fc:	e7f9      	b.n	100014f2 <XMC_CCU4_SLICE_StartConfig+0x16>
100014fe:	46c0      	nop			; (mov r8, r8)
10001500:	fffffbff 	.word	0xfffffbff

10001504 <XMC_CCU4_SLICE_StopConfig>:

/* API to configure the Stop trigger function of a slice */
void XMC_CCU4_SLICE_StopConfig(XMC_CCU4_SLICE_t *const slice,
		                       const XMC_CCU4_SLICE_EVENT_t event,
                               const XMC_CCU4_SLICE_END_MODE_t end_mode)
{
10001504:	b510      	push	{r4, lr}
  XMC_ASSERT("XMC_CCU4_SLICE_StopConfig:Invalid Event ID", XMC_CCU4_SLICE_CHECK_EVENT_ID(event));
  XMC_ASSERT("XMC_CCU4_SLICE_StopConfig:Invalid Start Mode", XMC_CCU4_CHECK_END_MODE(end_mode));
  
  /* First, Bind the event with the stop function */
  cmc = slice->CMC;
  cmc &= ~((uint32_t) CCU4_CC4_CMC_ENDS_Msk);
10001506:	240c      	movs	r4, #12
  XMC_ASSERT("XMC_CCU4_SLICE_StopConfig:Invalid Slice Pointer", XMC_CCU4_IsValidSlice(slice));
  XMC_ASSERT("XMC_CCU4_SLICE_StopConfig:Invalid Event ID", XMC_CCU4_SLICE_CHECK_EVENT_ID(event));
  XMC_ASSERT("XMC_CCU4_SLICE_StopConfig:Invalid Start Mode", XMC_CCU4_CHECK_END_MODE(end_mode));
  
  /* First, Bind the event with the stop function */
  cmc = slice->CMC;
10001508:	6843      	ldr	r3, [r0, #4]
  cmc &= ~((uint32_t) CCU4_CC4_CMC_ENDS_Msk);
  cmc |= ((uint32_t) event) << CCU4_CC4_CMC_ENDS_Pos;
1000150a:	0089      	lsls	r1, r1, #2
  XMC_ASSERT("XMC_CCU4_SLICE_StopConfig:Invalid Event ID", XMC_CCU4_SLICE_CHECK_EVENT_ID(event));
  XMC_ASSERT("XMC_CCU4_SLICE_StopConfig:Invalid Start Mode", XMC_CCU4_CHECK_END_MODE(end_mode));
  
  /* First, Bind the event with the stop function */
  cmc = slice->CMC;
  cmc &= ~((uint32_t) CCU4_CC4_CMC_ENDS_Msk);
1000150c:	43a3      	bics	r3, r4
  cmc |= ((uint32_t) event) << CCU4_CC4_CMC_ENDS_Pos;
1000150e:	4319      	orrs	r1, r3

  slice->CMC = cmc;
10001510:	6041      	str	r1, [r0, #4]
  
  /* Next, Configure the stop mode */
  tc = slice->TC;
10001512:	6941      	ldr	r1, [r0, #20]
  tc &= ~((uint32_t) CCU4_CC4_TC_ENDM_Msk);
10001514:	4b02      	ldr	r3, [pc, #8]	; (10001520 <XMC_CCU4_SLICE_StopConfig+0x1c>)
  tc |= ((uint32_t) end_mode) << CCU4_CC4_TC_ENDM_Pos;
10001516:	0212      	lsls	r2, r2, #8

  slice->CMC = cmc;
  
  /* Next, Configure the stop mode */
  tc = slice->TC;
  tc &= ~((uint32_t) CCU4_CC4_TC_ENDM_Msk);
10001518:	400b      	ands	r3, r1
  tc |= ((uint32_t) end_mode) << CCU4_CC4_TC_ENDM_Pos;
1000151a:	431a      	orrs	r2, r3

  slice->TC = tc;
1000151c:	6142      	str	r2, [r0, #20]
}
1000151e:	bd10      	pop	{r4, pc}
10001520:	fffffcff 	.word	0xfffffcff

10001524 <XMC_CCU4_SLICE_LoadConfig>:
  
  XMC_ASSERT("XMC_CCU4_SLICE_LoadConfig:Invalid Slice Pointer", XMC_CCU4_IsValidSlice(slice));
  XMC_ASSERT("XMC_CCU4_SLICE_LoadConfig:Invalid Event ID", XMC_CCU4_SLICE_CHECK_EVENT_ID(event));
  
  /* Bind the event with the load function */
  cmc = slice->CMC;
10001524:	6842      	ldr	r2, [r0, #4]
  cmc &= ~((uint32_t) CCU4_CC4_CMC_LDS_Msk);
10001526:	4b03      	ldr	r3, [pc, #12]	; (10001534 <XMC_CCU4_SLICE_LoadConfig+0x10>)
  cmc |= ((uint32_t) event) << CCU4_CC4_CMC_LDS_Pos;
10001528:	0309      	lsls	r1, r1, #12
  XMC_ASSERT("XMC_CCU4_SLICE_LoadConfig:Invalid Slice Pointer", XMC_CCU4_IsValidSlice(slice));
  XMC_ASSERT("XMC_CCU4_SLICE_LoadConfig:Invalid Event ID", XMC_CCU4_SLICE_CHECK_EVENT_ID(event));
  
  /* Bind the event with the load function */
  cmc = slice->CMC;
  cmc &= ~((uint32_t) CCU4_CC4_CMC_LDS_Msk);
1000152a:	4013      	ands	r3, r2
  cmc |= ((uint32_t) event) << CCU4_CC4_CMC_LDS_Pos;
1000152c:	4319      	orrs	r1, r3

  slice->CMC = cmc;
1000152e:	6041      	str	r1, [r0, #4]
}
10001530:	4770      	bx	lr
10001532:	46c0      	nop			; (mov r8, r8)
10001534:	ffffcfff 	.word	0xffffcfff

10001538 <XMC_CCU4_SLICE_ModulationConfig>:
/* API to configure the slice modulation function */
void XMC_CCU4_SLICE_ModulationConfig(XMC_CCU4_SLICE_t *const slice,
                                     const XMC_CCU4_SLICE_EVENT_t event,
                                     const XMC_CCU4_SLICE_MODULATION_MODE_t mod_mode,
                                     const bool synch_with_pwm)
{
10001538:	b570      	push	{r4, r5, r6, lr}
  XMC_ASSERT("XMC_CCU4_SLICE_ModulationConfig:Invalid Event ID", XMC_CCU4_SLICE_CHECK_EVENT_ID(event));
  XMC_ASSERT("XMC_CCU4_SLICE_ModulationConfig:Invalid Modulation Mode",
             ((mod_mode == XMC_CCU4_SLICE_MODULATION_MODE_CLEAR_OUT) ||\
		          (mod_mode == XMC_CCU4_SLICE_MODULATION_MODE_CLEAR_ST_OUT)));
  
  tc  = slice->TC;
1000153a:	6944      	ldr	r4, [r0, #20]
  cmc = slice->CMC;
  
  /* First, Bind the event with the modulation function */
  cmc &= ~((uint32_t) CCU4_CC4_CMC_MOS_Msk);
1000153c:	4d0b      	ldr	r5, [pc, #44]	; (1000156c <XMC_CCU4_SLICE_ModulationConfig+0x34>)
  XMC_ASSERT("XMC_CCU4_SLICE_ModulationConfig:Invalid Modulation Mode",
             ((mod_mode == XMC_CCU4_SLICE_MODULATION_MODE_CLEAR_OUT) ||\
		          (mod_mode == XMC_CCU4_SLICE_MODULATION_MODE_CLEAR_ST_OUT)));
  
  tc  = slice->TC;
  cmc = slice->CMC;
1000153e:	6846      	ldr	r6, [r0, #4]
  
  /* First, Bind the event with the modulation function */
  cmc &= ~((uint32_t) CCU4_CC4_CMC_MOS_Msk);
  cmc |= ((uint32_t) event) << CCU4_CC4_CMC_MOS_Pos;
10001540:	0489      	lsls	r1, r1, #18
  
  tc  = slice->TC;
  cmc = slice->CMC;
  
  /* First, Bind the event with the modulation function */
  cmc &= ~((uint32_t) CCU4_CC4_CMC_MOS_Msk);
10001542:	4035      	ands	r5, r6
  cmc |= ((uint32_t) event) << CCU4_CC4_CMC_MOS_Pos;
10001544:	4329      	orrs	r1, r5
  slice->CMC = cmc;
10001546:	6041      	str	r1, [r0, #4]
  
  /* Next, Modulation mode */
  if (mod_mode == XMC_CCU4_SLICE_MODULATION_MODE_CLEAR_OUT)
10001548:	2a01      	cmp	r2, #1
1000154a:	d00b      	beq.n	10001564 <XMC_CCU4_SLICE_ModulationConfig+0x2c>
  {
    tc |= (uint32_t) CCU4_CC4_TC_EMT_Msk;
  }
  else
  {
    tc &= ~((uint32_t) CCU4_CC4_TC_EMT_Msk);
1000154c:	4a08      	ldr	r2, [pc, #32]	; (10001570 <XMC_CCU4_SLICE_ModulationConfig+0x38>)
1000154e:	4022      	ands	r2, r4
  }

  /* Synchronization of modulation effect with PWM cycle */
  if (synch_with_pwm == (bool) true)
10001550:	2b00      	cmp	r3, #0
10001552:	d103      	bne.n	1000155c <XMC_CCU4_SLICE_ModulationConfig+0x24>
  {
    tc |= (uint32_t) CCU4_CC4_TC_EMS_Msk;
  }
  else
  {
    tc &= ~((uint32_t) CCU4_CC4_TC_EMS_Msk);
10001554:	4b07      	ldr	r3, [pc, #28]	; (10001574 <XMC_CCU4_SLICE_ModulationConfig+0x3c>)
10001556:	4013      	ands	r3, r2
  }
  
  slice->TC = tc;
10001558:	6143      	str	r3, [r0, #20]
}
1000155a:	bd70      	pop	{r4, r5, r6, pc}
  }

  /* Synchronization of modulation effect with PWM cycle */
  if (synch_with_pwm == (bool) true)
  {
    tc |= (uint32_t) CCU4_CC4_TC_EMS_Msk;
1000155c:	2380      	movs	r3, #128	; 0x80
1000155e:	041b      	lsls	r3, r3, #16
10001560:	4313      	orrs	r3, r2
10001562:	e7f9      	b.n	10001558 <XMC_CCU4_SLICE_ModulationConfig+0x20>
  slice->CMC = cmc;
  
  /* Next, Modulation mode */
  if (mod_mode == XMC_CCU4_SLICE_MODULATION_MODE_CLEAR_OUT)
  {
    tc |= (uint32_t) CCU4_CC4_TC_EMT_Msk;
10001564:	2280      	movs	r2, #128	; 0x80
10001566:	0452      	lsls	r2, r2, #17
10001568:	4322      	orrs	r2, r4
1000156a:	e7f1      	b.n	10001550 <XMC_CCU4_SLICE_ModulationConfig+0x18>
1000156c:	fff3ffff 	.word	0xfff3ffff
10001570:	feffffff 	.word	0xfeffffff
10001574:	ff7fffff 	.word	0xff7fffff

10001578 <XMC_CCU4_SLICE_CountConfig>:
  
  XMC_ASSERT("XMC_CCU4_SLICE_CountConfig:Invalid Slice Pointer", XMC_CCU4_IsValidSlice(slice));
  XMC_ASSERT("XMC_CCU4_SLICE_CountConfig:Invalid Event ID", XMC_CCU4_SLICE_CHECK_EVENT_ID(event));

  /* Bind the event with the count function */
  cmc = slice->CMC;
10001578:	6842      	ldr	r2, [r0, #4]
  cmc &= ~((uint32_t) CCU4_CC4_CMC_CNTS_Msk);
1000157a:	4b03      	ldr	r3, [pc, #12]	; (10001588 <XMC_CCU4_SLICE_CountConfig+0x10>)
  cmc |= ((uint32_t) event) << CCU4_CC4_CMC_CNTS_Pos;
1000157c:	0389      	lsls	r1, r1, #14
  XMC_ASSERT("XMC_CCU4_SLICE_CountConfig:Invalid Slice Pointer", XMC_CCU4_IsValidSlice(slice));
  XMC_ASSERT("XMC_CCU4_SLICE_CountConfig:Invalid Event ID", XMC_CCU4_SLICE_CHECK_EVENT_ID(event));

  /* Bind the event with the count function */
  cmc = slice->CMC;
  cmc &= ~((uint32_t) CCU4_CC4_CMC_CNTS_Msk);
1000157e:	4013      	ands	r3, r2
  cmc |= ((uint32_t) event) << CCU4_CC4_CMC_CNTS_Pos;
10001580:	4319      	orrs	r1, r3

  slice->CMC = cmc;
10001582:	6041      	str	r1, [r0, #4]
}
10001584:	4770      	bx	lr
10001586:	46c0      	nop			; (mov r8, r8)
10001588:	ffff3fff 	.word	0xffff3fff

1000158c <XMC_CCU4_SLICE_GateConfig>:
  
  XMC_ASSERT("XMC_CCU4_SLICE_GateConfig:Invalid Slice Pointer", XMC_CCU4_IsValidSlice(slice));
  XMC_ASSERT("XMC_CCU4_SLICE_GateConfig:Invalid Event ID", XMC_CCU4_SLICE_CHECK_EVENT_ID(event));
  
  /* Bind the event with the gate function */
  cmc = slice->CMC;
1000158c:	6842      	ldr	r2, [r0, #4]
  cmc &= ~((uint32_t) CCU4_CC4_CMC_GATES_Msk);
1000158e:	4b03      	ldr	r3, [pc, #12]	; (1000159c <XMC_CCU4_SLICE_GateConfig+0x10>)
  cmc |= ((uint32_t) event) << CCU4_CC4_CMC_GATES_Pos;
10001590:	0209      	lsls	r1, r1, #8
  XMC_ASSERT("XMC_CCU4_SLICE_GateConfig:Invalid Slice Pointer", XMC_CCU4_IsValidSlice(slice));
  XMC_ASSERT("XMC_CCU4_SLICE_GateConfig:Invalid Event ID", XMC_CCU4_SLICE_CHECK_EVENT_ID(event));
  
  /* Bind the event with the gate function */
  cmc = slice->CMC;
  cmc &= ~((uint32_t) CCU4_CC4_CMC_GATES_Msk);
10001592:	4013      	ands	r3, r2
  cmc |= ((uint32_t) event) << CCU4_CC4_CMC_GATES_Pos;
10001594:	4319      	orrs	r1, r3

  slice->CMC = cmc;
10001596:	6041      	str	r1, [r0, #4]
}
10001598:	4770      	bx	lr
1000159a:	46c0      	nop			; (mov r8, r8)
1000159c:	fffffcff 	.word	0xfffffcff

100015a0 <XMC_CCU4_SLICE_DirectionConfig>:
  
  XMC_ASSERT("XMC_CCU4_SLICE_DirectionConfig:Invalid Slice Pointer", XMC_CCU4_IsValidSlice(slice));
  XMC_ASSERT("XMC_CCU4_SLICE_DirectionConfig:Invalid Event ID", XMC_CCU4_SLICE_CHECK_EVENT_ID(event));
  
  /* Bind the event with the direction function */
  cmc = slice->CMC;
100015a0:	6842      	ldr	r2, [r0, #4]
  cmc &= ~((uint32_t) CCU4_CC4_CMC_UDS_Msk);
100015a2:	4b03      	ldr	r3, [pc, #12]	; (100015b0 <XMC_CCU4_SLICE_DirectionConfig+0x10>)
  cmc |= ((uint32_t) event) << CCU4_CC4_CMC_UDS_Pos;
100015a4:	0289      	lsls	r1, r1, #10
  XMC_ASSERT("XMC_CCU4_SLICE_DirectionConfig:Invalid Slice Pointer", XMC_CCU4_IsValidSlice(slice));
  XMC_ASSERT("XMC_CCU4_SLICE_DirectionConfig:Invalid Event ID", XMC_CCU4_SLICE_CHECK_EVENT_ID(event));
  
  /* Bind the event with the direction function */
  cmc = slice->CMC;
  cmc &= ~((uint32_t) CCU4_CC4_CMC_UDS_Msk);
100015a6:	4013      	ands	r3, r2
  cmc |= ((uint32_t) event) << CCU4_CC4_CMC_UDS_Pos;
100015a8:	4319      	orrs	r1, r3
  
  slice->CMC = cmc;
100015aa:	6041      	str	r1, [r0, #4]
}
100015ac:	4770      	bx	lr
100015ae:	46c0      	nop			; (mov r8, r8)
100015b0:	fffff3ff 	.word	0xfffff3ff

100015b4 <XMC_CCU4_SLICE_StatusBitOverrideConfig>:
  /* Bind the event with the override function */
  cmc = slice->CMC;
  /* Map status bit trigger override to Event 1 & 
         status bit value override to Event 2 */
  cmc &= ~((uint32_t) CCU4_CC4_CMC_OFS_Msk);
  cmc |= ((uint32_t) 1) << CCU4_CC4_CMC_OFS_Pos;
100015b4:	2380      	movs	r3, #128	; 0x80
  uint32_t cmc;
  
  XMC_ASSERT("XMC_CCU4_SLICE_StatusBitOverrideConfig:Invalid Slice Pointer", XMC_CCU4_IsValidSlice(slice));
  
  /* Bind the event with the override function */
  cmc = slice->CMC;
100015b6:	6842      	ldr	r2, [r0, #4]
  /* Map status bit trigger override to Event 1 & 
         status bit value override to Event 2 */
  cmc &= ~((uint32_t) CCU4_CC4_CMC_OFS_Msk);
  cmc |= ((uint32_t) 1) << CCU4_CC4_CMC_OFS_Pos;
100015b8:	025b      	lsls	r3, r3, #9
100015ba:	4313      	orrs	r3, r2

  slice->CMC = cmc;
100015bc:	6043      	str	r3, [r0, #4]
}
100015be:	4770      	bx	lr

100015c0 <XMC_CCU4_SLICE_TrapConfig>:
		                                                         (exit_mode == XMC_CCU4_SLICE_TRAP_EXIT_MODE_SW)));
    
  /* First, Map trap function to Event 2 */
  cmc = slice->CMC;
  cmc &= ~((uint32_t) CCU4_CC4_CMC_TS_Msk);
  cmc |= ((uint32_t) 1) << CCU4_CC4_CMC_TS_Pos;
100015c0:	2380      	movs	r3, #128	; 0x80

/* API to configure trap function */
void XMC_CCU4_SLICE_TrapConfig(XMC_CCU4_SLICE_t *const slice,
		                           const XMC_CCU4_SLICE_TRAP_EXIT_MODE_t exit_mode,
                               const bool synch_with_pwm)
{
100015c2:	b510      	push	{r4, lr}
  XMC_ASSERT("XMC_CCU4_SLICE_TrapConfig:Invalid Slice Pointer", XMC_CCU4_IsValidSlice(slice));
  XMC_ASSERT("XMC_CCU4_SLICE_TrapConfig:Invalid Exit Mode", ((exit_mode == XMC_CCU4_SLICE_TRAP_EXIT_MODE_AUTOMATIC) ||\
		                                                         (exit_mode == XMC_CCU4_SLICE_TRAP_EXIT_MODE_SW)));
    
  /* First, Map trap function to Event 2 */
  cmc = slice->CMC;
100015c4:	6844      	ldr	r4, [r0, #4]
  cmc &= ~((uint32_t) CCU4_CC4_CMC_TS_Msk);
  cmc |= ((uint32_t) 1) << CCU4_CC4_CMC_TS_Pos;
100015c6:	029b      	lsls	r3, r3, #10
100015c8:	4323      	orrs	r3, r4
  slice->CMC = cmc;
100015ca:	6043      	str	r3, [r0, #4]
  
  /* Next, Configure synchronization option */
  tc = slice->TC;
100015cc:	6943      	ldr	r3, [r0, #20]

  if (synch_with_pwm == (bool) true)
100015ce:	2a00      	cmp	r2, #0
100015d0:	d008      	beq.n	100015e4 <XMC_CCU4_SLICE_TrapConfig+0x24>
  {
    tc |= (uint32_t) CCU4_CC4_TC_TRPSE_Msk;
100015d2:	2280      	movs	r2, #128	; 0x80
100015d4:	0392      	lsls	r2, r2, #14
100015d6:	4313      	orrs	r3, r2
  {
    tc &= ~((uint32_t) CCU4_CC4_TC_TRPSE_Msk);
  }
  
  /* Configure exit mode */
  if (exit_mode == XMC_CCU4_SLICE_TRAP_EXIT_MODE_SW)
100015d8:	2901      	cmp	r1, #1
100015da:	d007      	beq.n	100015ec <XMC_CCU4_SLICE_TrapConfig+0x2c>
  {
    tc |= (uint32_t) CCU4_CC4_TC_TRPSW_Msk;
  }
  else
  {
    tc &= ~((uint32_t) CCU4_CC4_TC_TRPSW_Msk);
100015dc:	4a05      	ldr	r2, [pc, #20]	; (100015f4 <XMC_CCU4_SLICE_TrapConfig+0x34>)
100015de:	4013      	ands	r3, r2
  }
  
  slice->TC = tc;
100015e0:	6143      	str	r3, [r0, #20]
}
100015e2:	bd10      	pop	{r4, pc}
  {
    tc |= (uint32_t) CCU4_CC4_TC_TRPSE_Msk;
  }
  else
  {
    tc &= ~((uint32_t) CCU4_CC4_TC_TRPSE_Msk);
100015e4:	4a04      	ldr	r2, [pc, #16]	; (100015f8 <XMC_CCU4_SLICE_TrapConfig+0x38>)
100015e6:	4013      	ands	r3, r2
  }
  
  /* Configure exit mode */
  if (exit_mode == XMC_CCU4_SLICE_TRAP_EXIT_MODE_SW)
100015e8:	2901      	cmp	r1, #1
100015ea:	d1f7      	bne.n	100015dc <XMC_CCU4_SLICE_TrapConfig+0x1c>
  {
    tc |= (uint32_t) CCU4_CC4_TC_TRPSW_Msk;
100015ec:	2280      	movs	r2, #128	; 0x80
100015ee:	03d2      	lsls	r2, r2, #15
100015f0:	4313      	orrs	r3, r2
100015f2:	e7f5      	b.n	100015e0 <XMC_CCU4_SLICE_TrapConfig+0x20>
100015f4:	ffbfffff 	.word	0xffbfffff
100015f8:	ffdfffff 	.word	0xffdfffff

100015fc <XMC_CCU4_SLICE_ConfigureStatusBitOverrideEvent>:

/* API to configure a slice Status Bit Override event */
void XMC_CCU4_SLICE_ConfigureStatusBitOverrideEvent(XMC_CCU4_SLICE_t *const slice,
                                                    const XMC_CCU4_SLICE_EVENT_CONFIG_t *const ev1_config,
                                                    const XMC_CCU4_SLICE_EVENT_CONFIG_t *const ev2_config)
{
100015fc:	b530      	push	{r4, r5, lr}
             XMC_CCU4_SLICE_CHECK_EVENT_FILTER(ev2_config->duration));
#if defined(CCU4V3) /* Defined for XMC1400 devices only */
  ins = slice->INS2;

  /* Configure the edge sensitivity for event 1 */
  ins &= ~(((uint32_t) XMC_CCU4_SLICE_EVENT_EDGE_CONFIG_MASK) << CCU4_CC4_INS2_EV1EM_Pos);
100015fe:	2430      	movs	r4, #48	; 0x30
             ((ev2_config->level == XMC_CCU4_SLICE_EVENT_LEVEL_SENSITIVITY_ACTIVE_HIGH) ||\
              (ev2_config->level == XMC_CCU4_SLICE_EVENT_LEVEL_SENSITIVITY_ACTIVE_LOW)));
  XMC_ASSERT("XMC_CCU4_SLICE_ConfigureStatusBitOverrideEvent:Invalid Debounce Period", 
             XMC_CCU4_SLICE_CHECK_EVENT_FILTER(ev2_config->duration));
#if defined(CCU4V3) /* Defined for XMC1400 devices only */
  ins = slice->INS2;
10001600:	6803      	ldr	r3, [r0, #0]
  ins &= ~(((uint32_t) XMC_CCU4_SLICE_EVENT_FILTER_CONFIG_MASK) << CCU4_CC4_INS2_LPF2M_Pos);
  ins |= ((uint32_t) ev2_config->duration) << CCU4_CC4_INS2_LPF2M_Pos;
  
  slice->INS2 = ins;
  
  ins = slice->INS1;
10001602:	25d8      	movs	r5, #216	; 0xd8
             XMC_CCU4_SLICE_CHECK_EVENT_FILTER(ev2_config->duration));
#if defined(CCU4V3) /* Defined for XMC1400 devices only */
  ins = slice->INS2;

  /* Configure the edge sensitivity for event 1 */
  ins &= ~(((uint32_t) XMC_CCU4_SLICE_EVENT_EDGE_CONFIG_MASK) << CCU4_CC4_INS2_EV1EM_Pos);
10001604:	43a3      	bics	r3, r4
10001606:	1c1c      	adds	r4, r3, #0
  ins |= ((uint32_t) ev1_config->edge) << CCU4_CC4_INS2_EV1EM_Pos;
10001608:	784b      	ldrb	r3, [r1, #1]
1000160a:	011b      	lsls	r3, r3, #4
1000160c:	4323      	orrs	r3, r4
  
  /* Configure the edge sensitivity for event 2 */
  ins &= ~(((uint32_t) XMC_CCU4_SLICE_EVENT_EDGE_CONFIG_MASK) << CCU4_CC4_INS2_EV2EM_Pos);
1000160e:	4c13      	ldr	r4, [pc, #76]	; (1000165c <XMC_CCU4_SLICE_ConfigureStatusBitOverrideEvent+0x60>)
10001610:	4023      	ands	r3, r4
  ins |= ((uint32_t) ev2_config->edge) << CCU4_CC4_INS2_EV2EM_Pos;
10001612:	7854      	ldrb	r4, [r2, #1]
10001614:	0224      	lsls	r4, r4, #8
10001616:	4323      	orrs	r3, r4
  
  /* Configure the level sensitivity for event 1 */
  ins &= ~(((uint32_t) XMC_CCU4_SLICE_EVENT_LEVEL_CONFIG_MASK) << CCU4_CC4_INS2_EV1LM_Pos);
10001618:	2440      	movs	r4, #64	; 0x40
1000161a:	43a3      	bics	r3, r4
  ins |= ((uint32_t) ev1_config->level) << CCU4_CC4_INS2_EV1LM_Pos;
1000161c:	788c      	ldrb	r4, [r1, #2]
1000161e:	01a4      	lsls	r4, r4, #6
10001620:	4323      	orrs	r3, r4
  
  /* Configure the level sensitivity for event 2 */
  ins &= ~(((uint32_t) XMC_CCU4_SLICE_EVENT_LEVEL_CONFIG_MASK) << CCU4_CC4_INS2_EV2LM_Pos);
10001622:	4c0f      	ldr	r4, [pc, #60]	; (10001660 <XMC_CCU4_SLICE_ConfigureStatusBitOverrideEvent+0x64>)
10001624:	4023      	ands	r3, r4
  ins |= ((uint32_t) ev2_config->level) << CCU4_CC4_INS2_EV2LM_Pos;
10001626:	7894      	ldrb	r4, [r2, #2]
10001628:	02a4      	lsls	r4, r4, #10
1000162a:	4323      	orrs	r3, r4
  
  /* Configure the debounce filter for event 1 */
  ins &= ~(((uint32_t) XMC_CCU4_SLICE_EVENT_FILTER_CONFIG_MASK) << CCU4_CC4_INS2_LPF1M_Pos);
1000162c:	4c0d      	ldr	r4, [pc, #52]	; (10001664 <XMC_CCU4_SLICE_ConfigureStatusBitOverrideEvent+0x68>)
1000162e:	4023      	ands	r3, r4
  ins |= ((uint32_t) ev1_config->duration) << CCU4_CC4_INS2_LPF1M_Pos;
10001630:	78cc      	ldrb	r4, [r1, #3]
10001632:	0524      	lsls	r4, r4, #20
10001634:	4323      	orrs	r3, r4

  /* Configure the debounce filter for event 2 */
  ins &= ~(((uint32_t) XMC_CCU4_SLICE_EVENT_FILTER_CONFIG_MASK) << CCU4_CC4_INS2_LPF2M_Pos);
10001636:	4c0c      	ldr	r4, [pc, #48]	; (10001668 <XMC_CCU4_SLICE_ConfigureStatusBitOverrideEvent+0x6c>)
10001638:	4023      	ands	r3, r4
  ins |= ((uint32_t) ev2_config->duration) << CCU4_CC4_INS2_LPF2M_Pos;
1000163a:	78d4      	ldrb	r4, [r2, #3]
1000163c:	0624      	lsls	r4, r4, #24
1000163e:	4323      	orrs	r3, r4
  
  slice->INS2 = ins;
10001640:	6003      	str	r3, [r0, #0]
  
  ins = slice->INS1;
10001642:	5944      	ldr	r4, [r0, r5]
  
  /* Next, the input for Event1 */
  ins &= ~(((uint32_t) XMC_CCU4_SLICE_EVENT_INPUT_CONFIG_MASK) << CCU4_CC4_INS1_EV1IS_Pos);
10001644:	4b09      	ldr	r3, [pc, #36]	; (1000166c <XMC_CCU4_SLICE_ConfigureStatusBitOverrideEvent+0x70>)
  ins |= ((uint32_t) ev1_config->mapped_input) << CCU4_CC4_INS1_EV1IS_Pos;

  /* Finally, the input for Event2 */
  ins &= ~(((uint32_t) XMC_CCU4_SLICE_EVENT_INPUT_CONFIG_MASK) << CCU4_CC4_INS1_EV2IS_Pos);
  ins |= ((uint32_t) ev2_config->mapped_input) << CCU4_CC4_INS1_EV2IS_Pos;
10001646:	7812      	ldrb	r2, [r2, #0]
  slice->INS2 = ins;
  
  ins = slice->INS1;
  
  /* Next, the input for Event1 */
  ins &= ~(((uint32_t) XMC_CCU4_SLICE_EVENT_INPUT_CONFIG_MASK) << CCU4_CC4_INS1_EV1IS_Pos);
10001648:	401c      	ands	r4, r3
  ins |= ((uint32_t) ev1_config->mapped_input) << CCU4_CC4_INS1_EV1IS_Pos;
1000164a:	780b      	ldrb	r3, [r1, #0]

  /* Finally, the input for Event2 */
  ins &= ~(((uint32_t) XMC_CCU4_SLICE_EVENT_INPUT_CONFIG_MASK) << CCU4_CC4_INS1_EV2IS_Pos);
1000164c:	4908      	ldr	r1, [pc, #32]	; (10001670 <XMC_CCU4_SLICE_ConfigureStatusBitOverrideEvent+0x74>)
  
  ins = slice->INS1;
  
  /* Next, the input for Event1 */
  ins &= ~(((uint32_t) XMC_CCU4_SLICE_EVENT_INPUT_CONFIG_MASK) << CCU4_CC4_INS1_EV1IS_Pos);
  ins |= ((uint32_t) ev1_config->mapped_input) << CCU4_CC4_INS1_EV1IS_Pos;
1000164e:	021b      	lsls	r3, r3, #8
10001650:	4323      	orrs	r3, r4

  /* Finally, the input for Event2 */
  ins &= ~(((uint32_t) XMC_CCU4_SLICE_EVENT_INPUT_CONFIG_MASK) << CCU4_CC4_INS1_EV2IS_Pos);
10001652:	400b      	ands	r3, r1
  ins |= ((uint32_t) ev2_config->mapped_input) << CCU4_CC4_INS1_EV2IS_Pos;
10001654:	0412      	lsls	r2, r2, #16
10001656:	4313      	orrs	r3, r2
  
  slice->INS1 = ins;
10001658:	5143      	str	r3, [r0, r5]
  ins &= ~(((uint32_t) XMC_CCU4_SLICE_EVENT_INPUT_CONFIG_MASK) << CCU4_CC4_INS_EV2IS_Pos);
  ins |= ((uint32_t) ev2_config->mapped_input) << CCU4_CC4_INS_EV2IS_Pos;
  
  slice->INS = ins;
#endif
}
1000165a:	bd30      	pop	{r4, r5, pc}
1000165c:	fffffcff 	.word	0xfffffcff
10001660:	fffffbff 	.word	0xfffffbff
10001664:	ffcfffff 	.word	0xffcfffff
10001668:	fcffffff 	.word	0xfcffffff
1000166c:	ffffc0ff 	.word	0xffffc0ff
10001670:	ffc0ffff 	.word	0xffc0ffff

10001674 <XMC_CCU4_SLICE_ConfigureEvent>:

/* API to configure a slice trigger event */
void XMC_CCU4_SLICE_ConfigureEvent(XMC_CCU4_SLICE_t *const slice,
		                               const XMC_CCU4_SLICE_EVENT_t event,
                                   const XMC_CCU4_SLICE_EVENT_CONFIG_t *const config)
{
10001674:	b5f0      	push	{r4, r5, r6, r7, lr}
#if defined(CCU4V3) /* Defined for XMC1400 devices only */
  ins = slice->INS2;

  /* First, configure the edge sensitivity */
  pos = ((uint8_t) CCU4_CC4_INS2_EV0EM_Pos) + (uint8_t)(offset << 2U);
  ins &= ~(((uint32_t) XMC_CCU4_SLICE_EVENT_EDGE_CONFIG_MASK) << pos);
10001676:	2703      	movs	r7, #3
10001678:	1c3d      	adds	r5, r7, #0
             ((config->level == XMC_CCU4_SLICE_EVENT_LEVEL_SENSITIVITY_ACTIVE_HIGH) ||\
              (config->level == XMC_CCU4_SLICE_EVENT_LEVEL_SENSITIVITY_ACTIVE_LOW)));
  XMC_ASSERT("XMC_CCU4_SLICE_ConfigureEvent:Invalid Debounce Period", 
             XMC_CCU4_SLICE_CHECK_EVENT_FILTER(config->duration));
  /* Calculate offset with reference to event */
  offset = ((uint8_t) event) - 1U;
1000167a:	3901      	subs	r1, #1
1000167c:	b2c9      	uxtb	r1, r1
  
#if defined(CCU4V3) /* Defined for XMC1400 devices only */
  ins = slice->INS2;

  /* First, configure the edge sensitivity */
  pos = ((uint8_t) CCU4_CC4_INS2_EV0EM_Pos) + (uint8_t)(offset << 2U);
1000167e:	008b      	lsls	r3, r1, #2
10001680:	b2db      	uxtb	r3, r3
  ins &= ~(((uint32_t) XMC_CCU4_SLICE_EVENT_EDGE_CONFIG_MASK) << pos);
10001682:	409d      	lsls	r5, r3
             XMC_CCU4_SLICE_CHECK_EVENT_FILTER(config->duration));
  /* Calculate offset with reference to event */
  offset = ((uint8_t) event) - 1U;
  
#if defined(CCU4V3) /* Defined for XMC1400 devices only */
  ins = slice->INS2;
10001684:	6804      	ldr	r4, [r0, #0]
  ins &= ~(((uint32_t) XMC_CCU4_SLICE_EVENT_EDGE_CONFIG_MASK) << pos);
  ins |= ((uint32_t) config->edge) << pos;

  /* Next, the level */
  pos = ((uint8_t) CCU4_CC4_INS2_EV0LM_Pos) + (uint8_t)(offset << 2U);
  ins &= ~(((uint32_t) XMC_CCU4_SLICE_EVENT_LEVEL_CONFIG_MASK) << pos);
10001686:	2601      	movs	r6, #1
#if defined(CCU4V3) /* Defined for XMC1400 devices only */
  ins = slice->INS2;

  /* First, configure the edge sensitivity */
  pos = ((uint8_t) CCU4_CC4_INS2_EV0EM_Pos) + (uint8_t)(offset << 2U);
  ins &= ~(((uint32_t) XMC_CCU4_SLICE_EVENT_EDGE_CONFIG_MASK) << pos);
10001688:	43ac      	bics	r4, r5
  ins |= ((uint32_t) config->edge) << pos;
1000168a:	7855      	ldrb	r5, [r2, #1]
  slice->INS2 = ins;

  ins = slice->INS1;

  /* Finally the input */
  pos = ((uint8_t) CCU4_CC4_INS1_EV0IS_Pos) + (uint8_t)(offset << 3U);
1000168c:	00c9      	lsls	r1, r1, #3
  ins = slice->INS2;

  /* First, configure the edge sensitivity */
  pos = ((uint8_t) CCU4_CC4_INS2_EV0EM_Pos) + (uint8_t)(offset << 2U);
  ins &= ~(((uint32_t) XMC_CCU4_SLICE_EVENT_EDGE_CONFIG_MASK) << pos);
  ins |= ((uint32_t) config->edge) << pos;
1000168e:	409d      	lsls	r5, r3
10001690:	432c      	orrs	r4, r5

  /* Next, the level */
  pos = ((uint8_t) CCU4_CC4_INS2_EV0LM_Pos) + (uint8_t)(offset << 2U);
10001692:	1c9d      	adds	r5, r3, #2
  ins &= ~(((uint32_t) XMC_CCU4_SLICE_EVENT_LEVEL_CONFIG_MASK) << pos);
10001694:	b2ed      	uxtb	r5, r5
10001696:	40ae      	lsls	r6, r5
10001698:	43b4      	bics	r4, r6
  ins |= ((uint32_t) config->level) << pos;
1000169a:	7896      	ldrb	r6, [r2, #2]

  /* Next, the debounce filter */
  pos = ((uint8_t) CCU4_CC4_INS2_LPF0M_Pos) + (uint8_t)(offset << 2U);
1000169c:	3310      	adds	r3, #16
  ins |= ((uint32_t) config->edge) << pos;

  /* Next, the level */
  pos = ((uint8_t) CCU4_CC4_INS2_EV0LM_Pos) + (uint8_t)(offset << 2U);
  ins &= ~(((uint32_t) XMC_CCU4_SLICE_EVENT_LEVEL_CONFIG_MASK) << pos);
  ins |= ((uint32_t) config->level) << pos;
1000169e:	40ae      	lsls	r6, r5

  /* Next, the debounce filter */
  pos = ((uint8_t) CCU4_CC4_INS2_LPF0M_Pos) + (uint8_t)(offset << 2U);
  ins &= ~(((uint32_t) XMC_CCU4_SLICE_EVENT_FILTER_CONFIG_MASK) << pos);
100016a0:	b2db      	uxtb	r3, r3
  ins |= ((uint32_t) config->duration) << pos;
100016a2:	78d5      	ldrb	r5, [r2, #3]
  ins &= ~(((uint32_t) XMC_CCU4_SLICE_EVENT_LEVEL_CONFIG_MASK) << pos);
  ins |= ((uint32_t) config->level) << pos;

  /* Next, the debounce filter */
  pos = ((uint8_t) CCU4_CC4_INS2_LPF0M_Pos) + (uint8_t)(offset << 2U);
  ins &= ~(((uint32_t) XMC_CCU4_SLICE_EVENT_FILTER_CONFIG_MASK) << pos);
100016a4:	409f      	lsls	r7, r3
  ins |= ((uint32_t) config->duration) << pos;
100016a6:	409d      	lsls	r5, r3

  ins = slice->INS1;

  /* Finally the input */
  pos = ((uint8_t) CCU4_CC4_INS1_EV0IS_Pos) + (uint8_t)(offset << 3U);
  ins &= ~(((uint32_t) XMC_CCU4_SLICE_EVENT_INPUT_CONFIG_MASK) << pos);
100016a8:	233f      	movs	r3, #63	; 0x3f
  ins |= ((uint32_t) config->edge) << pos;

  /* Next, the level */
  pos = ((uint8_t) CCU4_CC4_INS2_EV0LM_Pos) + (uint8_t)(offset << 2U);
  ins &= ~(((uint32_t) XMC_CCU4_SLICE_EVENT_LEVEL_CONFIG_MASK) << pos);
  ins |= ((uint32_t) config->level) << pos;
100016aa:	4334      	orrs	r4, r6

  /* Next, the debounce filter */
  pos = ((uint8_t) CCU4_CC4_INS2_LPF0M_Pos) + (uint8_t)(offset << 2U);
  ins &= ~(((uint32_t) XMC_CCU4_SLICE_EVENT_FILTER_CONFIG_MASK) << pos);
100016ac:	43bc      	bics	r4, r7
  ins |= ((uint32_t) config->duration) << pos;
100016ae:	432c      	orrs	r4, r5

  slice->INS2 = ins;

  ins = slice->INS1;
100016b0:	25d8      	movs	r5, #216	; 0xd8

  /* Finally the input */
  pos = ((uint8_t) CCU4_CC4_INS1_EV0IS_Pos) + (uint8_t)(offset << 3U);
  ins &= ~(((uint32_t) XMC_CCU4_SLICE_EVENT_INPUT_CONFIG_MASK) << pos);
100016b2:	b2c9      	uxtb	r1, r1
100016b4:	408b      	lsls	r3, r1
  /* Next, the debounce filter */
  pos = ((uint8_t) CCU4_CC4_INS2_LPF0M_Pos) + (uint8_t)(offset << 2U);
  ins &= ~(((uint32_t) XMC_CCU4_SLICE_EVENT_FILTER_CONFIG_MASK) << pos);
  ins |= ((uint32_t) config->duration) << pos;

  slice->INS2 = ins;
100016b6:	6004      	str	r4, [r0, #0]

  ins = slice->INS1;
100016b8:	5944      	ldr	r4, [r0, r5]

  /* Finally the input */
  pos = ((uint8_t) CCU4_CC4_INS1_EV0IS_Pos) + (uint8_t)(offset << 3U);
  ins &= ~(((uint32_t) XMC_CCU4_SLICE_EVENT_INPUT_CONFIG_MASK) << pos);
100016ba:	439c      	bics	r4, r3
  ins |= ((uint32_t) config->mapped_input) << pos;
100016bc:	7813      	ldrb	r3, [r2, #0]
100016be:	408b      	lsls	r3, r1
100016c0:	1c19      	adds	r1, r3, #0
100016c2:	4321      	orrs	r1, r4

  slice->INS1 = ins;
100016c4:	5141      	str	r1, [r0, r5]
  ins &= ~(((uint32_t) XMC_CCU4_SLICE_EVENT_INPUT_CONFIG_MASK) << pos);
  ins |= ((uint32_t) config->mapped_input) << pos;

  slice->INS = ins;
#endif
}
100016c6:	bdf0      	pop	{r4, r5, r6, r7, pc}

100016c8 <XMC_CCU4_SLICE_SetInterruptNode>:

  XMC_ASSERT("XMC_CCU4_SLICE_SetInterruptNode:Invalid Slice Pointer", XMC_CCU4_IsValidSlice(slice));
  XMC_ASSERT("XMC_CCU4_SLICE_SetInterruptNode:Invalid SR ID ", XMC_CCU4_SLICE_CHECK_SR_ID(sr));
  XMC_ASSERT("XMC_CCU4_SLICE_SetInterruptNode:Invalid event", XMC_CCU4_SLICE_CHECK_INTERRUPT(event));
  
  srs = slice->SRS;
100016c8:	23a8      	movs	r3, #168	; 0xa8

/* Binds a capcom event to an NVIC node  */
void XMC_CCU4_SLICE_SetInterruptNode(XMC_CCU4_SLICE_t *const slice,
                                     const XMC_CCU4_SLICE_IRQ_ID_t event,
                                     const XMC_CCU4_SLICE_SR_ID_t sr)
{
100016ca:	b530      	push	{r4, r5, lr}

  XMC_ASSERT("XMC_CCU4_SLICE_SetInterruptNode:Invalid Slice Pointer", XMC_CCU4_IsValidSlice(slice));
  XMC_ASSERT("XMC_CCU4_SLICE_SetInterruptNode:Invalid SR ID ", XMC_CCU4_SLICE_CHECK_SR_ID(sr));
  XMC_ASSERT("XMC_CCU4_SLICE_SetInterruptNode:Invalid event", XMC_CCU4_SLICE_CHECK_INTERRUPT(event));
  
  srs = slice->SRS;
100016cc:	58c5      	ldr	r5, [r0, r3]
100016ce:	2909      	cmp	r1, #9
100016d0:	d80b      	bhi.n	100016ea <XMC_CCU4_SLICE_SetInterruptNode+0x22>
100016d2:	4b07      	ldr	r3, [pc, #28]	; (100016f0 <XMC_CCU4_SLICE_SetInterruptNode+0x28>)
100016d4:	0089      	lsls	r1, r1, #2
100016d6:	58cc      	ldr	r4, [r1, r3]
100016d8:	43e3      	mvns	r3, r4
100016da:	4c06      	ldr	r4, [pc, #24]	; (100016f4 <XMC_CCU4_SLICE_SetInterruptNode+0x2c>)
100016dc:	5909      	ldr	r1, [r1, r4]
      pos  = CCU4_CC4_SRS_E2SR_Pos;
      break;
  }
  
  srs &= ~mask; 
  srs |= (uint32_t)sr << pos;
100016de:	408a      	lsls	r2, r1
      mask = ((uint32_t) CCU4_CC4_SRS_E2SR_Msk);
      pos  = CCU4_CC4_SRS_E2SR_Pos;
      break;
  }
  
  srs &= ~mask; 
100016e0:	402b      	ands	r3, r5
  srs |= (uint32_t)sr << pos;
100016e2:	431a      	orrs	r2, r3
  slice->SRS = srs;
100016e4:	23a8      	movs	r3, #168	; 0xa8
100016e6:	50c2      	str	r2, [r0, r3]
}
100016e8:	bd30      	pop	{r4, r5, pc}

  XMC_ASSERT("XMC_CCU4_SLICE_SetInterruptNode:Invalid Slice Pointer", XMC_CCU4_IsValidSlice(slice));
  XMC_ASSERT("XMC_CCU4_SLICE_SetInterruptNode:Invalid SR ID ", XMC_CCU4_SLICE_CHECK_SR_ID(sr));
  XMC_ASSERT("XMC_CCU4_SLICE_SetInterruptNode:Invalid event", XMC_CCU4_SLICE_CHECK_INTERRUPT(event));
  
  srs = slice->SRS;
100016ea:	210c      	movs	r1, #12
100016ec:	4b02      	ldr	r3, [pc, #8]	; (100016f8 <XMC_CCU4_SLICE_SetInterruptNode+0x30>)
100016ee:	e7f6      	b.n	100016de <XMC_CCU4_SLICE_SetInterruptNode+0x16>
100016f0:	100032e8 	.word	0x100032e8
100016f4:	100032c0 	.word	0x100032c0
100016f8:	ffffcfff 	.word	0xffffcfff

100016fc <XMC_CCU8_Init>:
#endif
}

/* API to initialize CCU8 global resources  */
void XMC_CCU8_Init(XMC_CCU8_MODULE_t *const module, const XMC_CCU8_SLICE_MCMS_ACTION_t mcs_action)
{
100016fc:	b538      	push	{r3, r4, r5, lr}
  }
}

__STATIC_INLINE void XMC_CCU8_lUngateClock(XMC_CCU8_MODULE_t *const module)
{
  switch ((uint32_t)module)
100016fe:	23a0      	movs	r3, #160	; 0xa0
#endif
}

/* API to initialize CCU8 global resources  */
void XMC_CCU8_Init(XMC_CCU8_MODULE_t *const module, const XMC_CCU8_SLICE_MCMS_ACTION_t mcs_action)
{
10001700:	1c04      	adds	r4, r0, #0
10001702:	1c0d      	adds	r5, r1, #0
  }
}

__STATIC_INLINE void XMC_CCU8_lUngateClock(XMC_CCU8_MODULE_t *const module)
{
  switch ((uint32_t)module)
10001704:	05db      	lsls	r3, r3, #23
10001706:	4298      	cmp	r0, r3
10001708:	d012      	beq.n	10001730 <XMC_CCU8_Init+0x34>
1000170a:	4b0b      	ldr	r3, [pc, #44]	; (10001738 <XMC_CCU8_Init+0x3c>)
1000170c:	4298      	cmp	r0, r3
1000170e:	d103      	bne.n	10001718 <XMC_CCU8_Init+0x1c>
      XMC_SCU_CLOCK_UngatePeripheralClock(XMC_SCU_PERIPHERAL_CLOCK_CCU80);
      break;
      
#if defined(CCU81)      
    case (uint32_t)CCU81:
      XMC_SCU_CLOCK_UngatePeripheralClock(XMC_SCU_PERIPHERAL_CLOCK_CCU81);
10001710:	2080      	movs	r0, #128	; 0x80
10001712:	0240      	lsls	r0, r0, #9
10001714:	f7ff fd7c 	bl	10001210 <XMC_SCU_CLOCK_UngatePeripheralClock>
 *  XMC_CCU8_StopPrescaler().
 */
__STATIC_INLINE void XMC_CCU8_StartPrescaler(XMC_CCU8_MODULE_t *const module)
{
  XMC_ASSERT("XMC_CCU8_StartPrescaler:Invalid Module Pointer", XMC_CCU8_IsValidModule(module));
  module->GIDLC |= (uint32_t) CCU8_GIDLC_SPRB_Msk;
10001718:	2280      	movs	r2, #128	; 0x80
1000171a:	68e3      	ldr	r3, [r4, #12]
1000171c:	0052      	lsls	r2, r2, #1
1000171e:	4313      	orrs	r3, r2
10001720:	60e3      	str	r3, [r4, #12]
  /* Enable CCU8 module */
  XMC_CCU8_EnableModule(module);
  /* Start the prescaler */
  XMC_CCU8_StartPrescaler(module);
  
  gctrl = module->GCTRL;
10001722:	6821      	ldr	r1, [r4, #0]
  gctrl &= ~((uint32_t) CCU8_GCTRL_MSDE_Msk);
10001724:	4b05      	ldr	r3, [pc, #20]	; (1000173c <XMC_CCU8_Init+0x40>)
10001726:	400b      	ands	r3, r1
  gctrl |= (uint32_t)mcs_action << CCU8_GCTRL_MSDE_Pos;
10001728:	03a9      	lsls	r1, r5, #14
1000172a:	4319      	orrs	r1, r3
  
  module->GCTRL = gctrl;
1000172c:	6021      	str	r1, [r4, #0]
}
1000172e:	bd38      	pop	{r3, r4, r5, pc}
__STATIC_INLINE void XMC_CCU8_lUngateClock(XMC_CCU8_MODULE_t *const module)
{
  switch ((uint32_t)module)
  {
    case (uint32_t)CCU80:
      XMC_SCU_CLOCK_UngatePeripheralClock(XMC_SCU_PERIPHERAL_CLOCK_CCU80);
10001730:	2002      	movs	r0, #2
10001732:	f7ff fd6d 	bl	10001210 <XMC_SCU_CLOCK_UngatePeripheralClock>
10001736:	e7ef      	b.n	10001718 <XMC_CCU8_Init+0x1c>
10001738:	50004000 	.word	0x50004000
1000173c:	ffff3fff 	.word	0xffff3fff

10001740 <XMC_CCU8_SLICE_CompareInit>:
 *  XMC_CCU8_SLICE_StartTimer().
 */
__STATIC_INLINE void XMC_CCU8_SLICE_StopTimer(XMC_CCU8_SLICE_t *const slice)
{
  XMC_ASSERT("XMC_CCU8_SLICE_StopTimer:Invalid Slice Pointer", XMC_CCU8_IsValidSlice(slice));
  slice->TCCLR = (uint32_t) CCU8_CC8_TCCLR_TRBC_Msk;
10001740:	2301      	movs	r3, #1
10001742:	6103      	str	r3, [r0, #16]
  XMC_ASSERT("XMC_CCU8_SLICE_CompareInit:Timer Init Pointer is NULL",
             (XMC_CCU8_SLICE_COMPARE_CONFIG_t *) NULL != compare_init);
  /* Stops the timer */
  XMC_CCU8_SLICE_StopTimer(slice);
  /* Program the timer mode */
  slice->TC = compare_init->tc;
10001744:	680b      	ldr	r3, [r1, #0]
10001746:	6143      	str	r3, [r0, #20]
  /* Enable the timer concatenation */
  slice->CMC =  (uint32_t)compare_init->timer_concatenation << CCU8_CC8_CMC_TCE_Pos;
10001748:	7b4b      	ldrb	r3, [r1, #13]
1000174a:	06db      	lsls	r3, r3, #27
1000174c:	0fdb      	lsrs	r3, r3, #31
1000174e:	051b      	lsls	r3, r3, #20
10001750:	6043      	str	r3, [r0, #4]
  /* Program initial prescaler divider value */
  slice->PSC = (uint32_t) compare_init->prescaler_initval;
10001752:	7b0b      	ldrb	r3, [r1, #12]
10001754:	071b      	lsls	r3, r3, #28
10001756:	0f1b      	lsrs	r3, r3, #28
10001758:	6243      	str	r3, [r0, #36]	; 0x24
  /* Program floating prescaler compare value */
  slice->FPCS = (uint32_t) compare_init->float_limit;
1000175a:	7b0b      	ldrb	r3, [r1, #12]
1000175c:	091b      	lsrs	r3, r3, #4
1000175e:	62c3      	str	r3, [r0, #44]	; 0x2c
  /* Program the dither compare value */
  slice->DITS = (uint32_t) compare_init->dither_limit;
10001760:	7b4b      	ldrb	r3, [r1, #13]
10001762:	071b      	lsls	r3, r3, #28
10001764:	0f1b      	lsrs	r3, r3, #28
10001766:	6203      	str	r3, [r0, #32]
  /* Program timer output passive level */
  slice->PSL = (uint32_t) compare_init->psl;
10001768:	684b      	ldr	r3, [r1, #4]
1000176a:	6183      	str	r3, [r0, #24]
  /* Asymmetric PWM and Slice output routing configuration */
#if defined(CCU8V3) /* Defined for XMC1400 devices only */
  slice->CHC = (uint32_t) compare_init->chc;
1000176c:	688b      	ldr	r3, [r1, #8]
1000176e:	6483      	str	r3, [r0, #72]	; 0x48
#else
  slice->CHC = (uint32_t)((uint32_t)compare_init->chc ^ XMC_CCU8_SLICE_CHC_CONFIG_MASK);
#endif
}
10001770:	4770      	bx	lr
10001772:	46c0      	nop			; (mov r8, r8)

10001774 <XMC_CCU8_SetMultiChannelShadowTransferMode>:
{
  uint32_t gctrl;

  XMC_ASSERT("XMC_CCU8_SetMultiChannelShadowTransferMode:Invalid module Pointer", XMC_CCU8_IsValidModule(module));
  
  gctrl = module->GCTRL;
10001774:	6803      	ldr	r3, [r0, #0]
  gctrl &= ~((uint32_t)slice_mode_msk >> 16U);
10001776:	0c0a      	lsrs	r2, r1, #16
  gctrl |= ((uint32_t)slice_mode_msk & 0xFFFFU);
10001778:	0409      	lsls	r1, r1, #16
  uint32_t gctrl;

  XMC_ASSERT("XMC_CCU8_SetMultiChannelShadowTransferMode:Invalid module Pointer", XMC_CCU8_IsValidModule(module));
  
  gctrl = module->GCTRL;
  gctrl &= ~((uint32_t)slice_mode_msk >> 16U);
1000177a:	4393      	bics	r3, r2
  gctrl |= ((uint32_t)slice_mode_msk & 0xFFFFU);
1000177c:	0c09      	lsrs	r1, r1, #16
1000177e:	4319      	orrs	r1, r3
  module->GCTRL = gctrl;
10001780:	6001      	str	r1, [r0, #0]
}
10001782:	4770      	bx	lr

10001784 <XMC_CCU8_SLICE_StartConfig>:

/* API to configure the Start trigger function of a slice*/
void XMC_CCU8_SLICE_StartConfig(XMC_CCU8_SLICE_t *const slice,
                                const XMC_CCU8_SLICE_EVENT_t event,
                                const XMC_CCU8_SLICE_START_MODE_t start_mode)
{
10001784:	b510      	push	{r4, lr}
  XMC_ASSERT("XMC_CCU8_SLICE_StartConfig:Invalid Start Mode", 
             ((start_mode == XMC_CCU8_SLICE_START_MODE_TIMER_START) ||\
              (start_mode == XMC_CCU8_SLICE_START_MODE_TIMER_START_CLEAR)));
  cmc = slice->CMC;

  cmc &= ~((uint32_t) CCU8_CC8_CMC_STRTS_Msk);
10001786:	2403      	movs	r4, #3
  XMC_ASSERT("XMC_CCU8_SLICE_StartConfig:Invalid Slice Pointer", XMC_CCU8_IsValidSlice(slice));
  XMC_ASSERT("XMC_CCU8_SLICE_StartConfig:Invalid Event ID", XMC_CCU8_SLICE_CHECK_EVENT_ID(event));
  XMC_ASSERT("XMC_CCU8_SLICE_StartConfig:Invalid Start Mode", 
             ((start_mode == XMC_CCU8_SLICE_START_MODE_TIMER_START) ||\
              (start_mode == XMC_CCU8_SLICE_START_MODE_TIMER_START_CLEAR)));
  cmc = slice->CMC;
10001788:	6843      	ldr	r3, [r0, #4]

  cmc &= ~((uint32_t) CCU8_CC8_CMC_STRTS_Msk);
1000178a:	43a3      	bics	r3, r4
  cmc |= ((uint32_t) event) << CCU8_CC8_CMC_STRTS_Pos;
1000178c:	4319      	orrs	r1, r3

  slice->CMC = cmc;
1000178e:	6041      	str	r1, [r0, #4]

  tc  = slice->TC;
10001790:	6943      	ldr	r3, [r0, #20]

  if(start_mode == XMC_CCU8_SLICE_START_MODE_TIMER_START_CLEAR)
10001792:	2a01      	cmp	r2, #1
10001794:	d003      	beq.n	1000179e <XMC_CCU8_SLICE_StartConfig+0x1a>
  {
    tc |= (uint32_t) CCU8_CC8_TC_STRM_Msk;
  }
  else
  {
    tc &= ~((uint32_t) CCU8_CC8_TC_STRM_Msk);
10001796:	4a04      	ldr	r2, [pc, #16]	; (100017a8 <XMC_CCU8_SLICE_StartConfig+0x24>)
10001798:	4013      	ands	r3, r2
  }

  slice->TC = tc;
1000179a:	6143      	str	r3, [r0, #20]
}
1000179c:	bd10      	pop	{r4, pc}

  tc  = slice->TC;

  if(start_mode == XMC_CCU8_SLICE_START_MODE_TIMER_START_CLEAR)
  {
    tc |= (uint32_t) CCU8_CC8_TC_STRM_Msk;
1000179e:	2280      	movs	r2, #128	; 0x80
100017a0:	00d2      	lsls	r2, r2, #3
100017a2:	4313      	orrs	r3, r2
100017a4:	e7f9      	b.n	1000179a <XMC_CCU8_SLICE_StartConfig+0x16>
100017a6:	46c0      	nop			; (mov r8, r8)
100017a8:	fffffbff 	.word	0xfffffbff

100017ac <XMC_CCU8_SLICE_StopConfig>:

/* API to configure the Stop trigger function of a slice */
void XMC_CCU8_SLICE_StopConfig(XMC_CCU8_SLICE_t *const slice,
                               const XMC_CCU8_SLICE_EVENT_t event,
                               const XMC_CCU8_SLICE_END_MODE_t end_mode)
{
100017ac:	b510      	push	{r4, lr}
  XMC_ASSERT("XMC_CCU8_SLICE_StopConfig:Invalid Event ID", XMC_CCU8_SLICE_CHECK_EVENT_ID(event));
  XMC_ASSERT("XMC_CCU8_SLICE_StopConfig:Invalid End Mode", XMC_CCU8_SLICE_CHECK_END_MODE(end_mode));

  cmc = slice->CMC;
  /* First, Bind the event with the stop function */
  cmc &= ~((uint32_t) CCU8_CC8_CMC_ENDS_Msk);
100017ae:	240c      	movs	r4, #12

  XMC_ASSERT("XMC_CCU8_SLICE_StopConfig:Invalid Slice Pointer", XMC_CCU8_IsValidSlice(slice));
  XMC_ASSERT("XMC_CCU8_SLICE_StopConfig:Invalid Event ID", XMC_CCU8_SLICE_CHECK_EVENT_ID(event));
  XMC_ASSERT("XMC_CCU8_SLICE_StopConfig:Invalid End Mode", XMC_CCU8_SLICE_CHECK_END_MODE(end_mode));

  cmc = slice->CMC;
100017b0:	6843      	ldr	r3, [r0, #4]
  /* First, Bind the event with the stop function */
  cmc &= ~((uint32_t) CCU8_CC8_CMC_ENDS_Msk);
  cmc |= ((uint32_t) event) << CCU8_CC8_CMC_ENDS_Pos;
100017b2:	0089      	lsls	r1, r1, #2
  XMC_ASSERT("XMC_CCU8_SLICE_StopConfig:Invalid Event ID", XMC_CCU8_SLICE_CHECK_EVENT_ID(event));
  XMC_ASSERT("XMC_CCU8_SLICE_StopConfig:Invalid End Mode", XMC_CCU8_SLICE_CHECK_END_MODE(end_mode));

  cmc = slice->CMC;
  /* First, Bind the event with the stop function */
  cmc &= ~((uint32_t) CCU8_CC8_CMC_ENDS_Msk);
100017b4:	43a3      	bics	r3, r4
  cmc |= ((uint32_t) event) << CCU8_CC8_CMC_ENDS_Pos;
100017b6:	4319      	orrs	r1, r3

  slice->CMC = cmc;
100017b8:	6041      	str	r1, [r0, #4]

  /* Configure the stop mode */
  tc = slice->TC;
100017ba:	6941      	ldr	r1, [r0, #20]
  tc &= ~((uint32_t) CCU8_CC8_TC_ENDM_Msk);
100017bc:	4b02      	ldr	r3, [pc, #8]	; (100017c8 <XMC_CCU8_SLICE_StopConfig+0x1c>)
  tc |= ((uint32_t) end_mode) << CCU8_CC8_TC_ENDM_Pos;
100017be:	0212      	lsls	r2, r2, #8

  slice->CMC = cmc;

  /* Configure the stop mode */
  tc = slice->TC;
  tc &= ~((uint32_t) CCU8_CC8_TC_ENDM_Msk);
100017c0:	400b      	ands	r3, r1
  tc |= ((uint32_t) end_mode) << CCU8_CC8_TC_ENDM_Pos;
100017c2:	431a      	orrs	r2, r3

  slice->TC = tc;
100017c4:	6142      	str	r2, [r0, #20]
}
100017c6:	bd10      	pop	{r4, pc}
100017c8:	fffffcff 	.word	0xfffffcff

100017cc <XMC_CCU8_SLICE_LoadConfig>:
  uint32_t cmc;

  XMC_ASSERT("XMC_CCU8_SLICE_LoadConfig:Invalid Slice Pointer", XMC_CCU8_IsValidSlice(slice));
  XMC_ASSERT("XMC_CCU8_SLICE_LoadConfig:Invalid Event ID", XMC_CCU8_SLICE_CHECK_EVENT_ID(event));

  cmc = slice->CMC;
100017cc:	6842      	ldr	r2, [r0, #4]

  /* First, Bind the event with the load function */
  cmc &= ~((uint32_t) CCU8_CC8_CMC_LDS_Msk);
100017ce:	4b03      	ldr	r3, [pc, #12]	; (100017dc <XMC_CCU8_SLICE_LoadConfig+0x10>)
  cmc |= ((uint32_t) event) << CCU8_CC8_CMC_LDS_Pos;
100017d0:	0309      	lsls	r1, r1, #12
  XMC_ASSERT("XMC_CCU8_SLICE_LoadConfig:Invalid Event ID", XMC_CCU8_SLICE_CHECK_EVENT_ID(event));

  cmc = slice->CMC;

  /* First, Bind the event with the load function */
  cmc &= ~((uint32_t) CCU8_CC8_CMC_LDS_Msk);
100017d2:	4013      	ands	r3, r2
  cmc |= ((uint32_t) event) << CCU8_CC8_CMC_LDS_Pos;
100017d4:	4319      	orrs	r1, r3

  slice->CMC = cmc;
100017d6:	6041      	str	r1, [r0, #4]
}
100017d8:	4770      	bx	lr
100017da:	46c0      	nop			; (mov r8, r8)
100017dc:	ffffcfff 	.word	0xffffcfff

100017e0 <XMC_CCU8_SLICE_LoadSelector>:
  XMC_ASSERT("XMC_CCU8_SLICE_LoadSelector:Invalid Channel number", XMC_CCU8_SLICE_CHECK_COMP_CHANNEL(ch_num));

  tc = slice->TC;

  /* First, Bind the event with the load function */
  tc &= ~((uint32_t) CCU8_CC8_TC_TLS_Msk);
100017e0:	2280      	movs	r2, #128	; 0x80
  uint32_t tc;

  XMC_ASSERT("XMC_CCU8_SLICE_LoadSelector:Invalid Slice Pointer", XMC_CCU8_IsValidSlice(slice));
  XMC_ASSERT("XMC_CCU8_SLICE_LoadSelector:Invalid Channel number", XMC_CCU8_SLICE_CHECK_COMP_CHANNEL(ch_num));

  tc = slice->TC;
100017e2:	6943      	ldr	r3, [r0, #20]

  /* First, Bind the event with the load function */
  tc &= ~((uint32_t) CCU8_CC8_TC_TLS_Msk);
  tc |= (uint32_t)ch_num << CCU8_CC8_TC_TLS_Pos;
100017e4:	01c9      	lsls	r1, r1, #7
  XMC_ASSERT("XMC_CCU8_SLICE_LoadSelector:Invalid Channel number", XMC_CCU8_SLICE_CHECK_COMP_CHANNEL(ch_num));

  tc = slice->TC;

  /* First, Bind the event with the load function */
  tc &= ~((uint32_t) CCU8_CC8_TC_TLS_Msk);
100017e6:	4393      	bics	r3, r2
  tc |= (uint32_t)ch_num << CCU8_CC8_TC_TLS_Pos;
100017e8:	4319      	orrs	r1, r3

  slice->TC = tc;
100017ea:	6141      	str	r1, [r0, #20]
}
100017ec:	4770      	bx	lr
100017ee:	46c0      	nop			; (mov r8, r8)

100017f0 <XMC_CCU8_SLICE_ModulationConfig>:
void XMC_CCU8_SLICE_ModulationConfig(XMC_CCU8_SLICE_t *const slice,
                                     const XMC_CCU8_SLICE_EVENT_t event,
                                     const XMC_CCU8_SLICE_MODULATION_MODE_t mod_mode,
                                     const XMC_CCU8_SLICE_MODULATION_CHANNEL_t channel,
                                     const bool synch_with_pwm)
{
100017f0:	b570      	push	{r4, r5, r6, lr}
100017f2:	ac04      	add	r4, sp, #16
             XMC_CCU8_SLICE_CHECK_MODULATION_CHANNEL(channel));
  XMC_ASSERT("XMC_CCU8_SLICE_ModulationConfig:Invalid Modulation Mode", 
             ((mod_mode == XMC_CCU8_SLICE_MODULATION_MODE_CLEAR_ST_OUT) ||\
              (mod_mode == XMC_CCU8_SLICE_MODULATION_MODE_CLEAR_OUT)));

  cmc = slice->CMC;
100017f4:	6846      	ldr	r6, [r0, #4]
void XMC_CCU8_SLICE_ModulationConfig(XMC_CCU8_SLICE_t *const slice,
                                     const XMC_CCU8_SLICE_EVENT_t event,
                                     const XMC_CCU8_SLICE_MODULATION_MODE_t mod_mode,
                                     const XMC_CCU8_SLICE_MODULATION_CHANNEL_t channel,
                                     const bool synch_with_pwm)
{
100017f6:	7825      	ldrb	r5, [r4, #0]
              (mod_mode == XMC_CCU8_SLICE_MODULATION_MODE_CLEAR_OUT)));

  cmc = slice->CMC;

  /* First, Bind the event with the modulation function */
  cmc &= ~((uint32_t) CCU8_CC8_CMC_MOS_Msk);
100017f8:	4c0d      	ldr	r4, [pc, #52]	; (10001830 <XMC_CCU8_SLICE_ModulationConfig+0x40>)
  cmc |= ((uint32_t) event) << CCU8_CC8_CMC_MOS_Pos;
100017fa:	0489      	lsls	r1, r1, #18
              (mod_mode == XMC_CCU8_SLICE_MODULATION_MODE_CLEAR_OUT)));

  cmc = slice->CMC;

  /* First, Bind the event with the modulation function */
  cmc &= ~((uint32_t) CCU8_CC8_CMC_MOS_Msk);
100017fc:	4034      	ands	r4, r6
  cmc |= ((uint32_t) event) << CCU8_CC8_CMC_MOS_Pos;
100017fe:	4321      	orrs	r1, r4

  slice->CMC = cmc;
10001800:	6041      	str	r1, [r0, #4]

  tc  = slice->TC;
10001802:	6941      	ldr	r1, [r0, #20]

  /* Next, Modulation mode */
  if(mod_mode == XMC_CCU8_SLICE_MODULATION_MODE_CLEAR_OUT)
10001804:	2a01      	cmp	r2, #1
10001806:	d00f      	beq.n	10001828 <XMC_CCU8_SLICE_ModulationConfig+0x38>
  {
    tc |= (uint32_t) CCU8_CC8_TC_EMT_Msk;
  }
  else
  {
    tc &= ~((uint32_t) CCU8_CC8_TC_EMT_Msk);
10001808:	4a0a      	ldr	r2, [pc, #40]	; (10001834 <XMC_CCU8_SLICE_ModulationConfig+0x44>)
1000180a:	400a      	ands	r2, r1
  }

  /* Synchronization of modulation effect with PWM cycle */
  if(synch_with_pwm == true)
1000180c:	2d00      	cmp	r5, #0
1000180e:	d107      	bne.n	10001820 <XMC_CCU8_SLICE_ModulationConfig+0x30>
  {
    tc |= (uint32_t) CCU8_CC8_TC_EMS_Msk;
  }
  else
  {
    tc &= ~((uint32_t) CCU8_CC8_TC_EMS_Msk);
10001810:	4909      	ldr	r1, [pc, #36]	; (10001838 <XMC_CCU8_SLICE_ModulationConfig+0x48>)
10001812:	400a      	ands	r2, r1
  }
  
  /* Configure on which channel external modulation to be applied */
  tc &= ~((uint32_t) CCU8_CC8_TC_EME_Msk);
10001814:	4909      	ldr	r1, [pc, #36]	; (1000183c <XMC_CCU8_SLICE_ModulationConfig+0x4c>)
  tc |= (uint32_t)channel << CCU8_CC8_TC_EME_Pos;
10001816:	06db      	lsls	r3, r3, #27
  {
    tc &= ~((uint32_t) CCU8_CC8_TC_EMS_Msk);
  }
  
  /* Configure on which channel external modulation to be applied */
  tc &= ~((uint32_t) CCU8_CC8_TC_EME_Msk);
10001818:	400a      	ands	r2, r1
  tc |= (uint32_t)channel << CCU8_CC8_TC_EME_Pos;
1000181a:	4313      	orrs	r3, r2

  slice->TC = tc;
1000181c:	6143      	str	r3, [r0, #20]
}
1000181e:	bd70      	pop	{r4, r5, r6, pc}
  }

  /* Synchronization of modulation effect with PWM cycle */
  if(synch_with_pwm == true)
  {
    tc |= (uint32_t) CCU8_CC8_TC_EMS_Msk;
10001820:	2180      	movs	r1, #128	; 0x80
10001822:	0409      	lsls	r1, r1, #16
10001824:	430a      	orrs	r2, r1
10001826:	e7f5      	b.n	10001814 <XMC_CCU8_SLICE_ModulationConfig+0x24>
  tc  = slice->TC;

  /* Next, Modulation mode */
  if(mod_mode == XMC_CCU8_SLICE_MODULATION_MODE_CLEAR_OUT)
  {
    tc |= (uint32_t) CCU8_CC8_TC_EMT_Msk;
10001828:	2280      	movs	r2, #128	; 0x80
1000182a:	0452      	lsls	r2, r2, #17
1000182c:	430a      	orrs	r2, r1
1000182e:	e7ed      	b.n	1000180c <XMC_CCU8_SLICE_ModulationConfig+0x1c>
10001830:	fff3ffff 	.word	0xfff3ffff
10001834:	feffffff 	.word	0xfeffffff
10001838:	ff7fffff 	.word	0xff7fffff
1000183c:	e7ffffff 	.word	0xe7ffffff

10001840 <XMC_CCU8_SLICE_CountConfig>:
  uint32_t cmc;

  XMC_ASSERT("XMC_CCU8_SLICE_CountConfig:Invalid Slice Pointer", XMC_CCU8_IsValidSlice(slice));
  XMC_ASSERT("XMC_CCU8_SLICE_CountConfig:Invalid Event ID", XMC_CCU8_SLICE_CHECK_EVENT_ID(event));

  cmc = slice->CMC;
10001840:	6842      	ldr	r2, [r0, #4]

  /* First, Bind the event with the count function */
  cmc &= ~((uint32_t) CCU8_CC8_CMC_CNTS_Msk);
10001842:	4b03      	ldr	r3, [pc, #12]	; (10001850 <XMC_CCU8_SLICE_CountConfig+0x10>)
  cmc |= ((uint32_t) event) << CCU8_CC8_CMC_CNTS_Pos;
10001844:	0389      	lsls	r1, r1, #14
  XMC_ASSERT("XMC_CCU8_SLICE_CountConfig:Invalid Event ID", XMC_CCU8_SLICE_CHECK_EVENT_ID(event));

  cmc = slice->CMC;

  /* First, Bind the event with the count function */
  cmc &= ~((uint32_t) CCU8_CC8_CMC_CNTS_Msk);
10001846:	4013      	ands	r3, r2
  cmc |= ((uint32_t) event) << CCU8_CC8_CMC_CNTS_Pos;
10001848:	4319      	orrs	r1, r3

  slice->CMC = cmc;
1000184a:	6041      	str	r1, [r0, #4]
}
1000184c:	4770      	bx	lr
1000184e:	46c0      	nop			; (mov r8, r8)
10001850:	ffff3fff 	.word	0xffff3fff

10001854 <XMC_CCU8_SLICE_GateConfig>:
  uint32_t cmc;

  XMC_ASSERT("XMC_CCU8_SLICE_GateConfig:Invalid Slice Pointer", XMC_CCU8_IsValidSlice(slice));
  XMC_ASSERT("XMC_CCU8_SLICE_GateConfig:Invalid Event ID", XMC_CCU8_SLICE_CHECK_EVENT_ID(event));

  cmc = slice->CMC;
10001854:	6842      	ldr	r2, [r0, #4]

  /* First, Bind the event with the gate function */
  cmc &= ~((uint32_t) CCU8_CC8_CMC_GATES_Msk);
10001856:	4b03      	ldr	r3, [pc, #12]	; (10001864 <XMC_CCU8_SLICE_GateConfig+0x10>)
  cmc |= ((uint32_t) event) << CCU8_CC8_CMC_GATES_Pos;
10001858:	0209      	lsls	r1, r1, #8
  XMC_ASSERT("XMC_CCU8_SLICE_GateConfig:Invalid Event ID", XMC_CCU8_SLICE_CHECK_EVENT_ID(event));

  cmc = slice->CMC;

  /* First, Bind the event with the gate function */
  cmc &= ~((uint32_t) CCU8_CC8_CMC_GATES_Msk);
1000185a:	4013      	ands	r3, r2
  cmc |= ((uint32_t) event) << CCU8_CC8_CMC_GATES_Pos;
1000185c:	4319      	orrs	r1, r3

  slice->CMC = cmc;
1000185e:	6041      	str	r1, [r0, #4]
}
10001860:	4770      	bx	lr
10001862:	46c0      	nop			; (mov r8, r8)
10001864:	fffffcff 	.word	0xfffffcff

10001868 <XMC_CCU8_SLICE_DirectionConfig>:
  uint32_t cmc;

  XMC_ASSERT("XMC_CCU8_SLICE_DirectionConfig:Invalid Slice Pointer", XMC_CCU8_IsValidSlice(slice));
  XMC_ASSERT("XMC_CCU8_SLICE_DirectionConfig:Invalid Event ID", XMC_CCU8_SLICE_CHECK_EVENT_ID(event));

  cmc = slice->CMC;
10001868:	6842      	ldr	r2, [r0, #4]

  /* First, Bind the event with the direction function */
  cmc &= ~((uint32_t) CCU8_CC8_CMC_UDS_Msk);
1000186a:	4b03      	ldr	r3, [pc, #12]	; (10001878 <XMC_CCU8_SLICE_DirectionConfig+0x10>)
  cmc |= ((uint32_t) event) << CCU8_CC8_CMC_UDS_Pos;
1000186c:	0289      	lsls	r1, r1, #10
  XMC_ASSERT("XMC_CCU8_SLICE_DirectionConfig:Invalid Event ID", XMC_CCU8_SLICE_CHECK_EVENT_ID(event));

  cmc = slice->CMC;

  /* First, Bind the event with the direction function */
  cmc &= ~((uint32_t) CCU8_CC8_CMC_UDS_Msk);
1000186e:	4013      	ands	r3, r2
  cmc |= ((uint32_t) event) << CCU8_CC8_CMC_UDS_Pos;
10001870:	4319      	orrs	r1, r3

  slice->CMC = cmc;
10001872:	6041      	str	r1, [r0, #4]
}
10001874:	4770      	bx	lr
10001876:	46c0      	nop			; (mov r8, r8)
10001878:	fffff3ff 	.word	0xfffff3ff

1000187c <XMC_CCU8_SLICE_StatusBitOverrideConfig>:
  cmc = slice->CMC;

  /* Map status bit trigger override to Event 1 &
         status bit value override to Event 2 */
  cmc &= ~((uint32_t) CCU8_CC8_CMC_OFS_Msk);
  cmc |= ((uint32_t) 1) << CCU8_CC8_CMC_OFS_Pos;
1000187c:	2380      	movs	r3, #128	; 0x80
{
  uint32_t cmc;

  XMC_ASSERT("XMC_CCU8_SLICE_StatusBitOverrideConfig:Invalid Slice Pointer", XMC_CCU8_IsValidSlice(slice));

  cmc = slice->CMC;
1000187e:	6842      	ldr	r2, [r0, #4]

  /* Map status bit trigger override to Event 1 &
         status bit value override to Event 2 */
  cmc &= ~((uint32_t) CCU8_CC8_CMC_OFS_Msk);
  cmc |= ((uint32_t) 1) << CCU8_CC8_CMC_OFS_Pos;
10001880:	025b      	lsls	r3, r3, #9
10001882:	4313      	orrs	r3, r2

  slice->CMC = cmc;
10001884:	6043      	str	r3, [r0, #4]
}
10001886:	4770      	bx	lr

10001888 <XMC_CCU8_SLICE_TrapConfig>:

  cmc = slice->CMC;

  /* Map trap function to Event 2 */
  cmc &= ~((uint32_t) CCU8_CC8_CMC_TS_Msk);
  cmc |= ((uint32_t) 1) << CCU8_CC8_CMC_TS_Pos;
10001888:	2380      	movs	r3, #128	; 0x80

/* API to configure trap function*/
void XMC_CCU8_SLICE_TrapConfig(XMC_CCU8_SLICE_t *const slice,
                               const XMC_CCU8_SLICE_TRAP_EXIT_MODE_t exit_mode,
                               const bool synch_with_pwm)
{
1000188a:	b510      	push	{r4, lr}

  XMC_ASSERT("XMC_CCU8_SLICE_TrapConfig:Invalid Slice Pointer", XMC_CCU8_IsValidSlice(slice));
  XMC_ASSERT("XMC_CCU8_SLICE_TrapConfig:Invalid Exit Mode", ((exit_mode == XMC_CCU8_SLICE_TRAP_EXIT_MODE_AUTOMATIC) ||\
                                                             (exit_mode == XMC_CCU8_SLICE_TRAP_EXIT_MODE_SW)));

  cmc = slice->CMC;
1000188c:	6844      	ldr	r4, [r0, #4]

  /* Map trap function to Event 2 */
  cmc &= ~((uint32_t) CCU8_CC8_CMC_TS_Msk);
  cmc |= ((uint32_t) 1) << CCU8_CC8_CMC_TS_Pos;
1000188e:	029b      	lsls	r3, r3, #10
10001890:	4323      	orrs	r3, r4

  slice->CMC = cmc;
10001892:	6043      	str	r3, [r0, #4]

  tc = slice->TC;
10001894:	6943      	ldr	r3, [r0, #20]

  /* Configure synchronization option */
  if(synch_with_pwm == true)
10001896:	2a00      	cmp	r2, #0
10001898:	d008      	beq.n	100018ac <XMC_CCU8_SLICE_TrapConfig+0x24>
  {
    tc |= (uint32_t) CCU8_CC8_TC_TRPSE_Msk;
1000189a:	2280      	movs	r2, #128	; 0x80
1000189c:	0392      	lsls	r2, r2, #14
1000189e:	4313      	orrs	r3, r2
  {
    tc &= ~((uint32_t) CCU8_CC8_TC_TRPSE_Msk);
  }

  /* Configure exit mode */
  if(exit_mode == XMC_CCU8_SLICE_TRAP_EXIT_MODE_SW)
100018a0:	2901      	cmp	r1, #1
100018a2:	d007      	beq.n	100018b4 <XMC_CCU8_SLICE_TrapConfig+0x2c>
  {
    tc |= (uint32_t) CCU8_CC8_TC_TRPSW_Msk;
  }
  else
  {
    tc &= ~((uint32_t) CCU8_CC8_TC_TRPSW_Msk);
100018a4:	4a05      	ldr	r2, [pc, #20]	; (100018bc <XMC_CCU8_SLICE_TrapConfig+0x34>)
100018a6:	4013      	ands	r3, r2
  }

  slice->TC = tc;
100018a8:	6143      	str	r3, [r0, #20]
}
100018aa:	bd10      	pop	{r4, pc}
  {
    tc |= (uint32_t) CCU8_CC8_TC_TRPSE_Msk;
  }
  else
  {
    tc &= ~((uint32_t) CCU8_CC8_TC_TRPSE_Msk);
100018ac:	4a04      	ldr	r2, [pc, #16]	; (100018c0 <XMC_CCU8_SLICE_TrapConfig+0x38>)
100018ae:	4013      	ands	r3, r2
  }

  /* Configure exit mode */
  if(exit_mode == XMC_CCU8_SLICE_TRAP_EXIT_MODE_SW)
100018b0:	2901      	cmp	r1, #1
100018b2:	d1f7      	bne.n	100018a4 <XMC_CCU8_SLICE_TrapConfig+0x1c>
  {
    tc |= (uint32_t) CCU8_CC8_TC_TRPSW_Msk;
100018b4:	2280      	movs	r2, #128	; 0x80
100018b6:	03d2      	lsls	r2, r2, #15
100018b8:	4313      	orrs	r3, r2
100018ba:	e7f5      	b.n	100018a8 <XMC_CCU8_SLICE_TrapConfig+0x20>
100018bc:	ffbfffff 	.word	0xffbfffff
100018c0:	ffdfffff 	.word	0xffdfffff

100018c4 <XMC_CCU8_SLICE_ConfigureStatusBitOverrideEvent>:

/* API to configure a slice Status Bit Override event */
void XMC_CCU8_SLICE_ConfigureStatusBitOverrideEvent(XMC_CCU8_SLICE_t *const slice,
                                                    const XMC_CCU8_SLICE_EVENT_CONFIG_t *const ev1_config,
                                                    const XMC_CCU8_SLICE_EVENT_CONFIG_t *const ev2_config)
{
100018c4:	b530      	push	{r4, r5, lr}

#if defined(CCU8V3) /* Defined for XMC1400 devices only */
  ins = slice->INS2;

  /* Configure the edge sensitivity for event 1 */
  ins &= ~(((uint32_t) XMC_CCU8_SLICE_EVENT_EDGE_CONFIG_MASK) << CCU8_CC8_INS2_EV1EM_Pos);
100018c6:	2430      	movs	r4, #48	; 0x30
              (ev2_config->level == XMC_CCU8_SLICE_EVENT_LEVEL_SENSITIVITY_ACTIVE_LOW)));
  XMC_ASSERT("XMC_CCU8_SLICE_ConfigureStatusBitOverrideEvent:Invalid Debounce Period",
             XMC_CCU8_SLICE_CHECK_EVENT_FILTER(ev2_config->duration));

#if defined(CCU8V3) /* Defined for XMC1400 devices only */
  ins = slice->INS2;
100018c8:	6803      	ldr	r3, [r0, #0]
  ins &= ~(((uint32_t) XMC_CCU8_SLICE_EVENT_FILTER_CONFIG_MASK) << CCU8_CC8_INS2_LPF2M_Pos);
  ins |= ((uint32_t) ev2_config->duration) << CCU8_CC8_INS2_LPF2M_Pos;
  
  slice->INS2 = ins; 

  ins = slice->INS1;
100018ca:	25d8      	movs	r5, #216	; 0xd8

#if defined(CCU8V3) /* Defined for XMC1400 devices only */
  ins = slice->INS2;

  /* Configure the edge sensitivity for event 1 */
  ins &= ~(((uint32_t) XMC_CCU8_SLICE_EVENT_EDGE_CONFIG_MASK) << CCU8_CC8_INS2_EV1EM_Pos);
100018cc:	43a3      	bics	r3, r4
100018ce:	1c1c      	adds	r4, r3, #0
  ins |= ((uint32_t) ev1_config->edge) << CCU8_CC8_INS2_EV1EM_Pos;
100018d0:	784b      	ldrb	r3, [r1, #1]
100018d2:	011b      	lsls	r3, r3, #4
100018d4:	4323      	orrs	r3, r4

  /* Configure the edge sensitivity for event 2 */
  ins &= ~(((uint32_t) XMC_CCU8_SLICE_EVENT_EDGE_CONFIG_MASK) << CCU8_CC8_INS2_EV2EM_Pos);
100018d6:	4c13      	ldr	r4, [pc, #76]	; (10001924 <XMC_CCU8_SLICE_ConfigureStatusBitOverrideEvent+0x60>)
100018d8:	4023      	ands	r3, r4
  ins |= ((uint32_t) ev2_config->edge) << CCU8_CC8_INS2_EV2EM_Pos;
100018da:	7854      	ldrb	r4, [r2, #1]
100018dc:	0224      	lsls	r4, r4, #8
100018de:	4323      	orrs	r3, r4

  /* Configure the level sensitivity for event 1 */
  ins &= ~(((uint32_t) XMC_CCU8_SLICE_EVENT_LEVEL_CONFIG_MASK) << CCU8_CC8_INS2_EV1LM_Pos);
100018e0:	2440      	movs	r4, #64	; 0x40
100018e2:	43a3      	bics	r3, r4
  ins |= ((uint32_t) ev1_config->level) << CCU8_CC8_INS2_EV1LM_Pos;
100018e4:	788c      	ldrb	r4, [r1, #2]
100018e6:	01a4      	lsls	r4, r4, #6
100018e8:	4323      	orrs	r3, r4

  /* Configure the level sensitivity for event 2 */
  ins &= ~(((uint32_t) XMC_CCU8_SLICE_EVENT_LEVEL_CONFIG_MASK) << CCU8_CC8_INS2_EV2LM_Pos);
100018ea:	4c0f      	ldr	r4, [pc, #60]	; (10001928 <XMC_CCU8_SLICE_ConfigureStatusBitOverrideEvent+0x64>)
100018ec:	4023      	ands	r3, r4
  ins |= ((uint32_t) ev2_config->level) << CCU8_CC8_INS2_EV2LM_Pos;
100018ee:	7894      	ldrb	r4, [r2, #2]
100018f0:	02a4      	lsls	r4, r4, #10
100018f2:	4323      	orrs	r3, r4

  /* Configure the debounce filter for event 1 */
  ins &= ~(((uint32_t) XMC_CCU8_SLICE_EVENT_FILTER_CONFIG_MASK) << CCU8_CC8_INS2_LPF1M_Pos);
100018f4:	4c0d      	ldr	r4, [pc, #52]	; (1000192c <XMC_CCU8_SLICE_ConfigureStatusBitOverrideEvent+0x68>)
100018f6:	4023      	ands	r3, r4
  ins |= ((uint32_t) ev1_config->duration) << CCU8_CC8_INS2_LPF1M_Pos;
100018f8:	78cc      	ldrb	r4, [r1, #3]
100018fa:	0524      	lsls	r4, r4, #20
100018fc:	4323      	orrs	r3, r4

  /* Configure the debounce filter for event 2 */
  ins &= ~(((uint32_t) XMC_CCU8_SLICE_EVENT_FILTER_CONFIG_MASK) << CCU8_CC8_INS2_LPF2M_Pos);
100018fe:	4c0c      	ldr	r4, [pc, #48]	; (10001930 <XMC_CCU8_SLICE_ConfigureStatusBitOverrideEvent+0x6c>)
10001900:	4023      	ands	r3, r4
  ins |= ((uint32_t) ev2_config->duration) << CCU8_CC8_INS2_LPF2M_Pos;
10001902:	78d4      	ldrb	r4, [r2, #3]
10001904:	0624      	lsls	r4, r4, #24
10001906:	4323      	orrs	r3, r4
  
  slice->INS2 = ins; 
10001908:	6003      	str	r3, [r0, #0]

  ins = slice->INS1;
1000190a:	5944      	ldr	r4, [r0, r5]
  /* Next, the input for Event1 */
  ins &= ~(((uint32_t) XMC_CCU8_SLICE_EVENT_INPUT_CONFIG_MASK) << CCU8_CC8_INS1_EV1IS_Pos);
1000190c:	4b09      	ldr	r3, [pc, #36]	; (10001934 <XMC_CCU8_SLICE_ConfigureStatusBitOverrideEvent+0x70>)
  ins |= ((uint32_t) ev1_config->mapped_input) << CCU8_CC8_INS1_EV1IS_Pos;

  /* Finally, the input for Event2 */
  ins &= ~(((uint32_t) XMC_CCU8_SLICE_EVENT_INPUT_CONFIG_MASK) << CCU8_CC8_INS1_EV2IS_Pos);
  ins |= ((uint32_t) ev2_config->mapped_input) << CCU8_CC8_INS1_EV2IS_Pos;
1000190e:	7812      	ldrb	r2, [r2, #0]
  
  slice->INS2 = ins; 

  ins = slice->INS1;
  /* Next, the input for Event1 */
  ins &= ~(((uint32_t) XMC_CCU8_SLICE_EVENT_INPUT_CONFIG_MASK) << CCU8_CC8_INS1_EV1IS_Pos);
10001910:	401c      	ands	r4, r3
  ins |= ((uint32_t) ev1_config->mapped_input) << CCU8_CC8_INS1_EV1IS_Pos;
10001912:	780b      	ldrb	r3, [r1, #0]

  /* Finally, the input for Event2 */
  ins &= ~(((uint32_t) XMC_CCU8_SLICE_EVENT_INPUT_CONFIG_MASK) << CCU8_CC8_INS1_EV2IS_Pos);
10001914:	4908      	ldr	r1, [pc, #32]	; (10001938 <XMC_CCU8_SLICE_ConfigureStatusBitOverrideEvent+0x74>)
  slice->INS2 = ins; 

  ins = slice->INS1;
  /* Next, the input for Event1 */
  ins &= ~(((uint32_t) XMC_CCU8_SLICE_EVENT_INPUT_CONFIG_MASK) << CCU8_CC8_INS1_EV1IS_Pos);
  ins |= ((uint32_t) ev1_config->mapped_input) << CCU8_CC8_INS1_EV1IS_Pos;
10001916:	021b      	lsls	r3, r3, #8
10001918:	4323      	orrs	r3, r4

  /* Finally, the input for Event2 */
  ins &= ~(((uint32_t) XMC_CCU8_SLICE_EVENT_INPUT_CONFIG_MASK) << CCU8_CC8_INS1_EV2IS_Pos);
1000191a:	400b      	ands	r3, r1
  ins |= ((uint32_t) ev2_config->mapped_input) << CCU8_CC8_INS1_EV2IS_Pos;
1000191c:	0412      	lsls	r2, r2, #16
1000191e:	4313      	orrs	r3, r2

  slice->INS1 = ins;  
10001920:	5143      	str	r3, [r0, r5]
  ins &= ~(((uint32_t) XMC_CCU8_SLICE_EVENT_INPUT_CONFIG_MASK) << CCU8_CC8_INS_EV2IS_Pos);
  ins |= ((uint32_t) ev2_config->mapped_input) << CCU8_CC8_INS_EV2IS_Pos;

  slice->INS = ins;
#endif
}
10001922:	bd30      	pop	{r4, r5, pc}
10001924:	fffffcff 	.word	0xfffffcff
10001928:	fffffbff 	.word	0xfffffbff
1000192c:	ffcfffff 	.word	0xffcfffff
10001930:	fcffffff 	.word	0xfcffffff
10001934:	ffffc0ff 	.word	0xffffc0ff
10001938:	ffc0ffff 	.word	0xffc0ffff

1000193c <XMC_CCU8_SLICE_ConfigureEvent>:

/* API to configure a slice trigger event */
void XMC_CCU8_SLICE_ConfigureEvent(XMC_CCU8_SLICE_t *const slice,
                                   const XMC_CCU8_SLICE_EVENT_t event,
                                   const XMC_CCU8_SLICE_EVENT_CONFIG_t *const config)
{
1000193c:	b5f0      	push	{r4, r5, r6, r7, lr}
#if defined(CCU8V3) /* Defined for XMC1400 devices only */
  ins = slice->INS2;

  /* First, configure the edge sensitivity */
  pos = ((uint8_t) CCU8_CC8_INS2_EV0EM_Pos) + (uint8_t)(offset << 2U);
  ins &= ~(((uint32_t) XMC_CCU8_SLICE_EVENT_EDGE_CONFIG_MASK) << pos);
1000193e:	2703      	movs	r7, #3
10001940:	1c3d      	adds	r5, r7, #0
              (config->level == XMC_CCU8_SLICE_EVENT_LEVEL_SENSITIVITY_ACTIVE_LOW)));
  XMC_ASSERT("XMC_CCU8_SLICE_ConfigureEvent:Invalid Debounce Period",
             XMC_CCU8_SLICE_CHECK_EVENT_FILTER(config->duration));

  /* Calculate offset with reference to event */
  offset = ((uint8_t) event) - 1U;
10001942:	3901      	subs	r1, #1
10001944:	b2c9      	uxtb	r1, r1

#if defined(CCU8V3) /* Defined for XMC1400 devices only */
  ins = slice->INS2;

  /* First, configure the edge sensitivity */
  pos = ((uint8_t) CCU8_CC8_INS2_EV0EM_Pos) + (uint8_t)(offset << 2U);
10001946:	008b      	lsls	r3, r1, #2
10001948:	b2db      	uxtb	r3, r3
  ins &= ~(((uint32_t) XMC_CCU8_SLICE_EVENT_EDGE_CONFIG_MASK) << pos);
1000194a:	409d      	lsls	r5, r3

  /* Calculate offset with reference to event */
  offset = ((uint8_t) event) - 1U;

#if defined(CCU8V3) /* Defined for XMC1400 devices only */
  ins = slice->INS2;
1000194c:	6804      	ldr	r4, [r0, #0]
  ins &= ~(((uint32_t) XMC_CCU8_SLICE_EVENT_EDGE_CONFIG_MASK) << pos);
  ins |= ((uint32_t) config->edge) << pos;

  /* Next, the level */
  pos = ((uint8_t) CCU8_CC8_INS2_EV0LM_Pos) + (uint8_t)(offset << 2U);
  ins &= ~(((uint32_t) XMC_CCU8_SLICE_EVENT_LEVEL_CONFIG_MASK) << pos);
1000194e:	2601      	movs	r6, #1
#if defined(CCU8V3) /* Defined for XMC1400 devices only */
  ins = slice->INS2;

  /* First, configure the edge sensitivity */
  pos = ((uint8_t) CCU8_CC8_INS2_EV0EM_Pos) + (uint8_t)(offset << 2U);
  ins &= ~(((uint32_t) XMC_CCU8_SLICE_EVENT_EDGE_CONFIG_MASK) << pos);
10001950:	43ac      	bics	r4, r5
  ins |= ((uint32_t) config->edge) << pos;
10001952:	7855      	ldrb	r5, [r2, #1]
  slice->INS2 = ins;

  ins = slice->INS1;

  /* Finally the input */
  pos = ((uint8_t) CCU8_CC8_INS1_EV0IS_Pos) + (uint8_t)(offset << 3U);
10001954:	00c9      	lsls	r1, r1, #3
  ins = slice->INS2;

  /* First, configure the edge sensitivity */
  pos = ((uint8_t) CCU8_CC8_INS2_EV0EM_Pos) + (uint8_t)(offset << 2U);
  ins &= ~(((uint32_t) XMC_CCU8_SLICE_EVENT_EDGE_CONFIG_MASK) << pos);
  ins |= ((uint32_t) config->edge) << pos;
10001956:	409d      	lsls	r5, r3
10001958:	432c      	orrs	r4, r5

  /* Next, the level */
  pos = ((uint8_t) CCU8_CC8_INS2_EV0LM_Pos) + (uint8_t)(offset << 2U);
1000195a:	1c9d      	adds	r5, r3, #2
  ins &= ~(((uint32_t) XMC_CCU8_SLICE_EVENT_LEVEL_CONFIG_MASK) << pos);
1000195c:	b2ed      	uxtb	r5, r5
1000195e:	40ae      	lsls	r6, r5
10001960:	43b4      	bics	r4, r6
  ins |= ((uint32_t) (config->level)) << pos;
10001962:	7896      	ldrb	r6, [r2, #2]

  /* Next, the debounce filter */
  pos = ((uint8_t) CCU8_CC8_INS2_LPF0M_Pos) + (uint8_t)(offset << 2U);
10001964:	3310      	adds	r3, #16
  ins |= ((uint32_t) config->edge) << pos;

  /* Next, the level */
  pos = ((uint8_t) CCU8_CC8_INS2_EV0LM_Pos) + (uint8_t)(offset << 2U);
  ins &= ~(((uint32_t) XMC_CCU8_SLICE_EVENT_LEVEL_CONFIG_MASK) << pos);
  ins |= ((uint32_t) (config->level)) << pos;
10001966:	40ae      	lsls	r6, r5

  /* Next, the debounce filter */
  pos = ((uint8_t) CCU8_CC8_INS2_LPF0M_Pos) + (uint8_t)(offset << 2U);
  ins &= ~(((uint32_t) XMC_CCU8_SLICE_EVENT_FILTER_CONFIG_MASK) << pos);
10001968:	b2db      	uxtb	r3, r3
  ins |= ((uint32_t) config->duration) << pos;
1000196a:	78d5      	ldrb	r5, [r2, #3]
  ins &= ~(((uint32_t) XMC_CCU8_SLICE_EVENT_LEVEL_CONFIG_MASK) << pos);
  ins |= ((uint32_t) (config->level)) << pos;

  /* Next, the debounce filter */
  pos = ((uint8_t) CCU8_CC8_INS2_LPF0M_Pos) + (uint8_t)(offset << 2U);
  ins &= ~(((uint32_t) XMC_CCU8_SLICE_EVENT_FILTER_CONFIG_MASK) << pos);
1000196c:	409f      	lsls	r7, r3
  ins |= ((uint32_t) config->duration) << pos;
1000196e:	409d      	lsls	r5, r3

  ins = slice->INS1;

  /* Finally the input */
  pos = ((uint8_t) CCU8_CC8_INS1_EV0IS_Pos) + (uint8_t)(offset << 3U);
  ins &= ~(((uint32_t) XMC_CCU8_SLICE_EVENT_INPUT_CONFIG_MASK) << pos);
10001970:	233f      	movs	r3, #63	; 0x3f
  ins |= ((uint32_t) config->edge) << pos;

  /* Next, the level */
  pos = ((uint8_t) CCU8_CC8_INS2_EV0LM_Pos) + (uint8_t)(offset << 2U);
  ins &= ~(((uint32_t) XMC_CCU8_SLICE_EVENT_LEVEL_CONFIG_MASK) << pos);
  ins |= ((uint32_t) (config->level)) << pos;
10001972:	4334      	orrs	r4, r6

  /* Next, the debounce filter */
  pos = ((uint8_t) CCU8_CC8_INS2_LPF0M_Pos) + (uint8_t)(offset << 2U);
  ins &= ~(((uint32_t) XMC_CCU8_SLICE_EVENT_FILTER_CONFIG_MASK) << pos);
10001974:	43bc      	bics	r4, r7
  ins |= ((uint32_t) config->duration) << pos;
10001976:	432c      	orrs	r4, r5

  slice->INS2 = ins;

  ins = slice->INS1;
10001978:	25d8      	movs	r5, #216	; 0xd8

  /* Finally the input */
  pos = ((uint8_t) CCU8_CC8_INS1_EV0IS_Pos) + (uint8_t)(offset << 3U);
  ins &= ~(((uint32_t) XMC_CCU8_SLICE_EVENT_INPUT_CONFIG_MASK) << pos);
1000197a:	b2c9      	uxtb	r1, r1
1000197c:	408b      	lsls	r3, r1
  /* Next, the debounce filter */
  pos = ((uint8_t) CCU8_CC8_INS2_LPF0M_Pos) + (uint8_t)(offset << 2U);
  ins &= ~(((uint32_t) XMC_CCU8_SLICE_EVENT_FILTER_CONFIG_MASK) << pos);
  ins |= ((uint32_t) config->duration) << pos;

  slice->INS2 = ins;
1000197e:	6004      	str	r4, [r0, #0]

  ins = slice->INS1;
10001980:	5944      	ldr	r4, [r0, r5]

  /* Finally the input */
  pos = ((uint8_t) CCU8_CC8_INS1_EV0IS_Pos) + (uint8_t)(offset << 3U);
  ins &= ~(((uint32_t) XMC_CCU8_SLICE_EVENT_INPUT_CONFIG_MASK) << pos);
10001982:	439c      	bics	r4, r3
  ins |= ((uint32_t) config->mapped_input) << pos;
10001984:	7813      	ldrb	r3, [r2, #0]
10001986:	408b      	lsls	r3, r1
10001988:	1c19      	adds	r1, r3, #0
1000198a:	4321      	orrs	r1, r4

  slice->INS1 = ins;
1000198c:	5141      	str	r1, [r0, r5]
  ins &= ~(((uint32_t) XMC_CCU8_SLICE_EVENT_INPUT_CONFIG_MASK) << pos);
  ins |= ((uint32_t) config->mapped_input) << pos;

  slice->INS = ins;
#endif
}
1000198e:	bdf0      	pop	{r4, r5, r6, r7, pc}

10001990 <XMC_CCU8_SLICE_SetTimerPeriodMatch>:

/* Programs period match value of the timer  */
void XMC_CCU8_SLICE_SetTimerPeriodMatch(XMC_CCU8_SLICE_t *const slice, const uint16_t period_val)
{
  XMC_ASSERT("XMC_CCU8_SLICE_SetTimerPeriodMatch:Invalid Slice Pointer", XMC_CCU8_IsValidSlice(slice));
  slice->PRS = (uint32_t) period_val;
10001990:	6341      	str	r1, [r0, #52]	; 0x34
}
10001992:	4770      	bx	lr

10001994 <XMC_CCU8_SLICE_SetTimerCompareMatch>:
                                         const uint16_t compare_val)
{
  XMC_ASSERT("XMC_CCU8_SLICE_SetTimerCompareMatch:Invalid Slice Pointer", XMC_CCU8_IsValidSlice(slice));
  XMC_ASSERT("XMC_CCU8_SLICE_SetTimerCompareMatch:Invalid channel", XMC_CCU8_SLICE_CHECK_COMP_CHANNEL(channel));

  if (XMC_CCU8_SLICE_COMPARE_CHANNEL_1 == channel)
10001994:	2900      	cmp	r1, #0
10001996:	d001      	beq.n	1000199c <XMC_CCU8_SLICE_SetTimerCompareMatch+0x8>
  {
    slice->CR1S = (uint32_t) compare_val;
  }
  else
  {
    slice->CR2S = (uint32_t) compare_val;
10001998:	6442      	str	r2, [r0, #68]	; 0x44
  }
}
1000199a:	4770      	bx	lr
  XMC_ASSERT("XMC_CCU8_SLICE_SetTimerCompareMatch:Invalid Slice Pointer", XMC_CCU8_IsValidSlice(slice));
  XMC_ASSERT("XMC_CCU8_SLICE_SetTimerCompareMatch:Invalid channel", XMC_CCU8_SLICE_CHECK_COMP_CHANNEL(channel));

  if (XMC_CCU8_SLICE_COMPARE_CHANNEL_1 == channel)
  {
    slice->CR1S = (uint32_t) compare_val;
1000199c:	63c2      	str	r2, [r0, #60]	; 0x3c
1000199e:	e7fc      	b.n	1000199a <XMC_CCU8_SLICE_SetTimerCompareMatch+0x6>

100019a0 <XMC_CCU8_SLICE_SetInterruptNode>:

  XMC_ASSERT("XMC_CCU8_SLICE_SetInterruptNode:Invalid Slice Pointer", XMC_CCU8_IsValidSlice(slice));
  XMC_ASSERT("XMC_CCU8_SLICE_SetInterruptNode:Invalid SR ID ", XMC_CCU8_SLICE_CHECK_SR_ID(sr));
  XMC_ASSERT("XMC_CCU8_SLICE_SetInterruptNode:Invalid event", XMC_CCU8_SLICE_CHECK_INTERRUPT(event));

  srs = slice->SRS;
100019a0:	23a8      	movs	r3, #168	; 0xa8

/* Binds a capcom event to an NVIC node  */
void XMC_CCU8_SLICE_SetInterruptNode(XMC_CCU8_SLICE_t *const slice,
                                     const XMC_CCU8_SLICE_IRQ_ID_t event,
                                     const XMC_CCU8_SLICE_SR_ID_t sr)
{
100019a2:	b530      	push	{r4, r5, lr}

  XMC_ASSERT("XMC_CCU8_SLICE_SetInterruptNode:Invalid Slice Pointer", XMC_CCU8_IsValidSlice(slice));
  XMC_ASSERT("XMC_CCU8_SLICE_SetInterruptNode:Invalid SR ID ", XMC_CCU8_SLICE_CHECK_SR_ID(sr));
  XMC_ASSERT("XMC_CCU8_SLICE_SetInterruptNode:Invalid event", XMC_CCU8_SLICE_CHECK_INTERRUPT(event));

  srs = slice->SRS;
100019a4:	58c5      	ldr	r5, [r0, r3]
100019a6:	2909      	cmp	r1, #9
100019a8:	d80b      	bhi.n	100019c2 <XMC_CCU8_SLICE_SetInterruptNode+0x22>
100019aa:	4b07      	ldr	r3, [pc, #28]	; (100019c8 <XMC_CCU8_SLICE_SetInterruptNode+0x28>)
100019ac:	0089      	lsls	r1, r1, #2
100019ae:	58cc      	ldr	r4, [r1, r3]
100019b0:	43e3      	mvns	r3, r4
100019b2:	4c06      	ldr	r4, [pc, #24]	; (100019cc <XMC_CCU8_SLICE_SetInterruptNode+0x2c>)
100019b4:	5909      	ldr	r1, [r1, r4]
      pos  = CCU8_CC8_SRS_E2SR_Pos;
      break;
  }
  
  srs &= ~mask;
  srs |= (uint32_t)sr << pos;
100019b6:	408a      	lsls	r2, r1
      mask = ((uint32_t) CCU8_CC8_SRS_E2SR_Msk);
      pos  = CCU8_CC8_SRS_E2SR_Pos;
      break;
  }
  
  srs &= ~mask;
100019b8:	402b      	ands	r3, r5
  srs |= (uint32_t)sr << pos;
100019ba:	431a      	orrs	r2, r3
  
  slice->SRS = srs;
100019bc:	23a8      	movs	r3, #168	; 0xa8
100019be:	50c2      	str	r2, [r0, r3]
}
100019c0:	bd30      	pop	{r4, r5, pc}

  XMC_ASSERT("XMC_CCU8_SLICE_SetInterruptNode:Invalid Slice Pointer", XMC_CCU8_IsValidSlice(slice));
  XMC_ASSERT("XMC_CCU8_SLICE_SetInterruptNode:Invalid SR ID ", XMC_CCU8_SLICE_CHECK_SR_ID(sr));
  XMC_ASSERT("XMC_CCU8_SLICE_SetInterruptNode:Invalid event", XMC_CCU8_SLICE_CHECK_INTERRUPT(event));

  srs = slice->SRS;
100019c2:	210c      	movs	r1, #12
100019c4:	4b02      	ldr	r3, [pc, #8]	; (100019d0 <XMC_CCU8_SLICE_SetInterruptNode+0x30>)
100019c6:	e7f6      	b.n	100019b6 <XMC_CCU8_SLICE_SetInterruptNode+0x16>
100019c8:	10003310 	.word	0x10003310
100019cc:	10003338 	.word	0x10003338
100019d0:	ffffcfff 	.word	0xffffcfff

100019d4 <XMC_CCU8_SLICE_DeadTimeInit>:
                                 const XMC_CCU8_SLICE_DEAD_TIME_CONFIG_t *const config)
{
  XMC_ASSERT("XMC_CCU8_SLICE_ConfigureDeadTime:Invalid Slice Pointer", XMC_CCU8_IsValidSlice(slice));

  /* Program dead time value for channel 1 */
  slice->DC1R = config->dc1r;
100019d4:	684b      	ldr	r3, [r1, #4]
100019d6:	6503      	str	r3, [r0, #80]	; 0x50
  /* Program dead time value for channel 2 */
  slice->DC2R = config->dc2r;
100019d8:	688b      	ldr	r3, [r1, #8]
100019da:	6543      	str	r3, [r0, #84]	; 0x54
  /* Program dead time control configuration */
  slice->DTC = config->dtc;
100019dc:	680b      	ldr	r3, [r1, #0]
100019de:	64c3      	str	r3, [r0, #76]	; 0x4c
}
100019e0:	4770      	bx	lr
100019e2:	46c0      	nop			; (mov r8, r8)

100019e4 <XMC_ERU_ETL_Init>:
 ********************************************************************************************************************/
/* Initializes the selected ERU_ETLx channel with the config structure.  */
void XMC_ERU_ETL_Init(XMC_ERU_t *const eru,
                      const uint8_t channel,
                      const XMC_ERU_ETL_CONFIG_t *const config)
{ 
100019e4:	b570      	push	{r4, r5, r6, lr}
100019e6:	1c0c      	adds	r4, r1, #0
100019e8:	1c05      	adds	r5, r0, #0
100019ea:	1c16      	adds	r6, r2, #0
  XMC_ASSERT("XMC_ERU_ETL_Init:Invalid Module Pointer", XMC_ERU_CHECK_MODULE_PTR(eru));
  XMC_ASSERT("XMC_ERU_ETL_Init:Invalid Channel Number", (channel < 4U));

  XMC_ERU_Enable(eru);
100019ec:	f7ff fba4 	bl	10001138 <XMC_ERU_Enable>

  eru->EXISEL = (eru->EXISEL & 
                 ~((uint32_t)(ERU_EXISEL_EXS0A_Msk | ERU_EXISEL_EXS0B_Msk) << (channel * ERU_EXISEL_BITSIZE))) |
100019f0:	210f      	movs	r1, #15
100019f2:	00a2      	lsls	r2, r4, #2
100019f4:	4091      	lsls	r1, r2
  XMC_ASSERT("XMC_ERU_ETL_Init:Invalid Module Pointer", XMC_ERU_CHECK_MODULE_PTR(eru));
  XMC_ASSERT("XMC_ERU_ETL_Init:Invalid Channel Number", (channel < 4U));

  XMC_ERU_Enable(eru);

  eru->EXISEL = (eru->EXISEL & 
100019f6:	682b      	ldr	r3, [r5, #0]
                 ~((uint32_t)(ERU_EXISEL_EXS0A_Msk | ERU_EXISEL_EXS0B_Msk) << (channel * ERU_EXISEL_BITSIZE))) |
                (config->input << (channel * (uint32_t)ERU_EXISEL_BITSIZE));
  
  eru->EXICON[channel] = config->raw;
100019f8:	3404      	adds	r4, #4
  XMC_ASSERT("XMC_ERU_ETL_Init:Invalid Module Pointer", XMC_ERU_CHECK_MODULE_PTR(eru));
  XMC_ASSERT("XMC_ERU_ETL_Init:Invalid Channel Number", (channel < 4U));

  XMC_ERU_Enable(eru);

  eru->EXISEL = (eru->EXISEL & 
100019fa:	438b      	bics	r3, r1
                 ~((uint32_t)(ERU_EXISEL_EXS0A_Msk | ERU_EXISEL_EXS0B_Msk) << (channel * ERU_EXISEL_BITSIZE))) |
                (config->input << (channel * (uint32_t)ERU_EXISEL_BITSIZE));
100019fc:	6831      	ldr	r1, [r6, #0]
  
  eru->EXICON[channel] = config->raw;
100019fe:	00a4      	lsls	r4, r4, #2

  XMC_ERU_Enable(eru);

  eru->EXISEL = (eru->EXISEL & 
                 ~((uint32_t)(ERU_EXISEL_EXS0A_Msk | ERU_EXISEL_EXS0B_Msk) << (channel * ERU_EXISEL_BITSIZE))) |
                (config->input << (channel * (uint32_t)ERU_EXISEL_BITSIZE));
10001a00:	4091      	lsls	r1, r2
  XMC_ASSERT("XMC_ERU_ETL_Init:Invalid Channel Number", (channel < 4U));

  XMC_ERU_Enable(eru);

  eru->EXISEL = (eru->EXISEL & 
                 ~((uint32_t)(ERU_EXISEL_EXS0A_Msk | ERU_EXISEL_EXS0B_Msk) << (channel * ERU_EXISEL_BITSIZE))) |
10001a02:	430b      	orrs	r3, r1
  XMC_ASSERT("XMC_ERU_ETL_Init:Invalid Module Pointer", XMC_ERU_CHECK_MODULE_PTR(eru));
  XMC_ASSERT("XMC_ERU_ETL_Init:Invalid Channel Number", (channel < 4U));

  XMC_ERU_Enable(eru);

  eru->EXISEL = (eru->EXISEL & 
10001a04:	602b      	str	r3, [r5, #0]
                 ~((uint32_t)(ERU_EXISEL_EXS0A_Msk | ERU_EXISEL_EXS0B_Msk) << (channel * ERU_EXISEL_BITSIZE))) |
                (config->input << (channel * (uint32_t)ERU_EXISEL_BITSIZE));
  
  eru->EXICON[channel] = config->raw;
10001a06:	6873      	ldr	r3, [r6, #4]
10001a08:	5163      	str	r3, [r4, r5]
}
10001a0a:	bd70      	pop	{r4, r5, r6, pc}

10001a0c <XMC_ERU_OGU_Init>:

/* Initializes the selected ERU_OGUy channel with the config structure.  */
void XMC_ERU_OGU_Init(XMC_ERU_t *const eru,
                      const uint8_t channel,
                      const XMC_ERU_OGU_CONFIG_t *const config)
{
10001a0c:	b570      	push	{r4, r5, r6, lr}
10001a0e:	1c16      	adds	r6, r2, #0
10001a10:	1c0c      	adds	r4, r1, #0
10001a12:	1c05      	adds	r5, r0, #0
  XMC_ASSERT("XMC_ERU_OGU_Init:Invalid Module Pointer", XMC_ERU_CHECK_MODULE_PTR(eru));
  XMC_ASSERT("XMC_ERU_OGU_Init:Invalid Channel Number", (channel < 4U));

  XMC_ERU_Enable(eru);

  eru->EXOCON[channel] = config->raw;
10001a14:	3408      	adds	r4, #8
                      const XMC_ERU_OGU_CONFIG_t *const config)
{
  XMC_ASSERT("XMC_ERU_OGU_Init:Invalid Module Pointer", XMC_ERU_CHECK_MODULE_PTR(eru));
  XMC_ASSERT("XMC_ERU_OGU_Init:Invalid Channel Number", (channel < 4U));

  XMC_ERU_Enable(eru);
10001a16:	f7ff fb8f 	bl	10001138 <XMC_ERU_Enable>

  eru->EXOCON[channel] = config->raw;
10001a1a:	6833      	ldr	r3, [r6, #0]
10001a1c:	00a4      	lsls	r4, r4, #2
10001a1e:	5163      	str	r3, [r4, r5]
}
10001a20:	bd70      	pop	{r4, r5, r6, pc}
10001a22:	46c0      	nop			; (mov r8, r8)

10001a24 <XMC_GPIO_SetMode>:
/*******************************************************************************
 * API IMPLEMENTATION
 *******************************************************************************/

void XMC_GPIO_SetMode(XMC_GPIO_PORT_t *const port, const uint8_t pin, const XMC_GPIO_MODE_t mode)
{
10001a24:	b510      	push	{r4, lr}
  XMC_ASSERT("XMC_GPIO_SetMode: Invalid port", XMC_GPIO_CHECK_PORT(port));
  XMC_ASSERT("XMC_GPIO_SetMode: Invalid mode", XMC_GPIO_IsModeValid(mode));

  port->IOCR[(uint32_t)pin >> 2U] &= ~(uint32_t)((uint32_t)PORT_IOCR_PC_Msk << ((uint32_t)PORT_IOCR_PC_Size * ((uint32_t)pin & 0x3U)));
10001a26:	2403      	movs	r4, #3
10001a28:	088b      	lsrs	r3, r1, #2
10001a2a:	4021      	ands	r1, r4
10001a2c:	00c9      	lsls	r1, r1, #3
  port->IOCR[(uint32_t)pin >> 2U] |= (uint32_t)mode << ((uint32_t)PORT_IOCR_PC_Size * ((uint32_t)pin & 0x3U));
10001a2e:	408a      	lsls	r2, r1
void XMC_GPIO_SetMode(XMC_GPIO_PORT_t *const port, const uint8_t pin, const XMC_GPIO_MODE_t mode)
{
  XMC_ASSERT("XMC_GPIO_SetMode: Invalid port", XMC_GPIO_CHECK_PORT(port));
  XMC_ASSERT("XMC_GPIO_SetMode: Invalid mode", XMC_GPIO_IsModeValid(mode));

  port->IOCR[(uint32_t)pin >> 2U] &= ~(uint32_t)((uint32_t)PORT_IOCR_PC_Msk << ((uint32_t)PORT_IOCR_PC_Size * ((uint32_t)pin & 0x3U)));
10001a30:	34f9      	adds	r4, #249	; 0xf9
10001a32:	408c      	lsls	r4, r1
  port->IOCR[(uint32_t)pin >> 2U] |= (uint32_t)mode << ((uint32_t)PORT_IOCR_PC_Size * ((uint32_t)pin & 0x3U));
10001a34:	1c11      	adds	r1, r2, #0
10001a36:	009b      	lsls	r3, r3, #2
10001a38:	18c0      	adds	r0, r0, r3
void XMC_GPIO_SetMode(XMC_GPIO_PORT_t *const port, const uint8_t pin, const XMC_GPIO_MODE_t mode)
{
  XMC_ASSERT("XMC_GPIO_SetMode: Invalid port", XMC_GPIO_CHECK_PORT(port));
  XMC_ASSERT("XMC_GPIO_SetMode: Invalid mode", XMC_GPIO_IsModeValid(mode));

  port->IOCR[(uint32_t)pin >> 2U] &= ~(uint32_t)((uint32_t)PORT_IOCR_PC_Msk << ((uint32_t)PORT_IOCR_PC_Size * ((uint32_t)pin & 0x3U)));
10001a3a:	6903      	ldr	r3, [r0, #16]
10001a3c:	43a3      	bics	r3, r4
10001a3e:	6103      	str	r3, [r0, #16]
  port->IOCR[(uint32_t)pin >> 2U] |= (uint32_t)mode << ((uint32_t)PORT_IOCR_PC_Size * ((uint32_t)pin & 0x3U));
10001a40:	6903      	ldr	r3, [r0, #16]
10001a42:	4319      	orrs	r1, r3
10001a44:	6101      	str	r1, [r0, #16]
}
10001a46:	bd10      	pop	{r4, pc}

10001a48 <XMC_GPIO_SetHardwareControl>:

void XMC_GPIO_SetHardwareControl(XMC_GPIO_PORT_t *const port, const uint8_t pin, const XMC_GPIO_HWCTRL_t hwctrl)
{
10001a48:	b510      	push	{r4, lr}
  XMC_ASSERT("XMC_GPIO_SetHardwareControl: Invalid port", XMC_GPIO_CHECK_PORT(port));
  XMC_ASSERT("XMC_GPIO_SetHardwareControl: Invalid hwctrl", XMC_GPIO_CHECK_HWCTRL(hwctrl));

  port->HWSEL &= ~(uint32_t)((uint32_t)PORT_HWSEL_Msk << ((uint32_t)pin << 1U));
10001a4a:	2403      	movs	r4, #3
10001a4c:	0049      	lsls	r1, r1, #1
  port->HWSEL |= (uint32_t)hwctrl << ((uint32_t)pin << 1U);
10001a4e:	408a      	lsls	r2, r1
void XMC_GPIO_SetHardwareControl(XMC_GPIO_PORT_t *const port, const uint8_t pin, const XMC_GPIO_HWCTRL_t hwctrl)
{
  XMC_ASSERT("XMC_GPIO_SetHardwareControl: Invalid port", XMC_GPIO_CHECK_PORT(port));
  XMC_ASSERT("XMC_GPIO_SetHardwareControl: Invalid hwctrl", XMC_GPIO_CHECK_HWCTRL(hwctrl));

  port->HWSEL &= ~(uint32_t)((uint32_t)PORT_HWSEL_Msk << ((uint32_t)pin << 1U));
10001a50:	408c      	lsls	r4, r1
  port->HWSEL |= (uint32_t)hwctrl << ((uint32_t)pin << 1U);
10001a52:	1c11      	adds	r1, r2, #0
void XMC_GPIO_SetHardwareControl(XMC_GPIO_PORT_t *const port, const uint8_t pin, const XMC_GPIO_HWCTRL_t hwctrl)
{
  XMC_ASSERT("XMC_GPIO_SetHardwareControl: Invalid port", XMC_GPIO_CHECK_PORT(port));
  XMC_ASSERT("XMC_GPIO_SetHardwareControl: Invalid hwctrl", XMC_GPIO_CHECK_HWCTRL(hwctrl));

  port->HWSEL &= ~(uint32_t)((uint32_t)PORT_HWSEL_Msk << ((uint32_t)pin << 1U));
10001a54:	6f43      	ldr	r3, [r0, #116]	; 0x74
10001a56:	43a3      	bics	r3, r4
10001a58:	6743      	str	r3, [r0, #116]	; 0x74
  port->HWSEL |= (uint32_t)hwctrl << ((uint32_t)pin << 1U);
10001a5a:	6f43      	ldr	r3, [r0, #116]	; 0x74
10001a5c:	4319      	orrs	r1, r3
10001a5e:	6741      	str	r1, [r0, #116]	; 0x74
}
10001a60:	bd10      	pop	{r4, pc}
10001a62:	46c0      	nop			; (mov r8, r8)

10001a64 <__aeabi_uidiv>:
 * API IMPLEMENTATION - aeabi routines
 **********************************************************************************************************************/
/* This function performs unsigned integer division */
uint32_t __aeabi_uidiv(uint32_t dividend, uint32_t divisor)
{
  MATH->DIVCON  = XMC_MATH_UNSIGNED_DIVISION;
10001a64:	2204      	movs	r2, #4
10001a66:	4b03      	ldr	r3, [pc, #12]	; (10001a74 <__aeabi_uidiv+0x10>)
10001a68:	635a      	str	r2, [r3, #52]	; 0x34
  MATH->DVD     = dividend;
10001a6a:	6218      	str	r0, [r3, #32]
  MATH->DVS     = divisor;
10001a6c:	6259      	str	r1, [r3, #36]	; 0x24

  return ((uint32_t) MATH->QUOT);
10001a6e:	6a98      	ldr	r0, [r3, #40]	; 0x28
}
10001a70:	4770      	bx	lr
10001a72:	46c0      	nop			; (mov r8, r8)
10001a74:	40030000 	.word	0x40030000

10001a78 <XMC_UART_CH_Init>:
/*********************************************************************************************************************
 * API IMPLEMENTATION
 *********************************************************************************************************************/

void XMC_UART_CH_Init(XMC_USIC_CH_t *channel, const XMC_UART_CH_CONFIG_t *const config)
{
10001a78:	b570      	push	{r4, r5, r6, lr}
10001a7a:	1c0d      	adds	r5, r1, #0
10001a7c:	1c04      	adds	r4, r0, #0
  uint32_t oversampling = XMC_UART_CH_OVERSAMPLING;

  /* USIC channel switched on*/
  XMC_USIC_CH_Enable(channel);
10001a7e:	f000 f84f 	bl	10001b20 <XMC_USIC_CH_Enable>
  
  if(config->oversampling != 0U)
10001a82:	79ea      	ldrb	r2, [r5, #7]
10001a84:	2a00      	cmp	r2, #0
10001a86:	d026      	beq.n	10001ad6 <XMC_UART_CH_Init+0x5e>
10001a88:	0856      	lsrs	r6, r2, #1
10001a8a:	3601      	adds	r6, #1
10001a8c:	0236      	lsls	r6, r6, #8
  {
    oversampling = (uint32_t)config->oversampling;
  }
  
  /* Configure baud rate */
  (void)XMC_USIC_CH_SetBaudrate(channel, config->baudrate, oversampling);
10001a8e:	1c20      	adds	r0, r4, #0
10001a90:	6829      	ldr	r1, [r5, #0]
10001a92:	f000 f86f 	bl	10001b74 <XMC_USIC_CH_SetBaudrate>
   * i.e. the 0 level is signaled during the complete bit time
   * Sampling point set equal to the half of the oversampling period
   * Enable Sample Majority Decision 
   * Enable Transfer Status BUSY
   */
  channel->PCR_ASCMode = (uint32_t)(((config->stop_bits - 1UL) << USIC_CH_PCR_ASCMode_STPB_Pos) |
10001a96:	79aa      	ldrb	r2, [r5, #6]
10001a98:	1e53      	subs	r3, r2, #1
10001a9a:	005a      	lsls	r2, r3, #1
10001a9c:	4b13      	ldr	r3, [pc, #76]	; (10001aec <XMC_UART_CH_Init+0x74>)
10001a9e:	4313      	orrs	r3, r2
  /* Set passive data level, high
     Set word length. Data bits - 1
     If frame length is > 0, frame_lemgth-1; else, FLE = WLE (Data bits - 1)
     Transmission Mode: The shift control signal is considered active if it
     is at 1-level. This is the setting to be programmed to allow data transfers */
  channel->SCTR = (uint32_t)((((uint32_t)config->data_bits - 1UL) << USIC_CH_SCTR_WLE_Pos) |
10001aa0:	2281      	movs	r2, #129	; 0x81
   * i.e. the 0 level is signaled during the complete bit time
   * Sampling point set equal to the half of the oversampling period
   * Enable Sample Majority Decision 
   * Enable Transfer Status BUSY
   */
  channel->PCR_ASCMode = (uint32_t)(((config->stop_bits - 1UL) << USIC_CH_PCR_ASCMode_STPB_Pos) |
10001aa2:	4333      	orrs	r3, r6
10001aa4:	63e3      	str	r3, [r4, #60]	; 0x3c
  /* Set passive data level, high
     Set word length. Data bits - 1
     If frame length is > 0, frame_lemgth-1; else, FLE = WLE (Data bits - 1)
     Transmission Mode: The shift control signal is considered active if it
     is at 1-level. This is the setting to be programmed to allow data transfers */
  channel->SCTR = (uint32_t)((((uint32_t)config->data_bits - 1UL) << USIC_CH_SCTR_WLE_Pos) |
10001aa6:	792b      	ldrb	r3, [r5, #4]
10001aa8:	0052      	lsls	r2, r2, #1
10001aaa:	3b01      	subs	r3, #1
10001aac:	061b      	lsls	r3, r3, #24
10001aae:	4313      	orrs	r3, r2
10001ab0:	6363      	str	r3, [r4, #52]	; 0x34
                             ((0x1UL << USIC_CH_SCTR_TRM_Pos) | USIC_CH_SCTR_PDL_Msk));

  if (config->frame_length != 0U)
10001ab2:	796b      	ldrb	r3, [r5, #5]
10001ab4:	2b00      	cmp	r3, #0
10001ab6:	d112      	bne.n	10001ade <XMC_UART_CH_Init+0x66>
  {
    channel->SCTR |= (uint32_t)(((uint32_t)config->frame_length - 1UL) << USIC_CH_SCTR_FLE_Pos);
  }
  else
  {
    channel->SCTR |= (uint32_t)(((uint32_t)config->data_bits - 1UL) << USIC_CH_SCTR_FLE_Pos);
10001ab8:	792a      	ldrb	r2, [r5, #4]
10001aba:	6b61      	ldr	r1, [r4, #52]	; 0x34
10001abc:	1e53      	subs	r3, r2, #1
10001abe:	041b      	lsls	r3, r3, #16
10001ac0:	430b      	orrs	r3, r1
10001ac2:	6363      	str	r3, [r4, #52]	; 0x34
  }

  /* Enable transfer buffer */
  channel->TCSR = (0x1UL << USIC_CH_TCSR_TDEN_Pos) |
10001ac4:	23a0      	movs	r3, #160	; 0xa0
10001ac6:	00db      	lsls	r3, r3, #3
10001ac8:	63a3      	str	r3, [r4, #56]	; 0x38
                  USIC_CH_TCSR_TDSSM_Msk;

  /* Clear protocol status */
  channel->PSCR = 0xFFFFFFFFUL;
10001aca:	2301      	movs	r3, #1
10001acc:	425b      	negs	r3, r3
10001ace:	64e3      	str	r3, [r4, #76]	; 0x4c

  /* Set parity settings */
  channel->CCR = (uint32_t)config->parity_mode;
10001ad0:	892b      	ldrh	r3, [r5, #8]
10001ad2:	6423      	str	r3, [r4, #64]	; 0x40
}
10001ad4:	bd70      	pop	{r4, r5, r6, pc}
10001ad6:	2690      	movs	r6, #144	; 0x90
 * API IMPLEMENTATION
 *********************************************************************************************************************/

void XMC_UART_CH_Init(XMC_USIC_CH_t *channel, const XMC_UART_CH_CONFIG_t *const config)
{
  uint32_t oversampling = XMC_UART_CH_OVERSAMPLING;
10001ad8:	2210      	movs	r2, #16
10001ada:	0136      	lsls	r6, r6, #4
10001adc:	e7d7      	b.n	10001a8e <XMC_UART_CH_Init+0x16>
  channel->SCTR = (uint32_t)((((uint32_t)config->data_bits - 1UL) << USIC_CH_SCTR_WLE_Pos) |
                             ((0x1UL << USIC_CH_SCTR_TRM_Pos) | USIC_CH_SCTR_PDL_Msk));

  if (config->frame_length != 0U)
  {
    channel->SCTR |= (uint32_t)(((uint32_t)config->frame_length - 1UL) << USIC_CH_SCTR_FLE_Pos);
10001ade:	6b62      	ldr	r2, [r4, #52]	; 0x34
10001ae0:	3b01      	subs	r3, #1
10001ae2:	041b      	lsls	r3, r3, #16
10001ae4:	4313      	orrs	r3, r2
10001ae6:	6363      	str	r3, [r4, #52]	; 0x34
10001ae8:	e7ec      	b.n	10001ac4 <XMC_UART_CH_Init+0x4c>
10001aea:	46c0      	nop			; (mov r8, r8)
10001aec:	00030001 	.word	0x00030001

10001af0 <XMC_UART_CH_Transmit>:
}

void XMC_UART_CH_Transmit(XMC_USIC_CH_t *const channel, const uint16_t data)
{
  /* Check FIFO size */
  if ((channel->TBCTR & USIC_CH_TBCTR_SIZE_Msk) == 0UL)
10001af0:	2384      	movs	r3, #132	; 0x84
10001af2:	005b      	lsls	r3, r3, #1
10001af4:	58c2      	ldr	r2, [r0, r3]
10001af6:	23e0      	movs	r3, #224	; 0xe0
10001af8:	04db      	lsls	r3, r3, #19
10001afa:	421a      	tst	r2, r3
10001afc:	d10b      	bne.n	10001b16 <XMC_UART_CH_Transmit+0x26>
 * \par<b>Related APIs:</b><BR>
 * XMC_USIC_CH_SetDataOutputMode() \n\n\n
 */
__STATIC_INLINE XMC_USIC_CH_TBUF_STATUS_t XMC_USIC_CH_GetTransmitBufferStatus(XMC_USIC_CH_t *const channel)
{
  return (XMC_USIC_CH_TBUF_STATUS_t)(channel->TCSR & USIC_CH_TCSR_TDV_Msk);
10001afe:	227f      	movs	r2, #127	; 0x7f
10001b00:	6b83      	ldr	r3, [r0, #56]	; 0x38
10001b02:	4393      	bics	r3, r2
  {
    /* Wait till the Transmit Buffer is free for transmission */
    while(XMC_USIC_CH_GetTransmitBufferStatus(channel) == XMC_USIC_CH_TBUF_STATUS_BUSY)
10001b04:	b2db      	uxtb	r3, r3
10001b06:	2b80      	cmp	r3, #128	; 0x80
10001b08:	d0fa      	beq.n	10001b00 <XMC_UART_CH_Transmit+0x10>
 * \par<b>Related APIs:</b><BR>
 * XMC_UART_CH_DisableEvent(),  XMC_UART_CH_GetStatusFlag()\n\n\n
 */
__STATIC_INLINE void XMC_UART_CH_ClearStatusFlag(XMC_USIC_CH_t *const channel, const uint32_t flag)
{
  channel->PSCR = flag;
10001b0a:	2380      	movs	r3, #128	; 0x80
10001b0c:	019b      	lsls	r3, r3, #6
10001b0e:	64c3      	str	r3, [r0, #76]	; 0x4c
  
    /* Clear the Transmit Buffer indication flag */
    XMC_UART_CH_ClearStatusFlag(channel, (uint32_t)XMC_UART_CH_STATUS_FLAG_TRANSMIT_BUFFER_INDICATION);
  
    /*Transmit data */
    channel->TBUF[0U] = data;
10001b10:	2380      	movs	r3, #128	; 0x80
10001b12:	50c1      	str	r1, [r0, r3]
  }
  else
  {
    channel->IN[0U] = data;
  }
}
10001b14:	4770      	bx	lr
    /*Transmit data */
    channel->TBUF[0U] = data;
  }
  else
  {
    channel->IN[0U] = data;
10001b16:	23c0      	movs	r3, #192	; 0xc0
10001b18:	005b      	lsls	r3, r3, #1
10001b1a:	50c1      	str	r1, [r0, r3]
10001b1c:	e7fa      	b.n	10001b14 <XMC_UART_CH_Transmit+0x24>
10001b1e:	46c0      	nop			; (mov r8, r8)

10001b20 <XMC_USIC_CH_Enable>:

void XMC_USIC_CH_Enable(XMC_USIC_CH_t *const channel)
{
  XMC_ASSERT("XMC_USIC_CH_Enable: channel not valid", XMC_USIC_IsChannelValid(channel));

  if ((channel == XMC_USIC0_CH0) || (channel == XMC_USIC0_CH1))
10001b20:	2390      	movs	r3, #144	; 0x90
/*******************************************************************************
 * API IMPLEMENTATION
 *******************************************************************************/

void XMC_USIC_CH_Enable(XMC_USIC_CH_t *const channel)
{
10001b22:	b510      	push	{r4, lr}
  XMC_ASSERT("XMC_USIC_CH_Enable: channel not valid", XMC_USIC_IsChannelValid(channel));

  if ((channel == XMC_USIC0_CH0) || (channel == XMC_USIC0_CH1))
10001b24:	05db      	lsls	r3, r3, #23
/*******************************************************************************
 * API IMPLEMENTATION
 *******************************************************************************/

void XMC_USIC_CH_Enable(XMC_USIC_CH_t *const channel)
{
10001b26:	1e04      	subs	r4, r0, #0
  XMC_ASSERT("XMC_USIC_CH_Enable: channel not valid", XMC_USIC_IsChannelValid(channel));

  if ((channel == XMC_USIC0_CH0) || (channel == XMC_USIC0_CH1))
10001b28:	429c      	cmp	r4, r3
10001b2a:	d013      	beq.n	10001b54 <XMC_USIC_CH_Enable+0x34>
10001b2c:	4b0e      	ldr	r3, [pc, #56]	; (10001b68 <XMC_USIC_CH_Enable+0x48>)
10001b2e:	4298      	cmp	r0, r3
10001b30:	d010      	beq.n	10001b54 <XMC_USIC_CH_Enable+0x34>
  {
    XMC_USIC_Enable(XMC_USIC0);
  }
#if defined(USIC1)
  else if((channel == XMC_USIC1_CH0) || (channel == XMC_USIC1_CH1))
10001b32:	4b0e      	ldr	r3, [pc, #56]	; (10001b6c <XMC_USIC_CH_Enable+0x4c>)
10001b34:	4298      	cmp	r0, r3
10001b36:	d011      	beq.n	10001b5c <XMC_USIC_CH_Enable+0x3c>
10001b38:	4b0d      	ldr	r3, [pc, #52]	; (10001b70 <XMC_USIC_CH_Enable+0x50>)
10001b3a:	4298      	cmp	r0, r3
10001b3c:	d00e      	beq.n	10001b5c <XMC_USIC_CH_Enable+0x3c>
  {
    XMC_ASSERT("USIC module not available", 0U/*Always*/);
  }

  /* USIC channel switched on*/
  channel->KSCFG = (USIC_CH_KSCFG_MODEN_Msk | USIC_CH_KSCFG_BPMODEN_Msk);
10001b3e:	2303      	movs	r3, #3
  while ((channel->KSCFG & USIC_CH_KSCFG_MODEN_Msk) == 0U)
10001b40:	2201      	movs	r2, #1
  {
    XMC_ASSERT("USIC module not available", 0U/*Always*/);
  }

  /* USIC channel switched on*/
  channel->KSCFG = (USIC_CH_KSCFG_MODEN_Msk | USIC_CH_KSCFG_BPMODEN_Msk);
10001b42:	60e3      	str	r3, [r4, #12]
  while ((channel->KSCFG & USIC_CH_KSCFG_MODEN_Msk) == 0U)
10001b44:	68e3      	ldr	r3, [r4, #12]
10001b46:	421a      	tst	r2, r3
10001b48:	d0fc      	beq.n	10001b44 <XMC_USIC_CH_Enable+0x24>
  {
    /* Wait till the channel is enabled */
  }

  /* Set USIC channel in IDLE mode */
  channel->CCR &= (uint32_t)~USIC_CH_CCR_MODE_Msk;
10001b4a:	220f      	movs	r2, #15
10001b4c:	6c23      	ldr	r3, [r4, #64]	; 0x40
10001b4e:	4393      	bics	r3, r2
10001b50:	6423      	str	r3, [r4, #64]	; 0x40
}
10001b52:	bd10      	pop	{r4, pc}
void XMC_USIC_Enable(XMC_USIC_t *const usic)
{
  if (usic == USIC0)
  {
#if defined(CLOCK_GATING_SUPPORTED)
    XMC_SCU_CLOCK_UngatePeripheralClock(XMC_SCU_PERIPHERAL_CLOCK_USIC0);
10001b54:	2008      	movs	r0, #8
10001b56:	f7ff fb5b 	bl	10001210 <XMC_SCU_CLOCK_UngatePeripheralClock>
10001b5a:	e7f0      	b.n	10001b3e <XMC_USIC_CH_Enable+0x1e>
  }
#if defined(USIC1)  
  else if (usic == USIC1)
  {
#if defined(CLOCK_GATING_SUPPORTED)
    XMC_SCU_CLOCK_UngatePeripheralClock(XMC_SCU_PERIPHERAL_CLOCK_USIC1);
10001b5c:	2080      	movs	r0, #128	; 0x80
10001b5e:	02c0      	lsls	r0, r0, #11
10001b60:	f7ff fb56 	bl	10001210 <XMC_SCU_CLOCK_UngatePeripheralClock>
10001b64:	e7eb      	b.n	10001b3e <XMC_USIC_CH_Enable+0x1e>
10001b66:	46c0      	nop			; (mov r8, r8)
10001b68:	48000200 	.word	0x48000200
10001b6c:	48004000 	.word	0x48004000
10001b70:	48004200 	.word	0x48004200

10001b74 <XMC_USIC_CH_SetBaudrate>:
{
  channel->KSCFG = (uint32_t)((channel->KSCFG & (~USIC_CH_KSCFG_MODEN_Msk)) | USIC_CH_KSCFG_BPMODEN_Msk);
}

XMC_USIC_CH_STATUS_t XMC_USIC_CH_SetBaudrate(XMC_USIC_CH_t *const channel, uint32_t rate, uint32_t oversampling)
{
10001b74:	b5f0      	push	{r4, r5, r6, r7, lr}
10001b76:	465f      	mov	r7, fp
10001b78:	4656      	mov	r6, sl
10001b7a:	464d      	mov	r5, r9
10001b7c:	4644      	mov	r4, r8
10001b7e:	b4f0      	push	{r4, r5, r6, r7}
                    
    status = XMC_USIC_CH_STATUS_OK;
  }
  else 
  {
    status = XMC_USIC_CH_STATUS_ERROR;
10001b80:	2301      	movs	r3, #1
{
  channel->KSCFG = (uint32_t)((channel->KSCFG & (~USIC_CH_KSCFG_MODEN_Msk)) | USIC_CH_KSCFG_BPMODEN_Msk);
}

XMC_USIC_CH_STATUS_t XMC_USIC_CH_SetBaudrate(XMC_USIC_CH_t *const channel, uint32_t rate, uint32_t oversampling)
{
10001b82:	b083      	sub	sp, #12
  
  uint32_t pdiv_frac;
  uint32_t pdiv_frac_min;

  /* The rate and peripheral clock are divided by 100 to be able to use only 32bit arithmetic */
  if ((rate >= 100U) && (oversampling != 0U))
10001b84:	2963      	cmp	r1, #99	; 0x63
10001b86:	d901      	bls.n	10001b8c <XMC_USIC_CH_SetBaudrate+0x18>
10001b88:	2a00      	cmp	r2, #0
10001b8a:	d107      	bne.n	10001b9c <XMC_USIC_CH_SetBaudrate+0x28>
  {
    status = XMC_USIC_CH_STATUS_ERROR;
  }
  
  return status;
}
10001b8c:	1c18      	adds	r0, r3, #0
10001b8e:	b003      	add	sp, #12
10001b90:	bc3c      	pop	{r2, r3, r4, r5}
10001b92:	4690      	mov	r8, r2
10001b94:	4699      	mov	r9, r3
10001b96:	46a2      	mov	sl, r4
10001b98:	46ab      	mov	fp, r5
10001b9a:	bdf0      	pop	{r4, r5, r6, r7, pc}
10001b9c:	1c17      	adds	r7, r2, #0
10001b9e:	1c0c      	adds	r4, r1, #0
10001ba0:	9201      	str	r2, [sp, #4]
10001ba2:	9000      	str	r0, [sp, #0]
  uint32_t pdiv_frac_min;

  /* The rate and peripheral clock are divided by 100 to be able to use only 32bit arithmetic */
  if ((rate >= 100U) && (oversampling != 0U))
  {
    peripheral_clock = XMC_SCU_CLOCK_GetPeripheralClockFrequency() / 100U;
10001ba4:	f7ff fc26 	bl	100013f4 <XMC_SCU_CLOCK_GetPeripheralClockFrequency>
10001ba8:	2164      	movs	r1, #100	; 0x64
10001baa:	f7ff ff5b 	bl	10001a64 <__aeabi_uidiv>
    rate = rate / 100U;
10001bae:	2164      	movs	r1, #100	; 0x64
  uint32_t pdiv_frac_min;

  /* The rate and peripheral clock are divided by 100 to be able to use only 32bit arithmetic */
  if ((rate >= 100U) && (oversampling != 0U))
  {
    peripheral_clock = XMC_SCU_CLOCK_GetPeripheralClockFrequency() / 100U;
10001bb0:	1c06      	adds	r6, r0, #0
    rate = rate / 100U;
10001bb2:	1c20      	adds	r0, r4, #0
10001bb4:	f7ff ff56 	bl	10001a64 <__aeabi_uidiv>

    clock_divider_min = 1U;
    pdiv_int_min = 1U;
    pdiv_frac_min = 0x3ffU;
10001bb8:	4b17      	ldr	r3, [pc, #92]	; (10001c18 <XMC_USIC_CH_SetBaudrate+0xa4>)
10001bba:	4347      	muls	r7, r0
10001bbc:	4699      	mov	r9, r3
  {
    peripheral_clock = XMC_SCU_CLOCK_GetPeripheralClockFrequency() / 100U;
    rate = rate / 100U;

    clock_divider_min = 1U;
    pdiv_int_min = 1U;
10001bbe:	2301      	movs	r3, #1
    pdiv_frac_min = 0x3ffU;

    for(clock_divider = 1023U; clock_divider > 0U; --clock_divider)
10001bc0:	464c      	mov	r4, r9
  {
    peripheral_clock = XMC_SCU_CLOCK_GetPeripheralClockFrequency() / 100U;
    rate = rate / 100U;

    clock_divider_min = 1U;
    pdiv_int_min = 1U;
10001bc2:	469a      	mov	sl, r3
  if ((rate >= 100U) && (oversampling != 0U))
  {
    peripheral_clock = XMC_SCU_CLOCK_GetPeripheralClockFrequency() / 100U;
    rate = rate / 100U;

    clock_divider_min = 1U;
10001bc4:	469b      	mov	fp, r3
    {
      pdiv = ((peripheral_clock * clock_divider) / (rate * oversampling));
      pdiv_int = pdiv >> 10U;
      pdiv_frac = pdiv & 0x3ffU;

      if ((pdiv_int < 1024U) && (pdiv_frac < pdiv_frac_min))
10001bc6:	46c8      	mov	r8, r9
10001bc8:	02b5      	lsls	r5, r6, #10
10001bca:	1bad      	subs	r5, r5, r6
    pdiv_int_min = 1U;
    pdiv_frac_min = 0x3ffU;

    for(clock_divider = 1023U; clock_divider > 0U; --clock_divider)
    {
      pdiv = ((peripheral_clock * clock_divider) / (rate * oversampling));
10001bcc:	1c28      	adds	r0, r5, #0
10001bce:	1c39      	adds	r1, r7, #0
10001bd0:	f7ff ff48 	bl	10001a64 <__aeabi_uidiv>
      pdiv_int = pdiv >> 10U;
10001bd4:	0a83      	lsrs	r3, r0, #10
      pdiv_frac = pdiv & 0x3ffU;

      if ((pdiv_int < 1024U) && (pdiv_frac < pdiv_frac_min))
10001bd6:	4543      	cmp	r3, r8
10001bd8:	d806      	bhi.n	10001be8 <XMC_USIC_CH_SetBaudrate+0x74>

    for(clock_divider = 1023U; clock_divider > 0U; --clock_divider)
    {
      pdiv = ((peripheral_clock * clock_divider) / (rate * oversampling));
      pdiv_int = pdiv >> 10U;
      pdiv_frac = pdiv & 0x3ffU;
10001bda:	0580      	lsls	r0, r0, #22
10001bdc:	0d80      	lsrs	r0, r0, #22

      if ((pdiv_int < 1024U) && (pdiv_frac < pdiv_frac_min))
10001bde:	4548      	cmp	r0, r9
10001be0:	d202      	bcs.n	10001be8 <XMC_USIC_CH_SetBaudrate+0x74>
10001be2:	4681      	mov	r9, r0
10001be4:	469a      	mov	sl, r3
10001be6:	46a3      	mov	fp, r4

    clock_divider_min = 1U;
    pdiv_int_min = 1U;
    pdiv_frac_min = 0x3ffU;

    for(clock_divider = 1023U; clock_divider > 0U; --clock_divider)
10001be8:	3c01      	subs	r4, #1
10001bea:	1bad      	subs	r5, r5, r6
10001bec:	2c00      	cmp	r4, #0
10001bee:	d1ed      	bne.n	10001bcc <XMC_USIC_CH_SetBaudrate+0x58>
        pdiv_int_min = pdiv_int;
        clock_divider_min = clock_divider;
      }
    }

    channel->FDR = XMC_USIC_CH_BRG_CLOCK_DIVIDER_MODE_FRACTIONAL |
10001bf0:	2380      	movs	r3, #128	; 0x80
10001bf2:	465a      	mov	r2, fp
10001bf4:	9800      	ldr	r0, [sp, #0]
10001bf6:	021b      	lsls	r3, r3, #8
10001bf8:	4313      	orrs	r3, r2
10001bfa:	6103      	str	r3, [r0, #16]

    channel->BRG = (channel->BRG & ~(USIC_CH_BRG_DCTQ_Msk |
                                     USIC_CH_BRG_PDIV_Msk |
                                     USIC_CH_BRG_PCTQ_Msk |
                                     USIC_CH_BRG_PPPEN_Msk)) |
                   ((oversampling - 1U) << USIC_CH_BRG_DCTQ_Pos) |
10001bfc:	9a01      	ldr	r2, [sp, #4]
    }

    channel->FDR = XMC_USIC_CH_BRG_CLOCK_DIVIDER_MODE_FRACTIONAL |
                   (clock_divider_min << USIC_CH_FDR_STEP_Pos);

    channel->BRG = (channel->BRG & ~(USIC_CH_BRG_DCTQ_Msk |
10001bfe:	6941      	ldr	r1, [r0, #20]
10001c00:	4b06      	ldr	r3, [pc, #24]	; (10001c1c <XMC_USIC_CH_SetBaudrate+0xa8>)
                                     USIC_CH_BRG_PDIV_Msk |
                                     USIC_CH_BRG_PCTQ_Msk |
                                     USIC_CH_BRG_PPPEN_Msk)) |
                   ((oversampling - 1U) << USIC_CH_BRG_DCTQ_Pos) |
10001c02:	3a01      	subs	r2, #1
10001c04:	0292      	lsls	r2, r2, #10
    }

    channel->FDR = XMC_USIC_CH_BRG_CLOCK_DIVIDER_MODE_FRACTIONAL |
                   (clock_divider_min << USIC_CH_FDR_STEP_Pos);

    channel->BRG = (channel->BRG & ~(USIC_CH_BRG_DCTQ_Msk |
10001c06:	400b      	ands	r3, r1
                                     USIC_CH_BRG_PDIV_Msk |
                                     USIC_CH_BRG_PCTQ_Msk |
                                     USIC_CH_BRG_PPPEN_Msk)) |
10001c08:	4313      	orrs	r3, r2
                   ((oversampling - 1U) << USIC_CH_BRG_DCTQ_Pos) |
                   ((pdiv_int_min - 1U) << USIC_CH_BRG_PDIV_Pos);
10001c0a:	4652      	mov	r2, sl
10001c0c:	3a01      	subs	r2, #1
10001c0e:	0412      	lsls	r2, r2, #16

    channel->BRG = (channel->BRG & ~(USIC_CH_BRG_DCTQ_Msk |
                                     USIC_CH_BRG_PDIV_Msk |
                                     USIC_CH_BRG_PCTQ_Msk |
                                     USIC_CH_BRG_PPPEN_Msk)) |
                   ((oversampling - 1U) << USIC_CH_BRG_DCTQ_Pos) |
10001c10:	4313      	orrs	r3, r2
    }

    channel->FDR = XMC_USIC_CH_BRG_CLOCK_DIVIDER_MODE_FRACTIONAL |
                   (clock_divider_min << USIC_CH_FDR_STEP_Pos);

    channel->BRG = (channel->BRG & ~(USIC_CH_BRG_DCTQ_Msk |
10001c12:	6143      	str	r3, [r0, #20]
                                     USIC_CH_BRG_PCTQ_Msk |
                                     USIC_CH_BRG_PPPEN_Msk)) |
                   ((oversampling - 1U) << USIC_CH_BRG_DCTQ_Pos) |
                   ((pdiv_int_min - 1U) << USIC_CH_BRG_PDIV_Pos);
                    
    status = XMC_USIC_CH_STATUS_OK;
10001c14:	2300      	movs	r3, #0
10001c16:	e7b9      	b.n	10001b8c <XMC_USIC_CH_SetBaudrate+0x18>
10001c18:	000003ff 	.word	0x000003ff
10001c1c:	fc0080ef 	.word	0xfc0080ef

10001c20 <XMC_USIC_CH_TXFIFO_Configure>:

void XMC_USIC_CH_TXFIFO_Configure(XMC_USIC_CH_t *const channel,
                                  const uint32_t data_pointer,
                                  const XMC_USIC_CH_FIFO_SIZE_t size,
                                  const uint32_t limit)
{
10001c20:	b570      	push	{r4, r5, r6, lr}
  /* Disable FIFO */
  channel->TBCTR &= (uint32_t)~USIC_CH_TBCTR_SIZE_Msk;
10001c22:	2584      	movs	r5, #132	; 0x84
10001c24:	006d      	lsls	r5, r5, #1
10001c26:	5946      	ldr	r6, [r0, r5]
10001c28:	4c06      	ldr	r4, [pc, #24]	; (10001c44 <XMC_USIC_CH_TXFIFO_Configure+0x24>)
  channel->TBCTR = (uint32_t)(channel->TBCTR & (uint32_t)~(USIC_CH_TBCTR_LIMIT_Msk |
                                                           USIC_CH_TBCTR_DPTR_Msk |
                                                           USIC_CH_TBCTR_SIZE_Msk)) |
                   (uint32_t)((limit << USIC_CH_TBCTR_LIMIT_Pos) |
                   (data_pointer << USIC_CH_TBCTR_DPTR_Pos) |
                   ((uint32_t)size << USIC_CH_TBCTR_SIZE_Pos));
10001c2a:	0612      	lsls	r2, r2, #24
                                  const uint32_t data_pointer,
                                  const XMC_USIC_CH_FIFO_SIZE_t size,
                                  const uint32_t limit)
{
  /* Disable FIFO */
  channel->TBCTR &= (uint32_t)~USIC_CH_TBCTR_SIZE_Msk;
10001c2c:	4034      	ands	r4, r6
10001c2e:	5144      	str	r4, [r0, r5]
  /* LOF = 0, A standard transmit buffer event occurs when the filling level equals the limit value and gets
   * lower due to transmission of a data word
   * STBTEN = 0, the trigger of the standard transmit buffer event is based on the transition of the fill level
   *  from equal to below the limit, not the fact being below
   */
  channel->TBCTR = (uint32_t)(channel->TBCTR & (uint32_t)~(USIC_CH_TBCTR_LIMIT_Msk |
10001c30:	5946      	ldr	r6, [r0, r5]
10001c32:	4c05      	ldr	r4, [pc, #20]	; (10001c48 <XMC_USIC_CH_TXFIFO_Configure+0x28>)
                                                           USIC_CH_TBCTR_DPTR_Msk |
                                                           USIC_CH_TBCTR_SIZE_Msk)) |
                   (uint32_t)((limit << USIC_CH_TBCTR_LIMIT_Pos) |
10001c34:	021b      	lsls	r3, r3, #8
  /* LOF = 0, A standard transmit buffer event occurs when the filling level equals the limit value and gets
   * lower due to transmission of a data word
   * STBTEN = 0, the trigger of the standard transmit buffer event is based on the transition of the fill level
   *  from equal to below the limit, not the fact being below
   */
  channel->TBCTR = (uint32_t)(channel->TBCTR & (uint32_t)~(USIC_CH_TBCTR_LIMIT_Msk |
10001c36:	4034      	ands	r4, r6
10001c38:	4321      	orrs	r1, r4
10001c3a:	430a      	orrs	r2, r1
                                                           USIC_CH_TBCTR_DPTR_Msk |
                                                           USIC_CH_TBCTR_SIZE_Msk)) |
10001c3c:	4313      	orrs	r3, r2
  /* LOF = 0, A standard transmit buffer event occurs when the filling level equals the limit value and gets
   * lower due to transmission of a data word
   * STBTEN = 0, the trigger of the standard transmit buffer event is based on the transition of the fill level
   *  from equal to below the limit, not the fact being below
   */
  channel->TBCTR = (uint32_t)(channel->TBCTR & (uint32_t)~(USIC_CH_TBCTR_LIMIT_Msk |
10001c3e:	5143      	str	r3, [r0, r5]
                                                           USIC_CH_TBCTR_DPTR_Msk |
                                                           USIC_CH_TBCTR_SIZE_Msk)) |
                   (uint32_t)((limit << USIC_CH_TBCTR_LIMIT_Pos) |
                   (data_pointer << USIC_CH_TBCTR_DPTR_Pos) |
                   ((uint32_t)size << USIC_CH_TBCTR_SIZE_Pos));
}
10001c40:	bd70      	pop	{r4, r5, r6, pc}
10001c42:	46c0      	nop			; (mov r8, r8)
10001c44:	f8ffffff 	.word	0xf8ffffff
10001c48:	f8ffc0c0 	.word	0xf8ffc0c0

10001c4c <XMC_USIC_CH_RXFIFO_Configure>:

void XMC_USIC_CH_RXFIFO_Configure(XMC_USIC_CH_t *const channel,
                                  const uint32_t data_pointer,
                                  const XMC_USIC_CH_FIFO_SIZE_t size,
                                  const uint32_t limit)
{
10001c4c:	b570      	push	{r4, r5, r6, lr}
  /* Disable FIFO */
  channel->RBCTR &= (uint32_t)~USIC_CH_RBCTR_SIZE_Msk;
10001c4e:	2686      	movs	r6, #134	; 0x86
10001c50:	0076      	lsls	r6, r6, #1
10001c52:	5985      	ldr	r5, [r0, r6]
10001c54:	4c07      	ldr	r4, [pc, #28]	; (10001c74 <XMC_USIC_CH_RXFIFO_Configure+0x28>)
  channel->RBCTR = (uint32_t)((channel->RBCTR & (uint32_t)~(USIC_CH_RBCTR_LIMIT_Msk |
                                                            USIC_CH_RBCTR_DPTR_Msk |
                                                            USIC_CH_RBCTR_LOF_Msk)) |
                   ((limit << USIC_CH_RBCTR_LIMIT_Pos) |
                   (data_pointer << USIC_CH_RBCTR_DPTR_Pos) |
                   ((uint32_t)size << USIC_CH_RBCTR_SIZE_Pos) |
10001c56:	0612      	lsls	r2, r2, #24
                                  const uint32_t data_pointer,
                                  const XMC_USIC_CH_FIFO_SIZE_t size,
                                  const uint32_t limit)
{
  /* Disable FIFO */
  channel->RBCTR &= (uint32_t)~USIC_CH_RBCTR_SIZE_Msk;
10001c58:	402c      	ands	r4, r5
10001c5a:	5184      	str	r4, [r0, r6]

  /* LOF = 1, A standard receive buffer event occurs when the filling level equals the limit value and gets bigger
   *  due to the reception of a new data word
   */
  channel->RBCTR = (uint32_t)((channel->RBCTR & (uint32_t)~(USIC_CH_RBCTR_LIMIT_Msk |
10001c5c:	5984      	ldr	r4, [r0, r6]
10001c5e:	4d06      	ldr	r5, [pc, #24]	; (10001c78 <XMC_USIC_CH_RXFIFO_Configure+0x2c>)
                                                            USIC_CH_RBCTR_DPTR_Msk |
                                                            USIC_CH_RBCTR_LOF_Msk)) |
                   ((limit << USIC_CH_RBCTR_LIMIT_Pos) |
10001c60:	021b      	lsls	r3, r3, #8
  channel->RBCTR &= (uint32_t)~USIC_CH_RBCTR_SIZE_Msk;

  /* LOF = 1, A standard receive buffer event occurs when the filling level equals the limit value and gets bigger
   *  due to the reception of a new data word
   */
  channel->RBCTR = (uint32_t)((channel->RBCTR & (uint32_t)~(USIC_CH_RBCTR_LIMIT_Msk |
10001c62:	4025      	ands	r5, r4
10001c64:	2480      	movs	r4, #128	; 0x80
10001c66:	0564      	lsls	r4, r4, #21
10001c68:	432c      	orrs	r4, r5
10001c6a:	4321      	orrs	r1, r4
10001c6c:	430a      	orrs	r2, r1
10001c6e:	4313      	orrs	r3, r2
10001c70:	5183      	str	r3, [r0, r6]
                                                            USIC_CH_RBCTR_LOF_Msk)) |
                   ((limit << USIC_CH_RBCTR_LIMIT_Pos) |
                   (data_pointer << USIC_CH_RBCTR_DPTR_Pos) |
                   ((uint32_t)size << USIC_CH_RBCTR_SIZE_Pos) |
                   (uint32_t)USIC_CH_RBCTR_LOF_Msk));
}
10001c72:	bd70      	pop	{r4, r5, r6, pc}
10001c74:	f8ffffff 	.word	0xf8ffffff
10001c78:	efffc0c0 	.word	0xefffc0c0

10001c7c <XMC_USIC_CH_SetInterruptNodePointer>:
}

void XMC_USIC_CH_SetInterruptNodePointer(XMC_USIC_CH_t *const channel,
                                         const XMC_USIC_CH_INTERRUPT_NODE_POINTER_t interrupt_node,
                                         const uint32_t service_request)
{
10001c7c:	b510      	push	{r4, lr}
  channel->INPR = (uint32_t)((channel->INPR & (~(uint32_t)(USIC_CH_INPR_Msk << (uint32_t)interrupt_node))) |
10001c7e:	2407      	movs	r4, #7
10001c80:	408c      	lsls	r4, r1
                  (service_request << (uint32_t)interrupt_node));
10001c82:	408a      	lsls	r2, r1

void XMC_USIC_CH_SetInterruptNodePointer(XMC_USIC_CH_t *const channel,
                                         const XMC_USIC_CH_INTERRUPT_NODE_POINTER_t interrupt_node,
                                         const uint32_t service_request)
{
  channel->INPR = (uint32_t)((channel->INPR & (~(uint32_t)(USIC_CH_INPR_Msk << (uint32_t)interrupt_node))) |
10001c84:	6983      	ldr	r3, [r0, #24]
10001c86:	43a3      	bics	r3, r4
10001c88:	4313      	orrs	r3, r2
10001c8a:	6183      	str	r3, [r0, #24]
                  (service_request << (uint32_t)interrupt_node));
}
10001c8c:	bd10      	pop	{r4, pc}
10001c8e:	46c0      	nop			; (mov r8, r8)

10001c90 <XMC_VADC_GLOBAL_Init>:
   * Please refer to the XMC1000 Errata sheet V1.4 released 2014-06 Errata ID : ADC_AI.003 Additonal bit to enable ADC
   * function
   */

#if defined (COMPARATOR)
  COMPARATOR->ORCCTRL = (uint32_t)0xFF;
10001c90:	22ff      	movs	r2, #255	; 0xff
}


/* API to initialize global resources */
void XMC_VADC_GLOBAL_Init(XMC_VADC_GLOBAL_t *const global_ptr, const XMC_VADC_GLOBAL_CONFIG_t *config)
{
10001c92:	b538      	push	{r3, r4, r5, lr}
10001c94:	1c0d      	adds	r5, r1, #0
10001c96:	1c04      	adds	r4, r0, #0
   * Please refer to the XMC1000 Errata sheet V1.4 released 2014-06 Errata ID : ADC_AI.003 Additonal bit to enable ADC
   * function
   */

#if defined (COMPARATOR)
  COMPARATOR->ORCCTRL = (uint32_t)0xFF;
10001c98:	4b0d      	ldr	r3, [pc, #52]	; (10001cd0 <XMC_VADC_GLOBAL_Init+0x40>)
#endif

#if defined(CLOCK_GATING_SUPPORTED)
    XMC_SCU_CLOCK_UngatePeripheralClock(XMC_SCU_PERIPHERAL_CLOCK_VADC);
10001c9a:	2001      	movs	r0, #1
   * Please refer to the XMC1000 Errata sheet V1.4 released 2014-06 Errata ID : ADC_AI.003 Additonal bit to enable ADC
   * function
   */

#if defined (COMPARATOR)
  COMPARATOR->ORCCTRL = (uint32_t)0xFF;
10001c9c:	601a      	str	r2, [r3, #0]
#endif

#if defined(CLOCK_GATING_SUPPORTED)
    XMC_SCU_CLOCK_UngatePeripheralClock(XMC_SCU_PERIPHERAL_CLOCK_VADC);
10001c9e:	f7ff fab7 	bl	10001210 <XMC_SCU_CLOCK_UngatePeripheralClock>
  XMC_ASSERT("XMC_VADC_GLOBAL_Init:Wrong Module Pointer", (global_ptr == VADC))

  /* Enable the VADC module*/
  XMC_VADC_GLOBAL_EnableModule();

  global_ptr->CLC = (uint32_t)(config->clc);
10001ca2:	696b      	ldr	r3, [r5, #20]
10001ca4:	6023      	str	r3, [r4, #0]

  /* Clock configuration */

#if (XMC_VADC_GROUP_AVAILABLE == 1U)
  global_ptr->GLOBCFG  = (uint32_t)(config->clock_config.globcfg | (uint32_t)(VADC_GLOBCFG_DIVWC_Msk));
10001ca6:	2380      	movs	r3, #128	; 0x80
10001ca8:	686a      	ldr	r2, [r5, #4]
10001caa:	021b      	lsls	r3, r3, #8
10001cac:	4313      	orrs	r3, r2
10001cae:	2280      	movs	r2, #128	; 0x80
10001cb0:	50a3      	str	r3, [r4, r2]
#endif

  /* ICLASS-0 configuration */
  global_ptr->GLOBICLASS[0] = (uint32_t)(config->class0.globiclass);
10001cb2:	23a0      	movs	r3, #160	; 0xa0
10001cb4:	68aa      	ldr	r2, [r5, #8]
10001cb6:	50e2      	str	r2, [r4, r3]

  /* ICLASS-1 configuration */
  global_ptr->GLOBICLASS[1] = (uint32_t)(config->class1.globiclass);
10001cb8:	68ea      	ldr	r2, [r5, #12]
10001cba:	3304      	adds	r3, #4
10001cbc:	50e2      	str	r2, [r4, r3]


  /*Result generation related configuration */
  global_ptr->GLOBRCR = (uint32_t)(config->globrcr);
10001cbe:	692a      	ldr	r2, [r5, #16]
10001cc0:	33dd      	adds	r3, #221	; 0xdd
10001cc2:	33ff      	adds	r3, #255	; 0xff
10001cc4:	50e2      	str	r2, [r4, r3]

#if (XMC_VADC_BOUNDARY_AVAILABLE == 1U)

  /* Boundaries */
  global_ptr->GLOBBOUND = (uint32_t)(config->globbound);
10001cc6:	682a      	ldr	r2, [r5, #0]
10001cc8:	3bc9      	subs	r3, #201	; 0xc9
10001cca:	3bff      	subs	r3, #255	; 0xff
10001ccc:	50e2      	str	r2, [r4, r3]

  /* From the Errata sheet of XMC1100 V1.7*/
  XMC_VADC_CONV_ENABLE_FOR_XMC11 = 1U;
#endif

}
10001cce:	bd38      	pop	{r3, r4, r5, pc}
10001cd0:	40010500 	.word	0x40010500

10001cd4 <XMC_VADC_GLOBAL_StartupCalibration>:
  VADC_G_TypeDef *group_ptr;
#endif
  
  XMC_ASSERT("XMC_VADC_GLOBAL_StartupCalibration:Wrong Module Pointer", (global_ptr == VADC))

  global_ptr->GLOBCFG |= (uint32_t)VADC_GLOBCFG_SUCAL_Msk;
10001cd4:	2380      	movs	r3, #128	; 0x80
10001cd6:	2180      	movs	r1, #128	; 0x80
10001cd8:	58c2      	ldr	r2, [r0, r3]
10001cda:	0609      	lsls	r1, r1, #24
10001cdc:	430a      	orrs	r2, r1
10001cde:	50c2      	str	r2, [r0, r3]
#if (XMC_VADC_GROUP_AVAILABLE == 1U)
  /* Loop until all active groups finish calibration */
  for(i=0U; i<XMC_VADC_MAXIMUM_NUM_GROUPS; i++)
  {
    group_ptr = g_xmc_vadc_group_array[i];
    if ( (group_ptr->ARBCFG) & (uint32_t)VADC_G_ARBCFG_ANONS_Msk)
10001ce0:	4a0c      	ldr	r2, [pc, #48]	; (10001d14 <XMC_VADC_GLOBAL_StartupCalibration+0x40>)
10001ce2:	58d1      	ldr	r1, [r2, r3]
10001ce4:	23c0      	movs	r3, #192	; 0xc0
10001ce6:	029b      	lsls	r3, r3, #10
10001ce8:	4219      	tst	r1, r3
10001cea:	d005      	beq.n	10001cf8 <XMC_VADC_GLOBAL_StartupCalibration+0x24>
    {
      /* This group is active. Loop until it finishes calibration */
      while((group_ptr->ARBCFG) & (uint32_t)VADC_G_ARBCFG_CAL_Msk)
10001cec:	2180      	movs	r1, #128	; 0x80
10001cee:	2080      	movs	r0, #128	; 0x80
10001cf0:	0549      	lsls	r1, r1, #21
10001cf2:	5813      	ldr	r3, [r2, r0]
10001cf4:	420b      	tst	r3, r1
10001cf6:	d1fc      	bne.n	10001cf2 <XMC_VADC_GLOBAL_StartupCalibration+0x1e>
#if (XMC_VADC_GROUP_AVAILABLE == 1U)
  /* Loop until all active groups finish calibration */
  for(i=0U; i<XMC_VADC_MAXIMUM_NUM_GROUPS; i++)
  {
    group_ptr = g_xmc_vadc_group_array[i];
    if ( (group_ptr->ARBCFG) & (uint32_t)VADC_G_ARBCFG_ANONS_Msk)
10001cf8:	2380      	movs	r3, #128	; 0x80
10001cfa:	4a07      	ldr	r2, [pc, #28]	; (10001d18 <XMC_VADC_GLOBAL_StartupCalibration+0x44>)
10001cfc:	58d1      	ldr	r1, [r2, r3]
10001cfe:	23c0      	movs	r3, #192	; 0xc0
10001d00:	029b      	lsls	r3, r3, #10
10001d02:	4219      	tst	r1, r3
10001d04:	d005      	beq.n	10001d12 <XMC_VADC_GLOBAL_StartupCalibration+0x3e>
    {
      /* This group is active. Loop until it finishes calibration */
      while((group_ptr->ARBCFG) & (uint32_t)VADC_G_ARBCFG_CAL_Msk)
10001d06:	2180      	movs	r1, #128	; 0x80
10001d08:	2080      	movs	r0, #128	; 0x80
10001d0a:	0549      	lsls	r1, r1, #21
10001d0c:	5813      	ldr	r3, [r2, r0]
10001d0e:	420b      	tst	r3, r1
10001d10:	d1fc      	bne.n	10001d0c <XMC_VADC_GLOBAL_StartupCalibration+0x38>
         XMC_VADC_SHS_START_UP_CAL_ACTIVE )
  {
    /* NOP */
  }
#endif
}
10001d12:	4770      	bx	lr
10001d14:	48030400 	.word	0x48030400
10001d18:	48030800 	.word	0x48030800

10001d1c <XMC_VADC_GROUP_Init>:
    sample_time      = (uint32_t) config.sampling_phase_emux_channel;
    conv_mode        = (XMC_VADC_CONVMODE_t)config.conversion_mode_emux;
  }

  /* Determine the class */
  conv_class  = group_ptr->ICLASS[set_num];
10001d1c:	23a0      	movs	r3, #160	; 0xa0
10001d1e:	58c2      	ldr	r2, [r0, r3]
10001d20:	469c      	mov	ip, r3

  /* Program the class register */
  conv_class &= ~(conv_mode_mask);
10001d22:	4b30      	ldr	r3, [pc, #192]	; (10001de4 <XMC_VADC_GROUP_Init+0xc8>)
}

/* API to initialize an instance of group of VADC hardware */
#if (XMC_VADC_GROUP_AVAILABLE == 1U)  
void XMC_VADC_GROUP_Init( XMC_VADC_GROUP_t *const group_ptr, const XMC_VADC_GROUP_CONFIG_t *config)
{
10001d24:	b5f0      	push	{r4, r5, r6, r7, lr}

  /* Determine the class */
  conv_class  = group_ptr->ICLASS[set_num];

  /* Program the class register */
  conv_class &= ~(conv_mode_mask);
10001d26:	401a      	ands	r2, r3
10001d28:	1c14      	adds	r4, r2, #0
  conv_class |= (uint32_t)((uint32_t) conv_mode << conv_mode_pos);
  conv_class &= ~(sample_time_mask);
10001d2a:	271f      	movs	r7, #31
10001d2c:	794a      	ldrb	r2, [r1, #5]

  /* Determine the class */
  conv_class  = group_ptr->ICLASS[set_num];

  /* Program the class register */
  conv_class &= ~(conv_mode_mask);
10001d2e:	4d2e      	ldr	r5, [pc, #184]	; (10001de8 <XMC_VADC_GROUP_Init+0xcc>)
10001d30:	0752      	lsls	r2, r2, #29
  conv_class |= (uint32_t)((uint32_t) conv_mode << conv_mode_pos);
10001d32:	0d52      	lsrs	r2, r2, #21
10001d34:	4322      	orrs	r2, r4
10001d36:	790c      	ldrb	r4, [r1, #4]
  conv_class &= ~(sample_time_mask);
10001d38:	43ba      	bics	r2, r7
10001d3a:	06e4      	lsls	r4, r4, #27
  {
    conv_mode_pos    = (uint32_t) VADC_G_ICLASS_CMS_Pos;
    conv_mode_mask   = (uint32_t) VADC_G_ICLASS_CMS_Msk;
    sample_time_pos  = (uint32_t) VADC_G_ICLASS_STCS_Pos;
    sample_time_mask = (uint32_t) VADC_G_ICLASS_STCS_Msk;
    sample_time      = (uint32_t) config.sample_time_std_conv;
10001d3c:	0ee4      	lsrs	r4, r4, #27

  /* Program the class register */
  conv_class &= ~(conv_mode_mask);
  conv_class |= (uint32_t)((uint32_t) conv_mode << conv_mode_pos);
  conv_class &= ~(sample_time_mask);
  conv_class |= (uint32_t)(sample_time <<  sample_time_pos);
10001d3e:	4322      	orrs	r2, r4
  group_ptr->ICLASS[set_num] = conv_class;
10001d40:	4664      	mov	r4, ip
10001d42:	5102      	str	r2, [r0, r4]
    sample_time      = (uint32_t) config.sampling_phase_emux_channel;
    conv_mode        = (XMC_VADC_CONVMODE_t)config.conversion_mode_emux;
  }

  /* Determine the class */
  conv_class  = group_ptr->ICLASS[set_num];
10001d44:	5902      	ldr	r2, [r0, r4]

  /* Program the class register */
  conv_class &= ~(conv_mode_mask);
  conv_class |= (uint32_t)((uint32_t) conv_mode << conv_mode_pos);
  conv_class &= ~(sample_time_mask);
10001d46:	4e29      	ldr	r6, [pc, #164]	; (10001dec <XMC_VADC_GROUP_Init+0xd0>)

  /* Determine the class */
  conv_class  = group_ptr->ICLASS[set_num];

  /* Program the class register */
  conv_class &= ~(conv_mode_mask);
10001d48:	402a      	ands	r2, r5
10001d4a:	1c14      	adds	r4, r2, #0
10001d4c:	79ca      	ldrb	r2, [r1, #7]
  group_ptr->BOUND = config->g_bound;

  /* External mux configuration */
  XMC_VADC_GROUP_ExternalMuxControlInit(group_ptr,config->emux_config);

}
10001d4e:	0752      	lsls	r2, r2, #29
  /* Determine the class */
  conv_class  = group_ptr->ICLASS[set_num];

  /* Program the class register */
  conv_class &= ~(conv_mode_mask);
  conv_class |= (uint32_t)((uint32_t) conv_mode << conv_mode_pos);
10001d50:	0952      	lsrs	r2, r2, #5
10001d52:	4322      	orrs	r2, r4
10001d54:	798c      	ldrb	r4, [r1, #6]
  conv_class &= ~(sample_time_mask);
10001d56:	4032      	ands	r2, r6
10001d58:	06e4      	lsls	r4, r4, #27
  conv_class |= (uint32_t)(sample_time <<  sample_time_pos);
10001d5a:	0ae4      	lsrs	r4, r4, #11
10001d5c:	4322      	orrs	r2, r4
  group_ptr->ICLASS[set_num] = conv_class;
10001d5e:	4664      	mov	r4, ip
10001d60:	5102      	str	r2, [r0, r4]
    sample_time      = (uint32_t) config.sampling_phase_emux_channel;
    conv_mode        = (XMC_VADC_CONVMODE_t)config.conversion_mode_emux;
  }

  /* Determine the class */
  conv_class  = group_ptr->ICLASS[set_num];
10001d62:	3404      	adds	r4, #4
10001d64:	5902      	ldr	r2, [r0, r4]

  /* Program the class register */
  conv_class &= ~(conv_mode_mask);
10001d66:	401a      	ands	r2, r3
10001d68:	7a4b      	ldrb	r3, [r1, #9]
10001d6a:	075b      	lsls	r3, r3, #29
  conv_class |= (uint32_t)((uint32_t) conv_mode << conv_mode_pos);
10001d6c:	0d5b      	lsrs	r3, r3, #21
10001d6e:	4313      	orrs	r3, r2
10001d70:	7a0a      	ldrb	r2, [r1, #8]
  conv_class &= ~(sample_time_mask);
10001d72:	43bb      	bics	r3, r7
10001d74:	06d2      	lsls	r2, r2, #27
  {
    conv_mode_pos    = (uint32_t) VADC_G_ICLASS_CMS_Pos;
    conv_mode_mask   = (uint32_t) VADC_G_ICLASS_CMS_Msk;
    sample_time_pos  = (uint32_t) VADC_G_ICLASS_STCS_Pos;
    sample_time_mask = (uint32_t) VADC_G_ICLASS_STCS_Msk;
    sample_time      = (uint32_t) config.sample_time_std_conv;
10001d76:	0ed2      	lsrs	r2, r2, #27

  /* Program the class register */
  conv_class &= ~(conv_mode_mask);
  conv_class |= (uint32_t)((uint32_t) conv_mode << conv_mode_pos);
  conv_class &= ~(sample_time_mask);
  conv_class |= (uint32_t)(sample_time <<  sample_time_pos);
10001d78:	4313      	orrs	r3, r2
  group_ptr->ICLASS[set_num] = conv_class;
10001d7a:	5103      	str	r3, [r0, r4]
    sample_time      = (uint32_t) config.sampling_phase_emux_channel;
    conv_mode        = (XMC_VADC_CONVMODE_t)config.conversion_mode_emux;
  }

  /* Determine the class */
  conv_class  = group_ptr->ICLASS[set_num];
10001d7c:	5903      	ldr	r3, [r0, r4]
10001d7e:	7a8a      	ldrb	r2, [r1, #10]

  /* Program the class register */
  conv_class &= ~(conv_mode_mask);
10001d80:	401d      	ands	r5, r3
10001d82:	7acb      	ldrb	r3, [r1, #11]
10001d84:	06d2      	lsls	r2, r2, #27
10001d86:	075b      	lsls	r3, r3, #29
  conv_class |= (uint32_t)((uint32_t) conv_mode << conv_mode_pos);
10001d88:	095b      	lsrs	r3, r3, #5
10001d8a:	432b      	orrs	r3, r5
  conv_class &= ~(sample_time_mask);
10001d8c:	4033      	ands	r3, r6
  conv_class |= (uint32_t)(sample_time <<  sample_time_pos);
10001d8e:	0ad2      	lsrs	r2, r2, #11
10001d90:	4313      	orrs	r3, r2
  group_ptr->ICLASS[set_num] = conv_class;
10001d92:	5103      	str	r3, [r0, r4]
  XMC_VADC_GROUP_InputClassInit(group_ptr, config->class0, XMC_VADC_GROUP_CONV_STD, 0U);
  XMC_VADC_GROUP_InputClassInit(group_ptr, config->class0, XMC_VADC_GROUP_CONV_EMUX, 0U);
  XMC_VADC_GROUP_InputClassInit(group_ptr, config->class1, XMC_VADC_GROUP_CONV_STD, 1U);
  XMC_VADC_GROUP_InputClassInit(group_ptr, config->class1, XMC_VADC_GROUP_CONV_EMUX, 1U);

  group_ptr->ARBCFG = config->g_arbcfg;
10001d94:	2380      	movs	r3, #128	; 0x80
10001d96:	690a      	ldr	r2, [r1, #16]
10001d98:	50c2      	str	r2, [r0, r3]

  group_ptr->BOUND = config->g_bound;
10001d9a:	68ca      	ldr	r2, [r1, #12]
10001d9c:	3338      	adds	r3, #56	; 0x38
10001d9e:	50c2      	str	r2, [r0, r3]
10001da0:	78cb      	ldrb	r3, [r1, #3]
10001da2:	071d      	lsls	r5, r3, #28
10001da4:	06df      	lsls	r7, r3, #27
10001da6:	069c      	lsls	r4, r3, #26
10001da8:	065b      	lsls	r3, r3, #25
10001daa:	0fda      	lsrs	r2, r3, #31
10001dac:	884b      	ldrh	r3, [r1, #2]
10001dae:	0fff      	lsrs	r7, r7, #31
10001db0:	059b      	lsls	r3, r3, #22
  uint32_t   emux_config;

  XMC_ASSERT("XMC_VADC_GROUP_ExternalMuxControlInit:Wrong Group Pointer", XMC_VADC_CHECK_GROUP_PTR(group_ptr))

  emux_config = ((uint32_t)emux_cfg.starting_external_channel << (uint32_t)VADC_G_EMUXCTR_EMUXSET_Pos) |
              ((uint32_t)emux_cfg.connected_channel << (uint32_t)VADC_G_EMUXCTR_EMUXCH_Pos);
10001db2:	099e      	lsrs	r6, r3, #6
10001db4:	780b      	ldrb	r3, [r1, #0]
10001db6:	2180      	movs	r1, #128	; 0x80
10001db8:	075b      	lsls	r3, r3, #29
{
  uint32_t   emux_config;

  XMC_ASSERT("XMC_VADC_GROUP_ExternalMuxControlInit:Wrong Group Pointer", XMC_VADC_CHECK_GROUP_PTR(group_ptr))

  emux_config = ((uint32_t)emux_cfg.starting_external_channel << (uint32_t)VADC_G_EMUXCTR_EMUXSET_Pos) |
10001dba:	0f5b      	lsrs	r3, r3, #29
10001dbc:	4333      	orrs	r3, r6
              ((uint32_t)emux_cfg.connected_channel << (uint32_t)VADC_G_EMUXCTR_EMUXCH_Pos);

  group_ptr->EMUXCTR  = emux_config;
10001dbe:	26f8      	movs	r6, #248	; 0xf8
10001dc0:	0076      	lsls	r6, r6, #1
10001dc2:	5183      	str	r3, [r0, r6]
                ((uint32_t)emux_cfg.stce_usage << (uint32_t)VADC_G_EMUXCTR_EMXST_Pos);

#if (XMC_VADC_EMUX_CH_SEL_STYLE == 1U)
  emux_config |= ((uint32_t)emux_cfg.emux_channel_select_style << (uint32_t)VADC_G_EMUXCTR_EMXCSS_Pos);
#endif
  group_ptr->EMUXCTR  |= (emux_config | ((uint32_t)VADC_G_EMUXCTR_EMXWC_Msk)) ;
10001dc4:	5983      	ldr	r3, [r0, r6]
10001dc6:	0609      	lsls	r1, r1, #24

  emux_config = ((uint32_t)emux_cfg.starting_external_channel << (uint32_t)VADC_G_EMUXCTR_EMUXSET_Pos) |
              ((uint32_t)emux_cfg.connected_channel << (uint32_t)VADC_G_EMUXCTR_EMUXCH_Pos);

  group_ptr->EMUXCTR  = emux_config;
  emux_config = ((uint32_t)emux_cfg.emux_coding << (uint32_t)VADC_G_EMUXCTR_EMXCOD_Pos)  |
10001dc8:	073f      	lsls	r7, r7, #28
10001dca:	430b      	orrs	r3, r1
10001dcc:	0fad      	lsrs	r5, r5, #30
10001dce:	433b      	orrs	r3, r7
                ((uint32_t)emux_cfg.emux_mode  << (uint32_t)VADC_G_EMUXCTR_EMUXMODE_Pos)|
10001dd0:	06ad      	lsls	r5, r5, #26
10001dd2:	0fe4      	lsrs	r4, r4, #31
10001dd4:	432b      	orrs	r3, r5
                ((uint32_t)emux_cfg.stce_usage << (uint32_t)VADC_G_EMUXCTR_EMXST_Pos);
10001dd6:	0764      	lsls	r4, r4, #29
10001dd8:	4323      	orrs	r3, r4
10001dda:	1c19      	adds	r1, r3, #0

#if (XMC_VADC_EMUX_CH_SEL_STYLE == 1U)
  emux_config |= ((uint32_t)emux_cfg.emux_channel_select_style << (uint32_t)VADC_G_EMUXCTR_EMXCSS_Pos);
10001ddc:	0793      	lsls	r3, r2, #30
#endif
  group_ptr->EMUXCTR  |= (emux_config | ((uint32_t)VADC_G_EMUXCTR_EMXWC_Msk)) ;
10001dde:	430b      	orrs	r3, r1
10001de0:	5183      	str	r3, [r0, r6]

  /* External mux configuration */
  XMC_VADC_GROUP_ExternalMuxControlInit(group_ptr,config->emux_config);

}
10001de2:	bdf0      	pop	{r4, r5, r6, r7, pc}
10001de4:	fffff8ff 	.word	0xfffff8ff
10001de8:	f8ffffff 	.word	0xf8ffffff
10001dec:	ffe0ffff 	.word	0xffe0ffff

10001df0 <XMC_VADC_GROUP_SetPowerMode>:
  uint32_t arbcfg;

  XMC_ASSERT("XMC_VADC_GROUP_SetPowerMode:Wrong Group Pointer", XMC_VADC_CHECK_GROUP_PTR(group_ptr))
  XMC_ASSERT("XMC_VADC_GROUP_SetPowerMode:Wrong Power Mode", (power_mode <= XMC_VADC_GROUP_POWERMODE_NORMAL))

  arbcfg = group_ptr->ARBCFG;
10001df0:	2280      	movs	r2, #128	; 0x80
  group_ptr->ICLASS[set_num] = conv_class;
}

/* API which sets the power mode of analog converter of a VADC group */
void XMC_VADC_GROUP_SetPowerMode(XMC_VADC_GROUP_t *const group_ptr, const XMC_VADC_GROUP_POWERMODE_t power_mode)
{
10001df2:	b510      	push	{r4, lr}
  XMC_ASSERT("XMC_VADC_GROUP_SetPowerMode:Wrong Group Pointer", XMC_VADC_CHECK_GROUP_PTR(group_ptr))
  XMC_ASSERT("XMC_VADC_GROUP_SetPowerMode:Wrong Power Mode", (power_mode <= XMC_VADC_GROUP_POWERMODE_NORMAL))

  arbcfg = group_ptr->ARBCFG;

  arbcfg &= ~((uint32_t)VADC_G_ARBCFG_ANONC_Msk);
10001df4:	2403      	movs	r4, #3
  uint32_t arbcfg;

  XMC_ASSERT("XMC_VADC_GROUP_SetPowerMode:Wrong Group Pointer", XMC_VADC_CHECK_GROUP_PTR(group_ptr))
  XMC_ASSERT("XMC_VADC_GROUP_SetPowerMode:Wrong Power Mode", (power_mode <= XMC_VADC_GROUP_POWERMODE_NORMAL))

  arbcfg = group_ptr->ARBCFG;
10001df6:	5883      	ldr	r3, [r0, r2]

  arbcfg &= ~((uint32_t)VADC_G_ARBCFG_ANONC_Msk);
10001df8:	43a3      	bics	r3, r4
  arbcfg |= (uint32_t)power_mode;
10001dfa:	4319      	orrs	r1, r3

  group_ptr->ARBCFG = arbcfg;
10001dfc:	5081      	str	r1, [r0, r2]
}
10001dfe:	bd10      	pop	{r4, pc}

10001e00 <XMC_VADC_GLOBAL_SHS_Init>:
{
  XMC_ASSERT("XMC_VADC_GLOBAL_SHS_Init:Wrong SHS Pointer", (shs_ptr == (XMC_VADC_GLOBAL_SHS_t*)(void*)SHS0))
  XMC_ASSERT("XMC_VADC_GLOBAL_SHS_Init:Wrong Index number",(config == (XMC_VADC_GLOBAL_SHS_CONFIG_t*)NULL))

  /* Initialize the SHS Configuration register*/
  shs_ptr->SHSCFG = (uint32_t)((uint32_t)config->shscfg | (uint32_t)SHS_SHSCFG_SCWC_Msk);
10001e00:	2380      	movs	r3, #128	; 0x80

#if(XMC_VADC_SHS_AVAILABLE == 1U)

/* API to Initialize the Sample and hold features*/
void XMC_VADC_GLOBAL_SHS_Init(XMC_VADC_GLOBAL_SHS_t *const shs_ptr, const XMC_VADC_GLOBAL_SHS_CONFIG_t *config)
{
10001e02:	b510      	push	{r4, lr}
  XMC_ASSERT("XMC_VADC_GLOBAL_SHS_Init:Wrong SHS Pointer", (shs_ptr == (XMC_VADC_GLOBAL_SHS_t*)(void*)SHS0))
  XMC_ASSERT("XMC_VADC_GLOBAL_SHS_Init:Wrong Index number",(config == (XMC_VADC_GLOBAL_SHS_CONFIG_t*)NULL))

  /* Initialize the SHS Configuration register*/
  shs_ptr->SHSCFG = (uint32_t)((uint32_t)config->shscfg | (uint32_t)SHS_SHSCFG_SCWC_Msk);
10001e04:	680a      	ldr	r2, [r1, #0]
10001e06:	021b      	lsls	r3, r3, #8
10001e08:	4313      	orrs	r3, r2
10001e0a:	6403      	str	r3, [r0, #64]	; 0x40

#if(XMC_VADC_SHS_FULL_SET_REG == 1U)
  /* Select the Calibration order*/
  shs_ptr->CALCTR &= ~((uint32_t)SHS_CALCTR_CALORD_Msk);
10001e0c:	23bc      	movs	r3, #188	; 0xbc
10001e0e:	2401      	movs	r4, #1
10001e10:	58c2      	ldr	r2, [r0, r3]
10001e12:	43a2      	bics	r2, r4
10001e14:	50c2      	str	r2, [r0, r3]
  shs_ptr->CALCTR |=  (uint32_t) ((uint32_t)config->calibration_order << SHS_CALCTR_CALORD_Pos);
10001e16:	58c2      	ldr	r2, [r0, r3]
10001e18:	7909      	ldrb	r1, [r1, #4]
10001e1a:	430a      	orrs	r2, r1
10001e1c:	50c2      	str	r2, [r0, r3]
#endif
}
10001e1e:	bd10      	pop	{r4, pc}

10001e20 <XMC_VADC_GROUP_ScanInit>:
#endif

#if (XMC_VADC_GSCAN_AVAILABLE == 1U)   
/* API to initialize the group scan hardware of a kernel */
void XMC_VADC_GROUP_ScanInit(XMC_VADC_GROUP_t *const group_ptr, const XMC_VADC_SCAN_CONFIG_t *config)
{
10001e20:	b530      	push	{r4, r5, lr}
 *  XMC_VADC_GROUP_ScanEnableArbitrationSlot()<BR>
 */
__STATIC_INLINE void XMC_VADC_GROUP_ScanDisableArbitrationSlot(XMC_VADC_GROUP_t *const group_ptr)
{
  XMC_ASSERT("XMC_VADC_GROUP_ScanDisableArbitrationSlot:Wrong Group Pointer", XMC_VADC_CHECK_GROUP_PTR(group_ptr))
  group_ptr->ARBPR &= ~((uint32_t)VADC_G_ARBPR_ASEN1_Msk);
10001e22:	2584      	movs	r5, #132	; 0x84
10001e24:	4b1e      	ldr	r3, [pc, #120]	; (10001ea0 <XMC_VADC_GROUP_ScanInit+0x80>)
10001e26:	5942      	ldr	r2, [r0, r5]
  /* Read in the existing contents of arbitration priority register */
  reg = group_ptr->ARBPR;

  /* Program the priority of the request source */
  reg &= ~(uint32_t)VADC_G_ARBPR_PRIO1_Msk;
  reg |= (uint32_t)((uint32_t)config->req_src_priority << VADC_G_ARBPR_PRIO1_Pos);
10001e28:	780c      	ldrb	r4, [r1, #0]
10001e2a:	4013      	ands	r3, r2
  
  /* Read in the existing contents of arbitration priority register */
  reg = group_ptr->ARBPR;

  /* Program the priority of the request source */
  reg &= ~(uint32_t)VADC_G_ARBPR_PRIO1_Msk;
10001e2c:	2230      	movs	r2, #48	; 0x30
10001e2e:	5143      	str	r3, [r0, r5]

  /* All configurations have to be performed with the arbitration slot disabled */
  XMC_VADC_GROUP_ScanDisableArbitrationSlot(group_ptr);
  
  /* Read in the existing contents of arbitration priority register */
  reg = group_ptr->ARBPR;
10001e30:	5943      	ldr	r3, [r0, r5]

  /* Program the priority of the request source */
  reg &= ~(uint32_t)VADC_G_ARBPR_PRIO1_Msk;
10001e32:	4393      	bics	r3, r2
10001e34:	1c1a      	adds	r2, r3, #0
  reg |= (uint32_t)((uint32_t)config->req_src_priority << VADC_G_ARBPR_PRIO1_Pos);
10001e36:	0723      	lsls	r3, r4, #28
10001e38:	0f9b      	lsrs	r3, r3, #30
10001e3a:	011b      	lsls	r3, r3, #4
10001e3c:	4313      	orrs	r3, r2
  
  /* Program the start mode */
  if (XMC_VADC_STARTMODE_WFS != (XMC_VADC_STARTMODE_t)(config->conv_start_mode))
10001e3e:	2203      	movs	r2, #3
10001e40:	4014      	ands	r4, r2
10001e42:	d01d      	beq.n	10001e80 <XMC_VADC_GROUP_ScanInit+0x60>
  {
    reg |= (uint32_t)(VADC_G_ARBPR_CSM1_Msk);
10001e44:	327d      	adds	r2, #125	; 0x7d
10001e46:	4313      	orrs	r3, r2
  }

  group_ptr->ARBPR = reg;
10001e48:	5143      	str	r3, [r0, r5]

  group_ptr->ASCTRL = (uint32_t)(config->asctrl |(VADC_G_ASCTRL_XTWC_Msk) |(VADC_G_ASCTRL_GTWC_Msk) |
10001e4a:	684a      	ldr	r2, [r1, #4]
10001e4c:	4b15      	ldr	r3, [pc, #84]	; (10001ea4 <XMC_VADC_GROUP_ScanInit+0x84>)
10001e4e:	4313      	orrs	r3, r2
10001e50:	2290      	movs	r2, #144	; 0x90
10001e52:	0052      	lsls	r2, r2, #1
10001e54:	5083      	str	r3, [r0, r2]
                                                 (VADC_G_ASCTRL_TMWC_Msk));

  group_ptr->ASMR  = (uint32_t)((config->asmr)| (uint32_t)((uint32_t)XMC_VADC_GATEMODE_IGNORE << VADC_G_ASMR_ENGT_Pos));
10001e56:	688b      	ldr	r3, [r1, #8]
10001e58:	3a20      	subs	r2, #32
10001e5a:	3aff      	subs	r2, #255	; 0xff
10001e5c:	4313      	orrs	r3, r2
10001e5e:	3224      	adds	r2, #36	; 0x24
10001e60:	32ff      	adds	r2, #255	; 0xff
10001e62:	5083      	str	r3, [r0, r2]
  
  if (XMC_VADC_STARTMODE_CNR == (XMC_VADC_STARTMODE_t)(config->conv_start_mode))
10001e64:	2c02      	cmp	r4, #2
10001e66:	d104      	bne.n	10001e72 <XMC_VADC_GROUP_ScanInit+0x52>
  {
    group_ptr->ASMR |= (uint32_t)VADC_G_ASMR_RPTDIS_Msk;
