Archive member included because of file (symbol)

c:/davev4-64bit/dave-4.3.2/eclipse/arm-gcc-49/bin/../lib/gcc/arm-none-eabi/4.9.3/armv6-m\libgcc.a(_muldi3.o)
                              ./control_interrupts.o (__aeabi_lmul)
c:/davev4-64bit/dave-4.3.2/eclipse/arm-gcc-49/bin/../lib/gcc/arm-none-eabi/4.9.3/../../../../arm-none-eabi/lib/armv6-m\libg_nano.a(lib_a-errno.o)
                              ./Libraries/Newlib/syscalls.o (__errno)
c:/davev4-64bit/dave-4.3.2/eclipse/arm-gcc-49/bin/../lib/gcc/arm-none-eabi/4.9.3/../../../../arm-none-eabi/lib/armv6-m\libg_nano.a(lib_a-impure.o)
                              c:/davev4-64bit/dave-4.3.2/eclipse/arm-gcc-49/bin/../lib/gcc/arm-none-eabi/4.9.3/../../../../arm-none-eabi/lib/armv6-m\libg_nano.a(lib_a-errno.o) (_impure_ptr)
c:/davev4-64bit/dave-4.3.2/eclipse/arm-gcc-49/bin/../lib/gcc/arm-none-eabi/4.9.3/../../../../arm-none-eabi/lib/armv6-m\libg_nano.a(lib_a-init.o)
                              ./Startup/startup_XMC1400.o (__libc_init_array)

Allocating common symbols
Common symbol       size              file

DCfilter            0x50              ./init_bckgnd_funct.o
current_PI_ctr      0x48              ./init_bckgnd_funct.o
PFC                 0x38              ./control_interrupts.o
ACfilter            0x50              ./init_bckgnd_funct.o
ADCResult_VAC       0x4               ./control_interrupts.o
ADCResult_Temp      0x4               ./control_interrupts.o
ADCResult_iL        0x4               ./control_interrupts.o
ADCResult_DCBus     0x4               ./control_interrupts.o
voltage_int_ctr     0x40              ./init_bckgnd_funct.o
parameters_MIN_RAM  0x18              ./communication.o
dely_i              0x2               ./main.o
parameters_RAM      0x18              ./communication.o
parameters_MAX_RAM  0x18              ./communication.o
dely_j              0x2               ./main.o
ADCResult_BOP       0x4               ./control_interrupts.o

Discarded input sections

 .text          0x00000000        0x0 ./Startup/startup_XMC1400.o
 .data          0x00000000        0x0 ./Startup/startup_XMC1400.o
 .bss           0x00000000        0x0 ./Startup/startup_XMC1400.o
 .text          0x00000000        0x0 ./Startup/system_XMC1400.o
 .data          0x00000000        0x0 ./Startup/system_XMC1400.o
 .bss           0x00000000        0x0 ./Startup/system_XMC1400.o
 .text.SystemCoreSetup
                0x00000000       0x10 ./Startup/system_XMC1400.o
 .text.SystemCoreClockSetup
                0x00000000       0x30 ./Startup/system_XMC1400.o
 .comment       0x00000000       0x71 ./Startup/system_XMC1400.o
 .text          0x00000000        0x0 ./Libraries/XMCLib/src/xmc1_eru.o
 .data          0x00000000        0x0 ./Libraries/XMCLib/src/xmc1_eru.o
 .bss           0x00000000        0x0 ./Libraries/XMCLib/src/xmc1_eru.o
 .text.XMC_ERU_Disable
                0x00000000        0x4 ./Libraries/XMCLib/src/xmc1_eru.o
 .comment       0x00000000       0x71 ./Libraries/XMCLib/src/xmc1_eru.o
 .text          0x00000000        0x0 ./Libraries/XMCLib/src/xmc1_flash.o
Memory Configuration

Name             Origin             Length             Attributes
FLASH            0x10001000         0x00032000         xr
SRAM             0x20000000         0x00004000         !xr
*default*        0x00000000         0xffffffff

Linker script and memory map

LOAD ./Startup/startup_XMC1400.o
LOAD ./Startup/system_XMC1400.o
LOAD ./Libraries/XMCLib/src/xmc1_eru.o
LOAD ./Libraries/XMCLib/src/xmc1_flash.o
LOAD ./Libraries/XMCLib/src/xmc1_gpio.o
LOAD ./Libraries/XMCLib/src/xmc1_rtc.o
LOAD ./Libraries/XMCLib/src/xmc1_scu.o
LOAD ./Libraries/XMCLib/src/xmc_acmp.o
LOAD ./Libraries/XMCLib/src/xmc_bccu.o
LOAD ./Libraries/XMCLib/src/xmc_can.o
LOAD ./Libraries/XMCLib/src/xmc_ccu4.o
LOAD ./Libraries/XMCLib/src/xmc_ccu8.o
LOAD ./Libraries/XMCLib/src/xmc_common.o
LOAD ./Libraries/XMCLib/src/xmc_eru.o
LOAD ./Libraries/XMCLib/src/xmc_gpio.o
LOAD ./Libraries/XMCLib/src/xmc_i2c.o
LOAD ./Libraries/XMCLib/src/xmc_i2s.o
LOAD ./Libraries/XMCLib/src/xmc_ledts.o
LOAD ./Libraries/XMCLib/src/xmc_math.o
LOAD ./Libraries/XMCLib/src/xmc_pau.o
LOAD ./Libraries/XMCLib/src/xmc_posif.o
LOAD ./Libraries/XMCLib/src/xmc_prng.o
LOAD ./Libraries/XMCLib/src/xmc_rtc.o
LOAD ./Libraries/XMCLib/src/xmc_spi.o
LOAD ./Libraries/XMCLib/src/xmc_uart.o
LOAD ./Libraries/XMCLib/src/xmc_usic.o
LOAD ./Libraries/XMCLib/src/xmc_vadc.o
LOAD ./Libraries/XMCLib/src/xmc_wdt.o
LOAD ./Libraries/Newlib/syscalls.o
LOAD ./LLD_conf_code/adc.o
LOAD ./Dave/Generated/UART/uart.o
LOAD ./Dave/Generated/UART/uart_conf.o
LOAD ./Dave/Generated/PWM_CCU8/pwm_ccu8.o
LOAD ./Dave/Generated/PWM_CCU8/pwm_ccu8_conf.o
LOAD ./Dave/Generated/PWM_CCU4/pwm_ccu4.o
LOAD ./Dave/Generated/PWM_CCU4/pwm_ccu4_conf.o
LOAD ./Dave/Generated/INTERRUPT/interrupt.o
LOAD ./Dave/Generated/INTERRUPT/interrupt_conf.o
LOAD ./Dave/Generated/GLOBAL_CCU8/global_ccu8.o
LOAD ./Dave/Generated/GLOBAL_CCU8/global_ccu8_conf.o
LOAD ./Dave/Generated/GLOBAL_CCU4/global_ccu4.o
LOAD ./Dave/Generated/GLOBAL_CCU4/global_ccu4_conf.o
LOAD ./Dave/Generated/GLOBAL_ACMP/global_acmp.o
LOAD ./Dave/Generated/GLOBAL_ACMP/global_acmp_conf.o
LOAD ./Dave/Generated/EVENT_GENERATOR/event_generator.o
LOAD ./Dave/Generated/EVENT_GENERATOR/event_generator_conf.o
LOAD ./Dave/Generated/EVENT_DETECTOR/event_detector.o
LOAD ./Dave/Generated/EVENT_DETECTOR/event_detector_conf.o
LOAD ./Dave/Generated/DIGITAL_IO/digital_io.o
LOAD ./Dave/Generated/DIGITAL_IO/digital_io_conf.o
LOAD ./Dave/Generated/CPU_CTRL_XMC1/cpu_ctrl_xmc1.o
LOAD ./Dave/Generated/CPU_CTRL_XMC1/cpu_ctrl_xmc1_conf.o
LOAD ./Dave/Generated/COMP_REF/comp_ref.o
LOAD ./Dave/Generated/COMP_REF/comp_ref_conf.o
LOAD ./Dave/Generated/CLOCK_XMC1/clock_xmc1.o
LOAD ./Dave/Generated/CLOCK_XMC1/clock_xmc1_conf.o
LOAD ./Dave/Generated/ANALOG_IO/analog_io.o
LOAD ./Dave/Generated/ANALOG_IO/analog_io_conf.o
LOAD ./Dave/Generated/DAVE.o
LOAD ./communication.o
LOAD ./control_interrupts.o
LOAD ./init_bckgnd_funct.o
LOAD ./main.o
LOAD c:/davev4-64bit/dave-4.3.2/eclipse/arm-gcc-49/bin/../lib/gcc/arm-none-eabi/4.9.3/../../../../arm-none-eabi/lib/armv6-m\libm.a
START GROUP
LOAD c:/davev4-64bit/dave-4.3.2/eclipse/arm-gcc-49/bin/../lib/gcc/arm-none-eabi/4.9.3/armv6-m\libgcc.a
LOAD c:/davev4-64bit/dave-4.3.2/eclipse/arm-gcc-49/bin/../lib/gcc/arm-none-eabi/4.9.3/../../../../arm-none-eabi/lib/armv6-m\libg_nano.a
LOAD c:/davev4-64bit/dave-4.3.2/eclipse/arm-gcc-49/bin/../lib/gcc/arm-none-eabi/4.9.3/../../../../arm-none-eabi/lib/armv6-m\libc_nano.a
END GROUP
START GROUP
LOAD c:/davev4-64bit/dave-4.3.2/eclipse/arm-gcc-49/bin/../lib/gcc/arm-none-eabi/4.9.3/armv6-m\libgcc.a
LOAD c:/davev4-64bit/dave-4.3.2/eclipse/arm-gcc-49/bin/../lib/gcc/arm-none-eabi/4.9.3/../../../../arm-none-eabi/lib/armv6-m\libc_nano.a
LOAD c:/davev4-64bit/dave-4.3.2/eclipse/arm-gcc-49/bin/../lib/gcc/arm-none-eabi/4.9.3/../../../../arm-none-eabi/lib/armv6-m\libnosys.a
END GROUP
START GROUP
LOAD c:/davev4-64bit/dave-4.3.2/eclipse/arm-gcc-49/bin/../lib/gcc/arm-none-eabi/4.9.3/armv6-m\libgcc.a
LOAD c:/davev4-64bit/dave-4.3.2/eclipse/arm-gcc-49/bin/../lib/gcc/arm-none-eabi/4.9.3/../../../../arm-none-eabi/lib/armv6-m\libc_nano.a
LOAD c:/davev4-64bit/dave-4.3.2/eclipse/arm-gcc-49/bin/../lib/gcc/arm-none-eabi/4.9.3/../../../../arm-none-eabi/lib/armv6-m\libnosys.a
END GROUP
                0x00000400                stack_size = DEFINED (stack_size)?stack_size:0x400
                0x00000004                no_init_size = 0x4

.text           0x10001000     0x2c1c
                0x10001000                sText = .
 *(.reset)
 .reset         0x10001000       0x9c ./Startup/startup_XMC1400.o
                0x10001000                __Vectors
                0x10001018                Reset_Handler
                0x10001098                SysTick_Handler
                0x10001098                IRQ5_Handler
                0x10001098                PendSV_Handler
                0x10001098                IRQ16_Handler
                0x10001098                IRQ4_Handler
                0x10001098                HardFault_Handler
                0x10001098                IRQ23_Handler
                0x10001098                IRQ22_Handler
                0x10001098                IRQ29_Handler
                0x10001098                IRQ20_Handler
                0x10001098                IRQ13_Handler
                0x10001098                IRQ25_Handler
                0x10001098                IRQ30_Handler
                0x10001098                IRQ21_Handler
                0x10001098                IRQ31_Handler
                0x10001098                IRQ28_Handler
                0x10001098                IRQ2_Handler
                0x10001098                IRQ10_Handler
                0x10001098                IRQ24_Handler
                0x10001098                SVC_Handler
                0x10001098                IRQ6_Handler
                0x10001098                IRQ15_Handler
                0x10001098                IRQ18_Handler
                0x10001098                IRQ11_Handler
                0x10001098                IRQ14_Handler
                0x10001098                IRQ9_Handler
                0x10001098                IRQ7_Handler
                0x10001098                IRQ12_Handler
                0x10001098                IRQ8_Handler
                0x10001098                IRQ3_Handler
                0x10001098                IRQ27_Handler
                0x10001098                IRQ26_Handler
                0x10001098                IRQ17_Handler
 *(.text .text.* .gnu.linkonce.t.*)
 .text.OSCHP_GetFrequency
                0x1000109c        0x8 ./Startup/system_XMC1400.o
                0x1000109c                OSCHP_GetFrequency
 .text.SystemCoreClockUpdate
                0x100010a4       0x88 ./Startup/system_XMC1400.o
                0x100010a4                SystemCoreClockUpdate
 .text.SystemInit
                0x1000112c        0xc ./Startup/system_XMC1400.o
                0x1000112c                SystemInit
 .text.XMC_ERU_Enable
                0x10001138        0x4 ./Libraries/XMCLib/src/xmc1_eru.o
                0x10001138                XMC_ERU_Enable
 .text.XMC_FLASH_GetStatus
                0x1000113c        0xc ./Libraries/XMCLib/src/xmc1_flash.o
                0x1000113c                XMC_FLASH_GetStatus
 .text.XMC_FLASH_EraseSector
                0x10001148       0x38 ./Libraries/XMCLib/src/xmc1_flash.o
                0x10001148                XMC_FLASH_EraseSector
 .text.XMC_FLASH_ProgramPage
                0x10001180       0x14 ./Libraries/XMCLib/src/xmc1_flash.o
                0x10001180                XMC_FLASH_ProgramPage
 .text.XMC_GPIO_Init
                0x10001194       0x7c ./Libraries/XMCLib/src/xmc1_gpio.o
                0x10001194                XMC_GPIO_Init
 .text.XMC_SCU_CLOCK_UngatePeripheralClock
                0x10001210       0x30 ./Libraries/XMCLib/src/xmc1_scu.o
                0x10001210                XMC_SCU_CLOCK_UngatePeripheralClock
 .text.XMC_SCU_CLOCK_ScaleMCLKFrequency
                0x10001240       0xe0 ./Libraries/XMCLib/src/xmc1_scu.o
                0x10001240                XMC_SCU_CLOCK_ScaleMCLKFrequency
 .text.XMC_SCU_CLOCK_Init
                0x10001320       0xd4 ./Libraries/XMCLib/src/xmc1_scu.o
                0x10001320                XMC_SCU_CLOCK_Init
 .text.XMC_SCU_CLOCK_GetPeripheralClockFrequency
                0x100013f4        0xc ./Libraries/XMCLib/src/xmc1_scu.o
                0x100013f4                XMC_SCU_CLOCK_GetPeripheralClockFrequency
 .text.XMC_SCU_SetInterruptControl
                0x10001400       0x38 ./Libraries/XMCLib/src/xmc1_scu.o
                0x10001400                XMC_SCU_SetInterruptControl
 .text.XMC_ACMP_Init
                0x10001438       0x1c ./Libraries/XMCLib/src/xmc_acmp.o
                0x10001438                XMC_ACMP_Init
 .text.XMC_CCU4_Init
                0x10001454       0x48 ./Libraries/XMCLib/src/xmc_ccu4.o
                0x10001454                XMC_CCU4_Init
 .text.XMC_CCU4_SetMultiChannelShadowTransferMode
                0x1000149c       0x10 ./Libraries/XMCLib/src/xmc_ccu4.o
                0x1000149c                XMC_CCU4_SetMultiChannelShadowTransferMode
 .text.XMC_CCU4_SLICE_CompareInit
                0x100014ac       0x30 ./Libraries/XMCLib/src/xmc_ccu4.o
                0x100014ac                XMC_CCU4_SLICE_CompareInit
 .text.XMC_CCU4_SLICE_StartConfig
                0x100014dc       0x28 ./Libraries/XMCLib/src/xmc_ccu4.o
                0x100014dc                XMC_CCU4_SLICE_StartConfig
 .text.XMC_CCU4_SLICE_StopConfig
                0x10001504       0x20 ./Libraries/XMCLib/src/xmc_ccu4.o
                0x10001504                XMC_CCU4_SLICE_StopConfig
 .text.XMC_CCU4_SLICE_LoadConfig
                0x10001524       0x14 ./Libraries/XMCLib/src/xmc_ccu4.o
                0x10001524                XMC_CCU4_SLICE_LoadConfig
 .text.XMC_CCU4_SLICE_ModulationConfig
                0x10001538       0x40 ./Libraries/XMCLib/src/xmc_ccu4.o
                0x10001538                XMC_CCU4_SLICE_ModulationConfig
 .text.XMC_CCU4_SLICE_CountConfig
                0x10001578       0x14 ./Libraries/XMCLib/src/xmc_ccu4.o
                0x10001578                XMC_CCU4_SLICE_CountConfig
 .text.XMC_CCU4_SLICE_GateConfig
                0x1000158c       0x14 ./Libraries/XMCLib/src/xmc_ccu4.o
                0x1000158c                XMC_CCU4_SLICE_GateConfig
 .text.XMC_CCU4_SLICE_DirectionConfig
                0x100015a0       0x14 ./Libraries/XMCLib/src/xmc_ccu4.o
                0x100015a0                XMC_CCU4_SLICE_DirectionConfig
 .text.XMC_CCU4_SLICE_StatusBitOverrideConfig
                0x100015b4        0xc ./Libraries/XMCLib/src/xmc_ccu4.o
                0x100015b4                XMC_CCU4_SLICE_StatusBitOverrideConfig
 .text.XMC_CCU4_SLICE_TrapConfig
                0x100015c0       0x3c ./Libraries/XMCLib/src/xmc_ccu4.o
                0x100015c0                XMC_CCU4_SLICE_TrapConfig
 .text.XMC_CCU4_SLICE_ConfigureStatusBitOverrideEvent
                0x100015fc       0x78 ./Libraries/XMCLib/src/xmc_ccu4.o
                0x100015fc                XMC_CCU4_SLICE_ConfigureStatusBitOverrideEvent
 .text.XMC_CCU4_SLICE_ConfigureEvent
                0x10001674       0x54 ./Libraries/XMCLib/src/xmc_ccu4.o
                0x10001674                XMC_CCU4_SLICE_ConfigureEvent
 .text.XMC_CCU4_SLICE_SetInterruptNode
                0x100016c8       0x34 ./Libraries/XMCLib/src/xmc_ccu4.o
                0x100016c8                XMC_CCU4_SLICE_SetInterruptNode
 .text.XMC_CCU8_Init
                0x100016fc       0x44 ./Libraries/XMCLib/src/xmc_ccu8.o
                0x100016fc                XMC_CCU8_Init
 .text.XMC_CCU8_SLICE_CompareInit
                0x10001740       0x34 ./Libraries/XMCLib/src/xmc_ccu8.o
                0x10001740                XMC_CCU8_SLICE_CompareInit
 .text.XMC_CCU8_SetMultiChannelShadowTransferMode
                0x10001774       0x10 ./Libraries/XMCLib/src/xmc_ccu8.o
                0x10001774                XMC_CCU8_SetMultiChannelShadowTransferMode
 .text.XMC_CCU8_SLICE_StartConfig
                0x10001784       0x28 ./Libraries/XMCLib/src/xmc_ccu8.o
                0x10001784                XMC_CCU8_SLICE_StartConfig
 .text.XMC_CCU8_SLICE_StopConfig
                0x100017ac       0x20 ./Libraries/XMCLib/src/xmc_ccu8.o
                0x100017ac                XMC_CCU8_SLICE_StopConfig
 .text.XMC_CCU8_SLICE_LoadConfig
                0x100017cc       0x14 ./Libraries/XMCLib/src/xmc_ccu8.o
                0x100017cc                XMC_CCU8_SLICE_LoadConfig
 .text.XMC_CCU8_SLICE_LoadSelector
                0x100017e0       0x10 ./Libraries/XMCLib/src/xmc_ccu8.o
                0x100017e0                XMC_CCU8_SLICE_LoadSelector
 .text.XMC_CCU8_SLICE_ModulationConfig
                0x100017f0       0x50 ./Libraries/XMCLib/src/xmc_ccu8.o
                0x100017f0                XMC_CCU8_SLICE_ModulationConfig
 .text.XMC_CCU8_SLICE_CountConfig
                0x10001840       0x14 ./Libraries/XMCLib/src/xmc_ccu8.o
                0x10001840                XMC_CCU8_SLICE_CountConfig
 .text.XMC_CCU8_SLICE_GateConfig
                0x10001854       0x14 ./Libraries/XMCLib/src/xmc_ccu8.o
                0x10001854                XMC_CCU8_SLICE_GateConfig
 .text.XMC_CCU8_SLICE_DirectionConfig
                0x10001868       0x14 ./Libraries/XMCLib/src/xmc_ccu8.o
                0x10001868                XMC_CCU8_SLICE_DirectionConfig
 .text.XMC_CCU8_SLICE_StatusBitOverrideConfig
                0x1000187c        0xc ./Libraries/XMCLib/src/xmc_ccu8.o
                0x1000187c                XMC_CCU8_SLICE_StatusBitOverrideConfig
 .text.XMC_CCU8_SLICE_TrapConfig
                0x10001888       0x3c ./Libraries/XMCLib/src/xmc_ccu8.o
                0x10001888                XMC_CCU8_SLICE_TrapConfig
 .text.XMC_CCU8_SLICE_ConfigureStatusBitOverrideEvent
                0x100018c4       0x78 ./Libraries/XMCLib/src/xmc_ccu8.o
                0x100018c4                XMC_CCU8_SLICE_ConfigureStatusBitOverrideEvent
 .text.XMC_CCU8_SLICE_ConfigureEvent
                0x1000193c       0x54 ./Libraries/XMCLib/src/xmc_ccu8.o
                0x1000193c                XMC_CCU8_SLICE_ConfigureEvent
 .text.XMC_CCU8_SLICE_SetTimerPeriodMatch
                0x10001990        0x4 ./Libraries/XMCLib/src/xmc_ccu8.o
                0x10001990                XMC_CCU8_SLICE_SetTimerPeriodMatch
 .text.XMC_CCU8_SLICE_SetTimerCompareMatch
                0x10001994        0xc ./Libraries/XMCLib/src/xmc_ccu8.o
                0x10001994                XMC_CCU8_SLICE_SetTimerCompareMatch
 .text.XMC_CCU8_SLICE_SetInterruptNode
                0x100019a0       0x34 ./Libraries/XMCLib/src/xmc_ccu8.o
                0x100019a0                XMC_CCU8_SLICE_SetInterruptNode
 .text.XMC_CCU8_SLICE_DeadTimeInit
                0x100019d4       0x10 ./Libraries/XMCLib/src/xmc_ccu8.o
                0x100019d4                XMC_CCU8_SLICE_DeadTimeInit
 .text.XMC_ERU_ETL_Init
                0x100019e4       0x28 ./Libraries/XMCLib/src/xmc_eru.o
                0x100019e4                XMC_ERU_ETL_Init
 .text.XMC_ERU_OGU_Init
                0x10001a0c       0x18 ./Libraries/XMCLib/src/xmc_eru.o
                0x10001a0c                XMC_ERU_OGU_Init
 .text.XMC_GPIO_SetMode
                0x10001a24       0x24 ./Libraries/XMCLib/src/xmc_gpio.o
                0x10001a24                XMC_GPIO_SetMode
 .text.XMC_GPIO_SetHardwareControl
                0x10001a48       0x1c ./Libraries/XMCLib/src/xmc_gpio.o
                0x10001a48                XMC_GPIO_SetHardwareControl
 .text.__aeabi_uidiv
                0x10001a64       0x14 ./Libraries/XMCLib/src/xmc_math.o
                0x10001a64                __aeabi_uidiv
 .text.XMC_UART_CH_Init
                0x10001a78       0x78 ./Libraries/XMCLib/src/xmc_uart.o
                0x10001a78                XMC_UART_CH_Init
 .text.XMC_UART_CH_Transmit
                0x10001af0       0x30 ./Libraries/XMCLib/src/xmc_uart.o
                0x10001af0                XMC_UART_CH_Transmit
 .text.XMC_USIC_CH_Enable
                0x10001b20       0x54 ./Libraries/XMCLib/src/xmc_usic.o
                0x10001b20                XMC_USIC_CH_Enable
 .text.XMC_USIC_CH_SetBaudrate
                0x10001b74       0xac ./Libraries/XMCLib/src/xmc_usic.o
                0x10001b74                XMC_USIC_CH_SetBaudrate
 .text.XMC_USIC_CH_TXFIFO_Configure
                0x10001c20       0x2c ./Libraries/XMCLib/src/xmc_usic.o
                0x10001c20                XMC_USIC_CH_TXFIFO_Configure
 .text.XMC_USIC_CH_RXFIFO_Configure
                0x10001c4c       0x30 ./Libraries/XMCLib/src/xmc_usic.o
                0x10001c4c                XMC_USIC_CH_RXFIFO_Configure
 .text.XMC_USIC_CH_SetInterruptNodePointer
                0x10001c7c       0x14 ./Libraries/XMCLib/src/xmc_usic.o
                0x10001c7c                XMC_USIC_CH_SetInterruptNodePointer
 .text.XMC_VADC_GLOBAL_Init
                0x10001c90       0x44 ./Libraries/XMCLib/src/xmc_vadc.o
                0x10001c90                XMC_VADC_GLOBAL_Init
 .text.XMC_VADC_GLOBAL_StartupCalibration
                0x10001cd4       0x48 ./Libraries/XMCLib/src/xmc_vadc.o
                0x10001cd4                XMC_VADC_GLOBAL_StartupCalibration
 .text.XMC_VADC_GROUP_Init
                0x10001d1c       0xd4 ./Libraries/XMCLib/src/xmc_vadc.o
                0x10001d1c                XMC_VADC_GROUP_Init
 .text.XMC_VADC_GROUP_SetPowerMode
                0x10001df0       0x10 ./Libraries/XMCLib/src/xmc_vadc.o
                0x10001df0                XMC_VADC_GROUP_SetPowerMode
 .text.XMC_VADC_GLOBAL_SHS_Init
                0x10001e00       0x20 ./Libraries/XMCLib/src/xmc_vadc.o
                0x10001e00                XMC_VADC_GLOBAL_SHS_Init
 .text.XMC_VADC_GROUP_ScanInit
                0x10001e20       0x88 ./Libraries/XMCLib/src/xmc_vadc.o
                0x10001e20                XMC_VADC_GROUP_ScanInit
 .text.XMC_VADC_GROUP_QueueInit
                0x10001ea8       0x80 ./Libraries/XMCLib/src/xmc_vadc.o
                0x10001ea8                XMC_VADC_GROUP_QueueInit
 .text.XMC_VADC_GROUP_QueueSetReqSrcEventInterruptNode
                0x10001f28       0x14 ./Libraries/XMCLib/src/xmc_vadc.o
                0x10001f28                XMC_VADC_GROUP_QueueSetReqSrcEventInterruptNode
 .text.XMC_VADC_GROUP_ChannelInit
                0x10001f3c       0x78 ./Libraries/XMCLib/src/xmc_vadc.o
                0x10001f3c                XMC_VADC_GROUP_ChannelInit
 .text._init    0x10001fb4        0x4 ./Libraries/Newlib/syscalls.o
                0x10001fb4                _init
 .text.VADC_Init
                0x10001fb8      0x12c ./LLD_conf_code/adc.o
                0x10001fb8                VADC_Init
 .text.UART_Init
                0x100020e4        0xc ./Dave/Generated/UART/uart.o
                0x100020e4                UART_Init
 .text.UART_PC_init
                0x100020f0       0x88 ./Dave/Generated/UART/uart_conf.o
                0x100020f0                UART_PC_init
 .text.PWM_CCU8_Init
                0x10002178      0x390 ./Dave/Generated/PWM_CCU8/pwm_ccu8.o
                0x10002178                PWM_CCU8_Init
 .text.PWM_CCU4_Init
                0x10002508      0x2ec ./Dave/Generated/PWM_CCU4/pwm_ccu4.o
                0x10002508                PWM_CCU4_Init
 .text.INTERRUPT_Init
                0x100027f4       0xb8 ./Dave/Generated/INTERRUPT/interrupt.o
                0x100027f4                INTERRUPT_Init
 .text.GLOBAL_CCU8_Init
                0x100028ac       0x28 ./Dave/Generated/GLOBAL_CCU8/global_ccu8.o
                0x100028ac                GLOBAL_CCU8_Init
 .text.GLOBAL_CCU4_Init
                0x100028d4       0x28 ./Dave/Generated/GLOBAL_CCU4/global_ccu4.o
                0x100028d4                GLOBAL_CCU4_Init
 .text.GLOBAL_ACMP_Init
                0x100028fc       0x18 ./Dave/Generated/GLOBAL_ACMP/global_acmp.o
                0x100028fc                GLOBAL_ACMP_Init
 .text.XMC_ACMP_ClearLowPowerMode
                0x10002914       0x1c ./Dave/Generated/GLOBAL_ACMP/global_acmp_conf.o
 .text.EVENT_GENERATOR_Init
                0x10002930       0x1c ./Dave/Generated/EVENT_GENERATOR/event_generator.o
                0x10002930                EVENT_GENERATOR_Init
 .text.EVENT_DETECTOR_Init
                0x1000294c       0x1c ./Dave/Generated/EVENT_DETECTOR/event_detector.o
                0x1000294c                EVENT_DETECTOR_Init
 .text.DIGITAL_IO_Init
                0x10002968       0x1c ./Dave/Generated/DIGITAL_IO/digital_io.o
                0x10002968                DIGITAL_IO_Init
 .text.SystemCoreSetup
                0x10002984        0x4 ./Dave/Generated/CPU_CTRL_XMC1/cpu_ctrl_xmc1_conf.o
                0x10002984                SystemCoreSetup
 .text.COMP_REF_Init
                0x10002988       0xa0 ./Dave/Generated/COMP_REF/comp_ref.o
                0x10002988                COMP_REF_Init
 .text.CLOCK_XMC1_Init
                0x10002a28       0x10 ./Dave/Generated/CLOCK_XMC1/clock_xmc1.o
                0x10002a28                CLOCK_XMC1_Init
 .text.SystemCoreClockSetup
                0x10002a38       0x20 ./Dave/Generated/CLOCK_XMC1/clock_xmc1_conf.o
                0x10002a38                SystemCoreClockSetup
 .text.ANALOG_IO_Init
                0x10002a58       0x20 ./Dave/Generated/ANALOG_IO/analog_io.o
                0x10002a58                ANALOG_IO_Init
 .text.DAVE_Init
                0x10002a78      0x164 ./Dave/Generated/DAVE.o
                0x10002a78                DAVE_Init
 .text.load_ROM_parameters
                0x10002bdc       0xec ./communication.o
                0x10002bdc                load_ROM_parameters
 .text.check_RAM_parameters
                0x10002cc8      0x128 ./communication.o
                0x10002cc8                check_RAM_parameters
 .text.MATH_DIV_config
                0x10002df0        0xc ./init_bckgnd_funct.o
                0x10002df0                MATH_DIV_config
 .text.control_loop_init
                0x10002dfc      0x108 ./init_bckgnd_funct.o
                0x10002dfc                control_loop_init
 .text.IIR_param_init
                0x10002f04       0xcc ./init_bckgnd_funct.o
                0x10002f04                IIR_param_init
 .text.delay_100us
                0x10002fd0        0x4 ./init_bckgnd_funct.o
                0x10002fd0                delay_100us
 .text.PFC_INV_mode
                0x10002fd4       0x3c ./init_bckgnd_funct.o
                0x10002fd4                PFC_INV_mode
 .text.startup.main
                0x10003010      0x1c0 ./main.o
                0x10003010                main
 .text          0x100031d0       0x54 c:/davev4-64bit/dave-4.3.2/eclipse/arm-gcc-49/bin/../lib/gcc/arm-none-eabi/4.9.3/armv6-m\libgcc.a(_muldi3.o)
                0x100031d0                __muldi3
                0x100031d0                __aeabi_lmul
 .text.__libc_init_array
                0x10003224       0x4c c:/davev4-64bit/dave-4.3.2/eclipse/arm-gcc-49/bin/../lib/gcc/arm-none-eabi/4.9.3/../../../../arm-none-eabi/lib/armv6-m\libg_nano.a(lib_a-init.o)
                0x10003224                __libc_init_array
 .text.__libc_init_array.__stub
                0x10003270       0x50 linker stubs
 *(.init)
 *(.fini)
 *crtbegin.o(.ctors)
 *crtbegin?.o(.ctors)
 *(EXCLUDE_FILE(*crtend.o *crtend?.o) .ctors)
 *(SORT(.ctors.*))
 *(.ctors)
 *crtbegin.o(.dtors)
 *crtbegin?.o(.dtors)
 *(EXCLUDE_FILE(*crtend.o *crtend?.o) .dtors)
 *(SORT(.dtors.*))
 *(.dtors)
 *(.rodata .rodata.*)
 .rodata.CSWTCH.37
                0x100032c0       0x28 ./Libraries/XMCLib/src/xmc_ccu4.o
 .rodata.CSWTCH.38
                0x100032e8       0x28 ./Libraries/XMCLib/src/xmc_ccu4.o
 .rodata.CSWTCH.43
                0x10003310       0x28 ./Libraries/XMCLib/src/xmc_ccu8.o
 .rodata.CSWTCH.44
                0x10003338       0x28 ./Libraries/XMCLib/src/xmc_ccu8.o
 .rodata.g_group_config
                0x10003360       0x14 ./LLD_conf_code/adc.o
                0x10003360                g_group_config
 .rodata.g1_channel2_config
                0x10003374       0x10 ./LLD_conf_code/adc.o
                0x10003374                g1_channel2_config
 .rodata.g1_channel3_config
                0x10003384       0x10 ./LLD_conf_code/adc.o
                0x10003384                g1_channel3_config
 .rodata.g_result7_handle
                0x10003394        0x4 ./LLD_conf_code/adc.o
                0x10003394                g_result7_handle
 .rodata.g_scan_config
                0x10003398        0xc ./LLD_conf_code/adc.o
                0x10003398                g_scan_config
 .rodata.g1_channel7_config
                0x100033a4       0x10 ./LLD_conf_code/adc.o
                0x100033a4                g1_channel7_config
 .rodata.adc_sh_config
                0x100033b4        0x8 ./LLD_conf_code/adc.o
                0x100033b4                adc_sh_config
 .rodata.g_result0_handle
                0x100033bc        0x4 ./LLD_conf_code/adc.o
                0x100033bc                g_result0_handle
 .rodata.g_global_config
                0x100033c0       0x18 ./LLD_conf_code/adc.o
                0x100033c0                g_global_config
 .rodata.g_result15_handle
                0x100033d8        0x4 ./LLD_conf_code/adc.o
                0x100033d8                g_result15_handle
 .rodata.g_queue_entry2
                0x100033dc        0x4 ./LLD_conf_code/adc.o
                0x100033dc                g_queue_entry2
 .rodata.g_queue_config
                0x100033e0        0xc ./LLD_conf_code/adc.o
                0x100033e0                g_queue_config
 .rodata.g_queue_entry1
                0x100033ec        0x4 ./LLD_conf_code/adc.o
                0x100033ec                g_queue_entry1
 .rodata.UART_PC_config
                0x100033f0       0x28 ./Dave/Generated/UART/uart_conf.o
                0x100033f0                UART_PC_config
 .rodata.UART_PC_tx_pin_config
                0x10003418        0x8 ./Dave/Generated/UART/uart_conf.o
                0x10003418                UART_PC_tx_pin_config
 .rodata.UART_PC_tx_pin
                0x10003420        0xc ./Dave/Generated/UART/uart_conf.o
                0x10003420                UART_PC_tx_pin
 .rodata.UART_PC_rx_pin_config
                0x1000342c        0x8 ./Dave/Generated/UART/uart_conf.o
                0x1000342c                UART_PC_rx_pin_config
 .rodata.UART_PC_channel_config
                0x10003434        0xc ./Dave/Generated/UART/uart_conf.o
                0x10003434                UART_PC_channel_config
 .rodata.pwm_count_event2_config
                0x10003440        0x4 ./Dave/Generated/PWM_CCU8/pwm_ccu8_conf.o
                0x10003440                pwm_count_event2_config
 .rodata.pwm_pfc_dt_config
                0x10003444        0xc ./Dave/Generated/PWM_CCU8/pwm_ccu8_conf.o
                0x10003444                pwm_pfc_dt_config
 .rodata.test_comp3out_event2_config
                0x10003450        0x4 ./Dave/Generated/PWM_CCU8/pwm_ccu8_conf.o
                0x10003450                test_comp3out_event2_config
 .rodata.test_comp3out_event1_config
                0x10003454        0x4 ./Dave/Generated/PWM_CCU8/pwm_ccu8_conf.o
                0x10003454                test_comp3out_event1_config
 .rodata.pwm_count_config_handle
                0x10003458       0x9c ./Dave/Generated/PWM_CCU8/pwm_ccu8_conf.o
                0x10003458                pwm_count_config_handle
 .rodata.test_comp0out_config_handle
                0x100034f4       0x9c ./Dave/Generated/PWM_CCU8/pwm_ccu8_conf.o
                0x100034f4                test_comp0out_config_handle
 .rodata.timer_replica_event0_config
                0x10003590        0x4 ./Dave/Generated/PWM_CCU8/pwm_ccu8_conf.o
                0x10003590                timer_replica_event0_config
 .rodata.test_comp3out_config_handle
                0x10003594       0x9c ./Dave/Generated/PWM_CCU8/pwm_ccu8_conf.o
                0x10003594                test_comp3out_config_handle
 .rodata.pwm_pfc_event0_config
                0x10003630        0x4 ./Dave/Generated/PWM_CCU8/pwm_ccu8_conf.o
                0x10003630                pwm_pfc_event0_config
 .rodata.test_comp3out_dt_config
                0x10003634        0xc ./Dave/Generated/PWM_CCU8/pwm_ccu8_conf.o
                0x10003634                test_comp3out_dt_config
 .rodata.pwm_count_timer_handle
                0x10003640       0x10 ./Dave/Generated/PWM_CCU8/pwm_ccu8_conf.o
                0x10003640                pwm_count_timer_handle
 .rodata.test_comp0out_timer_handle
                0x10003650       0x10 ./Dave/Generated/PWM_CCU8/pwm_ccu8_conf.o
                0x10003650                test_comp0out_timer_handle
 .rodata.pwm_pfc_config_handle
                0x10003660       0x9c ./Dave/Generated/PWM_CCU8/pwm_ccu8_conf.o
                0x10003660                pwm_pfc_config_handle
 .rodata.test_comp3out_ch1_out1_config
                0x100036fc        0x8 ./Dave/Generated/PWM_CCU8/pwm_ccu8_conf.o
                0x100036fc                test_comp3out_ch1_out1_config
 .rodata.pwm_pfc_ch1_out0_config
                0x10003704        0x8 ./Dave/Generated/PWM_CCU8/pwm_ccu8_conf.o
                0x10003704                pwm_pfc_ch1_out0_config
 .rodata.test_comp0out_event1_config
                0x1000370c        0x4 ./Dave/Generated/PWM_CCU8/pwm_ccu8_conf.o
                0x1000370c                test_comp0out_event1_config
 .rodata.pwm_count_event1_config
                0x10003710        0x4 ./Dave/Generated/PWM_CCU8/pwm_ccu8_conf.o
                0x10003710                pwm_count_event1_config
 .rodata.test_comp3out_timer_handle
                0x10003714       0x10 ./Dave/Generated/PWM_CCU8/pwm_ccu8_conf.o
                0x10003714                test_comp3out_timer_handle
 .rodata.pwm_count_event0_config
                0x10003724        0x4 ./Dave/Generated/PWM_CCU8/pwm_ccu8_conf.o
                0x10003724                pwm_count_event0_config
 .rodata.test_comp0out_ch2_out2_config
                0x10003728        0x8 ./Dave/Generated/PWM_CCU8/pwm_ccu8_conf.o
                0x10003728                test_comp0out_ch2_out2_config
 .rodata.pwm_count_dt_config
                0x10003730        0xc ./Dave/Generated/PWM_CCU8/pwm_ccu8_conf.o
                0x10003730                pwm_count_dt_config
 .rodata.timer_replica_event1_config
                0x1000373c        0x4 ./Dave/Generated/PWM_CCU8/pwm_ccu8_conf.o
                0x1000373c                timer_replica_event1_config
 .rodata.timer_replica_config_handle
                0x10003740       0x9c ./Dave/Generated/PWM_CCU8/pwm_ccu8_conf.o
                0x10003740                timer_replica_config_handle
 .rodata.pwm_pfc_timer_handle
                0x100037dc       0x10 ./Dave/Generated/PWM_CCU8/pwm_ccu8_conf.o
                0x100037dc                pwm_pfc_timer_handle
 .rodata.timer_replica_event2_config
                0x100037ec        0x4 ./Dave/Generated/PWM_CCU8/pwm_ccu8_conf.o
                0x100037ec                timer_replica_event2_config
 .rodata.pwm_pfc_event2_config
                0x100037f0        0x4 ./Dave/Generated/PWM_CCU8/pwm_ccu8_conf.o
                0x100037f0                pwm_pfc_event2_config
 .rodata.pwm_count_ch2_out2_config
                0x100037f4        0x8 ./Dave/Generated/PWM_CCU8/pwm_ccu8_conf.o
                0x100037f4                pwm_count_ch2_out2_config
 .rodata.test_comp3out_event0_config
                0x100037fc        0x4 ./Dave/Generated/PWM_CCU8/pwm_ccu8_conf.o
                0x100037fc                test_comp3out_event0_config
 .rodata.pwm_pfc_event1_config
                0x10003800        0x4 ./Dave/Generated/PWM_CCU8/pwm_ccu8_conf.o
                0x10003800                pwm_pfc_event1_config
 .rodata.timer_replica_dt_config
                0x10003804        0xc ./Dave/Generated/PWM_CCU8/pwm_ccu8_conf.o
                0x10003804                timer_replica_dt_config
 .rodata.test_comp0out_event0_config
                0x10003810        0x4 ./Dave/Generated/PWM_CCU8/pwm_ccu8_conf.o
                0x10003810                test_comp0out_event0_config
 .rodata.test_comp0out_dt_config
                0x10003814        0xc ./Dave/Generated/PWM_CCU8/pwm_ccu8_conf.o
                0x10003814                test_comp0out_dt_config
 .rodata.pwm_pfc_ch1_out1_config
                0x10003820        0x8 ./Dave/Generated/PWM_CCU8/pwm_ccu8_conf.o
                0x10003820                pwm_pfc_ch1_out1_config
 .rodata.timer_replica_timer_handle
                0x10003828       0x10 ./Dave/Generated/PWM_CCU8/pwm_ccu8_conf.o
                0x10003828                timer_replica_timer_handle
 .rodata.test_comp0out_event2_config
                0x10003838        0x4 ./Dave/Generated/PWM_CCU8/pwm_ccu8_conf.o
                0x10003838                test_comp0out_event2_config
 .rodata.voltage_loop_timer_handle
                0x1000383c        0x8 ./Dave/Generated/PWM_CCU4/pwm_ccu4_conf.o
                0x1000383c                voltage_loop_timer_handle
 .rodata.voltage_loop_config_handle
                0x10003844       0x60 ./Dave/Generated/PWM_CCU4/pwm_ccu4_conf.o
                0x10003844                voltage_loop_config_handle
 .rodata.voltage_loop_event0_config
                0x100038a4        0x4 ./Dave/Generated/PWM_CCU4/pwm_ccu4_conf.o
                0x100038a4                voltage_loop_event0_config
 .rodata.voltage_loop_event1_config
                0x100038a8        0x4 ./Dave/Generated/PWM_CCU4/pwm_ccu4_conf.o
                0x100038a8                voltage_loop_event1_config
 .rodata.voltage_loop_event2_config
                0x100038ac        0x4 ./Dave/Generated/PWM_CCU4/pwm_ccu4_conf.o
                0x100038ac                voltage_loop_event2_config
 .rodata.iRef_ISR
                0x100038b0        0x8 ./Dave/Generated/INTERRUPT/interrupt_conf.o
                0x100038b0                iRef_ISR
 .rodata.voltage_loop_IRQ
                0x100038b8        0x8 ./Dave/Generated/INTERRUPT/interrupt_conf.o
                0x100038b8                voltage_loop_IRQ
 .rodata.peak_PWM_trap_OGU_Config
                0x100038c0        0x4 ./Dave/Generated/EVENT_GENERATOR/event_generator_conf.o
                0x100038c0                peak_PWM_trap_OGU_Config
 .rodata.neg_peak_detect_ETL_Config
                0x100038c4        0x8 ./Dave/Generated/EVENT_DETECTOR/event_detector_conf.o
                0x100038c4                neg_peak_detect_ETL_Config
 .rodata.pos_peak_detect_ETL_Config
                0x100038cc        0x8 ./Dave/Generated/EVENT_DETECTOR/event_detector_conf.o
                0x100038cc                pos_peak_detect_ETL_Config
 .rodata.relay  0x100038d4       0x10 ./Dave/Generated/DIGITAL_IO/digital_io_conf.o
                0x100038d4                relay
 .rodata.IO_BLUE_LED
                0x100038e4       0x10 ./Dave/Generated/DIGITAL_IO/digital_io_conf.o
                0x100038e4                IO_BLUE_LED
 .rodata.ac_polarity
                0x100038f4       0x10 ./Dave/Generated/DIGITAL_IO/digital_io_conf.o
                0x100038f4                ac_polarity
 .rodata.O_PWM_SYNCH_LS
                0x10003904       0x10 ./Dave/Generated/DIGITAL_IO/digital_io_conf.o
                0x10003904                O_PWM_SYNCH_LS
 .rodata.IO_RED_LED
                0x10003914       0x10 ./Dave/Generated/DIGITAL_IO/digital_io_conf.o
                0x10003914                IO_RED_LED
 .rodata.pfc_inv_mode
                0x10003924       0x10 ./Dave/Generated/DIGITAL_IO/digital_io_conf.o
                0x10003924                pfc_inv_mode
 .rodata.O_PWM_SYNCH_HS
                0x10003934       0x10 ./Dave/Generated/DIGITAL_IO/digital_io_conf.o
                0x10003934                O_PWM_SYNCH_HS
 .rodata.comp3_iLpk_p_ref_source_output_pin_settings
                0x10003944        0x8 ./Dave/Generated/COMP_REF/comp_ref_conf.o
                0x10003944                comp3_iLpk_p_ref_source_output_pin_settings
 .rodata.comp3_iLpk_p_comp_module_config
                0x1000394c        0x4 ./Dave/Generated/COMP_REF/comp_ref_conf.o
                0x1000394c                comp3_iLpk_p_comp_module_config
 .rodata.comp0_iLpk_n_ref_source_output_pin_settings
                0x10003950        0x8 ./Dave/Generated/COMP_REF/comp_ref_conf.o
                0x10003950                comp0_iLpk_n_ref_source_output_pin_settings
 .rodata.comp0_iLpk_n_comp_module_config
                0x10003958        0x4 ./Dave/Generated/COMP_REF/comp_ref_conf.o
                0x10003958                comp0_iLpk_n_comp_module_config
 .rodata        0x1000395c       0x10 ./Dave/Generated/CLOCK_XMC1/clock_xmc1_conf.o
 .rodata.ADC_VOUT
                0x1000396c       0x10 ./Dave/Generated/ANALOG_IO/analog_io_conf.o
                0x1000396c                ADC_VOUT
 .rodata.ADC_IL_A
                0x1000397c       0x10 ./Dave/Generated/ANALOG_IO/analog_io_conf.o
                0x1000397c                ADC_IL_A
 .rodata.ADC_VAC
                0x1000398c       0x10 ./Dave/Generated/ANALOG_IO/analog_io_conf.o
                0x1000398c                ADC_VAC
 .rodata        0x1000399c      0x224 ./communication.o
 .rodata.parameters_DFLT
                0x10003bc0       0x18 ./communication.o
                0x10003bc0                parameters_DFLT
 .rodata        0x10003bd8       0x44 ./control_interrupts.o
 *(.gnu.linkonce.r*)

.glue_7         0x10003c1c        0x0
 .glue_7        0x00000000        0x0 linker stubs

.glue_7t        0x10003c1c        0x0
 .glue_7t       0x00000000        0x0 linker stubs

.vfp11_veneer   0x10003c1c        0x0
 .vfp11_veneer  0x00000000        0x0 linker stubs

.v4_bx          0x10003c1c        0x0
 .v4_bx         0x00000000        0x0 linker stubs

.iplt           0x10003c1c        0x0
 .iplt          0x00000000        0x0 ./Startup/startup_XMC1400.o

.eh_frame_hdr
 *(.eh_frame_hdr)

.eh_frame
 *(.eh_frame)

.ARM.extab
 *(.ARM.extab* .gnu.linkonce.armextab.*)
                0x10003c1c                . = ALIGN (0x4)
                0x10003c1c                __exidx_start = .

.ARM.exidx
 *(.ARM.exidx* .gnu.linkonce.armexidx.*)
                0x10003c1c                __exidx_end = .
                0x10003c1c                . = ALIGN (0x4)
                0x10003c1c                eROData = .

.VENEER_Code    0x2000000c      0x144 load address 0x10003c1c
                0x2000000c                . = ALIGN (0x4)
                0x2000000c                VeneerStart = .
 *(.XmcVeneerCode)
 .XmcVeneerCode
                0x2000000c      0x144 ./Startup/startup_XMC1400.o
                0x2000000c                HardFault_Veener
                0x2000002c                SVC_Veener
                0x20000038                PendSV_Veener
                0x2000003c                SysTick_Veener
                0x20000040                IRQ0_Veener
                0x20000044                IRQ1_Veener
                0x20000048                IRQ2_Veener
                0x2000004c                IRQ3_Veener
                0x20000050                IRQ4_Veener
                0x20000054                IRQ5_Veener
                0x20000058                IRQ6_Veener
                0x2000005c                IRQ7_Veener
                0x20000060                IRQ8_Veener
                0x20000064                IRQ9_Veener
                0x20000068                IRQ10_Veener
                0x2000006c                IRQ11_Veener
                0x20000070                IRQ12_Veener
                0x20000074                IRQ13_Veener
                0x20000078                IRQ14_Veener
                0x2000007c                IRQ15_Veener
                0x20000080                IRQ16_Veener
                0x20000084                IRQ17_Veener
                0x20000088                IRQ18_Veener
                0x2000008c                IRQ19_Veener
                0x20000090                IRQ20_Veener
                0x20000094                IRQ21_Veener
                0x20000098                IRQ22_Veener
                0x2000009c                IRQ23_Veener
                0x200000a0                IRQ24_Veener
                0x200000a4                IRQ25_Veener
                0x200000a8                IRQ26_Veener
                0x200000ac                IRQ27_Veener
                0x200000b0                IRQ28_Veener
                0x200000b4                IRQ29_Veener
                0x200000b8                IRQ30_Veener
                0x200000bc                IRQ31_Veener
                0x20000150                . = ALIGN (0x4)
                0x20000150                VeneerEnd = .
                0x00000144                VeneerSize = (ABSOLUTE (VeneerEnd) - ABSOLUTE (VeneerStart))

Stack           0x20000150      0x400 load address 0x00000000
                0x20000150                . = ALIGN (0x8)
                0x20000550                . = (. + stack_size)
 *fill*         0x20000150      0x400 
                0x20000550                __initial_sp = .
                0x10003d60                DataLoadAddr = (eROData + VeneerSize)

.data           0x20000550      0x294 load address 0x10003d60
                0x20000550                . = ALIGN (0x4)
                0x20000550                __data_start = .
 *(vtable)
 *(.data)
 *(.data*)
 .data.UART_PC  0x20000550        0xc ./Dave/Generated/UART/uart_conf.o
                0x20000550                UART_PC
 .data.test_comp0out
                0x2000055c       0x34 ./Dave/Generated/PWM_CCU8/pwm_ccu8_conf.o
                0x2000055c                test_comp0out
 .data.timer_replica
                0x20000590       0x34 ./Dave/Generated/PWM_CCU8/pwm_ccu8_conf.o
                0x20000590                timer_replica
 .data.pwm_count
                0x200005c4       0x34 ./Dave/Generated/PWM_CCU8/pwm_ccu8_conf.o
                0x200005c4                pwm_count
 .data.pwm_pfc  0x200005f8       0x34 ./Dave/Generated/PWM_CCU8/pwm_ccu8_conf.o
                0x200005f8                pwm_pfc
 .data.test_comp3out
                0x2000062c       0x34 ./Dave/Generated/PWM_CCU8/pwm_ccu8_conf.o
                0x2000062c                test_comp3out
 .data.voltage_loop
                0x20000660       0x28 ./Dave/Generated/PWM_CCU4/pwm_ccu4_conf.o
                0x20000660                voltage_loop
 .data.GLOBAL_CCU8_0
                0x20000688       0x10 ./Dave/Generated/GLOBAL_CCU8/global_ccu8_conf.o
                0x20000688                GLOBAL_CCU8_0
 .data.GLOBAL_CCU8_1
                0x20000698       0x10 ./Dave/Generated/GLOBAL_CCU8/global_ccu8_conf.o
                0x20000698                GLOBAL_CCU8_1
 .data.GLOBAL_CCU4_0
                0x200006a8       0x10 ./Dave/Generated/GLOBAL_CCU4/global_ccu4_conf.o
                0x200006a8                GLOBAL_CCU4_0
 .data.GLOBAL_ACMP_0
                0x200006b8        0x8 ./Dave/Generated/GLOBAL_ACMP/global_acmp_conf.o
                0x200006b8                GLOBAL_ACMP_0
 .data.peak_PWM_trap
                0x200006c0        0xc ./Dave/Generated/EVENT_GENERATOR/event_generator_conf.o
                0x200006c0                peak_PWM_trap
 .data.pos_peak_detect
                0x200006cc       0x10 ./Dave/Generated/EVENT_DETECTOR/event_detector_conf.o
                0x200006cc                pos_peak_detect
 .data.neg_peak_detect
                0x200006dc       0x10 ./Dave/Generated/EVENT_DETECTOR/event_detector_conf.o
                0x200006dc                neg_peak_detect
 .data.comp3_iLpk_p_cc4_compare_config
                0x200006ec        0x8 ./Dave/Generated/COMP_REF/comp_ref_conf.o
                0x200006ec                comp3_iLpk_p_cc4_compare_config
 .data.comp3_iLpk_p_config
                0x200006f4       0x1c ./Dave/Generated/COMP_REF/comp_ref_conf.o
                0x200006f4                comp3_iLpk_p_config
 .data.comp0_iLpk_n_cc4_compare_config
                0x20000710        0x8 ./Dave/Generated/COMP_REF/comp_ref_conf.o
                0x20000710                comp0_iLpk_n_cc4_compare_config
 .data.comp3_iLpk_p_ccu4_config
                0x20000718       0x1c ./Dave/Generated/COMP_REF/comp_ref_conf.o
                0x20000718                comp3_iLpk_p_ccu4_config
 .data.comp3_iLpk_p
                0x20000734       0x10 ./Dave/Generated/COMP_REF/comp_ref_conf.o
                0x20000734                comp3_iLpk_p
 .data.comp0_iLpk_n_ref_source_output_pin_config
                0x20000744        0xc ./Dave/Generated/COMP_REF/comp_ref_conf.o
                0x20000744                comp0_iLpk_n_ref_source_output_pin_config
 .data.comp3_iLpk_p_ref_source_output_pin_config
                0x20000750        0xc ./Dave/Generated/COMP_REF/comp_ref_conf.o
                0x20000750                comp3_iLpk_p_ref_source_output_pin_config
 .data.comp0_iLpk_n_ccu4_config
                0x2000075c       0x1c ./Dave/Generated/COMP_REF/comp_ref_conf.o
                0x2000075c                comp0_iLpk_n_ccu4_config
 .data.comp0_iLpk_n_config
                0x20000778       0x1c ./Dave/Generated/COMP_REF/comp_ref_conf.o
                0x20000778                comp0_iLpk_n_config
 .data.comp0_iLpk_n
                0x20000794       0x10 ./Dave/Generated/COMP_REF/comp_ref_conf.o
                0x20000794                comp0_iLpk_n
 .data.UART_rx_index.9123
                0x200007a4        0x1 ./communication.o
 *fill*         0x200007a5        0x3 
 .data.parameters_ROM
                0x200007a8        0x4 ./communication.o
                0x200007a8                parameters_ROM
 .data.parameters_MIN
                0x200007ac       0x18 ./communication.o
                0x200007ac                parameters_MIN
 .data.parameters_MAX
                0x200007c4       0x18 ./communication.o
                0x200007c4                parameters_MAX
 .data.msg_cnt  0x200007dc        0x1 ./communication.o
 *fill*         0x200007dd        0x1 
 .data.time_INIT
                0x200007de        0x2 ./init_bckgnd_funct.o
                0x200007de                time_INIT
 .data.flash_sleep_cnt
                0x200007e0        0x2 ./init_bckgnd_funct.o
 *(*.data)
 *(.gnu.linkonce.d*)
                0x200007e4                . = ALIGN (0x4)
 *fill*         0x200007e2        0x2 
                0x200007e4                PROVIDE (__preinit_array_start, .)
 *(.preinit_array)
                0x200007e4                PROVIDE (__preinit_array_end, .)
                0x200007e4                . = ALIGN (0x4)
                0x200007e4                PROVIDE (__init_array_start, .)
 *(SORT(.init_array.*))
 *(.init_array)
                0x200007e4                PROVIDE (__init_array_end, .)
                0x200007e4                . = ALIGN (0x4)
                0x200007e4                PROVIDE (__fini_array_start, .)
 *(SORT(.fini_array.*))
 *(.fini_array)
                0x200007e4                PROVIDE (__fini_array_end, .)
                0x200007e4                . = ALIGN (0x4)
                0x200007e4                __data_end = .
                0x00000294                __data_size = (__data_end - __data_start)

.igot.plt       0x200007e4        0x0 load address 0x10003ff4
 .igot.plt      0x00000000        0x0 ./Startup/startup_XMC1400.o

.ram_code       0x200007e8     0x1960 load address 0x10003ff4
                0x200007e8                . = ALIGN (0x4)
                0x200007e8                __ram_code_start = .
 *(.ram_code)
 .ram_code      0x200007e8      0x540 ./communication.o
                0x200007e8                uart_receive
                0x200009d8                uart_transmit
 .ram_code      0x20000d28     0x1074 ./control_interrupts.o
                0x20000d28                IRQ19_Handler
                0x20001374                IRQ1_Handler
                0x200014cc                IRQ0_Handler
 .ram_code      0x20001d9c      0x34c ./init_bckgnd_funct.o
                0x20001d9c                time_counter
                0x20001e54                input_voltage_observer
                0x20002064                flash_sleep_ctr
 .ram_code.__stub
                0x200020e8       0x60 linker stubs
                0x20002148                . = ALIGN (0x4)
                0x20002148                __ram_code_end = .
                0x10003ff4                __ram_code_load = LOADADDR (.ram_code)
                0x00001960                __ram_code_size = (__ram_code_end - __ram_code_start)

.rel.dyn        0x20002148        0x0 load address 0x10005954
 .rel.iplt      0x00000000        0x0 ./Startup/startup_XMC1400.o

.bss            0x20002148      0x248 load address 0x10005954
                0x20002148                . = ALIGN (0x4)
                0x20002148                __bss_start = .
 *(.bss)
 *(.bss*)
 .bss.IDIV.5045
                0x20002148        0x4 ./Startup/system_XMC1400.o
 .bss.FDIV.5046
                0x2000214c        0x4 ./Startup/system_XMC1400.o
 .bss.UART_PC_runtime
                0x20002150       0x1c ./Dave/Generated/UART/uart_conf.o
                0x20002150                UART_PC_runtime
 .bss.CLOCK_XMC1_0
                0x2000216c        0x4 ./Dave/Generated/CLOCK_XMC1/clock_xmc1_conf.o
                0x2000216c                CLOCK_XMC1_0
 .bss.ADC_VOUT_state
                0x20002170        0x1 ./Dave/Generated/ANALOG_IO/analog_io_conf.o
 .bss.ADC_VAC_state
                0x20002171        0x1 ./Dave/Generated/ANALOG_IO/analog_io_conf.o
 .bss.ADC_IL_A_state
                0x20002172        0x1 ./Dave/Generated/ANALOG_IO/analog_io_conf.o
 *fill*         0x20002173        0x1 
 .bss.previous_tick.9133
                0x20002174        0x4 ./communication.o
 .bss.UART_rx_buffer
                0x20002178        0x8 ./communication.o
 .bss.UART_rx_CRC.9124
                0x20002180        0x1 ./communication.o
 .bss.status_reg
                0x20002181        0x1 ./control_interrupts.o
                0x20002181                status_reg
 .bss.plrty_transition_dly_ON.10204
                0x20002182        0x2 ./control_interrupts.o
 .bss.Vrms2     0x20002184        0x4 ./control_interrupts.o
 .bss.count_Vout_OVP_stop
                0x20002188        0x1 ./control_interrupts.o
 *fill*         0x20002189        0x3 
 .bss.input_polarity
                0x2000218c        0x4 ./control_interrupts.o
 .bss.count_Vout_OVP_resume
                0x20002190        0x1 ./control_interrupts.o
 *fill*         0x20002191        0x1 
 .bss.plrty_transition_dly_OFF.10203
                0x20002192        0x2 ./control_interrupts.o
 .bss.offset_detected
                0x20002194        0x2 ./control_interrupts.o
 .bss.fault_reg
                0x20002196        0x1 ./control_interrupts.o
                0x20002196                fault_reg
 .bss.input_polarity_count
                0x20002197        0x1 ./control_interrupts.o
 .bss.acok      0x20002198        0x1 ./control_interrupts.o
 *fill*         0x20002199        0x3 
 .bss.AC_zero_cross
                0x2000219c       0x10 ./control_interrupts.o
 .bss.stb_bop_count
                0x200021ac        0x2 ./control_interrupts.o
 .bss.i_filter  0x200021ae        0x1 ./control_interrupts.o
 *fill*         0x200021af        0x1 
 .bss.time_count_5kHz
                0x200021b0        0x2 ./control_interrupts.o
                0x200021b0                time_count_5kHz
 .bss.acok_counter
                0x200021b2        0x1 ./control_interrupts.o
 .bss.time_PLD_150V
                0x200021b3        0x1 ./init_bckgnd_funct.o
                0x200021b3                time_PLD_150V
 .bss.BOP_flag_150V
                0x200021b4        0x1 ./init_bckgnd_funct.o
 .bss._100ms_count
                0x200021b5        0x1 ./init_bckgnd_funct.o
                0x200021b5                _100ms_count
 .bss.time_extra_bulk
                0x200021b6        0x1 ./init_bckgnd_funct.o
                0x200021b6                time_extra_bulk
 *fill*         0x200021b7        0x1 
 .bss.auxAC     0x200021b8        0x4 ./init_bckgnd_funct.o
                0x200021b8                auxAC
 .bss.time_tick.9141
                0x200021bc        0x4 ./init_bckgnd_funct.o
 .bss.time_V_step
                0x200021c0        0x1 ./init_bckgnd_funct.o
                0x200021c0                time_V_step
 .bss.time_BOP  0x200021c1        0x1 ./init_bckgnd_funct.o
                0x200021c1                time_BOP
 .bss.current_loop_ON
                0x200021c2        0x1 ./init_bckgnd_funct.o
                0x200021c2                current_loop_ON
 *fill*         0x200021c3        0x1 
 .bss.auxDC     0x200021c4        0x4 ./init_bckgnd_funct.o
                0x200021c4                auxDC
 .bss.power_stage_ON
                0x200021c8        0x1 ./init_bckgnd_funct.o
                0x200021c8                power_stage_ON
 .bss._1ms_count
                0x200021c9        0x1 ./init_bckgnd_funct.o
                0x200021c9                _1ms_count
 .bss.time_PLD_130V
                0x200021ca        0x1 ./init_bckgnd_funct.o
                0x200021ca                time_PLD_130V
 .bss.BOP_flag_130V
                0x200021cb        0x1 ./init_bckgnd_funct.o
 .bss.time_ACOK
                0x200021cc        0x1 ./init_bckgnd_funct.o
                0x200021cc                time_ACOK
 *fill*         0x200021cd        0x1 
 .bss.TPBiDi3k3_SW_v
                0x200021ce        0x2 ./main.o
 *(COMMON)
 COMMON         0x200021d0       0x48 ./communication.o
                0x200021d0                parameters_MIN_RAM
                0x200021e8                parameters_RAM
                0x20002200                parameters_MAX_RAM
 COMMON         0x20002218       0x4c ./control_interrupts.o
                0x20002218                PFC
                0x20002250                ADCResult_VAC
                0x20002254                ADCResult_Temp
                0x20002258                ADCResult_iL
                0x2000225c                ADCResult_DCBus
                0x20002260                ADCResult_BOP
 COMMON         0x20002264      0x128 ./init_bckgnd_funct.o
                0x20002264                DCfilter
                0x200022b4                current_PI_ctr
                0x200022fc                ACfilter
                0x2000234c                voltage_int_ctr
 COMMON         0x2000238c        0x4 ./main.o
                0x2000238c                dely_i
                0x2000238e                dely_j
 *(.gnu.linkonce.b*)
                0x20002390                . = ALIGN (0x4)
                0x20002390                __bss_end = .
                0x20002390                . = ALIGN (0x8)
 *fill*         0x20002390        0x0 
                0x20002390                Heap_Bank1_Start = .
                0x00000248                __bss_size = (__bss_end - __bss_start)

.no_init        0x20003ffc        0x4 load address 0x10007808
                0x20003ffc                Heap_Bank1_End = .
 *(.no_init)
 .no_init       0x20003ffc        0x4 ./Startup/system_XMC1400.o
                0x20003ffc                SystemCoreClock
                0x00001c6c                Heap_Bank1_Size = (Heap_Bank1_End - Heap_Bank1_Start)
                0x00000001                ASSERT ((Heap_Bank1_Start <= Heap_Bank1_End), region SRAM overflowed no_init section)

/DISCARD/
 *(.comment)

.stab
 *(.stab)

.stabstr
 *(.stabstr)

.debug
 *(.debug)

.line
 *(.line)

.debug_srcinfo
 *(.debug_srcinfo)

.debug_sfnames
 *(.debug_sfnames)

.debug_aranges  0x00000000      0xfe8
 *(.debug_aranges)
 .debug_aranges
                0x00000000       0x28 ./Startup/startup_XMC1400.o
 .debug_aranges
                0x00000028       0x40 ./Startup/system_XMC1400.o
 .debug_aranges
                0x00000068       0x28 ./Libraries/XMCLib/src/xmc1_eru.o
 .debug_aranges
                0x00000090       0x78 ./Libraries/XMCLib/src/xmc1_flash.o
 .debug_aranges
                0x00000108       0x28 ./Libraries/XMCLib/src/xmc1_gpio.o
 .debug_aranges
                0x00000130      0x148 ./Libraries/XMCLib/src/xmc1_scu.o
 .debug_aranges
                0x00000278       0x28 ./Libraries/XMCLib/src/xmc_acmp.o
 .debug_aranges
                0x000002a0      0x108 ./Libraries/XMCLib/src/xmc_ccu4.o
 .debug_aranges
                0x000003a8      0x158 ./Libraries/XMCLib/src/xmc_ccu8.o
 .debug_aranges
                0x00000500       0x88 ./Libraries/XMCLib/src/xmc_eru.o
 .debug_aranges
                0x00000588       0x28 ./Libraries/XMCLib/src/xmc_gpio.o
 .debug_aranges
                0x000005b0       0xf0 ./Libraries/XMCLib/src/xmc_math.o
 .debug_aranges
                0x000006a0       0x50 ./Libraries/XMCLib/src/xmc_uart.o
 .debug_aranges
                0x000006f0       0x80 ./Libraries/XMCLib/src/xmc_usic.o
 .debug_aranges
                0x00000770      0x298 ./Libraries/XMCLib/src/xmc_vadc.o
 .debug_aranges
                0x00000a08       0x28 ./Libraries/Newlib/syscalls.o
 .debug_aranges
                0x00000a30       0x20 ./LLD_conf_code/adc.o
 .debug_aranges
                0x00000a50       0x40 ./Dave/Generated/UART/uart.o
 .debug_aranges
                0x00000a90       0x20 ./Dave/Generated/UART/uart_conf.o
 .debug_aranges
                0x00000ab0       0xa0 ./Dave/Generated/PWM_CCU8/pwm_ccu8.o
 .debug_aranges
                0x00000b50       0x18 ./Dave/Generated/PWM_CCU8/pwm_ccu8_conf.o
 .debug_aranges
                0x00000b68       0x80 ./Dave/Generated/PWM_CCU4/pwm_ccu4.o
 .debug_aranges
                0x00000be8       0x18 ./Dave/Generated/PWM_CCU4/pwm_ccu4_conf.o
 .debug_aranges
                0x00000c00       0x28 ./Dave/Generated/INTERRUPT/interrupt.o
 .debug_aranges
                0x00000c28       0x18 ./Dave/Generated/INTERRUPT/interrupt_conf.o
 .debug_aranges
                0x00000c40       0x28 ./Dave/Generated/GLOBAL_CCU8/global_ccu8.o
 .debug_aranges
                0x00000c68       0x18 ./Dave/Generated/GLOBAL_CCU8/global_ccu8_conf.o
 .debug_aranges
                0x00000c80       0x28 ./Dave/Generated/GLOBAL_CCU4/global_ccu4.o
 .debug_aranges
                0x00000ca8       0x18 ./Dave/Generated/GLOBAL_CCU4/global_ccu4_conf.o
 .debug_aranges
                0x00000cc0       0x28 ./Dave/Generated/GLOBAL_ACMP/global_acmp.o
 .debug_aranges
                0x00000ce8       0x20 ./Dave/Generated/GLOBAL_ACMP/global_acmp_conf.o
 .debug_aranges
                0x00000d08       0x28 ./Dave/Generated/EVENT_GENERATOR/event_generator.o
 .debug_aranges
                0x00000d30       0x18 ./Dave/Generated/EVENT_GENERATOR/event_generator_conf.o
 .debug_aranges
                0x00000d48       0x28 ./Dave/Generated/EVENT_DETECTOR/event_detector.o
 .debug_aranges
                0x00000d70       0x18 ./Dave/Generated/EVENT_DETECTOR/event_detector_conf.o
 .debug_aranges
                0x00000d88       0x28 ./Dave/Generated/DIGITAL_IO/digital_io.o
 .debug_aranges
                0x00000db0       0x18 ./Dave/Generated/DIGITAL_IO/digital_io_conf.o
 .debug_aranges
                0x00000dc8       0x20 ./Dave/Generated/CPU_CTRL_XMC1/cpu_ctrl_xmc1_conf.o
 .debug_aranges
                0x00000de8       0x58 ./Dave/Generated/COMP_REF/comp_ref.o
 .debug_aranges
                0x00000e40       0x18 ./Dave/Generated/COMP_REF/comp_ref_conf.o
 .debug_aranges
                0x00000e58       0x30 ./Dave/Generated/CLOCK_XMC1/clock_xmc1.o
 .debug_aranges
                0x00000e88       0x20 ./Dave/Generated/CLOCK_XMC1/clock_xmc1_conf.o
 .debug_aranges
                0x00000ea8       0x28 ./Dave/Generated/ANALOG_IO/analog_io.o
 .debug_aranges
                0x00000ed0       0x18 ./Dave/Generated/ANALOG_IO/analog_io_conf.o
 .debug_aranges
                0x00000ee8       0x20 ./Dave/Generated/DAVE.o
 .debug_aranges
                0x00000f08       0x38 ./communication.o
 .debug_aranges
                0x00000f40       0x30 ./control_interrupts.o
 .debug_aranges
                0x00000f70       0x58 ./init_bckgnd_funct.o
 .debug_aranges
                0x00000fc8       0x20 ./main.o

.debug_pubnames
 *(.debug_pubnames)

.debug_pubtypes
 *(.debug_pubtypes)

.debug_info     0x00000000    0x30c80
 *(.debug_info .gnu.linkonce.wi.*)
 .debug_info    0x00000000       0xae ./Startup/startup_XMC1400.o
 .debug_info    0x000000ae      0x3de ./Startup/system_XMC1400.o
 .debug_info    0x0000048c      0x37c ./Libraries/XMCLib/src/xmc1_eru.o
 .debug_info    0x00000808      0x645 ./Libraries/XMCLib/src/xmc1_flash.o
 .debug_info    0x00000e4d      0x43e ./Libraries/XMCLib/src/xmc1_gpio.o
 .debug_info    0x0000128b     0x175a ./Libraries/XMCLib/src/xmc1_scu.o
 .debug_info    0x000029e5      0x24a ./Libraries/XMCLib/src/xmc_acmp.o
 .debug_info    0x00002c2f     0x15c2 ./Libraries/XMCLib/src/xmc_ccu4.o
 .debug_info    0x000041f1     0x1cdb ./Libraries/XMCLib/src/xmc_ccu8.o
 .debug_info    0x00005ecc      0xac4 ./Libraries/XMCLib/src/xmc_eru.o
 .debug_info    0x00006990      0x3cf ./Libraries/XMCLib/src/xmc_gpio.o
 .debug_info    0x00006d5f      0x98f ./Libraries/XMCLib/src/xmc_math.o
 .debug_info    0x000076ee      0x956 ./Libraries/XMCLib/src/xmc_uart.o
 .debug_info    0x00008044      0xbf9 ./Libraries/XMCLib/src/xmc_usic.o
 .debug_info    0x00008c3d     0x3bfe ./Libraries/XMCLib/src/xmc_vadc.o
 .debug_info    0x0000c83b      0x13d ./Libraries/Newlib/syscalls.o
 .debug_info    0x0000c978     0x415c ./LLD_conf_code/adc.o
 .debug_info    0x00010ad4     0x1335 ./Dave/Generated/UART/uart.o
 .debug_info    0x00011e09      0xe61 ./Dave/Generated/UART/uart_conf.o
 .debug_info    0x00012c6a     0x2aae ./Dave/Generated/PWM_CCU8/pwm_ccu8.o
 .debug_info    0x00015718     0x1868 ./Dave/Generated/PWM_CCU8/pwm_ccu8_conf.o
 .debug_info    0x00016f80     0x208c ./Dave/Generated/PWM_CCU4/pwm_ccu4.o
 .debug_info    0x0001900c     0x1093 ./Dave/Generated/PWM_CCU4/pwm_ccu4_conf.o
 .debug_info    0x0001a09f      0x940 ./Dave/Generated/INTERRUPT/interrupt.o
 .debug_info    0x0001a9df      0x5cd ./Dave/Generated/INTERRUPT/interrupt_conf.o
 .debug_info    0x0001afac      0x39a ./Dave/Generated/GLOBAL_CCU8/global_ccu8.o
 .debug_info    0x0001b346      0x274 ./Dave/Generated/GLOBAL_CCU8/global_ccu8_conf.o
 .debug_info    0x0001b5ba      0x38b ./Dave/Generated/GLOBAL_CCU4/global_ccu4.o
 .debug_info    0x0001b945      0x253 ./Dave/Generated/GLOBAL_CCU4/global_ccu4_conf.o
 .debug_info    0x0001bb98      0x1b8 ./Dave/Generated/GLOBAL_ACMP/global_acmp.o
 .debug_info    0x0001bd50      0x1ee ./Dave/Generated/GLOBAL_ACMP/global_acmp_conf.o
 .debug_info    0x0001bf3e      0x52b ./Dave/Generated/EVENT_GENERATOR/event_generator.o
 .debug_info    0x0001c469      0x494 ./Dave/Generated/EVENT_GENERATOR/event_generator_conf.o
 .debug_info    0x0001c8fd      0x5a0 ./Dave/Generated/EVENT_DETECTOR/event_detector.o
 .debug_info    0x0001ce9d      0x5ef ./Dave/Generated/EVENT_DETECTOR/event_detector_conf.o
 .debug_info    0x0001d48c      0x559 ./Dave/Generated/DIGITAL_IO/digital_io.o
 .debug_info    0x0001d9e5      0x494 ./Dave/Generated/DIGITAL_IO/digital_io_conf.o
 .debug_info    0x0001de79       0xd2 ./Dave/Generated/CPU_CTRL_XMC1/cpu_ctrl_xmc1_conf.o
 .debug_info    0x0001df4b     0x16e9 ./Dave/Generated/COMP_REF/comp_ref.o
 .debug_info    0x0001f634      0xf28 ./Dave/Generated/COMP_REF/comp_ref_conf.o
 .debug_info    0x0002055c      0x23c ./Dave/Generated/CLOCK_XMC1/clock_xmc1.o
 .debug_info    0x00020798      0x2cc ./Dave/Generated/CLOCK_XMC1/clock_xmc1_conf.o
 .debug_info    0x00020a64      0x361 ./Dave/Generated/ANALOG_IO/analog_io.o
 .debug_info    0x00020dc5      0x2e8 ./Dave/Generated/ANALOG_IO/analog_io_conf.o
 .debug_info    0x000210ad     0x3948 ./Dave/Generated/DAVE.o
 .debug_info    0x000249f5     0x3899 ./communication.o
 .debug_info    0x0002828e     0x2b7b ./control_interrupts.o
 .debug_info    0x0002ae09     0x28c3 ./init_bckgnd_funct.o
 .debug_info    0x0002d6cc     0x35b4 ./main.o

.debug_abbrev   0x00000000     0x5d7c
 *(.debug_abbrev)
 .debug_abbrev  0x00000000       0x12 ./Startup/startup_XMC1400.o
 .debug_abbrev  0x00000012      0x13f ./Startup/system_XMC1400.o
 .debug_abbrev  0x00000151      0x119 ./Libraries/XMCLib/src/xmc1_eru.o
 .debug_abbrev  0x0000026a      0x20a ./Libraries/XMCLib/src/xmc1_flash.o
 .debug_abbrev  0x00000474       0xdf ./Libraries/XMCLib/src/xmc1_gpio.o
 .debug_abbrev  0x00000553      0x3e1 ./Libraries/XMCLib/src/xmc1_scu.o
 .debug_abbrev  0x00000934      0x13b ./Libraries/XMCLib/src/xmc_acmp.o
 .debug_abbrev  0x00000a6f      0x300 ./Libraries/XMCLib/src/xmc_ccu4.o
 .debug_abbrev  0x00000d6f      0x322 ./Libraries/XMCLib/src/xmc_ccu8.o
 .debug_abbrev  0x00001091      0x22f ./Libraries/XMCLib/src/xmc_eru.o
 .debug_abbrev  0x000012c0       0xee ./Libraries/XMCLib/src/xmc_gpio.o
 .debug_abbrev  0x000013ae      0x1d6 ./Libraries/XMCLib/src/xmc_math.o
 .debug_abbrev  0x00001584      0x2a7 ./Libraries/XMCLib/src/xmc_uart.o
 .debug_abbrev  0x0000182b      0x2e1 ./Libraries/XMCLib/src/xmc_usic.o
 .debug_abbrev  0x00001b0c      0x3e0 ./Libraries/XMCLib/src/xmc_vadc.o
 .debug_abbrev  0x00001eec       0xea ./Libraries/Newlib/syscalls.o
 .debug_abbrev  0x00001fd6      0x2b0 ./LLD_conf_code/adc.o
 .debug_abbrev  0x00002286      0x317 ./Dave/Generated/UART/uart.o
 .debug_abbrev  0x0000259d      0x22f ./Dave/Generated/UART/uart_conf.o
 .debug_abbrev  0x000027cc      0x40a ./Dave/Generated/PWM_CCU8/pwm_ccu8.o
 .debug_abbrev  0x00002bd6      0x18b ./Dave/Generated/PWM_CCU8/pwm_ccu8_conf.o
 .debug_abbrev  0x00002d61      0x3f6 ./Dave/Generated/PWM_CCU4/pwm_ccu4.o
 .debug_abbrev  0x00003157      0x158 ./Dave/Generated/PWM_CCU4/pwm_ccu4_conf.o
 .debug_abbrev  0x000032af      0x1dd ./Dave/Generated/INTERRUPT/interrupt.o
 .debug_abbrev  0x0000348c       0xac ./Dave/Generated/INTERRUPT/interrupt_conf.o
 .debug_abbrev  0x00003538      0x176 ./Dave/Generated/GLOBAL_CCU8/global_ccu8.o
 .debug_abbrev  0x000036ae       0xdd ./Dave/Generated/GLOBAL_CCU8/global_ccu8_conf.o
 .debug_abbrev  0x0000378b      0x176 ./Dave/Generated/GLOBAL_CCU4/global_ccu4.o
 .debug_abbrev  0x00003901       0xdd ./Dave/Generated/GLOBAL_CCU4/global_ccu4_conf.o
 .debug_abbrev  0x000039de       0xdc ./Dave/Generated/GLOBAL_ACMP/global_acmp.o
 .debug_abbrev  0x00003aba       0xd7 ./Dave/Generated/GLOBAL_ACMP/global_acmp_conf.o
 .debug_abbrev  0x00003b91      0x19d ./Dave/Generated/EVENT_GENERATOR/event_generator.o
 .debug_abbrev  0x00003d2e      0x15a ./Dave/Generated/EVENT_GENERATOR/event_generator_conf.o
 .debug_abbrev  0x00003e88      0x19d ./Dave/Generated/EVENT_DETECTOR/event_detector.o
 .debug_abbrev  0x00004025      0x14b ./Dave/Generated/EVENT_DETECTOR/event_detector_conf.o
 .debug_abbrev  0x00004170      0x130 ./Dave/Generated/DIGITAL_IO/digital_io.o
 .debug_abbrev  0x000042a0       0xb2 ./Dave/Generated/DIGITAL_IO/digital_io_conf.o
 .debug_abbrev  0x00004352       0x80 ./Dave/Generated/CPU_CTRL_XMC1/cpu_ctrl_xmc1_conf.o
 .debug_abbrev  0x000043d2      0x38b ./Dave/Generated/COMP_REF/comp_ref.o
 .debug_abbrev  0x0000475d      0x1be ./Dave/Generated/COMP_REF/comp_ref_conf.o
 .debug_abbrev  0x0000491b      0x137 ./Dave/Generated/CLOCK_XMC1/clock_xmc1.o
 .debug_abbrev  0x00004a52      0x126 ./Dave/Generated/CLOCK_XMC1/clock_xmc1_conf.o
 .debug_abbrev  0x00004b78      0x104 ./Dave/Generated/ANALOG_IO/analog_io.o
 .debug_abbrev  0x00004c7c       0xc8 ./Dave/Generated/ANALOG_IO/analog_io_conf.o
 .debug_abbrev  0x00004d44      0x263 ./Dave/Generated/DAVE.o
 .debug_abbrev  0x00004fa7      0x3e2 ./communication.o
 .debug_abbrev  0x00005389      0x325 ./control_interrupts.o
 .debug_abbrev  0x000056ae      0x37b ./init_bckgnd_funct.o
 .debug_abbrev  0x00005a29      0x353 ./main.o

.debug_line     0x00000000     0xbe88
 *(.debug_line)
 .debug_line    0x00000000       0xe2 ./Startup/startup_XMC1400.o
 .debug_line    0x000000e2      0x215 ./Startup/system_XMC1400.o
 .debug_line    0x000002f7      0x19c ./Libraries/XMCLib/src/xmc1_eru.o
 .debug_line    0x00000493      0x42c ./Libraries/XMCLib/src/xmc1_flash.o
 .debug_line    0x000008bf      0x1d1 ./Libraries/XMCLib/src/xmc1_gpio.o
 .debug_line    0x00000a90      0x813 ./Libraries/XMCLib/src/xmc1_scu.o
 .debug_line    0x000012a3      0x1ad ./Libraries/XMCLib/src/xmc_acmp.o
 .debug_line    0x00001450      0x5f7 ./Libraries/XMCLib/src/xmc_ccu4.o
 .debug_line    0x00001a47      0x700 ./Libraries/XMCLib/src/xmc_ccu8.o
 .debug_line    0x00002147      0x2b1 ./Libraries/XMCLib/src/xmc_eru.o
 .debug_line    0x000023f8      0x1be ./Libraries/XMCLib/src/xmc_gpio.o
 .debug_line    0x000025b6      0x512 ./Libraries/XMCLib/src/xmc_math.o
 .debug_line    0x00002ac8      0x346 ./Libraries/XMCLib/src/xmc_uart.o
 .debug_line    0x00002e0e      0x416 ./Libraries/XMCLib/src/xmc_usic.o
 .debug_line    0x00003224      0xd94 ./Libraries/XMCLib/src/xmc_vadc.o
 .debug_line    0x00003fb8       0xcd ./Libraries/Newlib/syscalls.o
 .debug_line    0x00004085      0x6dc ./LLD_conf_code/adc.o
 .debug_line    0x00004761      0x448 ./Dave/Generated/UART/uart.o
 .debug_line    0x00004ba9      0x2b0 ./Dave/Generated/UART/uart_conf.o
 .debug_line    0x00004e59      0x863 ./Dave/Generated/PWM_CCU8/pwm_ccu8.o
 .debug_line    0x000056bc      0x2c9 ./Dave/Generated/PWM_CCU8/pwm_ccu8_conf.o
 .debug_line    0x00005985      0x72f ./Dave/Generated/PWM_CCU4/pwm_ccu4.o
 .debug_line    0x000060b4      0x2c9 ./Dave/Generated/PWM_CCU4/pwm_ccu4_conf.o
 .debug_line    0x0000637d      0x3ad ./Dave/Generated/INTERRUPT/interrupt.o
 .debug_line    0x0000672a      0x24e ./Dave/Generated/INTERRUPT/interrupt_conf.o
 .debug_line    0x00006978      0x324 ./Dave/Generated/GLOBAL_CCU8/global_ccu8.o
 .debug_line    0x00006c9c      0x262 ./Dave/Generated/GLOBAL_CCU8/global_ccu8_conf.o
 .debug_line    0x00006efe      0x324 ./Dave/Generated/GLOBAL_CCU4/global_ccu4.o
 .debug_line    0x00007222      0x262 ./Dave/Generated/GLOBAL_CCU4/global_ccu4_conf.o
 .debug_line    0x00007484      0x1bd ./Dave/Generated/GLOBAL_ACMP/global_acmp.o
 .debug_line    0x00007641      0x254 ./Dave/Generated/GLOBAL_ACMP/global_acmp_conf.o
 .debug_line    0x00007895      0x252 ./Dave/Generated/EVENT_GENERATOR/event_generator.o
 .debug_line    0x00007ae7      0x1a7 ./Dave/Generated/EVENT_GENERATOR/event_generator_conf.o
 .debug_line    0x00007c8e      0x24f ./Dave/Generated/EVENT_DETECTOR/event_detector.o
 .debug_line    0x00007edd      0x1a4 ./Dave/Generated/EVENT_DETECTOR/event_detector_conf.o
 .debug_line    0x00008081      0x253 ./Dave/Generated/DIGITAL_IO/digital_io.o
 .debug_line    0x000082d4      0x1a8 ./Dave/Generated/DIGITAL_IO/digital_io_conf.o
 .debug_line    0x0000847c       0x78 ./Dave/Generated/CPU_CTRL_XMC1/cpu_ctrl_xmc1_conf.o
 .debug_line    0x000084f4      0x55c ./Dave/Generated/COMP_REF/comp_ref.o
 .debug_line    0x00008a50      0x32a ./Dave/Generated/COMP_REF/comp_ref_conf.o
 .debug_line    0x00008d7a      0x304 ./Dave/Generated/CLOCK_XMC1/clock_xmc1.o
 .debug_line    0x0000907e      0x266 ./Dave/Generated/CLOCK_XMC1/clock_xmc1_conf.o
 .debug_line    0x000092e4      0x245 ./Dave/Generated/ANALOG_IO/analog_io.o
 .debug_line    0x00009529      0x197 ./Dave/Generated/ANALOG_IO/analog_io_conf.o
 .debug_line    0x000096c0      0x612 ./Dave/Generated/DAVE.o
 .debug_line    0x00009cd2      0x833 ./communication.o
 .debug_line    0x0000a505      0x927 ./control_interrupts.o
 .debug_line    0x0000ae2c      0x79d ./init_bckgnd_funct.o
 .debug_line    0x0000b5c9      0x8bf ./main.o

.debug_frame    0x00000000     0x2498
 *(.debug_frame)
 .debug_frame   0x00000000       0x88 ./Startup/system_XMC1400.o
 .debug_frame   0x00000088       0x30 ./Libraries/XMCLib/src/xmc1_eru.o
 .debug_frame   0x000000b8      0x158 ./Libraries/XMCLib/src/xmc1_flash.o
 .debug_frame   0x00000210       0x54 ./Libraries/XMCLib/src/xmc1_gpio.o
 .debug_frame   0x00000264      0x328 ./Libraries/XMCLib/src/xmc1_scu.o
 .debug_frame   0x0000058c       0x48 ./Libraries/XMCLib/src/xmc_acmp.o
 .debug_frame   0x000005d4      0x2a0 ./Libraries/XMCLib/src/xmc_ccu4.o
 .debug_frame   0x00000874      0x340 ./Libraries/XMCLib/src/xmc_ccu8.o
 .debug_frame   0x00000bb4      0x170 ./Libraries/XMCLib/src/xmc_eru.o
 .debug_frame   0x00000d24       0x48 ./Libraries/XMCLib/src/xmc_gpio.o
 .debug_frame   0x00000d6c      0x1d8 ./Libraries/XMCLib/src/xmc_math.o
 .debug_frame   0x00000f44       0xa0 ./Libraries/XMCLib/src/xmc_uart.o
 .debug_frame   0x00000fe4      0x190 ./Libraries/XMCLib/src/xmc_usic.o
 .debug_frame   0x00001174      0x7c0 ./Libraries/XMCLib/src/xmc_vadc.o
 .debug_frame   0x00001934       0x3c ./Libraries/Newlib/syscalls.o
 .debug_frame   0x00001970       0x30 ./LLD_conf_code/adc.o
 .debug_frame   0x000019a0       0xc8 ./Dave/Generated/UART/uart.o
 .debug_frame   0x00001a68       0x30 ./Dave/Generated/UART/uart_conf.o
 .debug_frame   0x00001a98      0x21c ./Dave/Generated/PWM_CCU8/pwm_ccu8.o
 .debug_frame   0x00001cb4      0x15c ./Dave/Generated/PWM_CCU4/pwm_ccu4.o
 .debug_frame   0x00001e10       0x54 ./Dave/Generated/INTERRUPT/interrupt.o
 .debug_frame   0x00001e64       0x40 ./Dave/Generated/GLOBAL_CCU8/global_ccu8.o
 .debug_frame   0x00001ea4       0x40 ./Dave/Generated/GLOBAL_CCU4/global_ccu4.o
 .debug_frame   0x00001ee4       0x40 ./Dave/Generated/GLOBAL_ACMP/global_acmp.o
 .debug_frame   0x00001f24       0x20 ./Dave/Generated/GLOBAL_ACMP/global_acmp_conf.o
 .debug_frame   0x00001f44       0x40 ./Dave/Generated/EVENT_GENERATOR/event_generator.o
 .debug_frame   0x00001f84       0x40 ./Dave/Generated/EVENT_DETECTOR/event_detector.o
 .debug_frame   0x00001fc4       0x40 ./Dave/Generated/DIGITAL_IO/digital_io.o
 .debug_frame   0x00002004       0x20 ./Dave/Generated/CPU_CTRL_XMC1/cpu_ctrl_xmc1_conf.o
 .debug_frame   0x00002024      0x108 ./Dave/Generated/COMP_REF/comp_ref.o
 .debug_frame   0x0000212c       0x50 ./Dave/Generated/CLOCK_XMC1/clock_xmc1.o
 .debug_frame   0x0000217c       0x30 ./Dave/Generated/CLOCK_XMC1/clock_xmc1_conf.o
 .debug_frame   0x000021ac       0x40 ./Dave/Generated/ANALOG_IO/analog_io.o
 .debug_frame   0x000021ec       0x2c ./Dave/Generated/DAVE.o
 .debug_frame   0x00002218       0x80 ./communication.o
 .debug_frame   0x00002298       0x94 ./control_interrupts.o
 .debug_frame   0x0000232c       0xd4 ./init_bckgnd_funct.o
 .debug_frame   0x00002400       0x38 ./main.o
 .debug_frame   0x00002438       0x34 c:/davev4-64bit/dave-4.3.2/eclipse/arm-gcc-49/bin/../lib/gcc/arm-none-eabi/4.9.3/armv6-m\libgcc.a(_muldi3.o)
 .debug_frame   0x0000246c       0x2c c:/davev4-64bit/dave-4.3.2/eclipse/arm-gcc-49/bin/../lib/gcc/arm-none-eabi/4.9.3/../../../../arm-none-eabi/lib/armv6-m\libg_nano.a(lib_a-init.o)

.debug_str      0x00000000     0xf67a
 *(.debug_str)
 .debug_str     0x00000000      0x2e0 ./Startup/system_XMC1400.o
                                0x331 (size before relaxing)
 .debug_str     0x000002e0       0xc0 ./Libraries/XMCLib/src/xmc1_eru.o
                                0x29b (size before relaxing)
 .debug_str     0x000003a0      0x44e ./Libraries/XMCLib/src/xmc1_flash.o
                                0x63b (size before relaxing)
 .debug_str     0x000007ee      0x68c ./Libraries/XMCLib/src/xmc1_gpio.o
                                0x8a9 (size before relaxing)
 .debug_str     0x00000e7a     0x1ff7 ./Libraries/XMCLib/src/xmc1_scu.o
                               0x2357 (size before relaxing)
 .debug_str     0x00002e71      0x112 ./Libraries/XMCLib/src/xmc_acmp.o
                                0x30f (size before relaxing)
 .debug_str     0x00002f83     0x12d5 ./Libraries/XMCLib/src/xmc_ccu4.o
                               0x17c0 (size before relaxing)
 .debug_str     0x00004258     0x1818 ./Libraries/XMCLib/src/xmc_ccu8.o
                               0x1f3b (size before relaxing)
 .debug_str     0x00005a70      0x9c5 ./Libraries/XMCLib/src/xmc_eru.o
                                0xc68 (size before relaxing)
 .debug_str     0x00006435       0xca ./Libraries/XMCLib/src/xmc_gpio.o
                                0x7f7 (size before relaxing)
 .debug_str     0x000064ff      0x696 ./Libraries/XMCLib/src/xmc_math.o
                                0x8e9 (size before relaxing)
 .debug_str     0x00006b95      0x8b7 ./Libraries/XMCLib/src/xmc_uart.o
                                0xb43 (size before relaxing)
 .debug_str     0x0000744c      0x910 ./Libraries/XMCLib/src/xmc_usic.o
                                0xfc4 (size before relaxing)
 .debug_str     0x00007d5c     0x288b ./Libraries/XMCLib/src/xmc_vadc.o
                               0x2e47 (size before relaxing)
 .debug_str     0x0000a5e7       0x77 ./Libraries/Newlib/syscalls.o
                                0x230 (size before relaxing)
 .debug_str     0x0000a65e     0x1798 ./LLD_conf_code/adc.o
                               0x41b7 (size before relaxing)
 .debug_str     0x0000bdf6      0x734 ./Dave/Generated/UART/uart.o
                               0x19bc (size before relaxing)
 .debug_str     0x0000c52a       0xc4 ./Dave/Generated/UART/uart_conf.o
                               0x1306 (size before relaxing)
 .debug_str     0x0000c5ee      0x5ca ./Dave/Generated/PWM_CCU8/pwm_ccu8.o
                               0x2a6f (size before relaxing)
 .debug_str     0x0000cbb8      0x848 ./Dave/Generated/PWM_CCU8/pwm_ccu8_conf.o
                               0x28e1 (size before relaxing)
 .debug_str     0x0000d400      0x95c ./Dave/Generated/PWM_CCU4/pwm_ccu4.o
                               0x2352 (size before relaxing)
 .debug_str     0x0000dd5c      0x31c ./Dave/Generated/PWM_CCU4/pwm_ccu4_conf.o
                               0x1e66 (size before relaxing)
 .debug_str     0x0000e078       0xca ./Dave/Generated/INTERRUPT/interrupt.o
                               0x1731 (size before relaxing)
 .debug_str     0x0000e142       0x47 ./Dave/Generated/INTERRUPT/interrupt_conf.o
                               0x15b0 (size before relaxing)
 .debug_str     0x0000e189       0x46 ./Dave/Generated/GLOBAL_CCU8/global_ccu8.o
                                0x533 (size before relaxing)
 .debug_str     0x0000e1cf       0x31 ./Dave/Generated/GLOBAL_CCU8/global_ccu8_conf.o
                                0x447 (size before relaxing)
 .debug_str     0x0000e200       0x46 ./Dave/Generated/GLOBAL_CCU4/global_ccu4.o
                                0x52d (size before relaxing)
 .debug_str     0x0000e246       0x31 ./Dave/Generated/GLOBAL_CCU4/global_ccu4_conf.o
                                0x433 (size before relaxing)
 .debug_str     0x0000e277       0xfd ./Dave/Generated/GLOBAL_ACMP/global_acmp.o
                                0x319 (size before relaxing)
 .debug_str     0x0000e374       0x5a ./Dave/Generated/GLOBAL_ACMP/global_acmp_conf.o
                                0x2ee (size before relaxing)
 .debug_str     0x0000e3ce       0xd5 ./Dave/Generated/EVENT_GENERATOR/event_generator.o
                                0x455 (size before relaxing)
 .debug_str     0x0000e4a3       0x52 ./Dave/Generated/EVENT_GENERATOR/event_generator_conf.o
                                0x51f (size before relaxing)
 .debug_str     0x0000e4f5       0xed ./Dave/Generated/EVENT_DETECTOR/event_detector.o
                                0x461 (size before relaxing)
 .debug_str     0x0000e5e2       0x8d ./Dave/Generated/EVENT_DETECTOR/event_detector_conf.o
                                0x7d9 (size before relaxing)
 .debug_str     0x0000e66f       0xa8 ./Dave/Generated/DIGITAL_IO/digital_io.o
                                0xa0d (size before relaxing)
 .debug_str     0x0000e717       0x6a ./Dave/Generated/DIGITAL_IO/digital_io_conf.o
                                0x978 (size before relaxing)
 .debug_str     0x0000e781       0x63 ./Dave/Generated/CPU_CTRL_XMC1/cpu_ctrl_xmc1_conf.o
                                0x238 (size before relaxing)
 .debug_str     0x0000e7e4      0x3b6 ./Dave/Generated/COMP_REF/comp_ref.o
                               0x132d (size before relaxing)
 .debug_str     0x0000eb9a      0x23c ./Dave/Generated/COMP_REF/comp_ref_conf.o
                               0x1578 (size before relaxing)
 .debug_str     0x0000edd6      0x138 ./Dave/Generated/CLOCK_XMC1/clock_xmc1.o
                                0x3a7 (size before relaxing)
 .debug_str     0x0000ef0e       0x50 ./Dave/Generated/CLOCK_XMC1/clock_xmc1_conf.o
                                0x5d3 (size before relaxing)
 .debug_str     0x0000ef5e      0x12b ./Dave/Generated/ANALOG_IO/analog_io.o
                                0x3c5 (size before relaxing)
 .debug_str     0x0000f089       0x73 ./Dave/Generated/ANALOG_IO/analog_io_conf.o
                                0x353 (size before relaxing)
 .debug_str     0x0000f0fc       0x65 ./Dave/Generated/DAVE.o
                               0x508d (size before relaxing)
 .debug_str     0x0000f161      0x1a9 ./communication.o
                               0x3086 (size before relaxing)
 .debug_str     0x0000f30a      0x216 ./control_interrupts.o
                               0x2b78 (size before relaxing)
 .debug_str     0x0000f520      0x11e ./init_bckgnd_funct.o
                               0x2be2 (size before relaxing)
 .debug_str     0x0000f63e       0x3c ./main.o
                               0x3c18 (size before relaxing)

.debug_loc      0x00000000     0xc2f6
 *(.debug_loc)
 .debug_loc     0x00000000       0x60 ./Startup/system_XMC1400.o
 .debug_loc     0x00000060      0x6e4 ./Libraries/XMCLib/src/xmc1_flash.o
 .debug_loc     0x00000744      0x133 ./Libraries/XMCLib/src/xmc1_gpio.o
 .debug_loc     0x00000877      0x945 ./Libraries/XMCLib/src/xmc1_scu.o
 .debug_loc     0x000011bc      0x106 ./Libraries/XMCLib/src/xmc_acmp.o
 .debug_loc     0x000012c2      0xc82 ./Libraries/XMCLib/src/xmc_ccu4.o
 .debug_loc     0x00001f44      0xe3e ./Libraries/XMCLib/src/xmc_ccu8.o
 .debug_loc     0x00002d82      0x508 ./Libraries/XMCLib/src/xmc_eru.o
 .debug_loc     0x0000328a       0xe5 ./Libraries/XMCLib/src/xmc_gpio.o
 .debug_loc     0x0000336f      0x452 ./Libraries/XMCLib/src/xmc_math.o
 .debug_loc     0x000037c1      0x2e6 ./Libraries/XMCLib/src/xmc_uart.o
 .debug_loc     0x00003aa7      0x679 ./Libraries/XMCLib/src/xmc_usic.o
 .debug_loc     0x00004120     0x31a9 ./Libraries/XMCLib/src/xmc_vadc.o
 .debug_loc     0x000072c9       0x8a ./Libraries/Newlib/syscalls.o
 .debug_loc     0x00007353       0x6c ./LLD_conf_code/adc.o
 .debug_loc     0x000073bf      0x794 ./Dave/Generated/UART/uart.o
 .debug_loc     0x00007b53       0x20 ./Dave/Generated/UART/uart_conf.o
 .debug_loc     0x00007b73     0x1457 ./Dave/Generated/PWM_CCU8/pwm_ccu8.o
 .debug_loc     0x00008fca      0xcc5 ./Dave/Generated/PWM_CCU4/pwm_ccu4.o
 .debug_loc     0x00009c8f      0x115 ./Dave/Generated/INTERRUPT/interrupt.o
 .debug_loc     0x00009da4       0x7f ./Dave/Generated/GLOBAL_CCU8/global_ccu8.o
 .debug_loc     0x00009e23       0x7f ./Dave/Generated/GLOBAL_CCU4/global_ccu4.o
 .debug_loc     0x00009ea2       0x6c ./Dave/Generated/GLOBAL_ACMP/global_acmp.o
 .debug_loc     0x00009f0e       0x6c ./Dave/Generated/EVENT_GENERATOR/event_generator.o
 .debug_loc     0x00009f7a       0x6c ./Dave/Generated/EVENT_DETECTOR/event_detector.o
 .debug_loc     0x00009fe6       0x6c ./Dave/Generated/DIGITAL_IO/digital_io.o
 .debug_loc     0x0000a052      0x926 ./Dave/Generated/COMP_REF/comp_ref.o
 .debug_loc     0x0000a978       0x82 ./Dave/Generated/CLOCK_XMC1/clock_xmc1.o
 .debug_loc     0x0000a9fa       0x2c ./Dave/Generated/CLOCK_XMC1/clock_xmc1_conf.o
 .debug_loc     0x0000aa26       0x6c ./Dave/Generated/ANALOG_IO/analog_io.o
 .debug_loc     0x0000aa92      0x147 ./Dave/Generated/DAVE.o
 .debug_loc     0x0000abd9     0x132d ./communication.o
 .debug_loc     0x0000bf06      0x18a ./control_interrupts.o
 .debug_loc     0x0000c090      0x14c ./init_bckgnd_funct.o
 .debug_loc     0x0000c1dc      0x11a ./main.o

.debug_macinfo
 *(.debug_macinfo)

.debug_ranges   0x00000000     0x1b28
 *(.debug_ranges)
 .debug_ranges  0x00000000       0x20 ./Startup/startup_XMC1400.o
 .debug_ranges  0x00000020       0x30 ./Startup/system_XMC1400.o
 .debug_ranges  0x00000050       0x18 ./Libraries/XMCLib/src/xmc1_eru.o
 .debug_ranges  0x00000068      0x140 ./Libraries/XMCLib/src/xmc1_flash.o
 .debug_ranges  0x000001a8       0x18 ./Libraries/XMCLib/src/xmc1_gpio.o
 .debug_ranges  0x000001c0      0x278 ./Libraries/XMCLib/src/xmc1_scu.o
 .debug_ranges  0x00000438       0x18 ./Libraries/XMCLib/src/xmc_acmp.o
 .debug_ranges  0x00000450      0x148 ./Libraries/XMCLib/src/xmc_ccu4.o
 .debug_ranges  0x00000598      0x198 ./Libraries/XMCLib/src/xmc_ccu8.o
 .debug_ranges  0x00000730       0x78 ./Libraries/XMCLib/src/xmc_eru.o
 .debug_ranges  0x000007a8       0x18 ./Libraries/XMCLib/src/xmc_gpio.o
 .debug_ranges  0x000007c0       0xe0 ./Libraries/XMCLib/src/xmc_math.o
 .debug_ranges  0x000008a0       0x58 ./Libraries/XMCLib/src/xmc_uart.o
 .debug_ranges  0x000008f8       0xa8 ./Libraries/XMCLib/src/xmc_usic.o
 .debug_ranges  0x000009a0      0x458 ./Libraries/XMCLib/src/xmc_vadc.o
 .debug_ranges  0x00000df8       0x18 ./Libraries/Newlib/syscalls.o
 .debug_ranges  0x00000e10       0x58 ./LLD_conf_code/adc.o
 .debug_ranges  0x00000e68       0x98 ./Dave/Generated/UART/uart.o
 .debug_ranges  0x00000f00       0x58 ./Dave/Generated/UART/uart_conf.o
 .debug_ranges  0x00000f58      0x2a0 ./Dave/Generated/PWM_CCU8/pwm_ccu8.o
 .debug_ranges  0x000011f8      0x2a8 ./Dave/Generated/PWM_CCU4/pwm_ccu4.o
 .debug_ranges  0x000014a0       0x30 ./Dave/Generated/INTERRUPT/interrupt.o
 .debug_ranges  0x000014d0       0x30 ./Dave/Generated/GLOBAL_CCU8/global_ccu8.o
 .debug_ranges  0x00001500       0x30 ./Dave/Generated/GLOBAL_CCU4/global_ccu4.o
 .debug_ranges  0x00001530       0x18 ./Dave/Generated/GLOBAL_ACMP/global_acmp.o
 .debug_ranges  0x00001548       0x10 ./Dave/Generated/GLOBAL_ACMP/global_acmp_conf.o
 .debug_ranges  0x00001558       0x18 ./Dave/Generated/EVENT_GENERATOR/event_generator.o
 .debug_ranges  0x00001570       0x18 ./Dave/Generated/EVENT_DETECTOR/event_detector.o
 .debug_ranges  0x00001588       0x18 ./Dave/Generated/DIGITAL_IO/digital_io.o
 .debug_ranges  0x000015a0       0x10 ./Dave/Generated/CPU_CTRL_XMC1/cpu_ctrl_xmc1_conf.o
 .debug_ranges  0x000015b0      0x168 ./Dave/Generated/COMP_REF/comp_ref.o
 .debug_ranges  0x00001718       0x20 ./Dave/Generated/CLOCK_XMC1/clock_xmc1.o
 .debug_ranges  0x00001738       0x10 ./Dave/Generated/CLOCK_XMC1/clock_xmc1_conf.o
 .debug_ranges  0x00001748       0x18 ./Dave/Generated/ANALOG_IO/analog_io.o
 .debug_ranges  0x00001760       0x10 ./Dave/Generated/DAVE.o
 .debug_ranges  0x00001770       0x70 ./communication.o
 .debug_ranges  0x000017e0      0x200 ./control_interrupts.o
 .debug_ranges  0x000019e0       0x48 ./init_bckgnd_funct.o
 .debug_ranges  0x00001a28      0x100 ./main.o

.debug_weaknames
 *(.debug_weaknames)

.debug_funcnames
 *(.debug_funcnames)

.debug_typenames
 *(.debug_typenames)

.debug_varnames
 *(.debug_varnames)

.build_attributes
                0x00000000      0x9a9
 *(.ARM.attributes)
 .ARM.attributes
                0x00000000       0x21 ./Startup/startup_XMC1400.o
 .ARM.attributes
                0x00000021       0x31 ./Startup/system_XMC1400.o
 .ARM.attributes
                0x00000052       0x31 ./Libraries/XMCLib/src/xmc1_eru.o
 .ARM.attributes
                0x00000083       0x31 ./Libraries/XMCLib/src/xmc1_flash.o
 .ARM.attributes
                0x000000b4       0x31 ./Libraries/XMCLib/src/xmc1_gpio.o
 .ARM.attributes
                0x000000e5       0x31 ./Libraries/XMCLib/src/xmc1_scu.o
 .ARM.attributes
                0x00000116       0x31 ./Libraries/XMCLib/src/xmc_acmp.o
 .ARM.attributes
                0x00000147       0x31 ./Libraries/XMCLib/src/xmc_ccu4.o
 .ARM.attributes
                0x00000178       0x31 ./Libraries/XMCLib/src/xmc_ccu8.o
 .ARM.attributes
                0x000001a9       0x31 ./Libraries/XMCLib/src/xmc_eru.o
 .ARM.attributes
                0x000001da       0x31 ./Libraries/XMCLib/src/xmc_gpio.o
 .ARM.attributes
                0x0000020b       0x31 ./Libraries/XMCLib/src/xmc_math.o
 .ARM.attributes
                0x0000023c       0x31 ./Libraries/XMCLib/src/xmc_uart.o
 .ARM.attributes
                0x0000026d       0x31 ./Libraries/XMCLib/src/xmc_usic.o
 .ARM.attributes
                0x0000029e       0x31 ./Libraries/XMCLib/src/xmc_vadc.o
 .ARM.attributes
                0x000002cf       0x31 ./Libraries/Newlib/syscalls.o
 .ARM.attributes
                0x00000300       0x31 ./LLD_conf_code/adc.o
 .ARM.attributes
                0x00000331       0x31 ./Dave/Generated/UART/uart.o
 .ARM.attributes
                0x00000362       0x31 ./Dave/Generated/UART/uart_conf.o
 .ARM.attributes
                0x00000393       0x31 ./Dave/Generated/PWM_CCU8/pwm_ccu8.o
 .ARM.attributes
                0x000003c4       0x31 ./Dave/Generated/PWM_CCU8/pwm_ccu8_conf.o
 .ARM.attributes
                0x000003f5       0x31 ./Dave/Generated/PWM_CCU4/pwm_ccu4.o
 .ARM.attributes
                0x00000426       0x31 ./Dave/Generated/PWM_CCU4/pwm_ccu4_conf.o
 .ARM.attributes
                0x00000457       0x31 ./Dave/Generated/INTERRUPT/interrupt.o
 .ARM.attributes
                0x00000488       0x31 ./Dave/Generated/INTERRUPT/interrupt_conf.o
 .ARM.attributes
                0x000004b9       0x31 ./Dave/Generated/GLOBAL_CCU8/global_ccu8.o
 .ARM.attributes
                0x000004ea       0x31 ./Dave/Generated/GLOBAL_CCU8/global_ccu8_conf.o
 .ARM.attributes
                0x0000051b       0x31 ./Dave/Generated/GLOBAL_CCU4/global_ccu4.o
 .ARM.attributes
                0x0000054c       0x31 ./Dave/Generated/GLOBAL_CCU4/global_ccu4_conf.o
 .ARM.attributes
                0x0000057d       0x31 ./Dave/Generated/GLOBAL_ACMP/global_acmp.o
 .ARM.attributes
                0x000005ae       0x31 ./Dave/Generated/GLOBAL_ACMP/global_acmp_conf.o
 .ARM.attributes
                0x000005df       0x31 ./Dave/Generated/EVENT_GENERATOR/event_generator.o
 .ARM.attributes
                0x00000610       0x31 ./Dave/Generated/EVENT_GENERATOR/event_generator_conf.o
 .ARM.attributes
                0x00000641       0x31 ./Dave/Generated/EVENT_DETECTOR/event_detector.o
 .ARM.attributes
                0x00000672       0x31 ./Dave/Generated/EVENT_DETECTOR/event_detector_conf.o
 .ARM.attributes
                0x000006a3       0x31 ./Dave/Generated/DIGITAL_IO/digital_io.o
 .ARM.attributes
                0x000006d4       0x31 ./Dave/Generated/DIGITAL_IO/digital_io_conf.o
 .ARM.attributes
                0x00000705       0x31 ./Dave/Generated/CPU_CTRL_XMC1/cpu_ctrl_xmc1_conf.o
 .ARM.attributes
                0x00000736       0x31 ./Dave/Generated/COMP_REF/comp_ref.o
 .ARM.attributes
                0x00000767       0x31 ./Dave/Generated/COMP_REF/comp_ref_conf.o
 .ARM.attributes
                0x00000798       0x31 ./Dave/Generated/CLOCK_XMC1/clock_xmc1.o
 .ARM.attributes
                0x000007c9       0x31 ./Dave/Generated/CLOCK_XMC1/clock_xmc1_conf.o
 .ARM.attributes
                0x000007fa       0x31 ./Dave/Generated/ANALOG_IO/analog_io.o
 .ARM.attributes
                0x0000082b       0x31 ./Dave/Generated/ANALOG_IO/analog_io_conf.o
 .ARM.attributes
                0x0000085c       0x31 ./Dave/Generated/DAVE.o
 .ARM.attributes
                0x0000088d       0x31 ./communication.o
 .ARM.attributes
                0x000008be       0x31 ./control_interrupts.o
 .ARM.attributes
                0x000008ef       0x31 ./init_bckgnd_funct.o
 .ARM.attributes
                0x00000920       0x31 ./main.o
 .ARM.attributes
                0x00000951       0x2c c:/davev4-64bit/dave-4.3.2/eclipse/arm-gcc-49/bin/../lib/gcc/arm-none-eabi/4.9.3/armv6-m\libgcc.a(_muldi3.o)
 .ARM.attributes
                0x0000097d       0x2c c:/davev4-64bit/dave-4.3.2/eclipse/arm-gcc-49/bin/../lib/gcc/arm-none-eabi/4.9.3/../../../../arm-none-eabi/lib/armv6-m\libg_nano.a(lib_a-init.o)
OUTPUT(XMC14_3300W_TPBiDi.elf elf32-littlearm)
